:020000040800F2
:1000000060070020CD010008650500085D050008B7
:100010006105000815030008C70C00080000000077
:1000200000000000000000000000000005070008BC
:100030001903000800000000ED0500081908000879
:10004000E7010008E7010008E7010008E7010008F0
:10005000E7010008E7010008E7010008E7010008E0
:10006000E7010008E7010008E7010008E7010008D0
:10007000E7010008E7010008E7010008E7010008C0
:10008000E7010008E7010008E7010008E7010008B0
:10009000E7010008E7010008E7010008E7010008A0
:1000A000E7010008E7010008E7010008E701000890
:1000B000E70100087D080008E7010008E7010008E3
:1000C000E7010008E7010008E7010008E701000870
:1000D000E7010008E7010008A50A0008E701000899
:1000E000E7010008E7010008E7010008E701000850
:1000F000E7010008E7010008E7010008E701000840
:10010000E7010008E7010008E7010008E70100082F
:10011000E7010008E7010008E7010008E70100081F
:10012000E7010008E7010008E7010008E70100080F
:1001300000F002F800F03AF80AA090E8000C8244BF
:100140008344AAF10107DA4501D100F02FF8AFF29C
:10015000090EBAE80F0013F0010F18BFFB1A43F0A5
:10016000010318476412000084120000103A24BFF3
:1001700078C878C1FAD8520724BF30C830C144BF0C
:1001800004680C607047000000230024002500264E
:10019000103A28BF78C1FBD8520728BF30C148BFEA
:1001A0000B6070471FB51FBD10B510BD00F06EF895
:1001B0001146FFF7F7FF00F007FE00F0A0F803B4C8
:1001C000FFF7F2FF03BC00F080FD00000948804704
:1001D00009480047FEE7FEE7FEE7FEE7FEE7FEE729
:1001E000FEE7FEE7FEE7FEE704480549054A064B41
:1001F000704700001D080008310100086001002060
:1002000060070020600300206003002070470000AA
:100210000FB4044910B503AA029800F009F810BC05
:100220005DF814FB18000020704770477047704756
:10023000074B70B50D467B4400F011F80446284684
:1002400000F020F810B14FF0FF3070BD204670BDB7
:10025000730B000001694A1C02610878704700B501
:100260008FB0CDE901310021059105497944CDE9EF
:1002700003101146684600F02EF80FB000BD0000D4
:10028000E5FFFFFF007B00F080007047754600F03F
:100290003DF8AE4605006946534620F00700854606
:1002A00018B020B5FFF7A0FFBDE820404FF00006D2
:1002B0004FF000074FF000084FF0000B21F007014E
:1002C000AC46ACE8C009ACE8C009ACE8C009ACE891
:1002D000C0098D4670472DE9F04106460024D6E955
:1002E0000170F5688046304603E04146B847641C1B
:1002F0003046A8470028F8D12046BDE8F0810446E2
:10030000AFF300802046FFF75AFF00000048704717
:10031000FC00002000BFFEE770472DE9F0410246D7
:1003200000250026002000230024002791F803C0A8
:100330000CF00F0591F803C00CF0100CBCF1000F8D
:1003400003D091F802C04CEA050591F800C0BCF159
:10035000000F31D0146800202BE04FF0010C0CFA94
:1003600000F3B1F800C00CEA03069E4220D18300DE
:100370004FF00F0C0CFA03F7BC4305FA03FC4CEAF0
:10038000040491F803C0BCF1280F06D14FF0010C12
:100390000CFA00FCC2F814C00AE091F803C0BCF1EA
:1003A000480F05D14FF0010C0CFA00FCC2F810C048
:1003B000401C0828D1D31460B1F800C0BCF1FF0F75
:1003C00034DD546800202EE000F1080C4FF00108E5
:1003D00008FA0CF3B1F800C00CEA03069E4221D1E2
:1003E00083004FF00F0C0CFA03F7BC4305FA03FC33
:1003F0004CEA040491F803C0BCF1280F05D100F1C8
:10040000080C08FA0CF8C2F8148091F803C0BCF18B
:10041000480F07D100F1080C4FF0010808FA0CF85A
:10042000C2F81080401C0828CED35460BDE8F0818B
:10043000F0B50A46002300240021002500F0004604
:10044000B6F1004F02D11D4EF16901E01B4E7168FB
:10045000C0F3034583B200F44016B6F5401F08D13F
:1004600021F07061154E766826F07066134F7E603D
:1004700012E000F48016B6F5801F06D1032606FAB6
:1004800005F4A14341F0706106E0460D360103FA20
:1004900006F6B14341F0706122B1460D360103FA10
:1004A00006F6314300F00046B6F1004F02D1034E8C
:1004B000F16101E0014E7160F0BD000000000140FB
:1004C000416170472DE9F047002401201C49086074
:1004D000142000F045FC00201A49C1F8980100BF23
:1004E000194800680028FBD00121184800F0D7F90E
:1004F00000BF154800680028FBD10021134800F018
:10050000CEF91348007808B1124C0EE00F4800F005
:10051000D2F9814600F064FE074600220E4B00F03F
:1005200007FD054600F0D2FC04460021074800F014
:10053000FFF90020064908702046BDE8F08700005A
:1005400098012242000022423C81214200040040E6
:10055000320000200000C84300004D4000BFFEE70D
:1005600000BFFEE77047000070B5002100230F2296
:10057000C47804B3154C246804F4E064C4F5E06462
:10058000210AC1F10403CA40447804FA03F18478D3
:100590001440214309010E4C0678A155047804F05B
:1005A0001F050124AC4005786D11AD0005F1E02573
:1005B000C5F8004109E0047804F01F050124AC40AF
:1005C000044D0678761145F8264070BD0CED00E02C
:1005D00000E400E080E100E002490143024A1160CA
:1005E000704700000000FA050CED00E070470000C5
:1005F00029B1064AD2690243044BDA6104E0034A96
:10060000D2698243014BDA6170470000001002405A
:1006100029B1064A92690243044B9A6104E0034AF5
:1006200092698243014B9A617047000000100240BA
:1006300030B500210022002400232D4D6D6805F007
:100640000C0121B1042905D0082923D105E0294D49
:10065000056022E0274D05601FE0254D6D6805F41B
:100660007012234D6D6805F48034022505EB92422B
:100670001CB9214D554305600BE01D4D6D6805F417
:1006800000351DB11C4D5543056002E0194D554321
:10069000056002E0174D056000BF00BF144D6D6896
:1006A00005F0F0010909154D6B5C0568DD404560FA
:1006B0000F4D6D6805F4E061090A104D6B5C4568EB
:1006C000DD4085600A4D6D6805F46051C90A0B4D27
:1006D0006B5C4568DD40C560054D6D6805F44041C3
:1006E000890B074D6B5CC568B5FBF3F5056130BD43
:1006F0000010024000127A0000093D001E00002098
:100700002E000020704710B500F002F810BD000068
:100710000CB50020019000903348006840F4803010
:100720003149086000BF3048006800F40030009094
:100730000198401C0190009818B90198B0F5A06F7D
:10074000F1D12948006800F4003010B10120009078
:1007500001E0002000900098012843D12348006860
:1007600040F01000214908600846006820F00300AE
:1007700008600846006840F0020008601A484068B7
:10078000194948600846406848600846406840F497
:10079000806048600846406820F47C104860084645
:1007A000406840F4E81048600846006840F08070F7
:1007B000086000BF0C48006800F000700028F9D005
:1007C0000948406820F0030007494860084640682F
:1007D00040F00200486000BF0348406800F00C0091
:1007E0000828F9D10CBD0000001002400020024092
:1007F000042808D14FF0E021096941F004014FF0CD
:10080000E022116107E04FF0E021096921F00401C5
:100810004FF0E022116170477047000010B5134897
:10082000006840F00100114908600846406810491E
:1008300008400E494860084600680E4908400B49C8
:1008400008600846006820F4802008600846406878
:1008500020F4FE0048604FF41F008860FFF753FF4C
:100860004FF000600449086010BD00000010024015
:100870000000FFF8FFFFF6FE08ED00E010B50120D4
:10088000034908700121034800F006F810BD00007C
:100890003200002000040040CA430282704721B1A8
:1008A000028842F00102028004E002884FF6FE73E3
:1008B0001A40028070470146888C70471AB18389BC
:1008C0000B43838102E083898B438381704700005F
:1008D0007FB505460C461D208DF8000001208DF8DF
:1008E000010002208DF8020001208DF80300684607
:1008F000FFF73AFE01210220FFF77AFEADF808501B
:10090000ADF804400020ADF80A00ADF8060001A9DA
:10091000064800F00FF800210448FFF7C0FF01224D
:1009200011460248FFF7CAFF7FBD000000040040E7
:1009300081847047002202881D4B98420ED01D4BC7
:1009400098420BD0B0F1804F08D01B4B984205D095
:100950001A4B984202D01A4B984204D14FF68F732B
:100960001A404B881A43174B984207D0164B9842AF
:1009700004D04FF6FF431A40CB881A4302808B887D
:1009800083850B8803850A4B98420BD0094B98420C
:1009900008D00E4B984205D00D4B984202D00D4B1B
:1009A000984201D10B7A03860123838270470000AD
:1009B000002C0140003401400004004000080040C9
:1009C000000C0040001000400014004000400140B6
:1009D000004401400048014008B501211820FFF7FC
:1009E00017FE01210846FFF713FE01212A48FFF7F1
:1009F0001FFD10208DF8030003208DF80200402019
:100A0000ADF8000069462548FFF787FC4FF4005019
:100A1000ADF8000069462248FFF77FFC1020ADF8D2
:100A2000000069461E48FFF778FC4FF400511C484F
:100A3000FFF746FD40211948FFF742FD10211848F5
:100A4000FFF73EFD28208DF803004FF40040ADF87D
:100A5000000069461248FFF760FC4FF48050ADF883
:100A6000000069460E48FFF758FC0820ADF800006A
:100A700069460B48FFF751FC4FF400410848FFF767
:100A80001FFD4FF480510648FFF71AFD0821044866
:100A9000FFF716FD08BD0000000230000010014005
:100AA000000C014010B540F225511D4800F04AF8F5
:100AB00010B31B4800F002F9C4B21A48008800F4D1
:100AC0000040C8B91748008800F4804060B10A2C83
:100AD00003D000201349088020E01248008840F429
:100AE00000401049088019E00D2C06D10D480088FF
:100AF00040F480400B49088010E00A480088C0F3A9
:100B00000D0009490C5407480088401C054908801D
:100B100008460088C72801DD0020088010BD0000BD
:100B2000004400401C0000203400002021B18289D4
:100B300042F40052828104E082894DF6FF731A402C
:100B40008281704770B502460024002300250020F2
:100B500040F66A16B14200D100BFC1F3421501F060
:100B60001F03012606FA03F3012D02D196893340B3
:100B700006E0022D02D1168A334001E0968A334006
:100B80000C12012606FA04F41688344013B10CB195
:100B9000012000E0002070BDF0B5034600240026CF
:100BA0000025002040F66A17B94200D100BF184660
:100BB000C1F3421401F01F06012707FA06F5012CC4
:100BC00001D10C3004E0022C01D1103000E01430CF
:100BD0001AB107682F43076002E00768AF43076058
:100BE000F0BD00002DE9F04786B005460E46002412
:100BF000A24600BFA1460027B08900B100BF2F4622
:100C00002C8A4CF6FF700440F08804432C82AC8997
:100C10004EF6F3100440B0883189084371890843C7
:100C20000443AC81AC8A4FF6FF400440B0890443D2
:100C3000AC8201A8FFF7FCFC1F48874202D1DDF817
:100C400010A001E0DDF80CA0A88900F4004040B13C
:100C50000AEBCA0000EB0A1031684900B0FBF1F85A
:100C600007E00AEBCA0000EB0A1031688900B0FB0C
:100C7000F1F86420B8FBF0F004012009642101FBC5
:100C80001089A88900F4004040B1322000EBC9006F
:100C9000B0FBF1F000F00700044308E0322000EB65
:100CA00009106421B0FBF1F000F00F0004432C8127
:100CB00006B0BDE8F0870000003801400146888892
:100CC000C0F30800704700BFFEE7014600BF704751
:100CD00010B56FF00400FFF78BFD0A4800680A4961
:100CE000B0FBF1F0094908700846007800EB4001BC
:100CF000C1EBC0104FF6FF7101EAC0000449088043
:100D000010BD00000000002000127A001400002036
:100D1000160000200146114A12884A434FF0E02392
:100D20005A6100229A611A46126942F001021A6160
:100D300000BF4FF0E022106900F001021AB100F488
:100D40008032002AF5D04FF0E022126922F0010231
:100D50004FF0E0231A6100229A61704716000020CC
:100D60000146114A12784A434FF0E0235A610022AB
:100D70009A611A46126942F001021A6100BF4FF0EF
:100D8000E022106900F001021AB100F48032002A5A
:100D9000F5D04FF0E022126922F001024FF0E0237B
:100DA0001A6100229A6170471400002000BF054AB2
:100DB000128802F04002002AF9D0C2B2014B1B1D7A
:100DC0001A807047004400404FF4E13000F02CF8E6
:100DD0004FF4A060FFF700FCFFF77AFF47214FF6C2
:100DE000FF70FFF775FDFFF7F7FD09A0FFF710FA99
:100DF0000DE0FFF767FB04460949204600F064FA5E
:100E000002D208A0FFF704FA6420FFF783FFF0E79F
:100E100048656C6C6F20576F726C64210D0A00007E
:100E20000000A041360D0A0010B586B0044601212D
:100E30000420FFF7EDFB01214804FFF7D9FB042054
:100E4000ADF8140003208DF8160018208DF8170057
:100E500005A91C48FFF761FA0820ADF8140004202A
:100E60008DF8170005A91748FFF757FA26208DF8C7
:100E7000000003208DF801008DF8020001208DF89C
:100E800003006846FFF770FB01940020ADF80800EE
:100E9000ADF80A00ADF80C00ADF810000C20ADF86C
:100EA0000E0001A90848FFF79DFE012240F22551DE
:100EB0000548FFF771FE01210348FFF737FE06B032
:100EC00010BD0000000801400044004021F0004235
:100ED000A2F16052B2F5801F01F0004328BFD2F1A9
:100EE0007F6C0BD95FEA001C43EAC20242EB5070F0
:100EF00018BF704728BF20F001007047B2F5801F6F
:100F0000BCBF184670474FEA410C1CF5001F02D2C7
:100F1000084600F053BA70B500F075F9000000897A
:100F2000FFF7F6BF4FF00040A0F5800070470000CB
:100F30002DE9C04130B4DFF8A0C23CEA111418BF5B
:100F40003CEA131400F0EC8081EA03051CEA11145A
:100F500044EAD57418BF1CEA131500F0C780A4EB4F
:100F600005044FF0004545EAC12145EAC32341EAA3
:100F7000505143EA525304F17F74994204F500340E
:100F80004FEAC0204FEAC22208BF904200F09C8086
:100F90004FEA13650FF24016765D4FEA134506FBE4
:100FA00005F7C7F1807706FB07F74FEAD737A7FBAE
:100FB00003687642C8F58038A7FB06CE38BFA8F193
:100FC000010807FB08E64FF0000EA6FB028CE6FBCB
:100FD00003CEDCF1000CCEF1004E38BFAEF1010EB5
:100FE000A6FB0C584FF000074FF00005E6FB0E87FC
:100FF000A1FB08C6A0FB07CE16EB0E0645F10005C7
:10100000E1FB076515F1E04E7EBFA4F580345FEA91
:1010100046066D4116F1800745F100054FEA172796
:101020004FEA066647EA0567A6F1DE46B6F1805F3D
:101030004FEA15251FD9384624F0010C05EBC47181
:10104000BCF1FE6F01EB0C1102D8F0BCBDE80081D1
:1010500024425CBF01F5801E9EEAC47F02D4F0BC2E
:10106000BDE80081244238D4F0BCA1F1C041BDE804
:10107000004100F016B94FEAD22242EA43524FEA49
:10108000D323A7FB02864FEAD02040EA415007FB5A
:1010900003661EEA0E0F4FEAD12105FB026658BF18
:1010A000A6EB0056B6EB00564FEA520E4EEAC37E50
:1010B00018EB0E0E56EB530EBDD518EB02085E4131
:1010C0007F1C55F10005B6E74FF480154FF000077F
:1010D0004FF000064FF00008ADE7F0BC4FF0000005
:1010E00001F1C04101F00041BDE8008111EA0C1F8F
:1010F0000CEA131500D00CE013EA0C1F00F0258059
:101100004FF00000F0BC81EA030101F00041BDE8AE
:101110000081F0BCBDE8004181EA030100F0C1B8E4
:10112000F0BCBDE8004170B500F06DF8097EFC3EF2
:1011300000F007B881EA03014FF0000001F0004120
:10114000704781EA030100F0ACB8F0BCBDE8004193
:101150004FF0000021497047FFFDFBF9F7F5F4F26D
:10116000F0EEEDEBE9E8E6E4E3E1E0DEDDDBDAD842
:10117000D7D5D4D3D1D0CFCDCCCBCAC8C7C6C5C4A0
:10118000C2C1C0BFBEBDBCBBBAB9B8B7B6B5B4B3B7
:10119000B2B1B0AFAEADACABAAA9A8A8A7A6A5A4A2
:1011A000A3A3A2A1A09F9F9E9D9C9C9B9A99999866
:1011B0009797969595949393929191908F8F8E8E09
:1011C0008D8C8C8B8B8A8989888887878685858496
:1011D00084838382828181800000FF070000F87F82
:1011E000B0FA80F310FA03F10AD0C3F11D0303F53E
:1011F00080634FEA41504FEA035202EBD12170471E
:101200004FF0000070470EF1020E2EF0030E5EF854
:10121000046B364205D4012A43EB030515F5001F84
:1012200012D8012841EB010C1CF5001F0CD80ED17F
:101230004FEAD17C15F5001F0CEB4C0C0CF1020CA5
:1012400008BF4CEBD37C04E04FF0080C01E04FEA00
:10125000D37C0CEB4C0526FA05F606F00706B6F132
:10126000040C06D20EEB860CBDE870404CF0010C6D
:101270006047DFE80CF0090B02024FF000414FF02D
:101280000000A1F5002170BD19461046012851EB60
:10129000010418BFD4F5001484BF002001F0004100
:1012A00070BD0808A0F500114FEA310170474010E9
:1012B00058BFC0F14040491058BFC1F14041814280
:1012C000EFF300807047000050EA010C00F113803A
:1012D0001CF5000F58BFBCF5000F01D488427047C1
:1012E00007D710F5000F58BF11F5000F15D488422D
:1012F0007047894270471CF5000F04D5BCF5000FFC
:10130000F7D5814270474FF0807C1CEB400F38BF0F
:101310001CEB410F01D28142704710B500F008F874
:10132000922449004FF000504FF08051FFF7BFBFAB
:101330000EF1020E2EF0030E5EF8044B244204D48C
:101340004FEA4102B2F17F4F11D84FEA4003B3F1A7
:101350007F4F0CD80ED14FEAD07CB2F17F4F0CEB0F
:101360004C0C0CF1020C08BF4CEBD17C04E04FF0AC
:10137000080C01E04FEAD17C0CEB4C0324FA03F497
:1013800004F00704B4F1040C06D20EEB840CBDE8A3
:1013900010404CF0010C6047DFE80CF00708020237
:1013A0004FF00040A0F5800010BD0846420018BF75
:1013B000D2F1807288BF00F0004010BDFF2141EAE9
:1013C000D050C00570470000E8130008000000205E
:1013D000340000006C0100081C14000834000020D8
:1013E0002C0700008801000800A24A040000000049
:1013F00000000000010203040607080900000000C5
:1014000000000000000000000000010203040102CF
:0C14100003040607080902040608000097
:04000005080001CD21
:00000001FF
