:020000040800F2
:10000000E004002045010008B70B0008A10B000820
:10001000B30B0008A1010008011200080000000055
:10002000000000000000000000000000A50D000816
:10003000F909000800000000490C0008B90E00088A
:100040005F0100085F0100085F0100085F01000810
:100050005F0100085F0100085F0100085F01000800
:100060005F0100085F0100085F0100085F010008F0
:100070005F0100085F0100085F0100085F010008E0
:100080005F0100085F0100085F0100085F010008D0
:10009000D51100085F0100085F0100085F0100083A
:1000A0005F0100085F0100085F0100085F010008B0
:1000B0005F0100085F0100085F0100085F010008A0
:1000C0005F0100085F0100085F0100085F01000890
:1000D0005F010008450F00085F0100085F0100088C
:1000E0005F0100085F0100085F0100085F01000870
:1000F0005F0100085F0100085F0100085F01000860
:100100005F0100085F0100085F0100085F0100084F
:100110005F0100085F0100085F0100085F0100083F
:100120005F0100085F0100085F0100085F0100082F
:10013000DFF80CD000F018F80048004769120008FA
:10014000E00400200648804706480047FEE7FEE737
:10015000FEE7FEE7FEE7FEE7FEE7FEE7FEE7FEE777
:10016000BD0E000831010008064C074D06E0E068AE
:1001700040F0010394E8070098471034AC42F6D3EE
:10018000FFF7DAFF2C1300084C13000810B501F03C
:1001900049F800F011FD00F0FBFE00F003F810BD7F
:1001A00000BFFEE700B589B00121092000F080FD05
:1001B0000121480600F05CFD01214FF4EA1000F037
:1001C000A7FC03208DF816004FF48070ADF81400E2
:1001D00048208DF8170005A92B4800F00EFC4FF4BD
:1001E0000070ADF8140018208DF8170005A92648F6
:1001F00000F003FC14208DF8100000208DF8110091
:100200008DF8120001208DF8130004A800F0DAFC2C
:100210001E4800F03DF806A800F042FB01208DF8D2
:100220001F008DF8200000208DF81B0004208DF8A1
:100230001C0002208DF81D000420ADF8180006A94E
:10024000124800F05EF900208DF80A008DF80B00CE
:1002500001208DF80C004020ADF800000020ADF822
:100260000200ADF80400ADF80600ADF8080001206A
:100270008DF80D00684600F027F80122022103489E
:1002800000F036F909B000BD000C014000640040E8
:1002900010B504460B48844209D10121480600F0FC
:1002A000F7FC00214FF0007000F0F2FC08E00121A3
:1002B000880600F0EDFC00214FF0806000F0E8FCC3
:1002C00010BD00000064004010B50021837A0122B7
:1002D00002FA03F13D4A126842F001023B4B1A60F8
:1002E0003A4A1C3212688A43384B1C331A60027B2C
:1002F000CAB9364A0C3212688A43344B0C331A603E
:100300004288C38842EA0343304A4032847A42F842
:1003100034300288838842EA03432C4A4032847A8C
:1003200002EBC4025360027B012A19D1274A0C3226
:1003300012680A43254B0C331A604288038842EA4C
:100340000343224A4032847A42F83430C288838898
:1003500042EA03431D4A4032847A02EBC4025360EE
:10036000C27A3AB9194A121D12688A43174B1B1DEB
:100370001A6006E0154A121D12680A43134B1B1D32
:100380001A60028932B9114A143212688A430F4B3B
:1003900014331A600289012A06D10C4A14321268F9
:1003A0000A430A4B14331A60427B012A06D1074ADA
:1003B0001C3212680A43054B1C331A60034A126848
:1003C00022F00102014B1A6010BD000000660040DF
:1003D00070B504460D46002660692840002871D09B
:1003E000B5F5807F5CD010DC082D35D006DC012D02
:1003F00020D0022D24D0042D72D127E0102D31D031
:10040000202D35D0402D6BD138E0B5F5004F60D0B0
:1004100009DCB5F5007F49D0B5F5806F4CD0B5F556
:10042000006F5DD14FE0B5F5803F2DD0B5F5003FB1
:1004300056D12FE0A0682D4900F0D5FA064651E0CC
:10044000E068032100F0CFFA06464BE0E06808219F
:1004500000F0C9FA064645E0E068102100F0C3FA52
:1004600006463FE02069032100F0BDFA064639E068
:100470002069082100F0B7FA064633E02069102110
:1004800000F0B1FA06462DE06068082100F0ABFAF2
:10049000064627E06068102100F0A5FA064621E034
:1004A000A069012100F09FFA06461BE0A069022125
:1004B00000F099FA064615E0A069042100F093FACD
:1004C00006460FE00FE0A069702100F08CFA0646A6
:1004D00008E06068042100F086FA064602E0FFE7C3
:1004E000002600BF00E00026304670BD010101007B
:1004F0001AB143690B43436102E043698B43436193
:10050000704730B5024600200023146824F002042E
:100510001460146844F00104146000E05B1C54682B
:1005200004F001041CB94FF6FF74A342F6D15468DD
:1005300004F001040CB900206CE08C79012C04D18A
:10054000146844F08004146003E0146824F080040C
:100550001460CC79012C04D1146844F04004146078
:1005600003E0146824F0400414600C7A012C04D1D8
:10057000146844F02004146003E0146824F020049C
:1005800014604C7A012C04D1146844F010041460F7
:1005900003E0146824F0100414608C7A012C04D158
:1005A000146844F00804146003E0146824F008049C
:1005B0001460CC7A012C04D1146844F00404146053
:1005C00003E0146824F0040414608C78A407CD7848
:1005D00044EA05640D7944EA05444D7944EA05543A
:1005E0000D886D1E2C43D461146824F0010414603E
:1005F000002300E05B1C546804F001041CB14FF6BA
:10060000FF74A342F6D1546804F001040CB1002039
:1006100000E0012030BD10B500F5D87303EB0113E5
:100620001B6803F004031372137A53B900F5D873EF
:1006300003EB01131B6840F2FF7404EA5353136089
:1006400009E000F5D87303EB01131B686FF06044F9
:1006500004EAD303536000F5D87303EB01131B685E
:1006600003F00203537200F5D87303EB01135B68C8
:1006700003F00F03937200F5D87303EB01135B686B
:100680001B0AD37400F5D87303EB01139B68D37274
:1006900000F5D87303EB01139B681C0A147300F573
:1006A000D87303EB01139B681C0C547300F5D873CB
:1006B00003EB01139B681B0E937300F5D87303EBD8
:1006C0000113DB68D37300F5D87303EB0113DB6808
:1006D0001C0A147400F5D87303EB0113DB681C0CBF
:1006E000547400F5D87303EB0113DB681B0E93748D
:1006F00021B9C36843F02003C36003E0036943F0FA
:100700002003036110BD000070B5C1E0614890F89E
:10071000420008B9002070BD5F480078052823D248
:10072000DFE800F003235C79A2005A4800F0F6FBF2
:10073000044604F00F00594988720846807A082858
:1007400002DD00205449087004F0F00038B90020A0
:1007500052490872487203204F49087003E0002094
:100760004D49087000BF00BF91E04A4800F0D6FB39
:100770000446484800F0D2FB00EB0424454800F052
:10078000CDFB00EB0424434800F0C8FB00EB042041
:10079000424948600846807A3E4991F842108842B2
:1007A00007DD00203C4908703A4800F0FBF90020C2
:1007B000B1E7002506E0374800F0B0FB37490B31C0
:1007C00048556D1C3548807AA842F4D8002032493B
:1007D0000870304800F0E6F901209CE72D4800F051
:1007E0009DFB04462B4800F099FB00EB04242948AC
:1007F00000F094FB00EB0424264800F08FFB00EB94
:10080000042026494860002023490870214800F050
:10081000C9F901207FE71F4800F080FB04461D480E
:1008200000F07CFB00EB042460091C4908600846CA
:10083000807A184991F84210884203DD0020164959
:10084000087068E7002506E0124800F067FB1349CE
:100850000B3148556D1C1148807AA842F4D800200D
:100860000D490870012056E70A4800F057FB04467E
:10087000084800F053FB00EB042008490860002002
:1008800005490870034800F08DF9012043E700BFD7
:100890003CE7000058000020290000203000002024
:1008A00000218171C171017241728172C1728170C6
:1008B000C170032101710221417101210180704742
:1008C00010B502460020936803F08063B3F1806F97
:1008D00000D110E0936803F00063B3F1006F01D121
:1008E000012008E0936803F08053B3F1805F01D1E9
:1008F000022000E00420042874D002F5C07303EB4A
:1009000000131B6803F0010402F5C07303EB00132E
:100910001C600B7A7BB94B7A0C8843EA445302F58E
:10092000C07404EB00142468234302F5C07404EB84
:100930000014236010E00B7A4C6843EAC4034C7A3D
:10094000234302F5C07404EB00142468234302F52A
:10095000C07404EB001423608B7A03F00F038B72D6
:1009600002F5C07303EB00135B6823F00F0402F57C
:10097000C07303EB00135C6002F5C07303EB00135C
:100980005B688C7A234302F5C07404EB0014636047
:100990008B7B1C064B7B44EA03440B7B44EA03231A
:1009A000CC7A234302F5C07404EB0014A3608B7C63
:1009B0001C064B7C44EA03440B7C44EA0323CC7BB7
:1009C000234302F5C07404EB0014E36002F5C07326
:1009D00003EB00131B6843F0010402F5C07303EB43
:1009E00000131C6010BD0246002002EA01030BB197
:1009F000012000E00020704770472DE9F0410246D9
:100A000000250026002000230024002791F803C0C1
:100A10000CF00F0591F803C00CF0100CBCF1000FA6
:100A200003D091F802C04CEA050591F800C0BCF172
:100A3000000F31D0146800202BE04FF0010C0CFAAD
:100A400000F3B1F800C00CEA03069E4220D18300F7
:100A50004FF00F0C0CFA03F7BC4305FA03FC4CEA09
:100A6000040491F803C0BCF1280F06D14FF0010C2B
:100A70000CFA00FCC2F814C00AE091F803C0BCF103
:100A8000480F05D14FF0010C0CFA00FCC2F810C061
:100A9000401C0828D1D31460B1F800C0BCF1FF0F8E
:100AA00034DD546800202EE000F1080C4FF00108FE
:100AB00008FA0CF3B1F800C00CEA03069E4221D1FB
:100AC00083004FF00F0C0CFA03F7BC4305FA03FC4C
:100AD0004CEA040491F803C0BCF1280F05D100F1E1
:100AE000080C08FA0CF8C2F8148091F803C0BCF1A5
:100AF000480F07D100F1080C4FF0010808FA0CF874
:100B0000C2F81080401C0828CED35460BDE8F081A4
:100B1000F0B50A46002300240021002500F000461D
:100B2000B6F1004F02D11D4EF16901E01B4E716814
:100B3000C0F3034583B200F44016B6F5401F08D158
:100B400021F07061154E766826F07066134F7E6056
:100B500012E000F48016B6F5801F06D1032606FACF
:100B600005F4A14341F0706106E0460D360103FA39
:100B700006F6B14341F0706122B1460D360103FA29
:100B800006F6314300F00046B6F1004F02D1034EA5
:100B9000F16101E0014E7160F0BD00000000014014
:100BA00000BFFEE7002100F8401F4170817040380F
:100BB000704700BFFEE7704710B54FF4C06000F00B
:100BC00039F810BD70B5002100230F22C47804B39A
:100BD000154C246804F4E064C4F5E064210AC1F112
:100BE0000403CA40447804FA03F184781440214392
:100BF00009010E4C0678A155047804F01F05012464
:100C0000AC4005786D11AD0005F1E025C5F8004157
:100C100009E0047804F01F050124AC40044D067877
:100C2000761145F8264070BD0CED00E000E400E0D0
:100C300080E100E002490143024A11607047000070
:100C40000000FA050CED00E070470A4690F84110EC
:100C5000425410F8413F591CCB1701EB93639B1191
:100C6000A1EB831303704178491C417041387047F0
:100C700029B1064AD2690243044BDA6104E0034A0F
:100C8000D2698243014BDA617047000000100240D4
:100C900029B1064A12690243044B1A6104E0034A6F
:100CA00012698243014B1A61704700000010024034
:100CB00029B1064A92690243044B9A6104E0034A4F
:100CC00092698243014B9A61704700000010024014
:100CD00030B500210022002400232D4D6D6805F061
:100CE0000C0121B1042905D0082923D105E0294DA3
:100CF000056022E0274D05601FE0254D6D6805F475
:100D00007012234D6D6805F48034022505EB924284
:100D10001CB9214D554305600BE01D4D6D6805F470
:100D200000351DB11C4D5543056002E0194D55437A
:100D3000056002E0174D056000BF00BF144D6D68EF
:100D400005F0F0010909154D6B5C0568DD40456053
:100D50000F4D6D6805F4E061090A104D6B5C456844
:100D6000DD4085600A4D6D6805F46051C90A0B4D80
:100D70006B5C4568DD40C560054D6D6805F440411C
:100D8000890B074D6B5CC568B5FBF3F5056130BD9C
:100D90000010024000127A0000093D0014000020FB
:100DA00024000020704710B500F002F810BD0000CC
:100DB0000CB50020019000903348006840F480306A
:100DC0003149086000BF3048006800F400300090EE
:100DD0000198401C0190009818B90198B0F5A06FD7
:100DE000F1D12948006800F4003010B101200090D2
:100DF00001E0002000900098012843D123480068BA
:100E000040F01000214908600846006820F0030007
:100E100008600846006840F0020008601A48406810
:100E2000194948600846406848600846406840F4F0
:100E3000806048600846406820F47C10486008469E
:100E4000406840F4E81048600846006840F0807050
:100E5000086000BF0C48006800F000700028F9D05E
:100E60000948406820F00300074948600846406888
:100E700040F00200486000BF0348406800F00C00EA
:100E80000828F9D10CBD00000010024000200240EB
:100E9000042808D14FF0E021096941F004014FF026
:100EA000E022116107E04FF0E021096921F004011F
:100EB0004FF0E022116170477047000010B51348F1
:100EC000006840F001001149086008464068104978
:100ED00008400E494860084600680E4908400B4922
:100EE00008600846006820F48020086008464068D2
:100EF00020F4FE0048604FF41F008860FFF753FFA6
:100F00004FF000600449086010BD0000001002406E
:100F10000000FFF8FFFFF6FE08ED00E0014691F843
:100F200040000A5C11F8403F581CC31700EB936364
:100F30009B11A0EB83130B708878401E887040399A
:100F40001046704710B540F22551094800F07DF871
:100F500060B1074800F034F9C4B2064890F8420086
:100F6000402803D021460348FFF76FFE10BD000064
:100F7000003801405800002021B1828942F400521B
:100F8000828104E082894DF6FF731A4082817047A6
:100F900000B587B0012144F20500FFF789FE032068
:100FA0008DF81A004FF40070ADF8180018208DF875
:100FB0001B0006A91C48FFF720FD04208DF81B002C
:100FC0000002ADF8180006A91748FFF716FD252006
:100FD0008DF804004FF4E13002900020ADF80C00D1
:100FE000ADF80E00ADF81000ADF814000C20ADF80F
:100FF000120002A90D4800F077F801208DF80500D5
:101000008DF806008DF8070001A8FFF7DBFD01222F
:1010100040F22551054800F042F801210348FFF74E
:10102000ABFF07B000BD00000008014000380140E0
:1010300002460020B1F5007F00D100BF13880B40AD
:101040000BB1012000E00020704770B5024600247B
:1010500000230025002040F66A16B14200D100BFEF
:10106000C1F3421501F01F03012606FA03F3012D17
:1010700002D19689334006E0022D02D1168A334010
:1010800001E0968A33400C12012606FA04F4168811
:10109000344013B10CB1012000E0002070BDF0B568
:1010A0000346002400260025002040F66A17B942B6
:1010B00000D100BF1846C1F3421401F01F060127FA
:1010C00007FA06F5012C01D10C3004E0022C01D105
:1010D000103000E014301AB107682F43076002E0B7
:1010E0000768AF430760F0BD2DE9F04786B00546BD
:1010F0000E460024A24600BFA1460027B08900B1D9
:1011000000BF2F462C8A4CF6FF700440F088044341
:101110002C82AC894EF6F3100440B0883189084324
:10112000718908430443AC81AC8A4FF6FF40044008
:10113000B0890443AC8201A8FFF7CAFD1F4887426B
:1011400002D1DDF810A001E0DDF80CA0A88900F4C0
:10115000004040B10AEBCA0000EB0A1031684900B8
:10116000B0FBF1F807E00AEBCA0000EB0A103168A7
:101170008900B0FBF1F86420B8FBF0F0040120090D
:10118000642101FB1089A88900F4004040B132209D
:1011900000EBC900B0FBF1F000F00700044308E0E9
:1011A000322000EB09106421B0FBF1F000F00F00D9
:1011B00004432C8106B0BDE8F087000000380140F0
:1011C00001468888C0F308007047C1F30802828096
:1011D0007047000010B502210648FFF7F9F838B152
:1011E000054A00210348FFF716FA01200349087059
:1011F00010BD0000006400404400002028000020D2
:1012000000BFFEE702E008C8121F08C1002AFAD199
:1012100070477047002001E001C1121F002AFBD176
:101220007047000010B56FF00400FFF731FE0A4868
:1012300000680A49B0FBF1F00949087008460078D7
:1012400000EB4001C1EBC0104FF6FF7101EAC00096
:101250000449088010BD00000000002000127A0040
:101260002A0000202C00002008B529A0006800906A
:10127000FEF78CFF4AE0274890F842000C2807DD73
:10128000FFF742FA012803D123492448FFF718FB4E
:1012900023480078002839DD2248006844010821ED
:1012A0002148FFF792FF00BF80211F48FFF7C0FED3
:1012B0000028F9D0C4F30F211B48FFF786FF00BFB9
:1012C00080211948FFF7B4FE0028F9D0E1B2164892
:1012D000FFF77BFF00BF80211348FFF7A9FE00281E
:1012E000F9D000250DE00F480B30415D0E48FFF7A7
:1012F0006CFF00BF80210C48FFF79AFE0028F9D050
:101300006D1C082DEFD3002005490870B3E70000DD
:101310004343430058000020300000200064004098
:101320002800002044000020003801404C13000831
:101330000000002030000000041200087C130008A8
:1013400030000020B00400001412000800A24A047B
:101350000000000000000000010203040607080965
:10136000000000000102030401020304060708094B
:0C1370000204060800000000000000005D
:0400000508000131BD
:00000001FF
