:020000040800F2
:10000000000A0020210800085104000853040008D9
:10001000570400085B0400085F04000800000000AB
:100020000000000000000000000000006304000861
:100030006504000800000000670400086904000867
:100040003B0800083B0800083B0800083B08000884
:100050003B0800083B0800083B0800083B08000874
:100060003B0800083B0800083B0800083B08000864
:100070003B0800083B0800083B0800083B08000854
:100080003B0800083B0800083B0800083B08000844
:10009000E73E00083B0800083B0800083B08000852
:1000A0003B0800083B0800083B0800083B08000824
:1000B0006B040008A3040008D90400083B080008EA
:1000C0003B0800083B0800083B0800083B08000804
:1000D0003B0800083B080008F72D00083B08000813
:1000E0003B0800083B0800083B0800083B080008E4
:1000F0003B0800083B0800083B0800083B080008D4
:100100003B0800083B0800080F0500083B080008F2
:100110003B0800083B0800083B08000845050008AC
:100120003B0800083B0800083B0800083B080008A3
:1001300000F002F800F06DF80AA090E8000C82448C
:100140008344AAF10107DA4501D100F062F8AFF269
:10015000090EBAE80F0013F0010F18BFFB1A43F0A5
:10016000010318477C6900009C6900000A444FF0B5
:10017000000C10F8013B13F0070408BF10F8014B06
:100180001D1108BF10F8015B641E05D010F8016B4B
:10019000641E01F8016BF9D113F0080F1EBF10F8AF
:1001A000014BAD1C0C1B09D16D1E58BF01F801CBD2
:1001B000FAD505E014F8016B01F8016B6D1EF9D555
:1001C0009142D6D37047000000230024002500266A
:1001D000103A28BF78C1FBD8520728BF30C148BFAA
:1001E0000B607047662906F0B183002070471FB589
:1001F00004F000FA04000020002105F06DFD401C11
:1002000060600020002105F051FDE0601FBD10B5C9
:1002100010BD04F033FB1146FFF7E9FF00F06FF863
:1002200004F0ACFD03B4FFF7F2FF03BC02F080FD65
:10023000F0B5C7B04FF48C7101A803F035FF00256D
:1002400000240027002622E06948005D202809D00C
:100250006748005D07EB870101AA02EBC1018855E1
:10026000761C641C0EE0641C6148005D202809D0E7
:10027000002007EB870101AA02EBC10188557F1C12
:10028000002603E05A48005D2028ECD000BF584803
:10029000005D0028D8D101A805F08CFC554A03C2A6
:1002A0000BA805F087FC544A03C215A805F082FC90
:1002B000524A03C21FA805F07DFC514A03C2002523
:1002C0000CE0002607E0002005EB850101AA02EB07
:1002D000C1018855761C142EF5DB6D1C781C8542F7
:1002E000EFDB002503E00020414948556D1C142D2B
:1002F000F9DB002500240027002647B0F0BD8EB0B2
:10030000002402F0A5FC02F00DFD4FF4E13002F0F4
:1003100022FD02F0B5FD032140F2E73002F06AFE53
:1003200003F001FD03F020FD60E03648008800F492
:10033000004018B10020334908800124E4B10020B6
:1003400031490870FFF774FF2A48D0E900102F4A9E
:10035000C2E90010284903C981F00041C2E9020145
:100360002648D0E90010C2E90410254903C981F0EC
:100370000041C2E9060100242348007860B1244806
:10038000006808B9012000E000202149086002F05F
:100390009DFF00201C4908701E4803C8CDE90C01D0
:1003A0001C48403803C8CDE90A011A48C038416CDE
:1003B000006CCDE908011749C03903C9CDE9060130
:1003C0001548C1698069CDE9040113484169006994
:1003D000CDE902011048C1688068CDE900010E48EE
:1003E000D0E900532A460DA003F0A2FD9DE70000CE
:1003F00070020020000000200800002010000020F3
:10040000180000206400002021000020700100205E
:10041000848121422801002050020020252E316CC9
:100420006620252E316C6620252E316C6620252E07
:10043000316C6620252E316C6620252E316C6620AD
:10044000252E316C6620252E316C66200D0A0000A9
:10045000704700BFFEE700BFFEE700BFFEE700BF3A
:10046000FEE7704770477047704710B50121880755
:1004700002F0D5F9A0B10121880702F0E1F94FF0AF
:100480008040008800F0100028B960480068401CD7
:100490005E49086004E05D480068401E5B490860F2
:1004A00010BD10B501215A4802F0B9F998B10121E7
:1004B000574802F0C5F95648008800F0100028B9E6
:1004C00052484068401C5149486004E04F48406829
:1004D000401E4E49486010BD10B501214D4802F044
:1004E0009EF998B101214B4802F0AAF949480088C9
:1004F00000F0100028B945488068401C43498860D6
:1005000004E042488068401E4049886010BD10B534
:100510000121414802F083F998B101213E4802F0DF
:100520008FF93D48008800F0100028B93748C068AE
:10053000401C3649C86004E03448C068401E334956
:10054000C86010BD2DE9F0474FF0000A0121334883
:1005500002F065F9002856D04FF0804002F04DF9C6
:100560002F4908602A4802F048F92D494860294877
:1005700002F043F92A498860274802F03EF92849E9
:10058000C86000BF35E0264850F82A001F4951F8DE
:100590002A1041F2883202FB0100224951F82A1048
:1005A000401A214941F82A0051F82A0005F059FE65
:1005B000064600221D4B05F093FC044600221C4B0E
:1005C00005F08EFC804600221A4B05F09DFE1A4A6B
:1005D00002EBCA0203C200200C4941F82A0010486D
:1005E00050F82A000F4941F82A000AF1010000F0F2
:1005F000FF0ABAF1040FC6DB01201049087001217F
:10060000064802F01DF9BDE8F08700001002002046
:100610000004004000080040000C004000140040AE
:100620002002002030020020400200200000104084
:1006300000407F400000794050020020210000204F
:100640000CB50020019000906C48006840F48030A8
:100650006A49086000BF6948006800F400300090F3
:100660000198401C0190009818B90198B0F5A06F4E
:10067000F1D16248006800F4003010B10120009010
:1006800001E0002000900098012843D15C480068F8
:1006900040F010005A4908600846006820F0030046
:1006A00008600846006840F002000860534840684F
:1006B000524948600846406848600846406840F42F
:1006C000806048600846406820F47C104860084616
:1006D000406840F4E81048600846006840F08070C8
:1006E000086000BF4548006800F000700028F9D09D
:1006F0004248406820F0030040494860084640688E
:1007000040F00200486000BF3C48406800F00C0028
:100710000828F9D10CBD10B5FFF792FF10BD10B538
:100720003648006840F001003449086008464068D7
:100730003449084031494860084600683249084059
:100740002E4908600846006820F4802008600846AA
:10075000406820F4FE0048604FF41F008860FFF7F7
:10076000DAFF4FF000602949086010BD10B5002184
:1007700000200022214B5B6803F00C0121B1042909
:1007800006D0082928D107E0214B224C236027E01E
:100790001F4B204C236023E0184B5B6803F4701060
:1007A000164B5B6803F48032022303EB904022B9BE
:1007B000194B4343174C23600DE0104B5B6803F467
:1007C000003323B1144B4343124C236003E0104B1E
:1007D0004343104C236003E00D4B0E4C236000BFDD
:1007E00000BF064B5B68C3F303130C4CE15C094B81
:1007F0001B68CB40074C236010BD00000010024076
:10080000002002400000FFF8FFFFF6FE08ED00E0C8
:1008100000127A003400002000093D00380000205A
:100820000948804709480047FEE7FEE7FEE7FEE784
:10083000FEE7FEE7FEE7FEE7FEE7FEE704480549C0
:10084000054A064B704700001F07000831010008E9
:1008500000040020000A00200006002000060020FE
:1008600031490143314A1160704770B500210023BE
:100870000F22C47804B32D4C246804F4E064C4F55A
:10088000E064210AC1F10403CA40447804FA03F188
:100890008478144021430901254C0678A155047839
:1008A00004F01F050124AC4005786D11AD0005F181
:1008B000E025C5F8004109E0047804F01F05012493
:1008C000AC401C4D0678761145F8264070BD1A4A9A
:1008D0000A400243154B1B1F1A60704739B1134A77
:1008E000121D12680243114B1B1D1A6006E00F4ACD
:1008F000121D126882430D4B1B1D1A60704704289D
:1009000008D14FF0E021096941F004014FF0E022E5
:10091000116107E04FF0E021096921F004014FF077
:10092000E0221161704700000000FA050CED00E0C4
:1009300000E400E080E100E080FFFF1F10B5044606
:10094000FE48844209D10121480601F032F8002115
:100950004FF0007001F02DF808E00121880601F049
:1009600028F800214FF0806001F023F810BD30B569
:10097000024600200023146824F002041460146866
:1009800044F00104146000E05B1C546804F00104AE
:100990001CB94FF6FF74A342F6D1546804F0010469
:1009A0000CB900206CE08C79012C04D1146844F05F
:1009B0008004146003E0146824F080041460CC798F
:1009C000012C04D1146844F04004146003E014685E
:1009D00024F0400414600C7A012C04D1146844F013
:1009E0002004146003E0146824F0200414604C7A9E
:1009F000012C04D1146844F01004146003E014685E
:100A000024F0100414608C7A012C04D1146844F092
:100A10000804146003E0146824F008041460CC7A1D
:100A2000012C04D1146844F00404146003E0146839
:100A300024F0040414608C78A407CD7844EA05649B
:100A40000D7944EA05444D7944EA05540D886D1E3C
:100A50002C43D461146824F001041460002300E0E6
:100A60005B1C546804F001041CB14FF6FF74A342F0
:100A7000F6D1546804F001040CB1002000E001201C
:100A800030BD10B50021837A012202FA03F1AC4A8D
:100A9000126842F00102AA4B1A60A94A1C3212687D
:100AA0008A43A74B1C331A60027BCAB9A44A0C3292
:100AB00012688A43A24B0C331A604288C38842EA08
:100AC00003439F4A4032847A42F834300288838854
:100AD00042EA03439A4A4032847A02EBC4025360EA
:100AE000027B012A19D1964A0C3212680A43944BB0
:100AF0000C331A604288038842EA0343904A40322A
:100B0000847A42F83430C288838842EA03438C4AAC
:100B10004032847A02EBC4025360C27A3AB9884AFE
:100B2000121D12688A43864B1B1D1A6006E0844A18
:100B3000121D12680A43824B1B1D1A60028932B9CA
:100B40007F4A143212688A437D4B14331A6002893B
:100B5000012A06D17A4A143212680A43784B1433B8
:100B60001A60427B012A06D1754A1C3212680A4378
:100B7000734B1C331A60724A126822F00102704BE8
:100B80001A6010BD00218171C171017241728172C0
:100B9000C1728170C1700321017102214171012173
:100BA000018070476649096841F00101644A11609B
:100BB0001146096843F60E729143614A116011466D
:100BC000096841EA002111601146096821F001011C
:100BD0001160704721B1026842F48032026003E084
:100BE000026822F4803202607047E1B1026842F08C
:100BF000800202604FF4C272125842F480734FF4C4
:100C0000C27213504FF4CA72125842F480734FF4F8
:100C1000CA7213504FF4D272125842F480734FF4D8
:100C2000D27213501BE0026822F0800202604FF47F
:100C3000C272125822F480734FF4C27213504FF4F0
:100C4000CA72125822F480734FF4CA7213504FF4D0
:100C5000D272125822F480734FF4D272135070473C
:100C600010B502460020936803F08063B3F1806FF3
:100C700000D110E0936803F00063B3F1006F01D17D
:100C8000012008E0936803F08053B3F1805F01D145
:100C9000022000E00420042879D002F5C07303EBA1
:100CA00000131B6803F0010402F5C07303EB00138B
:100CB0001C600B7A7BB94B7A0C8843EA445302F5EB
:100CC000C07404EB00142468234302F5C07404EBE1
:100CD0000014236010E00B7A4C6843EAC4034C7A9A
:100CE000234302F5C07404EB00142468234302F587
:100CF000C07404EB001423608B7A03F00F038B7233
:100D000002F5C07303EB00135B6823F00F0402F5D8
:100D1000C07303EB00135C6002F5C07303EB0013B8
:100D20005B688C7A234302F5C07404EB00146360A3
:100D30008B7B1C064B7B44EA034403E000640040C9
:100D4000006600400B7B44EA0323CC7A234302F580
:100D5000C07404EB0014A3608B7C1C064B7C44EA3B
:100D600003440B7C44EA0323CC7B234302F5C07489
:100D700004EB0014E36002F5C07303EB00131B687F
:100D800043F0010402F5C07303EB00131C6010BDB7
:100D900010B50246002321B1012907D002290FD145
:100DA00009E09068F94C00EA04030BE09068F84C05
:100DB00000EA040306E09068F64C00EA040301E050
:100DC000002300BF00BFF44C181BA34216D007DC61
:100DD00083B16FF08060184470B1022818D111E01F
:100DE000B0F5007F10D0ED4C204448B1B0F5003F85
:100DF0000ED10BE002230DE000230BE0002309E0FD
:100E0000002307E0012305E0012303E0012301E0C3
:100E1000002300BF00BFD8B210BD21B1012907D007
:100E200002290FD109E0826842F0800282600AE064
:100E3000826842F40042826005E0826842F4000267
:100E4000826000E000BF00BF704710B500F5D873A6
:100E500003EB01131B6803F004031372137A53B9F5
:100E600000F5D87303EB01131B6840F2FF7404EA2A
:100E70005353136009E000F5D87303EB01131B68AB
:100E80006FF0604404EAD303536000F5D87303EBBA
:100E900001131B6803F00203537200F5D87303EBD0
:100EA00001135B6803F00F03937200F5D87303EB33
:100EB00001135B681B0AD37400F5D87303EB0113AD
:100EC0009B68D37200F5D87303EB01139B681C0A6F
:100ED000147300F5D87303EB01139B681C0C547357
:100EE00000F5D87303EB01139B681B0E937300F599
:100EF000D87303EB0113DB68D37300F5D87303EBEE
:100F00000113DB681C0A147400F5D87303EB01139A
:100F1000DB681C0C547400F5D87303EB0113DB6819
:100F20001B0E937421B9C36843F02003C36003E030
:100F3000036943F02003036110BD21B9C26842F088
:100F40002002C26003E0026942F0200202617047A1
:100F50000246002019B9D36803F0030006E0012916
:100F600003D1136903F0030000E00020704710B5BF
:100F700002460B4600204FF6FF71BBB9146824F0FF
:100F8000020444F00104146000E0491E546804F0B7
:100F90000304012C01D00029F7D1546804F00304A4
:100FA000012C01D0002032E0012030E0012B13D1D0
:100FB000146824F00304146000E0491E546804F02F
:100FC00003040CB10029F8D1546804F003040CB1F7
:100FD00000201CE001201AE0022B17D1146824F035
:100FE000010444F00204146000E0491E546804F057
:100FF0000304022C01D00029F7D1546804F0030443
:10100000022C01D0002002E0012000E0002010BDF1
:10101000014600200A6822F0010242F002020A6042
:101020004A6802F00302022A00D1012070470146FB
:101030004FF6FF7200200B6823F002030B6000E004
:10104000521E4B6803F00203022B01D1002AF7D194
:101050004B6803F00203022B00D0012070470146C9
:1010600000208A6902F070007047014600208A69FA
:10107000100E7047014600208A69C2F3074070478E
:101080001AB143690B43436102E043698B434361F7
:10109000704710B50246002001F4700343B1936914
:1010A000C1F3130423400BB101202DE000202BE0FD
:1010B00001F0807343B15368C1F3130423400BB1B3
:1010C000012021E000201FE001F0006343B193689C
:1010D000C1F3130423400BB1012015E0002013E0FD
:1010E00001F0007343B1D368C1F3130423400BB183
:1010F000012009E0002007E01369C1F31304234035
:101100000BB1012000E0002010BD0022244B9942C9
:1011100002D10023836111E0C1F3130201F00073D7
:101120000BB1C2600AE001F080630BB1026105E01F
:1011300001F000630BB1826000E04260704702463C
:10114000002002EA01030BB1012000E000207047FB
:1011500070B504460D46002660692840002872D00C
:10116000B5F5807F69D01DDC082D42D006DC012D4D
:101170002DD0022D31D0042D7FD134E0102D3ED062
:10118000202D42D0402D78D145E00000030000041E
:101190000003000800000310000100080001FFF731
:1011A0007000F030B5F5004F61D009DCB5F5007F77
:1011B0004AD0B5F5806F4DD0B5F5006F5DD150E0E8
:1011C000B5F5803F2DD0B5F5003F56D12FE0A06892
:1011D0005549FFF7B4FF064651E0E0680321FFF7E9
:1011E000AEFF06464BE0E0680821FFF7A8FF064681
:1011F00045E0E0681021FFF7A2FF06463FE02069C6
:101200000321FFF79CFF064639E020690821FFF71C
:1012100096FF064633E020691021FFF790FF06464F
:101220002DE060680821FFF78AFF064627E0606826
:101230001021FFF784FF064621E0A0690121FFF796
:101240007EFF06461BE01BE0A0690221FFF777FF47
:10125000064614E0A0690421FFF771FF06460EE080
:101260000BE0A0697021FFF76AFF064607E060689F
:101270000421FFF764FF064601E0002600BF00E0FE
:101280000026304670BDB1F5007F3AD00FDC202932
:1012900028D006DC01291CD004291DD0082940D102
:1012A0001DE0402921D0B1F5807F3AD126E0B1F58B
:1012B000004F31D006DCB1F5806F25D0B1F5006F5D
:1012C0002FD124E0B1F5803F12D0B1F5003F28D1F5
:1012D00011E0154A826025E00822C26022E0102257
:1012E000C2601FE0082202611CE01022026119E0C6
:1012F0000822426016E01022426013E0042242609D
:1013000010E0042242600DE0042242600AE0002264
:1013100082610422426005E0002282610422426070
:1013200000E000BF00BF70470101010010B5044696
:10133000CC48844208D10121042000F02DFB00217B
:10134000042000F029FB46E0C748844208D101216F
:10135000082000F021FB0021082000F01DFB3AE0EE
:10136000C248844208D10121102000F015FB002161
:10137000102000F011FB2EE0BD48844208D101216D
:10138000202000F009FB0021202000F005FB22E0D6
:10139000B848844208D10121402000F0FDFA002124
:1013A000402000F0F9FA16E0B348844208D1012148
:1013B000802000F0F1FA0021802000F0EDFA0AE030
:1013C000AE48844207D10121801500F0E5FA0021E2
:1013D000A01500F0E1FA10BD10B50121084600F09B
:1013E000DBFA0021012000F0D7FA10BD2DE9F04111
:1013F000024600250026002000230024002791F843
:1014000003C00CF00F0591F803C00CF0100CBCF1F8
:10141000000F03D091F802C04CEA050591F800C016
:10142000BCF1000F31D0146800202BE04FF0010C0C
:101430000CFA00F3B1F800C00CEA03069E4220D17A
:1014400083004FF00F0C0CFA03F7BC4305FA03FCC2
:101450004CEA040491F803C0BCF1280F06D14FF008
:10146000010C0CFA00FCC2F814C00AE091F803C0A9
:10147000BCF1480F05D14FF0010C0CFA00FCC2F88A
:1014800010C0401C0828D1D31460B1F800C0BCF1D2
:10149000FF0F34DD546800202EE000F1080C4FF0FF
:1014A000010808FA0CF3B1F800C00CEA03069E42EA
:1014B00021D183004FF00F0C0CFA03F7BC4305FA5F
:1014C00003FC4CEA040491F803C0BCF1280F05D1D9
:1014D00000F1080C08FA0CF8C2F8148091F803C067
:1014E000BCF1480F07D100F1080C4FF0010808FAD1
:1014F0000CF8C2F81080401C0828CED35460BDE818
:10150000F0814FF6FF710180022181700421C170CA
:1015100070470246002093680B400BB1012000E0A9
:10152000002070470146886880B27047024600205C
:10153000D3680B400BB1012000E00020704701464A
:10154000C86880B2704701617047416170470AB155
:10155000016100E041617047C16070474FF4803223
:101560000A438261816182618269826970470246B1
:101570000020434B18684FF68073184040EA021071
:1015800008433F4B186070473E49C8617047F0B54B
:101590000A46002300240021002500F00046B6F191
:1015A000004F02D1364EF16901E0354E7168C0F34B
:1015B000034583B200F44016B6F5401F08D121F070
:1015C00070612F4E766826F070662D4F7E6012E0B7
:1015D00000F48016B6F5801F06D1032606FA05F43E
:1015E000A14341F0706106E0460D360103FA06F6AC
:1015F000B14341F0706122B1460D360103FA06F69F
:10160000314300F00046B6F1004F02D11C4EF161AB
:1016100001E01B4E7160F0BD30B500228B071C0F3E
:101620000F2303FA04F2164B08338C1053F82430BE
:101630009343134C08348D1044F8253023468C1006
:1016400053F824308C07240F00FA04F423430C4C85
:1016500008348D1044F8253030BD0A49DC3108606B
:101660007047000000080140000C014000100140DC
:101670000014014000180140001C014000200140FE
:101680000000014000002042DF48006840F00100F7
:10169000DD49086008464068DC490840DA4948608E
:1016A00008460068DA490840D749086008460068DB
:1016B00020F4802008600846406820F4FE0048605E
:1016C0004FF41F0088607047CF49096821F48031CA
:1016D000CD4A11601146096821F480211160B0F5EE
:1016E000803F03D0B0F5802F0ED106E0C6490968CF
:1016F00041F48031C44A116007E0C349096841F4EC
:10170000A021C14A116000E000BF00BF704710B5C2
:1017100001460022002300204A11012A02D1BA4CBE
:10172000236806E0022A02D1B74C236A01E0B64CD6
:10173000636A01F01F02012494401C400CB1012097
:1017400000E0002010BD38B50020009000240025E6
:1017500000BF3120FFF7DBFF05460098401C0090DA
:101760000098B0F5A06F01D0002DF2D03120FFF726
:10177000CEFF08B1012400E00024204638BD014618
:101780000020A14A106820F0F80040EAC100106073
:101790007047A04908607047024600209A4B58687D
:1017A00020F47C1042EA01031843974B58607047BD
:1017B00098490866704701460020934A506820F017
:1017C00003000843506070478F48406800F00C00E9
:1017D0007047014600208C4A506820F0F000084312
:1017E0005060704701460020874A506820F4E0604E
:1017F00008435060704701460020834A506820F437
:10180000605040EAC1005060704729B17E4A527A68
:1018100002437D4B5A7204E07B4A527A82437A4BF0
:101820005A7270477B49D8310860704701460020E2
:10183000754A506820F440400843506070470021CA
:10184000714A20321170704A82F82010012802D0AB
:1018500004280AD104E001216B4A2032117005E00E
:101860000521694A2032117000E000BF00BF7047B7
:101870006949086070476449096A0143624A116214
:101880007047654944390860704730B5002100222F
:10189000002400235C4D6D6805F00C0121B1042982
:1018A00005D0082923D105E05C4D056022E05B4DA1
:1018B00005601FE0544D6D6805F47012524D6D685F
:1018C00005F48034022505EB92421CB9544D554372
:1018D00005600BE04C4D6D6805F400351DB1504DB1
:1018E0005543056002E04D4D5543056002E04B4D08
:1018F000056000BF00BF444D6D6805F0F0010909A7
:10190000484D6B5C0568DD4045603F4D6D6805F4F2
:10191000E061090A434D6B5C4568DD4085603A4DE6
:101920006D6805F46051C90A3E4D6B5C4568DD4049
:10193000C560354D6D6805F44041890B3A4D6B5CCF
:10194000C568B5FBF3F5056130BD29B12E4A526972
:1019500002432D4B5A6104E02B4A526982432A4BC1
:101960005A61704729B1284A92690243264B9A610D
:1019700004E0254A92698243234B9A61704729B15A
:10198000214AD2690243204BDA6104E01E4AD2693F
:1019900082431D4BDA61704729B11B4AD26802436A
:1019A000194BDA6004E0184AD2688243164BDA60B9
:1019B000704729B1144A12690243134B1A6104E0BB
:1019C000114A12698243104B1A617047124940391B
:1019D000086070470F49C86470470B49C871704769
:1019E0000948406A40F080700749486270470146E4
:1019F0000020054A92680A400AB1012000E0002058
:101A00007047014988727047001002400000FFF8DB
:101A1000FFFFF6FE000042428004424200127A00BC
:101A200000093D00480000205800002010B5044681
:101A3000FE48844208D10121C014FFF7ADFF002108
:101A4000E014FFF7A9FFC4E0B4F1804F08D10121F1
:101A50000846FFF7AEFF00210120FFF7AAFFB8E01C
:101A6000F348844208D101210220FFF7A2FF0021A0
:101A70000220FFF79EFFACE0EE48844208D101212E
:101A80000420FFF796FF00210420FFF792FFA0E05B
:101A9000E948844208D101210820FFF78AFF00218C
:101AA0000820FFF786FF94E0E448844208D1012132
:101AB0001020FFF77EFF00211020FFF77AFF88E05B
:101AC000DF48844208D101212020FFF772FF002166
:101AD0002020FFF76EFF7CE0DA48844208D1012124
:101AE0004014FFF759FF00216014FFF755FF70E025
:101AF000D548844209D10121C804FFF74DFF0021D8
:101B00004FF40020FFF748FF63E0D048844209D13A
:101B100001210805FFF740FF00214FF48010FFF777
:101B20003BFF56E0CA48844209D101214805FFF72E
:101B300033FF00214FF40010FFF72EFF49E0C548A6
:101B4000844208D101214020FFF733FF00214020CB
:101B5000FFF72FFF3DE0C048844208D101218020DB
:101B6000FFF727FF00218020FFF723FF31E0BB486C
:101B7000844208D101218015FFF71BFF0021A01529
:101B8000FFF717FF25E0B648844209D10121080478
:101B9000FFF702FF00214FF48030FFF7FDFE18E051
:101BA000B048844209D101214804FFF7F5FE002125
:101BB0004FF40030FFF7F0FE0BE0AB48844208D151
:101BC00001218804FFF7E8FE00214FF48020FFF791
:101BD000E3FE10BD00220288944B98420ED0994B30
:101BE00098420BD0B0F1804F08D0914B984205D06D
:101BF000904B984202D0904B984204D14FF68F738D
:101C00001A404B881A438D4B984207D08C4B984210
:101C100004D04FF6FF431A40CB881A4302808B88CA
:101C200083850B880385814B98420BD0854B984266
:101C300008D08B4B984205D08A4B984202D08A4BF1
:101C4000984201D10B7A038601238382704770B5D5
:101C5000002400220023058C4FF6FE7635400584D3
:101C6000028C8388048B4FF68F752C40B51E2C4058
:101C70000D882C43751E2A400D892A434D882A431E
:101C80006A4DA8420BD06F4DA84208D0744DA842AF
:101C900005D0744DA84202D0734DA84213D14FF61F
:101CA000F7752A404D892A434FF6FB752A408D88E7
:101CB0002A434FF6FF652B404FF6FF552B408D8989
:101CC0002B43CD892B4383800483CD888586028472
:101CD00070BD70B5002400220023058C4FF6EF760E
:101CE00035400584028C8388048B48F6FF752C40B0
:101CF0004FF6FF452C400D884FF6FF7606EA052586
:101D00002C434FF6DF752A400D8906EA05152A4354
:101D10004D8806EA05152A43444DA84202D0494D94
:101D2000A8421DD14FF67F752A404D894FF6FF76A8
:101D300006EA05152A434FF6BF752A408D8806EA44
:101D400005152A434FF6FF352B404FF2FF752B4008
:101D50008D8906EA85052B43CD8906EA85052B4347
:101D600083800483CD880587028470BD70B500240C
:101D700000220023058C4FF6FF6635400584028C57
:101D80008388848B4FF68F752C404FF6FC752C4062
:101D90000D882C434FF6FF552A400D894FF6FF76EC
:101DA00006EA05252A434D8806EA05252A431F4DE4
:101DB000A84202D0234DA8421DD14FF2FF752A4000
:101DC0004D894FF6FF7606EA05252A434FF6FF3583
:101DD0002A408D8806EA05252A434EF6FF752B40DA
:101DE0004DF6FF752B408D8906EA05152B43CD89ED
:101DF00006EA05152B4383808483CD88858702847A
:101E000070BD70B5002200230024058C4EF6FF76CD
:101E100035400584038C8488828B48F6FF752A4000
:101E20004FF6FF452A400D8820E00000002C0140BD
:101E30000004004000080040000C0040001000407A
:101E40000014004000340140004C014000500140AB
:101E50000054014000180040001C004000200040D9
:101E60000040014000440140004801404FF6FF7629
:101E700006EA05252A434DF6FF752B400D8906EA33
:101E800005352B434D8806EA05352B43FA4DA8420C
:101E900002D0FA4DA84208D14BF6FF752C408D892F
:101EA0004FF6FF7606EA85152C4384808283CD8821
:101EB000A0F84050038470BD828B4FF2FF331A406C
:101EC0008283828B4FF6FF7303EA01231A438283D6
:101ED0007047F0B50C461546002200210026078CFD
:101EE0004EF6FF7C07EA0C070784828B018C4FF6C5
:101EF000FF7707EA043640F6FF473A404FF6FF7790
:101F000007EA05273A434FF6FF7707EA03373A43D4
:101F1000D94FB8420ED0D94FB8420BD0B0F1804F54
:101F200008D0D74FB84205D0D64FB84202D0D64FCE
:101F3000B84206D14DF6FF77394046F48057394311
:101F400005E047F6FF57394044F480573943828310
:101F50000184F0BD828B4FF6F3731A408283828B2B
:101F60000A4382837047F0B50C46154600220021D3
:101F70000026078C4FF6FF6C07EA0C070784828B5C
:101F8000018C4FF6FF7707EA04264FF60C773A40AC
:101F90004FF6FF7707EA03172F433A43B64FB8428D
:101FA0000ED0B64FB8420BD0B0F1804F08D0B44F2E
:101FB000B84205D0B34FB84202D0B34FB84206D1B1
:101FC0004FF6FF57394046F48077394305E04FF22A
:101FD000FF57394044F48077394382830184F0BD50
:101FE000028B4FF2FF331A400283028B4FF6FF73CE
:101FF00003EA01231A4302837047F0B50C461546E5
:10200000002200210026078C4FF6EF7C07EA0C0720
:102010000784028B018C4FF6FF7707EA041640F61F
:10202000FF473A404FF6FF7707EA03373A434FF648
:10203000FF7707EA05273A438F4FB8420ED08F4FFC
:10204000B8420BD0B0F1804F08D08D4FB84205D0C8
:102050008C4FB84202D08C4FB84206D14FF6DF7792
:10206000394046F01007394305E04FF65F773940B5
:1020700044F01007394302830184F0BD028B4FF610
:10208000F3731A400283028B0A4302837047F0B550
:102090000C46154600220021068C4FF6FE773E4086
:1020A0000684028B018C4FF60C7632407E1C06EAC9
:1020B00003162E433243704EB0420ED06F4EB042E4
:1020C0000BD0B0F1804F08D06D4EB04205D06D4EB0
:1020D000B04202D06C4EB04206D14FF6FD76314090
:1020E00044F00106314305E04FF6F576314044F007
:1020F0000106314302830184F0BD70B505460C46EC
:102100005D4885420ED05D4885420BD0B5F1804FC9
:1021100008D05B48854205D05A48854202D05A48CB
:10212000854200D100E000BF208850B92389A288F1
:1021300061882846FFF7ABFFE1882846FFF79EFF3E
:1021400025E0208804280AD12389A28861882846AE
:10215000FFF753FFE1882846FFF742FF17E020888A
:1021600008280AD12389A28861882846FFF7FBFE48
:10217000E1882846FFF7EEFE09E02389A2886188FE
:102180002846FFF7A6FEE1882846FFF795FE70BDBA
:102190002DE9F04105460C4600260127608808B964
:1021A000022600E00026A088012801D1022700E0D5
:1021B00001272088A0B92389A28861882846FFF7D3
:1021C00066FFE1882846FFF759FF23893A463146E2
:1021D0002846FFF712FFE1882846FFF701FF13E0CA
:1021E0002389A28861882846FFF707FFE1882846EF
:1021F000FFF7F6FE23893A4631462846FFF747FFA8
:10220000E1882846FFF73AFFBDE8F0810A884B884D
:102210001A438B881A43CB881A430B891A434B897C
:102220001A438B891A43A0F8442070474FF6FF7178
:10223000818000210180C1804180017270470021AE
:10224000018041808180C180018141818181C18182
:102250007047002101804180012181800021C180DF
:10226000018170470021018041808180C18001810E
:102270004181818170470000002C01400034014001
:102280000004004000080040000C004021B102881A
:1022900042F00102028004E002884FF6FE731A4009
:1022A0000280704731B1B0F8442042F40042A0F8F7
:1022B000442005E0B0F84420C2F30E02A0F8442008
:1022C00070471AB183890B43838102E083898B4372
:1022D000838170478182704741EA0203A0F8483049
:1022E00070471AB183890B43838102E083898B4352
:1022F0008381704701894FF6F87211400181704760
:102300000A46002101894FF68F731940114301815C
:10231000704730B504460D4629462046FFF7F0FFCA
:10232000208940F00700208130BD2DE9F0410446AE
:102330000D4616461F46602D06D13B46012231460A
:102340002046FFF75AFE05E03B4601223146204673
:10235000FFF79DFE29462046FFF7D2FF208940F077
:1023600007002081BDE8F08130B50C4600210189CD
:10237000C9B24FF6FF7505EA0325154325432943E6
:10238000018130BD2DE9F04105460E4617469846BD
:10239000002443463A4631462846FFF7E5FF2C899C
:1023A0004FF6F870044044F007044FF68F70044075
:1023B00044F070042C81BDE8F081F0B504460D4670
:1023C00016461F463B46324629462046FFF7CCFFBD
:1023D000208940F480402081F0BD018582827047D1
:1023E0000A46002101884FF68F731940114301807E
:1023F0007047F0B50C4615461E460021002200230A
:102400000189028B038C4FF6F877394021434FF650
:10241000FC473A4040F201173A434FF6DD773B4024
:102420004FF6FF7707EA06172F433B4301810283EC
:102430000384F0BD0A460021018B4FF68F731940CB
:102440001143018370470A460021018B48F6FF7350
:1024500019404FF6FF7303EA0223194301837047C3
:102460000A460021818B4FF68F73194011438183F7
:1024700070470A460021818B48F6FF7319404FF6DA
:10248000FF7303EA022319438183704721B1028855
:1024900042F08002028004E002884FF67F731A4007
:1024A0000280704721B1828842F00402828004E0F9
:1024B00082884FF6FB731A408280704721B1828870
:1024C00042F00802828004E082884FF6F7731A40D7
:1024D0008280704721B1828842F00102828004E04C
:1024E00082884FF6FE731A40828070470A460021A8
:1024F000018B4FF6F77319401143018370470A4669
:102500000021018B4FF2FF7319404FF6FF7303EA6E
:1025100002231943018370470A460021818B4FF63D
:10252000F77319401143818370470A460021818B5C
:102530004FF2FF7319404FF6FF7303EA022319436A
:10254000818370470A460021018B4FF6FB731940C7
:102550001143018370470A460021018B4FF6FF3378
:1025600019404FF6FF7303EA0223194301837047B2
:102570000A460021818B4FF6FB731940114381837A
:1025800070470A460021818B4FF6FF3319404FF602
:10259000FF7303EA02231943818370470A4600212F
:1025A000018B4FF67F7319401143018370470A4630
:1025B0000021018BC1F30E014FF6FF7303EA0223E2
:1025C0001943018370470A460021818B4FF67F73C0
:1025D00019401143818370470A460021818BC1F362
:1025E0000E014FF6FF7303EA0223194381837047FC
:1025F0000A460021018C4FF6FD73194011430184F6
:1026000070470A460021018C4FF6F77319401143B9
:10261000018470470A460021018C4FF6DF73194090
:102620004FF6FF7303EA02131943018470470A4609
:102630000021018C4FF67F7319404FF6FF7303EAB8
:1026400002131943018470470A460021018C4FF69A
:10265000FF5319404FF6FF7303EA02231943018425
:1026600070470A460021018C4FF2FF7319404FF664
:10267000FF7303EA02231943018470470A460021CD
:10268000018C4DF6FF7319404FF6FF7303EA0233D6
:1026900019430184704730B5002301248C40A3B254
:1026A000048C9C430484048C02FA01F5ADB22C43E3
:1026B000048430BD30B5002304248C40A3B2048CC4
:1026C0009C430484048C02FA01F5ADB22C430484CB
:1026D00030BD70B50346002000241846183001258F
:1026E0008D40ACB21D8CA5431D8409B1082909D1C8
:1026F00000EB6100056825F070050560056815436D
:1027000005600EE00D1FC5F34E052844056825F44D
:10271000E045056005684FF6FF7606EA0226354378
:10272000056070BD21B1028842F00202028004E01F
:1027300002884FF6FD731A400280704721B102886B
:1027400042F00402028004E002884FF6FB731A4054
:102750000280704721B1828842F08002828004E0CA
:1027600082884FF67F731A408280704702884FF646
:10277000F7731A40028002880A43028070478288F9
:102780004FF68F731A40828082880A438280704796
:1027900002894FF6F8731A40028102890A430281C6
:1027A000704702894FF67F731A40028102890A43FB
:1027B00002817047818470478185704781867047A8
:1027C0000187704781877047A0F8401070470288E2
:1027D0004FF6FF431A40028002880A430280704786
:1027E0000146888E70470146088F70470146888FE2
:1027F00070470146B1F8400070470146888C704729
:102800000146088D704702460020138A0B400BB129
:10281000012000E000207047CA430282704730B5B3
:102820000246002000230024158A05EA0103958949
:1028300005EA010413B10CB1012000E0002030BD15
:10284000CA4302827047000010B50446FB48844228
:1028500009D101218803FFF79FF800214FF4804040
:10286000FFF79AF832E0F648844209D10121480482
:10287000FFF79FF800214FF40030FFF79AF825E0AA
:10288000F048844209D101218804FFF792F8002121
:102890004FF48020FFF78DF818E0EB48844209D10F
:1028A0000121C804FFF785F800214FF40020FFF74D
:1028B00080F80BE0E548844208D101210805FFF7C4
:1028C00078F800214FF48010FFF773F810BD2DE960
:1028D000F04786B005460E460024A24600BFA1463A
:1028E0000027B08900B100BF2F462C8A4CF6FF703C
:1028F0000440F08804432C82AC894EF6F310044067
:10290000B08831890843718908430443AC81AC8A9B
:102910004FF6FF400440B0890443AC8201A8FEF7A3
:10292000B4FFC648874202D1DDF810A001E0DDF80F
:102930000CA0A88900F4004040B10AEBCA0000EBEB
:102940000A1031684900B0FBF1F807E00AEBCA0051
:1029500000EB0A1031688900B0FBF1F86420B8FB85
:10296000F0F004012009642101FB1089A88900F41A
:10297000004040B1322000EBC900B0FBF1F000F0A4
:102980000700044308E0322000EB09106421B0FB8B
:10299000F1F000F00F0004432C8106B0BDE8F08791
:1029A0004FF41651016000218180C18001810C210A
:1029B000418100218181704710B502460020108AB4
:1029C0004FF2FF0318400B884C8823438C88234325
:1029D000CC8823431843108210BD00210180418020
:1029E0008180C180704721B1828942F40052828186
:1029F00004E082894DF6FF731A4082817047F0B57A
:102A00000346002400260025002040F66A17B9423C
:102A100000D100BF1846C1F3421401F01F06012780
:102A200007FA06F5012C01D10C3004E0022C01D18B
:102A3000103000E014301AB107682F43076002E03D
:102A40000768AF430760F0BD1AB1838A0B438382E6
:102A500002E0838A8B4383827047028A4FF6F073C9
:102A60001A400282028A0A430282704782894FF228
:102A7000FF731A40828182890A438281704721B1A3
:102A8000828942F00202828104E082894FF6FD735E
:102A90001A4082817047028A4FF6DF731A40028221
:102AA000028A0A430282704721B1028A42F48042BC
:102AB000028204E0028A4BF6FF731A4002827047DA
:102AC000C1F308028280704701468888C0F308007D
:102AD0007047818941F0010181817047028BD2B238
:102AE0000283028B42EA012202837047028B02F4C6
:102AF0007F420283028B0A430283704721B1828A9C
:102B000042F02002828204E0828A4FF6DF731A408C
:102B10008282704721B1828A42F01002828204E0F0
:102B2000828A4FF6EF731A408282704721B1828AFF
:102B300042F00802828204E0828A4FF6F7731A405C
:102B40008282704721B1828942F40042828103E08F
:102B50008289C2F30E028281704721B1828A42F4D7
:102B60000062828204E0828A4FF2FF731A408282FE
:102B70007047828A4FF6FB731A408282828A0A4328
:102B80008282704721B1828A42F00202828204E08E
:102B9000828A4FF6FD731A408282704702460020F7
:102BA000B1F5007F00D100BF13880B400BB10120AD
:102BB00000E00020704701F40072B2F5007F00D100
:102BC00000BFCA430280704770B50246002400234C
:102BD0000025002040F66A16B14200D100BFC1F3C3
:102BE000421501F01F03012606FA03F3012D02D15D
:102BF0009689334006E0022D02D1168A334001E067
:102C0000968A33400C12012606FA04F416883440E2
:102C100013B10CB1012000E0002070BD10B50022FE
:102C2000002340F66A14A14200D100BF0A12012419
:102C30009440A3B2DC43048010BD00000038014082
:102C40000044004000480040004C0040005000405C
:102C500010B56FF00400FDF752FE2E4800682E49B3
:102C6000B0FBF1F02D4908700846007800EB4001F8
:102C7000C1EBC0104FF6FF7101EAC000284908807F
:102C800010BD0146254A12784A434FF0E0235A61AD
:102C900000229A611A46126942F001021A6100BFCD
:102CA0004FF0E022106900F001021AB100F4803206
:102CB000002AF5D04FF0E022126922F001024FF015
:102CC000E0231A6100229A6170470146144A128873
:102CD0004A434FF0E0235A6100229A611A46126972
:102CE00042F001021A6100BF4FF0E022106900F0CB
:102CF00001021AB100F48032002AF5D04FF0E02230
:102D0000126922F001024FF0E0231A6100229A6159
:102D1000704700003400002000127A005C000020A0
:102D20005E00002010B54FF4A060FDF799FD10BDC6
:102D3000014600BF704770B504460D4600BF4021F4
:102D40004B48FFF72BFF0028F9D0E1B24848FFF7C6
:102D5000B7FE204670BD10B586B0044601210420A0
:102D6000FEF700FE01214804FEF709FE4048FFF788
:102D70006BFD0420ADF8140003208DF81600182018
:102D80008DF8170005A93B48FEF730FB0820ADF889
:102D9000140004208DF8170005A93648FEF726FB1D
:102DA00001940020ADF80800ADF80A00ADF80C0061
:102DB000ADF810000C20ADF80E0001A92C48FFF76B
:102DC00086FD26208DF8000003208DF801008DF887
:102DD000020001208DF803006846FDF746FD012240
:102DE00040F225512248FFF70AFE01212048FFF753
:102DF000FAFD06B010BD10B540F225511C48FFF792
:102E0000E3FE10B31A48FFF75FFEC4B21A48008809
:102E100000F40040C8B91848008800F4804060B150
:102E20000A2C03D000201449088020E012480088B2
:102E300040F400401049088019E00D2C06D10E48DE
:102E4000008840F480400C49088010E00A4800885F
:102E5000C0F30D0009490C5407480088401C06497E
:102E6000088008460088C72801DD0020088010BDC2
:102E7000004400400008014064000020700200206F
:102E800008B501211820FEF76DFD0320ADF8000004
:102E900010208DF8030003208DF8020069460948D0
:102EA000FEF7A4FA03210748FEF74DFB2020ADF8FA
:102EB000000069460448FEF799FA20210248FEF70F
:102EC00042FB08BD000C01400010014008B5012183
:102ED0004803FEF747FD01210846FEF743FD0121A7
:102EE0001020FEF73FFD01210420FEF73BFD4FF4CB
:102EF0007070ADF8000018208DF8030003208DF8E5
:102F0000020069464148FEF771FA08BD30B587B046
:102F100005460C46ADF81450ADF810400020ADF851
:102F20001200ADF816008DF8180004A93848FEF715
:102F300051FE7020ADF800000120ADF80200002025
:102F4000ADF80400ADF806000220ADF8080000203E
:102F5000ADF80A004FF48070ADF80C000020ADF819
:102F60000E0069462A48FEF772FE0020ADF8060002
:102F700069462748FEF7ADFE0020ADF80600694619
:102F80002348FEF7F3FE0020ADF80600694620480E
:102F9000FEF737FF01211E48FFF778F901211C4891
:102FA000FFF780F907B030BD08B501210C20FEF70E
:102FB000D9FC4FF47040ADF8000010208DF80300EC
:102FC00003208DF8020069461248FEF70FFA4FF40D
:102FD00070411048FEF7B9FA4FF47060ADF8000088
:102FE00069460D48FEF702FA4FF470610A48FEF791
:102FF000ACFA08BD70B504460D46FFF767FF2946D9
:103000002046FFF783FFFFF7CFFF70BD00100140A0
:1030100000340140000C0140000801402DE9F04F50
:103020008DB0824614461D4625F000432646DAE957
:10303000008121F000413246404603F0A5FACAE97A
:103040000801DAE90A63324600204FF0804103F0BC
:103050005BF98046DAE90863324603F089FACDE984
:103060000001DAE90C63324602F07EFECDE902018E
:10307000DAE90663324603F047F90022F84BCDE95E
:10308000040103F041F9CDE90801DAE908633246A9
:10309000DAE90481404603F037F94FF02042F14B62
:1030A000CDE9000103F030F9CDE90401DAE90A6362
:1030B0003246DAE90881404603F066FACDE90201BA
:1030C000DDE9042302F050FECDE90601DDE9082325
:1030D00002F04AFECDE90A01DAE90263324603F062
:1030E00013F9CAE90E01DAE90A01CAE90C01DAE9C1
:1030F0000801CAE90A01DAE90E21104602F002FECF
:10310000834658460DB0BDE8F08F2DE9FC5F0446BC
:10311000894616461D46D9E9007121F0004100227A
:10312000D14B384603F0B4F812D305EBC400D0E914
:1031300000A306EBC4005246D0E90071384603F004
:10314000E3F800221346CDE9000103F0DBF90CD8C7
:1031500005EBC400D0E9001006EBC402C2E9001080
:1031600005EBC40103C9BDE8FC9F05EBC400D0E931
:10317000007306EBC4003A46D0E900A1504603F0C4
:10318000C3F800221346CDE9000103F081F802D80C
:1031900000200146E7E705EBC400D0E9001006EB8C
:1031A000C402C2E9001005EBC40103C9DBE770B536
:1031B0000446D4E9005121F000410022AB4B2846DF
:1031C00003F0A0F90CD8D4E9005121F0004100220D
:1031D000A74B284603F05CF802D20020A54970BD39
:1031E000D4E9005121F000410022A14B284603F010
:1031F00089F90CD8D4E9005121F0004100229E4BFE
:10320000284603F045F802D200209C49E7E7D4E9BC
:10321000005121F000410022974B284603F072F93B
:103220000CD8D4E9005121F000410022944B2846EB
:1032300003F02EF802D200209249D0E7D4E90051E1
:1032400021F0004100228E4B284603F05BF90CD898
:10325000D4E9005121F0004100228B4B284603F0B5
:1032600017F802D200208949B9E7D4E9005121F0CA
:1032700000410022844B284603F044F90CD8D4E9DD
:10328000005121F000410022814B284603F000F854
:1032900002D200207249A2E7D4E9005121F0004196
:1032A00000227B4B284603F02DF90CD8D4E90051BD
:1032B00021F000410022774B284602F0E9FF02D2BC
:1032C000002075498BE70020014688E72DE9F05F73
:1032D0004FF0000800BF7CE3704B714A71494046D3
:1032E000FFF713FF704A02EB881203C26E4800EB2F
:1032F000881000221346D0E90061304603F002F93D
:103300007ED20120694901F808000021684A02EBD9
:10331000C80211605160634901EBC801D1E9006343
:10332000614901EB88103246FFF778FE814603F0D1
:1033300015FA04460D4600224E4B2046294603F05E
:10334000E1F801D200244B4D00225A4B2046294679
:1033500002F09EFF01D20024564D574800EBC801F1
:10336000D1E9006122462B46304602F0FDFC524A6C
:1033700002EBC80203C2504800EBC80000224F4BCA
:10338000D0E90061304603F0BDF806D800214B4873
:10339000494A02EBC802C2E90010474800EBC800E6
:1033A00000221346D0E90061304602F071FF05D8D3
:1033B0000021414A02EBC80211605160B8F1000FD0
:1033C00009D0B8F1010F28D0B8F1020F7FD0B8F1C1
:1033D000030F7BD196E0012039490860002039496C
:1033E000C1F8B001304901EB8810FFF7E0FE324A26
:1033F00003C2314800221346D0E90061304600E0A4
:103400009EE002F0B1FC814602F0FEFE1FFA80FB56
:1034100059462D48FFF7D2F991E001202849091DAE
:10342000086000202749C1F8B4011F4901EB88104A
:10343000FFF7BDFE204AC2E902011146D1E902614F
:1034400000221346304602F08FFC814602F0DCFE7B
:103450001FFA80FB59461C48FFF7B2F96FE036E0CF
:10346000000079409999993F0000084000001440FD
:1034700000002E4000005940000039400000694023
:103480000080414000C072400080464000E075402E
:1034900000804B400040504000207C4070010020E4
:1034A00090010020500200206800002068010020E8
:1034B00058030020000059C03803002000208C4031
:1034C000B8812142008021420034014036E00120D1
:1034D000FE4908600020FE49C1F8A801FD4800EB44
:1034E000C80000221346D0E90061304602F03CFCDF
:1034F000814602F089FE1FFA80FB5946F648FFF725
:1035000061F91CE00120F149091D08600020F04923
:10351000C1F8AC01EF4800EBC801D1E9006100221D
:103520001346304602F020FC814602F06DFE1FFA81
:1035300080FB5946E848FFF747F900E000BF00BFAD
:10354000E64800EB881000221346D0E900613046BF
:1035500002F09EFE7DD20220E14901F80800002120
:10356000DC4A02EBC80211605160DE4901EBC80180
:10357000D1E90063D94901EB88103246FFF74EFDCF
:10358000814603F0EBF804460D460022D64B204658
:10359000294602F0B7FF01D20024D34D0022D34BBD
:1035A0002046294602F074FE01D20024CF4DD048B7
:1035B00000EBC80022462B46D0E90061304602F0FD
:1035C000D3FBCB4A02EBC80203C2C94800EBC800D8
:1035D0000022C84BD0E90061304602F093FF06D8C4
:1035E0000021C448C24A02EBC802C2E90010C04828
:1035F00000EBC80000221346D0E90061304602F01B
:1036000047FE05D80021BA4A02EBC802116051609A
:10361000B8F1000F09D0B8F1010F2AD0B8F1020FAC
:103620004CD0B8F1030F7DD163E00020B2490860AF
:103630000120B249C1F8B001A84901EB8810FFF799
:10364000B6FDAB4A03C2AA4800EBC80000221346ED
:1036500000E06EE0D0E90061304602F085FB814673
:1036600002F0D2FD1FFA80FB59469B48FFF7A6F8EF
:103670005EE00020A049091D086001209F49C1F8B3
:10368000B401964901EB8810FFF791FD984A02EBCF
:10369000C80203C2964800EBC80000221346D0E9D6
:1036A0000061304602F060FB814602F0ADFD1FFA7A
:1036B00080FB59468848FFF783F839E000208349AA
:1036C000086001208249C1F8A801894800EBC801BF
:1036D000D1E9006100221346304602F045FB8146E5
:1036E00002F092FD1FFA80FB59467B48FFF76AF80B
:1036F0001EE000207549091D086001207449C1F8C9
:10370000AC017B4800EBC801D1E9006100221346FF
:10371000304602F029FB814602F076FD1FFA80FB5D
:10372000594600E003E06C48FFF74EF800E000BFA8
:103730004BE16A4800EB8811D1E900610022134691
:10374000304602F025FDF3D1654810F80800012845
:1037500072D10021664A02EBC802116051605D48D7
:1037600000EBC801D1E900614FF06632644B30468E
:1037700002F0CAFD574A02EBC80203C2554800EBEB
:10378000C80000225F4BD0E90061304602F080FDA6
:1037900005D200214F4A02EBC80211605160B8F116
:1037A000000F09D0B8F1010F1BD0B8F1020F2ED0D5
:1037B000B8F1030F57D140E001204F4908600020C5
:1037C0004E49C1F8B001434800EBC801D1E90021DE
:1037D000104602F019FD86B231463F48FEF7EEFF73
:1037E00042E001204449091D086000204349C1F816
:1037F000B401384800EBC801D1E90021104602F0BD
:1038000003FD86B231463448FEF7DAFF2CE0012092
:103810002E49086000202E49C1F8A8012D4800EB70
:10382000C801D1E90021104602F0EEFC86B2314613
:103830002948FEF7C7FF17E017E001202349091DBB
:10384000086000202249C1F8AC01224800EBC80002
:10385000D0E90021104602F0D7FC86B231461E485E
:10386000FEF7B2FF00E000BF00BF1D4810F80800DF
:1038700002287CD10020174A02EBC8021060506079
:103880001B4800EBC8004FF066321D4BD0E90061C9
:10389000304602F039FD164A02EBC80203C2144852
:1038A00000EBC8000022174BD0E90061304602F05F
:1038B000EFFC05D200200E4A02EBC80210605060F7
:1038C000B8F1000F28D0B8F1010F1DE0A00121428E
:1038D000000021423803002000340140680000202D
:1038E000680100205002002000005940000059C02B
:1038F0005803002000208C40B881214200802142E2
:103900006666EE3F000049401BD0B8F1020F2FD091
:10391000B8F1030F57D140E0002031490860012081
:103920003049C1F8B001304800EBC801D1E90021AD
:10393000104602F069FC86B231462C48FEF73EFF85
:1039400042E000202649091D086001202549C1F8F0
:10395000B401254800EBC801D1E90021104602F06E
:1039600053FC86B231462148FEF72AFF2CE02CE0BA
:1039700000201F49086001201E49C1F8A8011A480B
:1039800000EBC801D1E90021104602F03DFC86B2EF
:1039900031461648FEF716FF16E000201449091DAF
:1039A000086001201349C1F8AC010F4800EBC801C1
:1039B000D1E90021104602F027FC86B231460B48BF
:1039C000FEF702FF00E000BF00BF08F1010000F0B9
:1039D000FF08B8F1040FFFF67FACBDE8F09F0000D0
:1039E000B881214200802142580300200034014068
:1039F000A00121420000214208B501210C20FDF761
:103A0000B1FF01210846FDF7ADFF0121CE48FDF7CA
:103A1000BEFD0121CD48FDF7BAFD6846FDF771FDF9
:103A200048F2C300ADF8000004208DF80300032025
:103A30008DF802006946C648FDF7D8FCC820ADF8ED
:103A4000000004208DF8030003208DF80200694671
:103A5000C048FDF7CBFC08BD08B54FF4A060FCF7EB
:103A6000FFFE1C208DF8000000208DF801000220D0
:103A70008DF8020001208DF803006846FCF7F5FE82
:103A80004FF4A060FCF7ECFE1D208DF80000002034
:103A90008DF8010002208DF8020001208DF803004E
:103AA0006846FCF7E2FE4FF4A060FCF7D9FE1E204A
:103AB0008DF8000000208DF8010002208DF8020032
:103AC00001208DF803006846FCF7CFFE4FF4A0609C
:103AD000FCF7C6FE32208DF8000000208DF80100B2
:103AE00002208DF8020001208DF803006846FCF7E3
:103AF000BCFE4FF4A060FCF7B3FE37208DF8000049
:103B000000208DF8010001208DF802008DF80300DF
:103B10006846FCF7AAFE08BD30B587B005460C46DE
:103B200001210F20FDF72BFF4FF08040FDF77EFFB6
:103B30008948FDF77BFF8948FDF778FF8848FDF746
:103B400075FF01A8FEF772FBADF80850ADF8044010
:103B50000020ADF80A00ADF806008DF80C0001A9B0
:103B60004FF08040FEF736F801A8FEF75FFBADF896
:103B70000850ADF804400020ADF80A00ADF806008A
:103B80008DF80C0001A97448FEF724F801A8FEF78F
:103B90004DFBADF80850ADF804400020ADF80A0028
:103BA000ADF806008DF80C0001A96C48FEF712F87C
:103BB00001A8FEF73BFBADF80850ADF8044000202B
:103BC000ADF80A00ADF806008DF80C0001A96448B4
:103BD000FEF700F800231A4603214FF08040FEF75D
:103BE00008FC00231A4603215B48FEF702FC002371
:103BF0001A4603215948FEF7FCFB00231A4603210D
:103C00005748FEF7F6FB04A8FEF723FB0320ADF8A8
:103C1000180004A94FF08040FEF76FFA01218807D1
:103C2000FEF7FAFD012211469007FEF74AFB00213C
:103C30004FF08040FEF7BEFD01218807FEF726FB0E
:103C400004A8FEF706FB0320ADF8180004A94248BB
:103C5000FEF753FA01214048FEF7DEFD012211462E
:103C60003D48FEF72EFB00213B48FEF7A3FD012156
:103C70003948FEF70BFB04A8FEF7EBFA0320ADF87A
:103C8000180004A93548FEF738FA01213348FEF739
:103C9000C3FD012211463148FEF713FB00212F48D6
:103CA000FEF788FD01212D48FEF7F0FA04A8FEF783
:103CB000D0FA0320ADF8180004A92948FEF71DFA30
:103CC00001212748FEF7A8FD012211462448FEF7EE
:103CD000F8FA00212248FEF76DFD01212048FEF789
:103CE000D5FA07B030BD3EB505460C46012120206F
:103CF000FDF745FEADF80050ADF804400020ADF8EA
:103D00000600ADF802008DF8080069461548FDF779
:103D100061FF01211348FEF7B9FA0122114611484B
:103D2000FEF7CFFA3EBD10B5FFF766FEFFF794FE33
:103D3000002141F28730FFF7EFFE41F61F411820C6
:103D4000FFF7D1FF10BD0000000318000002300093
:103D500000080140000C0140000400400008004041
:103D6000000C00400014004000B589B0012109207A
:103D7000FDF7F8FD01214806FDF701FE01214FF492
:103D8000EA10FDF704FC03208DF816004FF4807054
:103D9000ADF8140048208DF8170005A95B48FDF721
:103DA00025FB4FF40070ADF8140018208DF81700B3
:103DB00005A95648FDF71AFB14208DF810000020C5
:103DC0008DF811008DF8120001208DF8130004A861
:103DD000FCF74BFD4E48FCF7B1FD06A8FCF7D2FE00
:103DE00001208DF81F008DF8200000208DF81B00A9
:103DF00004208DF81C0002208DF81D000420ADF871
:103E0000180006A94248FCF7B2FD00208DF80A0010
:103E10008DF80B0001208DF80C004020ADF800005B
:103E20000020ADF80200ADF80400ADF80600ADF8D2
:103E3000080001208DF80D006846FCF722FE0122E3
:103E400002213348FDF71CF909B000BD70B53148B7
:103E5000407A002846D12F4800680F2806D017283E
:103E600021D01F282DD0272839D139E02948D0F872
:103E70000B402146284802F09DFC054602F06EFCEE
:103E8000264A03C22348D0F80F402146244802F0B6
:103E900091FC054602F062FC204AC2E902010020C2
:103EA000204908601DE01B48D0F80B401E49204601
:103EB00002F080FC054602F051FC184AC2E90601F6
:103EC0000FE01448D0F80B401749204602F072FC6E
:103ED000054602F043FC114AC2E9040100BF00BFDD
:103EE00000BF00BF70BD10B502210948FDF730F9D1
:103EF00050B1084A00210648FCF7A7FFFFF7A6FFCC
:103F000002210348FDF724F910BD0000000C014018
:103F1000006400408C03002000007042700100200B
:103F2000000070C2300000200000C843704700004D
:103F30000FB4044910B503AA029800F0F9FA10BCB6
:103F40005DF814FB600000202DE9F0474FF0000AF7
:103F500089460446C0F820A02046E168884700282A
:103F600076D0252806D0D4E901219047206A401C4C
:103F70002062F1E7E168204600268847C4F81CA0CB
:103F800005460027C4F818A02A2D09D0284601F0BC
:103F90000AFE38B304EB8708303DC8F8185019E022
:103FA00059F8041B204604EB87029161E1688847B9
:103FB000012F054618D1E069002820DA26F02006F6
:103FC0001DE0D8F8180000EB800005EB4000303809
:103FD000C8F818002046E1688847054601F0E3FD6F
:103FE0000028EED1012F0AD02E2D08D12046E168FD
:103FF00088477F1C0546022F46F02006C4DBA069D7
:10400000002803DA404246F00106A061F00701D023
:1040100026F010066C2D0AD0682D08D04C2D39D012
:104020006A2D35D0742D35D07A2D33D016E0E16865
:104030002F4620468847B84205460AD16C2F27D024
:104040004FF48060E168064320468847054605E056
:1040500027E06C2F1AD04FF4807006430DB3A5F102
:104060004100192802D8203546F400664A46294600
:10407000204626604E46FCF7B5F880B101280BD0EB
:10408000F61D26F0070000F1080965E74020E4E787
:104090008020D7E70020D5E706F104095CE7284631
:1040A00061E7206ABDE8F0874FF0000200B51346D3
:1040B00094469646203922BFA0E80C50A0E80C5048
:1040C000B1F12001BFF4F7AF090728BFA0E80C50F9
:1040D00048BF0CC05DF804EB890028BF40F8042BF2
:1040E00008BF704748BF20F8022B11F0804F18BF5F
:1040F00000F8012B7047704770477047704710B544
:1041000000F07CFA006810BD10B5044600F076FAA5
:10411000046010BD70472DE9FF4F0C461E464FF05E
:10412000FF378BB0D2E90001DDF860800A908A4643
:10413000C1F30A5505B93D46002108464FF000007D
:10414000BAF1000F00F4400005DA00EB80004FF4F4
:10415000400101EA50004FEA9059B9F1010F00DD2A
:10416000B9460A9850EA4A000ED044F61050A5F21B
:10417000FF3545432F14B8F1000F1ED07542291E9C
:104180001EDDC9F100021CE0B8F1010F4FF0000084
:1041900001D0302103E0F24305E02154401CB0423D
:1041A000FBDB30460022002121540B99C1F8088026
:1041B000C1E900200FB0BDE8F08FBD1B6D1CDEE72C
:1041C0004A4600DA694206A800F0E2FA06AB93E834
:1041D000070003AB83E8070050460A9901F05BF83B
:1041E0008DE80700A0F500501F3800900398002DBF
:1041F00009DD42F21F014A46084403A903906846BC
:1042000001F0E5FA08E0A0F500504A461F3803A97E
:104210000390684601F003FB8DE807000004000CE2
:1042200003D04FF0FF30410800E01046B8F1000F16
:1042300003D00022009215461EE0751E05D400F042
:10424000E1F9303262556D1EF9D5B34601220843BB
:1042500002D000227F1C04E02078302801D1002207
:104260007F1E002A099786D01DE0112D07DA00F085
:10427000C9F9303262556D1C50EA0102F5D108438C
:1042800002D00098C8B10EE00021681E05E0235C52
:10429000625C63542254401E491C8142F7DBAB46EA
:1042A000A81B401E0990002004F80B000B98099AE7
:1042B000C0F80880C0E9002B7CE711264FF0000809
:1042C00059E72DE9F04F88460446D21D22F0070138
:1042D00091B0D1E90001CDE90A0101F0EAFB024603
:1042E0000B98C00F01D02D2007E02068810701D571
:1042F0002B2002E0202101EAC000032A099001D00E
:10430000072A05DB03464146204600F0E1F90BE1B0
:104310002078800601D5E06900E00620B8F1650F3D
:10432000814606D0B8F1660F18D0B8F1670F70D18A
:1043300031E00020B9F1110F009001DB112301E001
:1043400009F101030AAA01A90CA8FFF7E4FEDDE9BF
:104350000C70002609F10105834647E001204B4619
:1043600000904FF000470AAA01A90CA8FFF7D3FE5E
:10437000DDE90DB00C995D46002610B909F1010088
:104380000D18B9EB050003D4C0F1FF3609F10105A2
:10439000A5EB09002BE0B9F1010F01DA4FF001099B
:1043A0000020B9F1110F0090484601DD112300E013
:1043B00003460AAA01A90CA8FFF7ADFEDDE90C70BF
:1043C0004D4600268346207800070AD4AB4500DA24
:1043D0005D4601A8012D04DD411911F8011C3029A9
:1043E00007D04F4502DA17F1040F04DA01208246A4
:1043F0000FE06D1EEEE7002F02DCED1B3E4403E0F4
:10440000781CA84200DD7D1CB81B00F1010A4FF0AA
:1044100000472078000703D4AA4501DB4FF0FF3A9C
:104420000021B7F1004F0DF143088DF8431024D05F
:1044300002202B23002F01DA7F422D230A21021EA6
:10444000A0F1010000DC5FB197FBF1FC97FBF1F2FA
:1044500001FB1C7C17460CF1300C08F801CDEEE78F
:10446000A8F1010003702188090501D5452100E06C
:104470006521A0F1010800F8011C09980FA9A1EB22
:104480000807FF1D00B10120411901EBEA70A16985
:104490003844081A401EA0612078C00602D4204685
:1044A000AFF30080099828B1D4E901219047206A30
:1044B000401C20622078C00622D52046AFF3008041
:1044C0001EE0002E04DBB34502DD01A8805D00E0A4
:1044D0003020D4E901219047206A401C2062761CDC
:1044E000AAF101005FEA000A0AD100F083F8C0686F
:1044F0000168405CD4E901219047206A401C206299
:10450000281EA5F10105DCDC07E0D4E9012118F83B
:10451000010B9047206A401C2062381EA7F101075A
:10452000F3DC2046AFF30080032011B043E6000027
:10453000074B70B50D467B4400F0B7F8044628469B
:1045400000F094F910B14FF0FF3070BD204670BDFF
:10455000FDE7FFFF0FB4002300B589B00CA900915F
:104560000B99CB60204B7B440693204B7B440793F5
:1045700004236FF00042CDE901321D4A7A446B46B4
:1045800008920246002002F043FA09B05DF814FBDD
:1045900070B506464FF0FF3015460C46324686B0E1
:1045A0000091CDE9010169460020049004A8FFF7BD
:1045B000D1FF03460498211825B108B10A4600E04E
:1045C00022462A6000280DD0002B02DD0098884288
:1045D00008D03246081B69460094CDE9010404A8BE
:1045E000FFF7B8FF06B070BDE7010000FF01000053
:1045F0000F01000000487047C003002000487047CA
:10460000A003002030B5B0F10A024FEA900E71F11C
:1046100000034EEA817EB0EB0E0061EB91014FEAA0
:10462000101E4EEA017E10EB0E0041EB11114FEA15
:10463000102E4EEA016E10EB0E0041EB11214FEAF5
:10464000104E4EEA014E10EB0E0041EB11414018A6
:1046500041F100014FEAD00040EA41704FEAD10138
:1046600010EB80054FEA810444EA907444EB0104A6
:104670006D1944EB0404521BA3414FF0000348BFE3
:104680000A3200D530BD401C41F1000130BD10B5EB
:10469000044600F019F90068005D00F0010010BD4B
:1046A00001694A1C02610878704700B58FB0CDE9F6
:1046B00001310021059105497944CDE903101146E6
:1046C0006846FFF741FC0FB000BD0000E5FFFFFFAB
:1046D0002DE9F0411F46044603260168072A01F42C
:1046E000006004DB08B116A505E016A503E008B1DB
:1046F00015A500E015A521F010002060A069C01EDE
:10470000A0610FB1401EA0612046AFF300804FB101
:10471000D4E9012138469047206A401C2062C01C21
:10472000206206E0206AFAE7D4E9012115F8010BBE
:104730009047761EF8D22046AFF30080BDE8F081A6
:104740004E414E006E616E00494E4600696E660035
:10475000426842B1016811F8013B23B1521EC0E921
:104760000012184670470121C160881E70474268D8
:104770005AB1C368016843B983688B4205D0491EAA
:10478000521CC0E90012002070474FF0FF30704704
:104790002DE9F047814616468AB0334878440DC863
:1047A0008DE80D0030487844801C03AC0DC884E8C7
:1047B0000D0041F69B300844372190FBF1F290FB4D
:1047C000F1F5A5F1800501FB12041B3C02D5644202
:1047D000012000E00020DFF890A080460027FA4486
:1047E000AAF1BE0A0DE0E00709D03246684607EBA1
:1047F00047010AEB810101F012F88DE8070064100F
:104800007F1C002CEFD1184F7F44AC3F18E0E80725
:1048100014D007EB04100DF1180A90E80E008AE896
:104820000E00C068F04201D198190890324606A9DE
:1048300003A800F0F4FF03AB83E807006D10641CCD
:10484000002DE4D132466946B8F1000F03A802D02A
:1048500000F0BDFF01E000F0E2FFC9E90001C9F886
:1048600008200AB0BDE8F08728230000007B00F094
:104870008000704700487047A00300207546FFF78E
:10488000F9FFAE4605006946534620F0070085460D
:1048900018B020B5FBF7D2FFBDE820404FF000066E
:1048A0004FF000074FF000084FF0000B21F0070118
:1048B000AC46ACE8C009ACE8C009ACE8C009ACE85B
:1048C000C0098D467047000010B5FFF793FE001D2C
:1048D00010BD00BF051400002DE9FF4F064689B04A
:1048E0000878FF2806D0491C2D2805D000244FF059
:1048F000000908E000200CE00124F8E709EB890337
:10490000491C00EB43090878FF28F7D114B1C9F11D
:1049100000008146107800252C46AA4629462D28FD
:1049200001D02B2804D1521C2D2813D00020824600
:104930008B461078FF280FD04FF0000C0A21521C34
:10494000A5FB017804FB018105FB0C11C5194BEB9C
:104950000104EEE70120EAE7002108464FF00000DD
:10496000BAF1000F02D000EB80004008C0F381587C
:10497000B8F1010F01DD4FF0FF380C9809EB00078B
:1049800055EA040009D04FF0020917F5FA7F0BDA57
:104990004FEACA70C6E900B012E04FEACA70C6E931
:1049A00000B00DB0BDE8F08FB7F5FA7F0DDDF0482F
:1049B0007844D0E90010C6E9001040EACA7070607F
:1049C000FFF71CFEC0F80090EBE7391E02DAC8F1D1
:1049D000000200E0424600DA794206A8FFF7D8FE5E
:1049E00006AB93E8070003AB83E8070044F23E0000
:1049F0005BEA04010090584604D144F21E012C46A3
:104A00005D460091210C0904014306D1009924045C
:104A100044EA15442D041039009104F07F4101430C
:104A200006D10099240244EA15642D020839009148
:104A300004F07041014306D10099240144EA157441
:104A40002D01091F009104F04041014306D1009956
:104A5000A40044EA9574AD00891E009104F0004161
:104A6000084304D100986D196441401E00904246ED
:104A70006846002FCDE9014503A902DD00F0E3FE01
:104A800001E000F0B8FEBAF1000F04460D4601D077
:104A900084F0004440F2FF7724F00040284303D024
:104AA000C4F30A50B84212D1FFF7A8FDC0F8009035
:104AB000C4F30A50B8420AD1AE487844D0E9001095
:104AC000C6E9001004F000410843706069E7C6E9D8
:104AD000005466E72DE9FF4F1F464FF0000A4FF0E4
:104AE000FF38454691B0D7E90146CDF83CA0FFF725
:104AF00081FDC0680168405C1090B96912986D1C16
:104B00008847396A814688470028F6D1B9F1FF3FC6
:104B10000AD0002E24F4D06411DDB9F12B0F08D097
:104B2000B9F12D0F0BD102E0404615B03AE744F43D
:104B30008064B96912986D1C8847761E81466005AD
:104B400004A901D52D2000E02B20002E01F1010B3E
:104B50000DF130088DF810003FDDB9F1690F08D074
:104B6000B9F1490F05D0B9F16E0F02D0B9F14E0F6E
:104B70001CD13B4601A8009580E85002DDE91212E5
:104B80006FF0020001F048FFC11CCED10EE0B96900
:104B900012986D1C884781461398761E44F4007461
:104BA00005600F98401C002E0F9016DDB9F1300FF4
:104BB000EDD0B9F1780F02D0B9F1580F0DD10F989F
:104BC00001280AD13B46CDE90054DDE91212001F4D
:104BD000029601F01FFFC11CA7D1109989453ED153
:104BE00044F0800406E01399681CAAF1010A44F419
:104BF00000740860B9696D1C1298761E88473028C9
:104C00008146F0D02BE01099894505D1200603D4C8
:104C1000761E44F0800418E0484600F0C4FF08B354
:104C2000761E0DF123018B4544F4007408D2A9F1DE
:104C300030000BF8010B200607D5AAF1010003E0B4
:104C4000200602D40AF101008246A00502D513997C
:104C5000681C0860B96912986D1C88478146002E4F
:104C6000D1DC53E0002E51DDB9F1650F02D0B9F16E
:104C7000450F4BD1A00549D5B9696D1C1298761E18
:104C800024F440748847002E81460CDD2B2804D084
:104C9000B9F12D0F07D144F48074B96912986D1CD5
:104CA0008847761E8146E00501D52D2100E02B21A5
:104CB00008F8011BCDF8008021E0761E0DF13901C6
:104CC000884544F400740CD2A9F1300010F0FF00C4
:104CD00088F8000002D10099884509D908F1010837
:104CE00006E0E00501D5244801E042F20F7082465B
:104CF000B96912986D1C8847814613980560002E8B
:104D000004DD484600F04FFF0028D6D1F96912981B
:104D10008847FF2053468BF8000088F800000020E9
:104D20000A900B9004AA0CA90AA8FFF7D5FDA005CC
:104D300002D46FF00100F8E614F0240F0AD0E00767
:104D400014D13868DDE90A12031D3B600068C0E930
:104D500000120BE00AA9684600F0CEFEE00705D17C
:104D60003868009A011D3960006802602846DCE658
:104D70004C21000042200000F1D8FFFF0446AFF3B1
:104D800000802046FBF74EFA4FF0013C50F8042B10
:104D900051F8043B9A4221D1A2EB0C03934313EA4E
:104DA000CC1317D150F8042B51F8043B9A4215D17B
:104DB000A2EB0C03934313EACC130BD150F8042B52
:104DC00051F8043B9A4209D1A2EB0C03934313EA36
:104DD000CC13DBD04FF00000704700BFD01A01BAEF
:104DE000B1FA81F101F0180122FA01F0CB40C1F1D2
:104DF0002001DBB2C0B2C01A2CFA01F3D11A9143E0
:104E000011EAC311E6D170472DE9FF4F1F464FF05D
:104E10003C0987B04FF00042DDE9141001F10108B0
:104E2000DDF858A002EA4050039000200490834629
:104E3000054604460590B969461E08988847AAF1B8
:104E4000010A0290BAF1000F37DD02982E2815D022
:104E5000102100F012FA00282ADB4FF0010B049910
:104E6000014316D0B9F1000F0BDB4A46C11700F021
:104E7000F1F905430C43A9F1040905E0012005906F
:104E800007E008B145F0010501200490059800B93C
:104E9000361DB969089808F101088847BBF1000F71
:104EA000AAF1010A0290CDD00999C1F80080C9E7A2
:104EB0000298702808D0502806D0F96908988847C9
:104EC000BBF1000F14D04FE0002002900120BBF195
:104ED000000F049009D0B969089808F101088847C3
:104EE000AAF10109B9F1000F07DCF96908988847B0
:104EF0006FF001000BB0BDE8F08F2B2804D02D28F7
:104F00000CD14FF0FF300490B969089808F10108FE
:104F10008847A9F10109B9F1000FE6DD411CE4D091
:104F20000A2100F0AAF90028DFDB029908F1010844
:104F300001EB810100EB41000290B96908988847B4
:104F40000A2100F09AF9099AA9F10109B9F1000FB3
:104F5000C2F8008001DD0028E7DAF969089888477F
:104F60000499029800FB016655EA040004D004F09D
:104F70004041090002D006E0039898E0A40044EA0A
:104F80009574AD00B61E04F00041080002D16D1901
:104F90006441761E159810F0240F03D04FF00B09D2
:104FA0005C4803E04FF028096FF07D0082465645CB
:104FB00007DAAAEB06018944B9F1410F01DD4FF090
:104FC000410901200021A9F1010200F043F9024644
:104FD00028400B462140084301D0012100E0002178
:104FE000501E029143F1FF3128402140084301D077
:104FF000012000E000200299834651EA0B014FD0C6
:10500000002108464FF00000039900F4400039B138
:1050100000EB80004FF4400100EBD07001EA60002B
:105020008015012802DD4FF0FF3000E013D0401C56
:1050300036D0029860B3BBF1000F0CD14A46012074
:10504000002100F007F928402140084301D0012049
:1050500000E00020E0B101204A46002100F0FAF80B
:10506000034640190A4661412D1A8C4111D3B9F10A
:10507000400F09DD159810F0240F02D0AAF1340674
:1050800003E0AAF1170600E0761C00254FF000446B
:1050900006E05B1E42F1FF3220EA030521EA02042A
:1050A000CAF10100B04206DA1B4903980843019097
:1050B000002000900EE0039AC4F3D321E80A0A43CB
:1050C000164940EA44500A433146CDE90002684699
:1050D00000F05EFD159810F0240F0BD01598C00756
:1050E00015D13868DDE90012031D3B600068C0E996
:1050F00000120CE002A8694600F0FEFC1598C007FB
:1051000005D13868029A011D396000680260404686
:10511000F0E6000002FCFFFF0000F07F0000F03F1F
:105120002DE9FF4F92461D4685B04FF00041DDE965
:10513000124BDDE914727F1E01EA4B50414940F0E9
:10514000FF4940EA0108002122F02000492804918B
:1051500002D04E2828D04CE03BA0012607C88DE89D
:105160000700A9690698641C88477F1E014606D47B
:105170001DF8060018B121F0200181420BD0E96929
:1051800006988847032E34D0082E32D06FF00100E5
:1051900009B0BDE8F08F761C032E01D0082EE0D1B7
:1051A000601CCAF80000DCE7A9690698641C8847FF
:1051B0007F1E2AD420F02000412826D1A969069814
:1051C000641C88477F1E20D420F020004E281CD16C
:1051D000A9690698641C88477F1E48F4002849F492
:1051E0008009CAF8004001D4282806D0E969069849
:1051F00088475FEACB7012D022E0A9690698641C48
:1052000088477F1E01D4002803DAE9690698884799
:10521000BCE72928F1D1641CCAF80040E9E71BF07B
:10522000240F07D028680499031D2B600068C0E98B
:10523000001805E02868021D2A600068C0F8009088
:105240002046A5E70000F07F494E46494E49545993
:1052500000000000B2F120030AD5C2F1200301FAD8
:1052600002F120FA03F300FA02F041EA0301704769
:1052700000FA03F14FF0000070473A2800D23038AE
:1052800020F02002412A01D3A2F13700884201D345
:105290004FF0FF3070475FEA400C08BF91F0000FFD
:1052A0004FEA8C234FEAC12243EA51514FEA1C5086
:1052B00018BF00F5F0404FEA300018BF41F0004140
:1052C0005FEA6C5C00F02980BCF1FF3F08BF40F052
:1052D00080407047130C06BF12044FF0100C4FF0C3
:1052E000000C130E04BF12020CF1080C130F04BFC4
:1052F00012010CF1040C930F04BF92000CF1020C8C
:10530000D30F04BF52000CF1010C11464FF0000204
:10531000A0F11F00A0EB0C00704711F0004F08BF78
:10532000704731F000413FF4D5AF0B0C06BF0904C4
:105330004FF0100C4FF0000C0B0E04BF09020CF1E3
:10534000080C0B0F04BF09010CF1040C8B0F04BFF8
:1053500089000CF1020CCB0F04BF49000CF1010CC9
:10536000CCF12003A0EB0C0022FA03F302FA0CF2BA
:1053700041EA030100F10100704720F07F4C80EA10
:10538000030023F07F47ACEB070303F57C5300F0E9
:10539000004003F1FF032DE980494FEA154B09B4A2
:1053A0004FEA144325EA0B4E24EA03480FF2042681
:1053B00006EB132749083E785FEA320203FB0667D3
:1053C000C7F5000707FB06F64FEA54374FEAD64603
:1053D00006F1020607FB066CCCF1005C4FEA1C47A5
:1053E0002CEA074C07FB06F40CFB06F504EB15460C
:1053F0004FEA961634BF00204FF000404FEAD137F5
:1054000006FB07FC4FEA1C4C0CFB0BF7D21B03FB03
:105410000CF761EB07010CFB0EF7B0EB074072EBEA
:1054200017420CFB08F734BFA2EB0742B2EB07426E
:1054300061EB17414FEA0C444FEA910706FB07FC6A
:105440004FEA1C4C0CFB0BF7B0EBC74072EB57322A
:1054500003FB0CF734BFA2EBC742B2EBC74261EBD0
:1054600057310CFB0EF7B0EBC70072EB57720CFB19
:1054700008F734BFA2EBC702B2EBC70261EB57716A
:10548000039F4FEA816141EA921104EBCC044FEA99
:10549000D1374FEA826206FB07FC42EA90124FEADC
:1054A00080604FEA1C4C0CFB0BF7D21B03FB0CF784
:1054B00061EB07010CFB0EF7B0EB074072EB1742F4
:1054C0000CFB08F734BFA2EB0742B2EB074261EBDB
:1054D00017414FEA8C554FEA910704EB9C2406FBD9
:1054E00007FC4FEA1C4C0CFB0BF7B0EBC74072EB10
:1054F000573203FB0CF734BFA2EBC742B2EBC742F3
:1055000061EB57310CFB0EF7B0EBC70072EB577233
:105510000CFB08F734BFA2EBC702B2EBC70261EB8A
:10552000577115EB4C254FEA816141EA92114FEA20
:1055300082624FEAD13742EA901206FB07FC44F13F
:1055400000044FEA80604FEA1C4C0CFB0BF7D21BA7
:1055500003FB0CF761EB07010CFB0EF7B0EB074008
:1055600072EB17420CFB08F734BFA2EB0742B2EB19
:10557000074261EB174115EB1C154FEA813141EAF7
:1055800092414FEA823242EA90424FEA80304FEA3B
:105590000C7644F1000448EA03434EEA0B484FF00E
:1055A000000EB2EB080C71EB030724BF62463946CC
:1055B0004EEB0E0E4FF0000B0018524149414BEBE1
:1055C0000B0BB2EB080C71EB03077BF1000B24BF54
:1055D000624639464EEB0E0E4FF0000B001852415A
:1055E00049414BEB0B0BB2EB080C71EB03077BF162
:1055F000000B24BF624639464EEB0E0E51EA0207FD
:1056000018BF46F0010616EB0E7655F1000254F174
:10561000000103D5BDE88901BDE80088BDE8890126
:10562000BDE80048B619524141EB0101A3F1010365
:10563000704780807F7E7D7C7B7A797877767675FF
:105640007473727171706F6E6E6D6C6C6B6A6A6977
:105650006868676666656464636362616160605F11
:105660005F5E5E5D5D5C5C5B5B5A5A59595858578A
:1056700057565655555554545353525252515150F2
:1056800050504F4F4F4E4E4D4D4D4C4C4C4B4B4B45
:105690004A4A4A494949484848474747474646468B
:1056A00045454544444444434343434242424241C6
:1056B0004141000046EA0646A3F570534FEA1646FC
:1056C00046EA42564FEAD22242EA415210B54FEA28
:1056D000D121A3F1010300F017F820F0004000F100
:1056E000010C00F0004701EB00501146BCF5006FC3
:1056F00040EA070000D210BD02484FF0000140EA26
:10570000070010BD0000F07F002B26D4770021D0C9
:105710001CB54FEA370703B44FF010004FF01001EB
:105720004FF000000FBCBDE810400BF1010BBBF1C6
:10573000010F08BF5FEA170722BF12F1010211F142
:1057400001014FF0004143F1000300F0004043EA43
:1057500000007047F9D35708DAE746EA064613F126
:10576000400F4FEA16461FDD13F1200FDFBF16432F
:105770000A46002120335B42C8D0C3F1200746EA25
:10578000064602FA07F74FEA164646EA0706C3F14D
:10579000200722FA03F201FA07F721FA03F14FF08A
:1057A000000342EA0702B1E746EA020646EA064675
:1057B0004FEA164646EA0106BCBF46EA0646360CE4
:1057C0004FF000034FF000024FF000019EE72DE97B
:1057D000C048934630B491E8380007C831EA400C1D
:1057E00048BF34EA430C03D5FFF7C7FDFFF78CFF32
:1057F000F0BCBDE800882DE9C048934630B491E87C
:10580000380007C831EA400C48BF34EA430C03D5DE
:10581000FFF7B3FDFFF74EFFF0BCBDE800882DE9B0
:10582000C048934630B491E8380007C810F0804F64
:1058300008BF13F0804F03D100F019F8FFF764FFA1
:10584000F0BCBDE800882DE9C048934630B491E82B
:10585000380007C810F0804F08BF13F0804F03D105
:1058600000F005F8FFF726FFF0BCBDE8008820F047
:105870007F4780EA030023F07F4C07EB0C03A3F57E
:105880007C5300F00040A3F1FE0392F0000F00F003
:10589000B38095F0000F00F077802DE901494FEAC1
:1058A00011404FEA144621EA004800FB06FC24EAB6
:1058B000064708FB06F607FB08F800FB07F718EB9E
:1058C00006484CEB164C4FEA124B18EB07484FEAD0
:1058D00015464CEB174022EA0B4E0BFB06FC25EA63
:1058E00006470EFB06F607FB0EFE0BFB07F71EEB4B
:1058F000064E4CEB164C4FF000061EEB074E4CEBE1
:10590000174B18EB0B0840F1000018EB0E0B58EB8F
:10591000000840F100008F1A4FF000013CBFC9435E
:10592000661B14BFB5EB040C00213CBFC943F61B3A
:105930004FEA17444EEA8E0E27EA04454FEA1C4709
:1059400004FB07622CEA074C05FB07F70CFB05F686
:1059500004FB0CFC16EB074642EB174216EB0C4619
:1059600042EB1C421BEB060658EB0202414146EAA1
:105970009E0601D5BDE80189B619524141EB0101EE
:10598000A3F10103BDE801894FEA14454FEA11472D
:1059900024EA054621EA074C05FB07F406FB07F756
:1059A0000CFB06F105FB0CFC11EB074144EB174423
:1059B0004FEA124711EB0C4144EB1C4422EA074C1E
:1059C00005FB07F206FB07F70CFB06F605FB0CFCD4
:1059D00016EB074642EB174216EB0C4642EB1C4512
:1059E0006A1854F1000148BF7047B619524141EBA3
:1059F0000101A3F10103704795F0000F37D04FEA82
:105A000011424FEA144721EA024624EA074C02FBFE
:105A100007F106FB07F70CFB06F402FB0CFC14EB8A
:105A2000074441EB17414FEA154714EB0C4441EB97
:105A30001C4125EA074C02FB07F506FB07F70CFBA8
:105A400006F602FB0CFC16EB074645EB174516EB7A
:105A50000C4645EB1C42121951F1000148BF70473A
:105A6000B619524141EB0101A3F1010370474FEA1E
:105A700014454FEA114724EA054621EA074C05FB85
:105A800007F106FB07F70CFB06F24FF0000605FBDB
:105A90000CFC12EB074241EB174112EB0C4251EBAD
:105AA0001C4148BF7047921841EB0101A3F101036B
:105AB0007047490050EAC12018BF04204A0D18BFA2
:105AC00040F0010040F2FF72B2EB515F08BF40F0BE
:105AD0000200012808BF0520704740F20132002073
