:020000040800F2
:100000000006002045010008A10C0008710C000842
:100010009D0C0008BB0200088115000800000000CC
:10002000000000000000000000000000850E000835
:10003000C10A000800000000290D0008890F00080F
:100040005F0100085F0100085F0100085F01000810
:100050005F0100085F0100085F0100085F01000800
:100060005F0100085F0100085F0100085F010008F0
:100070005F0100085F0100085F0100085F010008E0
:100080005F0100085F0100085F0100085F010008D0
:10009000551500085F0100085F0100085F010008B6
:1000A0005F0100085F0100085F0100085F010008B0
:1000B0005F0100085F0100085F0100085F010008A0
:1000C0005F0100085F0100085F0100085F01000890
:1000D0005F01000899110008CD1100085F010008B8
:1000E0005F0100085F0100085F0100085F01000870
:1000F0005F0100085F0100085F0100085F01000860
:100100005F0100085F0100085F0100085F0100084F
:10011000651100085F010008ED0F00085F0100088D
:100120005F0100085F0100085F0100085F0100082F
:10013000DFF80CD000F090F800480047A91800083C
:10014000000600200648804706480047FEE7FEE715
:10015000FEE7FEE7FEE7FEE7FEE7FEE7FEE7FEE777
:100160008D0F00083101000896230022114600F08F
:1001700045B80000002801DBC0F10040002901DB88
:10018000C1F10041884270472DE9F05F054600202B
:1001900092469B4688460646814640241BE02846F8
:1001A00041464746224600F078F853465A46C01A60
:1001B000914110D311461846224600F05FF82D1ADF
:1001C00067EB01084F4622460120002100F056F857
:1001D00017EB00094E41201EA4F10104DFDC484664
:1001E00031462A464346BDE8F09F0029A8BF704724
:1001F000401C490008BF20F00100704710B4B0FA5D
:1002000080FC00FA0CF050EA010404BF10BC7047F7
:1002100049B1CCF1200421FA04F411FA0CF118BF11
:10022000012121430843A3EB0C01CB1D4FEA0061E0
:100230004FEA102042BF002010BC704700EBC350B3
:1002400010440029A4BF10BC7047401C490008BFDF
:1002500020F0010010BC7047064C074D06E0E06836
:1002600040F0010394E8070098471034AC42F6D3FD
:10027000FFF762FF6019000880190008202A04DBDC
:10028000203A00FA02F1002070479140C2F12003A9
:1002900020FA03F3194390407047202A04DB203AE8
:1002A00021FA02F00021704721FA02F3D040C2F196
:1002B0002002914008431946704700BFFEE7000046
:1002C00000B589B00121092000F062FD0121480636
:1002D00000F03EFD01214FF4EA1000F07DFC032008
:1002E0008DF816004FF48070ADF8140048208DF89A
:1002F000170005A92C4800F0E4FB4FF40070ADF89E
:10030000140018208DF8170005A9274800F0D9FB24
:1003100014208DF8100000208DF811008DF81200C7
:1003200001208DF8130004A800F0BCFC1F4800F069
:100330003FF806A800F077FA01208DF81F008DF82D
:10034000200000208DF81B0004208DF81C000220E6
:100350008DF81D000420ADF8180006A9134800F020
:1003600060F900208DF80A008DF80B0001208DF84F
:100370000C000020ADF800001420ADF802000020B1
:10038000ADF80400ADF80600ADF8080001208DF8C6
:100390000D00684600F028F801220221034800F011
:1003A00037F909B000BD0000000C014000640040B6
:1003B00010B504460B48844209D10121480600F0DB
:1003C000D7FC00214FF0007000F0D2FC08E00121C2
:1003D000880600F0CDFC00214FF0806000F0C8FCE2
:1003E00010BD00000064004010B50021837A012296
:1003F00002FA03F13D4A126842F001023B4B1A60D7
:100400003A4A1C3212688A43384B1C331A60027B0A
:10041000CAB9364A0C3212688A43344B0C331A601C
:100420004288C38842EA0343304A4032847A42F821
:1004300034300288838842EA03432C4A4032847A6B
:1004400002EBC4025360027B012A19D1274A0C3205
:1004500012680A43254B0C331A604288038842EA2B
:100460000343224A4032847A42F83430C288838877
:1004700042EA03431D4A4032847A02EBC4025360CD
:10048000C27A3AB9194A121D12688A43174B1B1DCA
:100490001A6006E0154A121D12680A43134B1B1D11
:1004A0001A60028932B9114A143212688A430F4B1A
:1004B00014331A600289012A06D10C4A14321268D8
:1004C0000A430A4B14331A60427B012A06D1074AB9
:1004D0001C3212680A43054B1C331A60034A126827
:1004E00022F00102014B1A6010BD000000660040BE
:1004F00070B504460D46002660692840002871D07A
:10050000B5F5807F5CD010DC082D35D006DC012DE0
:1005100020D0022D24D0042D72D127E0102D31D00F
:10052000202D35D0402D6BD138E0B5F5004F60D08F
:1005300009DCB5F5007F49D0B5F5806F4CD0B5F535
:10054000006F5DD14FE0B5F5803F2DD0B5F5003F90
:1005500056D12FE0A0682D4900F090FA064651E0F0
:10056000E068032100F08AFA06464BE0E0680821C3
:1005700000F084FA064645E0E068102100F07EFABB
:1005800006463FE02069032100F078FA064639E08C
:100590002069082100F072FA064633E02069102134
:1005A00000F06CFA06462DE06068082100F066FA5B
:1005B000064627E06068102100F060FA064621E058
:1005C000A069012100F05AFA06461BE0A069022149
:1005D00000F054FA064615E0A069042100F04EFA36
:1005E00006460FE00FE0A069702100F047FA0646CA
:1005F00008E06068042100F041FA064602E0FFE7E7
:10060000002600BF00E00026304670BD0101010059
:100610001AB143690B43436102E043698B43436171
:10062000704730B5024600200023146824F002040D
:100630001460146844F00104146000E05B1C54680A
:1006400004F001041CB94FF6FF74A342F6D15468BC
:1006500004F001040CB900206CE08C79012C04D169
:10066000146844F08004146003E0146824F08004EB
:100670001460CC79012C04D1146844F04004146057
:1006800003E0146824F0400414600C7A012C04D1B7
:10069000146844F02004146003E0146824F020047B
:1006A00014604C7A012C04D1146844F010041460D6
:1006B00003E0146824F0100414608C7A012C04D137
:1006C000146844F00804146003E0146824F008047B
:1006D0001460CC7A012C04D1146844F00404146032
:1006E00003E0146824F0040414608C78A407CD7827
:1006F00044EA05640D7944EA05444D7944EA055419
:100700000D886D1E2C43D461146824F0010414601C
:10071000002300E05B1C546804F001041CB14FF698
:10072000FF74A342F6D1546804F001040CB1002018
:1007300000E0012030BD10B500F5D87303EB0113C4
:100740001B6803F004031372137A53B900F5D873CE
:1007500003EB01131B6840F2FF7404EA5353136068
:1007600009E000F5D87303EB01131B686FF06044D8
:1007700004EAD303536000F5D87303EB01131B683D
:1007800003F00203537200F5D87303EB01135B68A7
:1007900003F00F03937200F5D87303EB01135B684A
:1007A0001B0AD37400F5D87303EB01139B68D37253
:1007B00000F5D87303EB01139B681C0A147300F552
:1007C000D87303EB01139B681C0C547300F5D873AA
:1007D00003EB01139B681B0E937300F5D87303EBB7
:1007E0000113DB68D37300F5D87303EB0113DB68E7
:1007F0001C0A147400F5D87303EB0113DB681C0C9E
:10080000547400F5D87303EB0113DB681B0E93746B
:1008100021B9C36843F02003C36003E0036943F0D8
:100820002003036110BD00218171C1710172417209
:100830008172C1728170C170032101710221417105
:1008400001210180704710B502460020936803F033
:100850008063B3F1806F00D110E0936803F0006310
:10086000B3F1006F01D1012008E0936803F08053D9
:10087000B3F1805F01D1022000E00420042874D08D
:1008800002F5C07303EB00131B6803F0010402F5CB
:10089000C07303EB00131C600B7A7BB94B7A0C8896
:1008A00043EA445302F5C07404EB00142468234364
:1008B00002F5C07404EB0014236010E00B7A4C685E
:1008C00043EAC4034C7A234302F5C07404EB0014DA
:1008D0002468234302F5C07404EB001423608B7A70
:1008E00003F00F038B7202F5C07303EB00135B6818
:1008F00023F00F0402F5C07303EB00135C6002F5F4
:10090000C07303EB00135B688C7A234302F5C07459
:1009100004EB001463608B7B1C064B7B44EA0344AE
:100920000B7B44EA0323CC7A234302F5C07404EB27
:100930000014A3608B7C1C064B7C44EA03440B7CB4
:1009400044EA0323CC7B234302F5C07404EB001478
:10095000E36002F5C07303EB00131B6843F001046E
:1009600002F5C07303EB00131C6010BD10B546E028
:1009700026480078052841D2DFE800F0030D1B2946
:100980003200234800F0DAFB0446FE2C02D101209D
:100990001E49087032E01E4800F0D0FB0446042CCB
:1009A00003D102201949087002E00020174908709D
:1009B00024E0174800F0C2FB0446022C03D10320B8
:1009C0001249087002E000201049087016E0104833
:1009D00000F0B4FB0F49086004200C4908700DE0DA
:1009E0000B4800F0ABFB04460A48006804EB00200B
:1009F0000949086000200549087000BF00BF04488D
:100A000090F842000028B3D110BD0000180000206B
:100A100054000020200000201C0000201FB50121F0
:100A2000102000F095F941F28730ADF8080041F64A
:100A30001F40ADF804000020ADF8060001A90E48E3
:100A400000F0FAFA36208DF8000001208DF8010040
:100A500000208DF8020001208DF80300684600F0A8
:100A600021F901221146044800F0DDFA0121024873
:100A700000F0CDFA1FBD000000100040024600202B
:100A800002EA01030BB1012000E0002070470000E2
:100A900010B500240DE00848015D084800F055FD40
:100AA00000BF4021054800F083FC0128F9D1601CFB
:100AB000C4B2082CEFDB10BD581900080038014003
:100AC00070472DE9F0410246002500260020002352
:100AD0000024002791F803C00CF00F0591F803C023
:100AE0000CF0100CBCF1000F03D091F802C04CEADE
:100AF000050591F800C0BCF1000F31D0146800204A
:100B00002BE04FF0010C0CFA00F3B1F800C00CEA36
:100B100003069E4220D183004FF00F0C0CFA03F71E
:100B2000BC4305FA03FC4CEA040491F803C0BCF191
:100B3000280F06D14FF0010C0CFA00FCC2F814C0CB
:100B40000AE091F803C0BCF1480F05D14FF0010C49
:100B50000CFA00FCC2F810C0401C0828D1D3146065
:100B6000B1F800C0BCF1FF0F34DD546800202EE066
:100B700000F1080C4FF0010808FA0CF3B1F800C0BE
:100B80000CEA03069E4221D183004FF00F0C0CFAB1
:100B900003F7BC4305FA03FC4CEA040491F803C0D4
:100BA000BCF1280F05D100F1080C08FA0CF8C2F8C6
:100BB000148091F803C0BCF1480F07D100F1080C74
:100BC0004FF0010808FA0CF8C2F81080401C082801
:100BD000CED35460BDE8F081F0B50A46002300246E
:100BE0000021002500F00046B6F1004F02D11D4E55
:100BF000F16901E01B4E7168C0F3034583B200F454
:100C00004016B6F5401F08D121F07061154E766888
:100C100026F07066134F7E6012E000F48016B6F581
:100C2000801F06D1032606FA05F4A14341F0706146
:100C300006E0460D360103FA06F6B14341F0706155
:100C400022B1460D360103FA06F6314300F00046A4
:100C5000B6F1004F02D1034EF16101E0014E716027
:100C6000F0BD000000000140416170470161704724
:100C700000BFFEE708B50121102000F089F803202D
:100C80008DF802001020ADF800008DF803006946D1
:100C90000148FFF716FF08BD0010014000BFFEE746
:100CA0007047000070B5002100230F22C47804B300
:100CB000154C246804F4E064C4F5E064210AC1F131
:100CC0000403CA40447804FA03F1847814402143B1
:100CD00009010E4C0678A155047804F01F05012483
:100CE000AC4005786D11AD0005F1E025C5F8004177
:100CF00009E0047804F01F050124AC40044D067897
:100D0000761145F8264070BD0CED00E000E400E0EF
:100D100080E100E002490143024A1160704700008F
:100D20000000FA050CED00E070470A4690F841100B
:100D3000425410F8413F591CCB1701EB93639B11B0
:100D4000A1EB831303704178491C4170413870470F
:100D500029B1064AD2690243044BDA6104E0034A2E
:100D6000D2698243014BDA617047000000100240F3
:100D700029B1064A12690243044B1A6104E0034A8E
:100D800012698243014B1A61704700000010024053
:100D900029B1064A92690243044B9A6104E0034A6E
:100DA00092698243014B9A61704700000010024033
:100DB00030B500210022002400232D4D6D6805F080
:100DC0000C0121B1042905D0082923D105E0294DC2
:100DD000056022E0274D05601FE0254D6D6805F494
:100DE0007012234D6D6805F48034022505EB9242A4
:100DF0001CB9214D554305600BE01D4D6D6805F490
:100E000000351DB11C4D5543056002E0194D554399
:100E1000056002E0174D056000BF00BF144D6D680E
:100E200005F0F0010909154D6B5C0568DD40456072
:100E30000F4D6D6805F4E061090A104D6B5C456863
:100E4000DD4085600A4D6D6805F46051C90A0B4D9F
:100E50006B5C4568DD40C560054D6D6805F440413B
:100E6000890B074D6B5CC568B5FBF3F5056130BDBB
:100E70000010024000127A0000093D00000000202E
:100E800010000020704710B500F002F810BD0000FF
:100E90000CB50020019000903348006840F4803089
:100EA0003149086000BF3048006800F4003000900D
:100EB0000198401C0190009818B90198B0F5A06FF6
:100EC000F1D12948006800F4003010B101200090F1
:100ED00001E0002000900098012843D123480068D9
:100EE00040F01000214908600846006820F0030027
:100EF00008600846006840F0020008601A48406830
:100F0000194948600846406848600846406840F40F
:100F1000806048600846406820F47C1048600846BD
:100F2000406840F4E81048600846006840F080706F
:100F3000086000BF0C48006800F000700028F9D07D
:100F40000948406820F003000749486008464068A7
:100F500040F00200486000BF0348406800F00C0009
:100F60000828F9D10CBD000000100240002002400A
:100F70000820044988720020087248723F200860E7
:100F800070470000E80100207047000010B51348CA
:100F9000006840F0010011490860084640681049A7
:100FA00008400E494860084600680E4908400B4951
:100FB00008600846006820F4802008600846406801
:100FC00020F4FE0048604FF41F008860FFF75BFFCD
:100FD0004FF000600449086010BD0000001002409E
:100FE0000000FFF8FFFFF6FE08ED00E010B501205D
:100FF000034908700121034800F006F810BD000005
:101000002400002000100040CA430282704721B132
:10101000028842F00102028004E002884FF6FE736B
:101020001A40028070471AB183890B43838102E022
:1010300083898B4383817047002202881D4B98422D
:101040000ED01D4B98420BD0B0F1804F08D01B4BF7
:10105000984205D01A4B984202D01A4B984204D1BC
:101060004FF68F731A404B881A43174B984207D09C
:10107000164B984204D04FF6FF431A40CB881A43D0
:1010800002808B8883850B8803850A4B98420BD09E
:10109000094B984208D00E4B984205D00D4B984210
:1010A00002D00D4B984201D10B7A03860123838233
:1010B00070470000002C0140003401400004004053
:1010C00000080040000C00400010004000140040E8
:1010D00000400140004401400048014010B5124862
:1010E0000068FFF741F804461048C0F80B4010486C
:1010F000407AC0B90E4800683F2812D10C49D1F897
:101100000B000021FFF736F803D2012009490870CF
:1011100002E000200749087004490748FFF793FBE5
:1011200000E000BF00BF10BD1C000020E80100204F
:10113000400000201400002000640040014691F8A7
:1011400040000A5C11F8403F581CC31700EB936342
:101150009B11A0EB83130B708878401E8870403978
:101160001046704710B540F22551094800F02DF99E
:1011700060B1074800F0E4F9C4B2064890F84200B4
:10118000402803D021460348FFF7CFFD10BD0000E3
:10119000004C00406001002010B540F22551094884
:1011A00000F013F960B1074800F0CAF9C4B206486C
:1011B00090F84200402803D021460348FFF7B5FDD0
:1011C00010BD0000003801405400002010B540F26E
:1011D0002551094800F0F9F860B1074800F0B0F96E
:1011E000C4B2064890F84200402803D02146034884
:1011F000FFF79BFD10BD000000440040DA00002016
:1012000021B1828942F40052828104E082894DF644
:10121000FF731A408281704730B587B004460D468F
:101220005C4884421ED1012144F20500FFF7B0FD65
:1012300003208DF81A006015ADF8180018208DF8FD
:101240001B0006A95448FFF73CFC04208DF81B0046
:101250000002ADF8180006A94F48FFF732FC252020
:101260008DF804004D48844221D101210520FFF76B
:101270008FFD01214804FFF76BFD03208DF81A0054
:101280000420ADF8180018208DF81B0006A942486C
:10129000FFF717FC04208DF81B000820ADF818009C
:1012A00006A93D48FFF70DFC26208DF804003C48B8
:1012B000844221D101210920FFF76AFD0121880420
:1012C000FFF746FD03208DF81A002015ADF8180031
:1012D00018208DF81B0006A93248FFF7F2FB042006
:1012E0008DF81B004002ADF8180006A92D48FFF745
:1012F000E8FB27208DF804002B48844221D10121EE
:101300001120FFF745FD0121C804FFF721FD03204F
:101310008DF81A002015ADF8180018208DF81B0064
:1013200006A92248FFF7CDFB04208DF81B004002E0
:10133000ADF8180006A91D48FFF7C3FB34208DF84F
:10134000040002950020ADF80C00ADF80E00ADF8D9
:101350001000ADF814000C20ADF8120002A92046D0
:1013600000F082F803208DF805008DF806000120BA
:101370008DF8070001A8FFF795FC012240F22551E6
:10138000204600F04CF801212046FFF739FF07B056
:1013900030BD00000038014000080140004400401A
:1013A00000480040000C0140004C0040001001408B
:1013B00002460020B1F5007F00D100BF13880B402A
:1013C0000BB1012000E00020704770B502460024F8
:1013D00000230025002040F66A16B14200D100BF6C
:1013E000C1F3421501F01F03012606FA03F3012D94
:1013F00002D19689334006E0022D02D1168A33408D
:1014000001E0968A33400C12012606FA04F416888D
:10141000344013B10CB1012000E0002070BDF0B5E4
:101420000346002400260025002040F66A17B94232
:1014300000D100BF1846C1F3421401F01F06012776
:1014400007FA06F5012C01D10C3004E0022C01D181
:10145000103000E014301AB107682F43076002E033
:101460000768AF430760F0BD2DE9F04786B0054639
:101470000E460024A24600BFA1460027B08900B155
:1014800000BF2F462C8A4CF6FF700440F0880443BE
:101490002C82AC894EF6F3100440B08831890843A1
:1014A000718908430443AC81AC8A4FF6FF40044085
:1014B000B0890443AC8201A8FFF77AFC1F48874239
:1014C00002D1DDF810A001E0DDF80CA0A88900F43D
:1014D000004040B10AEBCA0000EB0A103168490035
:1014E000B0FBF1F807E00AEBCA0000EB0A10316824
:1014F0008900B0FBF1F86420B8FBF0F0040120098A
:10150000642101FB1089A88900F4004040B1322019
:1015100000EBC900B0FBF1F000F00700044308E065
:10152000322000EB09106421B0FBF1F000F00F0055
:1015300004432C8106B0BDE8F0870000003801406C
:1015400001468888C0F308007047C1F30802828012
:101550007047000010B502210748FEF7C9FF50B1DF
:10156000064A00210448FFF7E6F8FFF7B7FD02211D
:101570000148FEF7BDFF10BD0064004040000020A0
:1015800000BFFEE70FB4054B10B503A9044A02984B
:1015900000F018F810BC5DF814FB00008518000876
:1015A0002800002002E008C8121F08C1002AFAD152
:1015B00070477047002001E001C1121F002AFBD1D3
:1015C000704700002DE9FF4F8DB09B460F46044643
:1015D000002606E025280BD05A460F999047641C38
:1015E000761C20780028F5D111B03046BDE8F08F88
:1015F0000025A8460122984900E0054314F8013F60
:10160000203B02FA03F00842F7D120782E2817D1A8
:1016100014F8010F45F004052A280ED06FF02F02B0
:101620002078A0F1300109290AD808EB880102EBE3
:10163000410100EB0108641CF2E757F8048B641CBD
:1016400020786C280DD004DC4C2812D06A2811D1E7
:1016500004E074280DD07A280CD10AE045F4001576
:1016600007E0617845F48015814202D1641C05F5DC
:101670008015641C2278692A45D008DC002AB3D082
:10168000582A69D0632A10D0642A08D13BE0702A16
:1016900067D0732A13D0752A5CD0782A5CD01046A4
:1016A0005A460F999047761CD3E017F8040B8DF833
:1016B000000000208DF80100E946012003E057F802
:1016C000049B4FF0FF3069074FF0000501D40AE09A
:1016D0006D1C45450DDA8542FADB19F80510002925
:1016E000F6D106E06D1C8542FCDB19F805100029D7
:1016F000F8D12E4404E019F8010B5A460F9990478F
:101700006D1EF8D2A5E00A200021CDE90801C5F33D
:10171000025002280DD001CFC117031E71F1000342
:101720000DDA4FF0000CD0EB0C006CEB01012D2317
:1017300008E0FF1D27F00707F7E80201EDE72B059A
:1017400004D52B238DF8283001233BE0EB0739D05B
:101750002023F7E70A2000E010200021CDE908014E
:1017600007E01020002145F00405CDE908014FF005
:101770000808C5F3025002280FD001CF00214FF016
:10178000000A2B071FD5702A0DD0DDE908C38CF0A5
:10179000100C5CEA030C0CD015E0FF1D27F00707C6
:1017A000F7E80201EBE740228DF828204FF0010A0C
:1017B0000BE050EA010306D030238DF828308DF875
:1017C000292002239A46582A04D024A20DF1200988
:1017D0000B9209E026A2F9E7DDE90823FEF7D4FC25
:1017E0000B9B9B5C09F8013D50EA0102F4D1ADEB83
:1017F000090020300890680701D44FF001080899CB
:10180000884502DDA8EB010000E0002080460025AD
:1018100006E00AA85A46405D0F9990476D1C761C59
:101820005545F6DB04E030205A460F999047761C68
:10183000B8F10001A8F10108F5DC05E019F8010B89
:101840005A460F999047761C0899481E089000291F
:10185000F4DC641CC5E60000092801003031323395
:1018600034353637383961626364656600000000DC
:1018700030313233343536373839414243444546C6
:101880000000000070B504460D46E1B20548FFF7C0
:101890005CFE00BF80210348FFF78AFD0028F9D0D5
:1018A000204670BD004400404FF4A060FFF732FABC
:1018B000FEF706FDFFF7DEF9FFF7B0F8FFF758FB7C
:1018C0004FF416511A48FFF7A7FC4FF4E1311948BD
:1018D000FFF7A2FC18A0FFF755FE4FF4FA70184965
:1018E000086024E01748007820B1FFF7D1F8002005
:1018F00014490870144890F84200052801DDFFF7EC
:1019000035F8124800781249097888420FD00F48FC
:10191000007820B110210F48FFF7A8F903E010214B
:101920000C48FFF7A1F90948007809490870D9E780
:10193000003801400044004073746172740A000072
:101940001C0000202400002054000020140000206F
:101950001500002000100140FE0400030001D5C561
:1019600080190008000000202C000000A4150008C9
:10197000AC1900082C000020D4050000B4150008A4
:101980000000000001020304010203040607080925
:101990000204060800000000000000000000000033
:0C19A0000000000000000000000000003B
:0400000508000131BD
:00000001FF
