:020000040800F2
:10000000700A0020610600081503000817030008A5
:100010001B0300081F030008230300080000000062
:10002000000000000000000000000000270300089E
:1000300029030008000000002B0300082D0300081E
:100040007B0600087B0600087B0600087B0600088C
:100050007B0600087B0600087B0600087B0600087C
:100060007B0600087B0600087B0600087B0600086C
:100070007B0600087B0600087B0600087B0600085C
:100080007B0600087B0600087B0600087B0600084C
:100090000B2F00087B0600087B0600087B06000883
:1000A0007B0600087B0600087B0600087B0600082C
:1000B0002F03000867030008690300087B06000897
:1000C0007B0600087B0600087B0600087B0600080C
:1000D0007B0600087B060008733100087B060008D9
:1000E0007B0600087B0600087B0600087B060008EC
:1000F0007B0600087B0600087B0600087B060008DC
:100100007B0600087B0600089F0300087B060008AA
:100110007B0600087B0600087B060008A103000898
:100120007B0600087B0600087B0600087B060008AB
:1001300000F002F800F05AF80AA090E8000C82449F
:100140008344AAF10107DA4501D100F04FF8AFF27C
:10015000090EBAE80F0013F0010F18BFFB1A43F0A5
:1001600001031847484E0000684E00000A444FF053
:10017000000C10F8013B13F0070408BF10F8014B06
:100180001D1108BF10F8015B641E05D010F8016B4B
:10019000641E01F8016BF9D113F0080F1EBF10F8AF
:1001A000014BAD1C0C1B09D16D1E58BF01F801CBD2
:1001B000FAD505E014F8016B01F8016B6D1EF9D555
:1001C0009142D6D37047000000230024002500266A
:1001D000103A28BF78C1FBD8520728BF30C148BFAA
:1001E0000B6070471FB51FBD10B510BD04F034F88B
:1001F0001146FFF7F7FF00F03BF804F066F803B490
:10020000FFF7F2FF03BC02F051FF000013B582B00C
:100210009DF808008DF800009DF809008DF8010098
:100220009DF80A008DF802009DF80B008DF8030080
:100230009DF80C008DF804009DF80D008DF8050068
:100240009DF80E008DF806009DF80F008DF8070050
:1002500047220821684602F072FE04462CB123A012
:1002600003F0BCFF002004B010BD4FF0FF30FAE7F0
:10027000002402F0ABFE02F013FF214802F029FF38
:1002800002F0BCFF032140F2E73003F053F803F023
:1002900068F902F083FD03F03CFE03F087FC03F0F5
:1002A00073FF0120174908601FE0174803F085FD20
:1002B00060B91549087804F001FB144A03C21249D9
:1002C000487804F0FBFA114AC2E9020110480078AC
:1002D00030B103F003FA03F051FF00200C4908701D
:1002E000601CC4B2962C00DB0024DEE743414EB70D
:1002F000A2CBCDCAA7B0DCA3A1A3A1A3A1000000FB
:1003000040420F008481214230000020D0010020B3
:1003100021000020704700BFFEE700BFFEE700BFDE
:10032000FEE700BFFEE7704770477047704710B5A3
:100330000121880702F019FBA0B10121880702F012
:1003400025FB4FF08040008800F0100028B941489C
:100350000068401C3F49086004E03E480068401EB9
:100360003C49086010BD704710B501213A4802F0C1
:10037000FCFA98B10121384802F008FB36480088A1
:1003800000F0100028B933484068401C31494860EB
:1003900004E030484068401E2E49486010BD704758
:1003A0002DE9F0474FF0000A01212C4802F0DDFA58
:1003B00000284CD04FF0804002F0C5FA2849086070
:1003C000254802F0C0FA2649486000BF35E02448BD
:1003D00050F82A00234951F82A10401A1D4951F8B3
:1003E0002A1041F2883202FB01001F4941F82A001D
:1003F00051F82A0004F04BFA064600221B4B04F089
:1004000055F8044600221A4B04F050F880460022AA
:10041000184B04F0A3FA184A02EBCA0203C20020E8
:100420000C4941F82A000E4850F82A000D4941F8BD
:100430002A000AF1010000F0FF0ABAF1020FC6DB40
:1004400001200E4908700121044802F09FFABDE81E
:10045000F0870000700200200008004000140040F7
:100460008002002090020020A00200200000104026
:1004700000407F4000007940B002002021000020B1
:100480000CB50020019000906C48006840F480306A
:100490006A49086000BF6948006800F400300090B5
:1004A0000198401C0190009818B90198B0F5A06F10
:1004B000F1D16248006800F4003010B101200090D2
:1004C00001E0002000900098012843D15C480068BA
:1004D00040F010005A4908600846006820F0030008
:1004E00008600846006840F0020008605348406811
:1004F000524948600846406848600846406840F4F1
:10050000806048600846406820F47C1048600846D7
:10051000406840F4E81048600846006840F0807089
:10052000086000BF4548006800F000700028F9D05E
:100530004248406820F0030040494860084640684F
:1005400040F00200486000BF3C48406800F00C00EA
:100550000828F9D10CBD10B5FFF792FF10BD10B5FA
:100560003648006840F00100344908600846406899
:10057000344908403149486008460068324908401B
:100580002E4908600846006820F48020086008466C
:10059000406820F4FE0048604FF41F008860FFF7B9
:1005A000DAFF4FF000602949086010BD10B5002146
:1005B00000200022214B5B6803F00C0121B10429CB
:1005C00006D0082928D107E0214B224C236027E0E0
:1005D0001F4B204C236023E0184B5B6803F4701022
:1005E000164B5B6803F48032022303EB904022B980
:1005F000194B4343174C23600DE0104B5B6803F429
:10060000003323B1144B4343124C236003E0104BDF
:100610004343104C236003E00D4B0E4C236000BF9E
:1006200000BF064B5B68C3F303130C4CE15C094B42
:100630001B68CB40074C236010BD00000010024037
:10064000002002400000FFF8FFFFF6FE08ED00E08A
:1006500000127A003C00002000093D00400000200C
:100660000948804709480047FEE7FEE7FEE7FEE746
:10067000FEE7FEE7FEE7FEE7FEE7FEE70448054982
:10068000054A064B704700005F050008310100086D
:1006900070040020700A0020700600207006002000
:1006A00031490143314A1160704770B50021002380
:1006B0000F22C47804B32D4C246804F4E064C4F51C
:1006C000E064210AC1F10403CA40447804FA03F14A
:1006D0008478144021430901254C0678A1550478FB
:1006E00004F01F050124AC4005786D11AD0005F143
:1006F000E025C5F8004109E0047804F01F05012455
:10070000AC401C4D0678761145F8264070BD1A4A5B
:100710000A400243154B1B1F1A60704739B1134A38
:10072000121D12680243114B1B1D1A6006E00F4A8E
:10073000121D126882430D4B1B1D1A60704704285E
:1007400008D14FF0E021096941F004014FF0E022A7
:10075000116107E04FF0E021096921F004014FF039
:10076000E0221161704700000000FA050CED00E086
:1007700000E400E080E100E080FFFF1F10B50446C8
:10078000FE48844209D10121480601F032F80021D7
:100790004FF0007001F02DF808E00121880601F00B
:1007A00028F800214FF0806001F023F810BD30B52B
:1007B000024600200023146824F002041460146828
:1007C00044F00104146000E05B1C546804F0010470
:1007D0001CB94FF6FF74A342F6D1546804F001042B
:1007E0000CB900206CE08C79012C04D1146844F021
:1007F0008004146003E0146824F080041460CC7951
:10080000012C04D1146844F04004146003E014681F
:1008100024F0400414600C7A012C04D1146844F0D4
:100820002004146003E0146824F0200414604C7A5F
:10083000012C04D1146844F01004146003E014681F
:1008400024F0100414608C7A012C04D1146844F054
:100850000804146003E0146824F008041460CC7ADF
:10086000012C04D1146844F00404146003E01468FB
:1008700024F0040414608C78A407CD7844EA05645D
:100880000D7944EA05444D7944EA05540D886D1EFE
:100890002C43D461146824F001041460002300E0A8
:1008A0005B1C546804F001041CB14FF6FF74A342B2
:1008B000F6D1546804F001040CB1002000E00120DE
:1008C00030BD10B50021837A012202FA03F1AC4A4F
:1008D000126842F00102AA4B1A60A94A1C3212683F
:1008E0008A43A74B1C331A60027BCAB9A44A0C3254
:1008F00012688A43A24B0C331A604288C38842EACA
:1009000003439F4A4032847A42F834300288838815
:1009100042EA03439A4A4032847A02EBC4025360AB
:10092000027B012A19D1964A0C3212680A43944B71
:100930000C331A604288038842EA0343904A4032EB
:10094000847A42F83430C288838842EA03438C4A6E
:100950004032847A02EBC4025360C27A3AB9884AC0
:10096000121D12688A43864B1B1D1A6006E0844ADA
:10097000121D12680A43824B1B1D1A60028932B98C
:100980007F4A143212688A437D4B14331A600289FD
:10099000012A06D17A4A143212680A43784B14337A
:1009A0001A60427B012A06D1754A1C3212680A433A
:1009B000734B1C331A60724A126822F00102704BAA
:1009C0001A6010BD00218171C17101724172817282
:1009D000C1728170C1700321017102214171012135
:1009E000018070476649096841F00101644A11605D
:1009F0001146096843F60E729143614A116011462F
:100A0000096841EA002111601146096821F00101DD
:100A10001160704721B1026842F48032026003E045
:100A2000026822F4803202607047E1B1026842F04D
:100A3000800202604FF4C272125842F480734FF485
:100A4000C27213504FF4CA72125842F480734FF4BA
:100A5000CA7213504FF4D272125842F480734FF49A
:100A6000D27213501BE0026822F0800202604FF441
:100A7000C272125822F480734FF4C27213504FF4B2
:100A8000CA72125822F480734FF4CA7213504FF492
:100A9000D272125822F480734FF4D27213507047FE
:100AA00010B502460020936803F08063B3F1806FB5
:100AB00000D110E0936803F00063B3F1006F01D13F
:100AC000012008E0936803F08053B3F1805F01D107
:100AD000022000E00420042879D002F5C07303EB63
:100AE00000131B6803F0010402F5C07303EB00134D
:100AF0001C600B7A7BB94B7A0C8843EA445302F5AD
:100B0000C07404EB00142468234302F5C07404EBA2
:100B10000014236010E00B7A4C6843EAC4034C7A5B
:100B2000234302F5C07404EB00142468234302F548
:100B3000C07404EB001423608B7A03F00F038B72F4
:100B400002F5C07303EB00135B6823F00F0402F59A
:100B5000C07303EB00135C6002F5C07303EB00137A
:100B60005B688C7A234302F5C07404EB0014636065
:100B70008B7B1C064B7B44EA034403E0006400408B
:100B8000006600400B7B44EA0323CC7A234302F542
:100B9000C07404EB0014A3608B7C1C064B7C44EAFD
:100BA00003440B7C44EA0323CC7B234302F5C0744B
:100BB00004EB0014E36002F5C07303EB00131B6841
:100BC00043F0010402F5C07303EB00131C6010BD79
:100BD00010B50246002321B1012907D002290FD107
:100BE00009E09068F94C00EA04030BE09068F84CC7
:100BF00000EA040306E09068F64C00EA040301E012
:100C0000002300BF00BFF44C181BA34216D007DC22
:100C100083B16FF08060184470B1022818D111E0E0
:100C2000B0F5007F10D0ED4C204448B1B0F5003F46
:100C30000ED10BE002230DE000230BE0002309E0BE
:100C4000002307E0012305E0012303E0012301E085
:100C5000002300BF00BFD8B210BD21B1012907D0C9
:100C600002290FD109E0826842F0800282600AE026
:100C7000826842F40042826005E0826842F4000229
:100C8000826000E000BF00BF704710B500F5D87368
:100C900003EB01131B6803F004031372137A53B9B7
:100CA00000F5D87303EB01131B6840F2FF7404EAEC
:100CB0005353136009E000F5D87303EB01131B686D
:100CC0006FF0604404EAD303536000F5D87303EB7C
:100CD00001131B6803F00203537200F5D87303EB92
:100CE00001135B6803F00F03937200F5D87303EBF5
:100CF00001135B681B0AD37400F5D87303EB01136F
:100D00009B68D37200F5D87303EB01139B681C0A30
:100D1000147300F5D87303EB01139B681C0C547318
:100D200000F5D87303EB01139B681B0E937300F55A
:100D3000D87303EB0113DB68D37300F5D87303EBAF
:100D40000113DB681C0A147400F5D87303EB01135C
:100D5000DB681C0C547400F5D87303EB0113DB68DB
:100D60001B0E937421B9C36843F02003C36003E0F2
:100D7000036943F02003036110BD21B9C26842F04A
:100D80002002C26003E0026942F020020261704763
:100D90000246002019B9D36803F0030006E00129D8
:100DA00003D1136903F0030000E00020704710B581
:100DB00002460B4600204FF6FF71BBB9146824F0C1
:100DC000020444F00104146000E0491E546804F079
:100DD0000304012C01D00029F7D1546804F0030466
:100DE000012C01D0002032E0012030E0012B13D192
:100DF000146824F00304146000E0491E546804F0F1
:100E000003040CB10029F8D1546804F003040CB1B8
:100E100000201CE001201AE0022B17D1146824F0F6
:100E2000010444F00204146000E0491E546804F018
:100E30000304022C01D00029F7D1546804F0030404
:100E4000022C01D0002002E0012000E0002010BDB3
:100E5000014600200A6822F0010242F002020A6004
:100E60004A6802F00302022A00D1012070470146BD
:100E70004FF6FF7200200B6823F002030B6000E0C6
:100E8000521E4B6803F00203022B01D1002AF7D156
:100E90004B6803F00203022B00D00120704701468B
:100EA00000208A6902F070007047014600208A69BC
:100EB000100E7047014600208A69C2F30740704750
:100EC0001AB143690B43436102E043698B434361B9
:100ED000704710B50246002001F4700343B19369D6
:100EE000C1F3130423400BB101202DE000202BE0BF
:100EF00001F0807343B15368C1F3130423400BB175
:100F0000012021E000201FE001F0006343B193685D
:100F1000C1F3130423400BB1012015E0002013E0BE
:100F200001F0007343B1D368C1F3130423400BB144
:100F3000012009E0002007E01369C1F313042340F6
:100F40000BB1012000E0002010BD0022244B99428B
:100F500002D10023836111E0C1F3130201F0007399
:100F60000BB1C2600AE001F080630BB1026105E0E1
:100F700001F000630BB1826000E0426070470246FE
:100F8000002002EA01030BB1012000E000207047BD
:100F900070B504460D46002660692840002872D0CE
:100FA000B5F5807F69D01DDC082D42D006DC012D0F
:100FB0002DD0022D31D0042D7FD134E0102D3ED024
:100FC000202D42D0402D78D145E0000003000004E0
:100FD0000003000800000310000100080001FFF7F3
:100FE0007000F030B5F5004F61D009DCB5F5007F39
:100FF0004AD0B5F5806F4DD0B5F5006F5DD150E0AA
:10100000B5F5803F2DD0B5F5003F56D12FE0A06853
:101010005549FFF7B4FF064651E0E0680321FFF7AA
:10102000AEFF06464BE0E0680821FFF7A8FF064642
:1010300045E0E0681021FFF7A2FF06463FE0206987
:101040000321FFF79CFF064639E020690821FFF7DE
:1010500096FF064633E020691021FFF790FF064611
:101060002DE060680821FFF78AFF064627E06068E8
:101070001021FFF784FF064621E0A0690121FFF758
:101080007EFF06461BE01BE0A0690221FFF777FF09
:10109000064614E0A0690421FFF771FF06460EE042
:1010A0000BE0A0697021FFF76AFF064607E0606861
:1010B0000421FFF764FF064601E0002600BF00E0C0
:1010C0000026304670BDB1F5007F3AD00FDC2029F4
:1010D00028D006DC01291CD004291DD0082940D1C4
:1010E0001DE0402921D0B1F5807F3AD126E0B1F54D
:1010F000004F31D006DCB1F5806F25D0B1F5006F1F
:101100002FD124E0B1F5803F12D0B1F5003F28D1B6
:1011100011E0154A826025E00822C26022E0102218
:10112000C2601FE0082202611CE01022026119E087
:101130000822426016E01022426013E0042242605E
:1011400010E0042242600DE0042242600AE0002226
:1011500082610422426005E0002282610422426032
:1011600000E000BF00BF70470101010010B5044658
:10117000CC48844208D10121042000F02DFB00213D
:10118000042000F029FB46E0C748844208D1012131
:10119000082000F021FB0021082000F01DFB3AE0B0
:1011A000C248844208D10121102000F015FB002123
:1011B000102000F011FB2EE0BD48844208D101212F
:1011C000202000F009FB0021202000F005FB22E098
:1011D000B848844208D10121402000F0FDFA0021E6
:1011E000402000F0F9FA16E0B348844208D101210A
:1011F000802000F0F1FA0021802000F0EDFA0AE0F2
:10120000AE48844207D10121801500F0E5FA0021A3
:10121000A01500F0E1FA10BD10B50121084600F05C
:10122000DBFA0021012000F0D7FA10BD2DE9F041D2
:10123000024600250026002000230024002791F804
:1012400003C00CF00F0591F803C00CF0100CBCF1BA
:10125000000F03D091F802C04CEA050591F800C0D8
:10126000BCF1000F31D0146800202BE04FF0010CCE
:101270000CFA00F3B1F800C00CEA03069E4220D13C
:1012800083004FF00F0C0CFA03F7BC4305FA03FC84
:101290004CEA040491F803C0BCF1280F06D14FF0CA
:1012A000010C0CFA00FCC2F814C00AE091F803C06B
:1012B000BCF1480F05D14FF0010C0CFA00FCC2F84C
:1012C00010C0401C0828D1D31460B1F800C0BCF194
:1012D000FF0F34DD546800202EE000F1080C4FF0C1
:1012E000010808FA0CF3B1F800C00CEA03069E42AC
:1012F00021D183004FF00F0C0CFA03F7BC4305FA21
:1013000003FC4CEA040491F803C0BCF1280F05D19A
:1013100000F1080C08FA0CF8C2F8148091F803C028
:10132000BCF1480F07D100F1080C4FF0010808FA92
:101330000CF8C2F81080401C0828CED35460BDE8D9
:10134000F0814FF6FF710180022181700421C1708C
:1013500070470246002093680B400BB1012000E06B
:10136000002070470146886880B27047024600201E
:10137000D3680B400BB1012000E00020704701460C
:10138000C86880B2704701617047416170470AB117
:10139000016100E041617047C16070474FF48032E5
:1013A0000A43826181618261826982697047024673
:1013B0000020434B18684FF68073184040EA021033
:1013C00008433F4B186070473E49C8617047F0B50D
:1013D0000A46002300240021002500F00046B6F153
:1013E000004F02D1364EF16901E0354E7168C0F30D
:1013F000034583B200F44016B6F5401F08D121F032
:1014000070612F4E766826F070662D4F7E6012E078
:1014100000F48016B6F5801F06D1032606FA05F4FF
:10142000A14341F0706106E0460D360103FA06F66D
:10143000B14341F0706122B1460D360103FA06F660
:10144000314300F00046B6F1004F02D11C4EF1616D
:1014500001E01B4E7160F0BD30B500228B071C0F00
:101460000F2303FA04F2164B08338C1053F8243080
:101470009343134C08348D1044F8253023468C10C8
:1014800053F824308C07240F00FA04F423430C4C47
:1014900008348D1044F8253030BD0A49DC3108602D
:1014A0007047000000080140000C0140001001409E
:1014B0000014014000180140001C014000200140C0
:1014C0000000014000002042DF48006840F00100B9
:1014D000DD49086008464068DC490840DA49486050
:1014E00008460068DA490840D7490860084600689D
:1014F00020F4802008600846406820F4FE00486020
:101500004FF41F0088607047CF49096821F480318B
:10151000CD4A11601146096821F480211160B0F5AF
:10152000803F03D0B0F5802F0ED106E0C649096890
:1015300041F48031C44A116007E0C349096841F4AD
:10154000A021C14A116000E000BF00BF704710B584
:1015500001460022002300204A11012A02D1BA4C80
:10156000236806E0022A02D1B74C236A01E0B64C98
:10157000636A01F01F02012494401C400CB1012059
:1015800000E0002010BD38B50020009000240025A8
:1015900000BF3120FFF7DBFF05460098401C00909C
:1015A0000098B0F5A06F01D0002DF2D03120FFF7E8
:1015B000CEFF08B1012400E00024204638BD0146DA
:1015C0000020A14A106820F0F80040EAC100106035
:1015D0007047A04908607047024600209A4B58683F
:1015E00020F47C1042EA01031843974B586070477F
:1015F00098490866704701460020934A506820F0D9
:1016000003000843506070478F48406800F00C00AA
:101610007047014600208C4A506820F0F0000843D3
:101620005060704701460020874A506820F4E0600F
:1016300008435060704701460020834A506820F4F8
:10164000605040EAC1005060704729B17E4A527A2A
:1016500002437D4B5A7204E07B4A527A82437A4BB2
:101660005A7270477B49D8310860704701460020A4
:10167000754A506820F4404008435060704700218C
:10168000714A20321170704A82F82010012802D06D
:1016900004280AD104E001216B4A2032117005E0D0
:1016A0000521694A2032117000E000BF00BF704779
:1016B0006949086070476449096A0143624A1162D6
:1016C0007047654944390860704730B500210022F1
:1016D000002400235C4D6D6805F00C0121B1042944
:1016E00005D0082923D105E05C4D056022E05B4D63
:1016F00005601FE0544D6D6805F47012524D6D6821
:1017000005F48034022505EB92421CB9544D554333
:1017100005600BE04C4D6D6805F400351DB1504D72
:101720005543056002E04D4D5543056002E04B4DC9
:10173000056000BF00BF444D6D6805F0F001090968
:10174000484D6B5C0568DD4045603F4D6D6805F4B4
:10175000E061090A434D6B5C4568DD4085603A4DA8
:101760006D6805F46051C90A3E4D6B5C4568DD400B
:10177000C560354D6D6805F44041890B3A4D6B5C91
:10178000C568B5FBF3F5056130BD29B12E4A526934
:1017900002432D4B5A6104E02B4A526982432A4B83
:1017A0005A61704729B1284A92690243264B9A61CF
:1017B00004E0254A92698243234B9A61704729B11C
:1017C000214AD2690243204BDA6104E01E4AD26901
:1017D00082431D4BDA61704729B11B4AD26802432C
:1017E000194BDA6004E0184AD2688243164BDA607B
:1017F000704729B1144A12690243134B1A6104E07D
:10180000114A12698243104B1A61704712494039DC
:10181000086070470F49C86470470B49C87170472A
:101820000948406A40F080700749486270470146A5
:101830000020054A92680A400AB1012000E0002019
:101840007047014988727047001002400000FFF89D
:10185000FFFFF6FE000042428004424200127A007E
:1018600000093D00500000206000002010B5044633
:10187000BE48844208D101218014FFF7ADFF00214A
:10188000A014FFF7A9FF16E0B948844208D101214E
:101890000014FFF7AEFF00212014FFF7AAFF0AE0B3
:1018A000B448844207D10121C013FFF7A2FF0021F1
:1018B000E013FFF79EFF10BD10B50022028802F46E
:1018C00041520B884C8823438C882343CC88234384
:1018D0000C8923434C8923438C892343CC8923439C
:1018E0001A430280838B4FF2FF74234083830B8A59
:1018F000038210BD2DE9F04F85B005460C464FF030
:10190000000902274FF000084FF0010B0026B246F5
:10191000A88B4FF240010840A88302202884B5F824
:101920001C90A068022801D100BF38E0A08810B93F
:101930004FF0010B01E04FF0020B8D48854200D1C2
:1019400000E000BF6846FFF7C0FEDDF800A0E088B9
:10195000B0F5007F0AD14FEA1A2000EB800040006A
:10196000A168B0FBF1F0401D86B20BE04FEA4B10CE
:10197000BAFBF0F000EB80004000A168B0FBF1F092
:10198000401D86B20A20B6FBF0F606F00108A6EB71
:101990000800C0F34F074FF6FF7000EA0828022F37
:1019A00001DBFF2F02DD02274FF00008E08840EA4C
:1019B000080038432884A088A18908436188084327
:1019C0002188084340F4006040EA0909A5F81C900A
:1019D00005B0BDE8F08F0021018041808180C18089
:1019E000018141818181C1810721018270470021EC
:1019F000018041808180C18002218160002181813C
:101A0000704721B1028842F04002028004E002885F
:101A10004FF6BF731A400280704721B1828B42F4A7
:101A20008062828304E0828B4FF6FF331A40828308
:101A3000704730B5002400230C110125A540ABB23E
:101A40001AB185881D43858002E085889D43858085
:101A500030BD1AB183880B43838002E083888B43B7
:101A600083807047818170470146888970474FF6AF
:101A7000FF62914204D0028842F48072028004E046
:101A800002884FF6FF631A400280704721B18288B6
:101A900042F00402828004E082884FF6FB731A4011
:101AA0008280704702884FF2FF731A4002800288DA
:101AB0000A4302807047018841F4805101807047D9
:101AC00021B1028842F40052028004E002884DF6FF
:101AD000FF731A400280704702460020012901D09E
:101AE000108B00E0908A70470146088A7047B1F574
:101AF000804F04D1028842F48042028004E00288D0
:101B00004BF6FF731A40028070470246002013898B
:101B10000B400BB1012000E000207047CA43028156
:101B20007047F0B50246002000240023002501F094
:101B30000F070126BE40B4B20B1101269E40B3B27E
:101B4000968806EA03051689264016B10DB10120D4
:101B500000E00020F0BD10B5002201F00F040123C9
:101B6000A3409AB2D343038110BD0000003001406E
:101B700000380040003C004010B50446FE48844256
:101B800008D10121C014FFF727FE0021E014FFF760
:101B900023FEC4E0B4F1804F08D101210846FFF7CD
:101BA00028FE00210120FFF724FEB8E0F34884421C
:101BB00008D101210220FFF71CFE00210220FFF7BF
:101BC00018FEACE0EE48844208D101210420FFF762
:101BD00010FE00210420FFF70CFEA0E0E94884423B
:101BE00008D101210820FFF704FE00210820FFF79B
:101BF00000FE94E0E448844208D101211020FFF760
:101C0000F8FD00211020FFF7F4FD88E0DF48844252
:101C100008D101212020FFF7ECFD00212020FFF753
:101C2000E8FD7CE0DA48844208D101214014FFF746
:101C3000D3FD00216014FFF7CFFD70E0D54884424A
:101C400009D10121C804FFF7C7FD00214FF400208E
:101C5000FFF7C2FD63E0D048844209D101210805A5
:101C6000FFF7BAFD00214FF48010FFF7B5FD56E0F5
:101C7000CA48844209D101214805FFF7ADFD002182
:101C80004FF40010FFF7A8FD49E0C548844208D191
:101C900001214020FFF7ADFD00214020FFF7A9FD05
:101CA0003DE0C048844208D101218020FFF7A1FD1A
:101CB00000218020FFF79DFD31E0BB48844208D120
:101CC00001218015FFF795FD0021A015FFF791FD7B
:101CD00025E0B648844209D101210804FFF77CFDC4
:101CE00000214FF48030FFF777FD18E0B0488442C0
:101CF00009D101214804FFF76FFD00214FF40030A6
:101D0000FFF76AFD0BE0AB48844208D1012188044B
:101D1000FFF762FD00214FF48020FFF75DFD10BD4D
:101D200000220288944B98420ED0994B98420BD0D7
:101D3000B0F1804F08D0914B984205D0904B98421B
:101D400002D0904B984204D14FF68F731A404B88C3
:101D50001A438D4B984207D08C4B984204D04FF6D3
:101D6000FF431A40CB881A4302808B8883850B88F7
:101D70000385814B98420BD0854B984208D08B4B02
:101D8000984205D08A4B984202D08A4B984201D1A2
:101D90000B7A038601238382704770B500240022EA
:101DA0000023058C4FF6FE7635400584028C83882F
:101DB000048B4FF68F752C40B51E2C400D882C439C
:101DC000751E2A400D892A434D882A436A4DA84230
:101DD0000BD06F4DA84208D0744DA84205D0744D69
:101DE000A84202D0734DA84213D14FF6F7752A408E
:101DF0004D892A434FF6FB752A408D882A434FF6BA
:101E0000FF652B404FF6FF552B408D892B43CD8925
:101E10002B4383800483CD888586028470BD70B592
:101E2000002400220023058C4FF6EF763540058410
:101E3000028C8388048B48F6FF752C404FF6FF45D3
:101E40002C400D884FF6FF7606EA05252C434FF609
:101E5000DF752A400D8906EA05152A434D8806EAF2
:101E600005152A43444DA84202D0494DA8421DD130
:101E70004FF67F752A404D894FF6FF7606EA051525
:101E80002A434FF6BF752A408D8806EA05152A4376
:101E90004FF6FF352B404FF2FF752B408D8906EA38
:101EA00085052B43CD8906EA85052B438380048372
:101EB000CD880587028470BD70B500240022002300
:101EC000058C4FF6FF6635400584028C8388848B31
:101ED0004FF68F752C404FF6FC752C400D882C4327
:101EE0004FF6FF552A400D894FF6FF7606EA052585
:101EF0002A434D8806EA05252A431F4DA84202D0F1
:101F0000234DA8421DD14FF2FF752A404D894FF64F
:101F1000FF7606EA05252A434FF6FF352A408D88CD
:101F200006EA05252A434EF6FF752B404DF6FF7550
:101F30002B408D8906EA05152B43CD8906EA051548
:101F40002B4383808483CD888587028470BD70B5E0
:101F5000002200230024058C4EF6FF7635400584D0
:101F6000038C8488828B48F6FF752A404FF6FF4524
:101F70002A400D8820E00000002C014000040040B1
:101F800000080040000C0040001000400014004019
:101F900000340140004C0140005001400054014019
:101FA00000180040001C004000200040004001409C
:101FB00000440140004801404FF6FF7606EA05253F
:101FC0002A434DF6FF752B400D8906EA05352B4354
:101FD0004D8806EA05352B43FA4DA84202D0FA4D4A
:101FE000A84208D14BF6FF752C408D894FF6FF763D
:101FF00006EA85152C4384808283CD88A0F8405062
:10200000038470BD828B4FF2FF331A408283828B30
:102010004FF6FF7303EA01231A4382837047F0B53A
:102020000C461546002200210026078C4EF6FF7C48
:1020300007EA0C070784828B018C4FF6FF7707EACB
:10204000043640F6FF473A404FF6FF7707EA052788
:102050003A434FF6FF7707EA03373A43D94FB8427E
:102060000ED0D94FB8420BD0B0F1804F08D0D74F27
:10207000B84205D0D64FB84202D0D64FB84206D1AA
:102080004DF6FF77394046F48057394305E047F66F
:10209000FF57394044F48057394382830184F0BDAF
:1020A000828B4FF6F3731A408283828B0A438283BA
:1020B0007047F0B50C461546002200210026078C1B
:1020C0004FF6FF6C07EA0C070784828B018C4FF6F2
:1020D000FF7707EA04264FF60C773A404FF6FF7772
:1020E00007EA03172F433A43B64FB8420ED0B64F14
:1020F000B8420BD0B0F1804F08D0B44FB84205D0F1
:10210000B34FB84202D0B34FB84206D14FF6FF5793
:10211000394046F48077394305E04FF2FF573940A4
:1021200044F48077394382830184F0BD028B4FF2FF
:10213000FF331A400283028B4FF6FF7303EA012339
:102140001A4302837047F0B50C4615460022002161
:102150000026078C4FF6EF7C07EA0C070784028BFA
:10216000018C4FF6FF7707EA041640F6FF473A4026
:102170004FF6FF7707EA03373A434FF6FF7707EA50
:1021800005273A438F4FB8420ED08F4FB8420BD03D
:10219000B0F1804F08D08D4FB84205D08C4FB84277
:1021A00002D08C4FB84206D14FF6DF77394046F067
:1021B0001007394305E04FF65F77394044F01007C8
:1021C000394302830184F0BD028B4FF6F3731A404A
:1021D0000283028B0A4302837047F0B50C46154612
:1021E00000220021068C4FF6FE773E400684028BCB
:1021F000018C4FF60C7632407E1C06EA03162E4305
:102200003243704EB0420ED06F4EB0420BD0B0F1A0
:10221000804F08D06D4EB04205D06D4EB04202D016
:102220006C4EB04206D14FF6FD76314044F00106C7
:10223000314305E04FF6F576314044F00106314375
:1022400002830184F0BD70B505460C465D488542A9
:102250000ED05D4885420BD0B5F1804F08D05B4869
:10226000854205D05A48854202D05A48854200D15D
:1022700000E000BF208850B92389A28861882846E1
:10228000FFF7ABFFE1882846FFF79EFF25E0208897
:1022900004280AD12389A28861882846FFF753FFC2
:1022A000E1882846FFF742FF17E0208808280AD176
:1022B0002389A28861882846FFF7FBFEE18828462B
:1022C000FFF7EEFE09E02389A28861882846FFF720
:1022D000A6FEE1882846FFF795FE70BD2DE9F04186
:1022E00005460C4600260127608808B9022600E052
:1022F0000026A088012801D1022700E001272088BC
:10230000A0B92389A28861882846FFF766FFE18883
:102310002846FFF759FF23893A4631462846FFF7FA
:1023200012FFE1882846FFF701FF13E02389A28806
:1023300061882846FFF707FFE1882846FFF7F6FE89
:1023400023893A4631462846FFF747FFE188284669
:10235000FFF73AFFBDE8F0810A884B881A438B8863
:102360001A43CB881A430B891A434B891A438B892A
:102370001A43A0F8442070474FF6FF718180002176
:102380000180C1804180017270470021018041803D
:102390008180C180018141818181C181704700219B
:1023A00001804180012181800021C180018170472D
:1023B0000021018041808180C18001814181818132
:1023C00070470000002C0140003401400004004030
:1023D00000080040000C004021B1028842F00102D8
:1023E000028004E002884FF6FE731A4002807047B4
:1023F00031B1B0F8442042F40042A0F8442005E096
:10240000B0F84420C2F30E02A0F8442070471AB17D
:1024100083890B43838102E083898B4383817047E7
:102420008182704741EA0203A0F8483070471AB130
:1024300083890B43838102E083898B4383817047C7
:1024400001894FF6F8721140018170470A46002158
:1024500001894FF68F73194011430181704730B5E0
:1024600004460D4629462046FFF7F0FF208940F03C
:102470000700208130BD2DE9F04104460D46164687
:102480001F46602D06D13B46012231462046FFF70C
:102490005AFE05E03B46012231462046FFF79DFEED
:1024A00029462046FFF7D2FF208940F0070020810F
:1024B000BDE8F08130B50C4600210189C9B24FF664
:1024C000FF7505EA0325154325432943018130BDE6
:1024D0002DE9F04105460E4617469846002443462E
:1024E0003A4631462846FFF7E5FF2C894FF6F8704B
:1024F000044044F007044FF68F70044044F0700429
:102500002C81BDE8F081F0B504460D4616461F4605
:102510003B46324629462046FFF7CCFF208940F44F
:1025200080402081F0BD0185828270470A460021EB
:1025300001884FF68F731940114301807047F0B541
:102540000C4615461E460021002200230189028BFD
:10255000038C4FF6F877394021434FF6FC473A4059
:1025600040F201173A434FF6DD773B404FF6FF77D5
:1025700007EA06172F433B43018102830384F0BD22
:102580000A460021018B4FF68F73194011430183D6
:1025900070470A460021018B48F6FF7319404FF639
:1025A000FF7303EA02231943018370470A4600219F
:1025B000818B4FF68F7319401143818370470A4610
:1025C0000021818B48F6FF7319404FF6FF7303EA31
:1025D000022319438183704721B1028842F08002AF
:1025E000028004E002884FF67F731A400280704731
:1025F00021B1828842F00402828004E082884FF692
:10260000FB731A408280704721B1828842F0080231
:10261000828004E082884FF6F7731A408280704708
:1026200021B1828842F00102828004E082884FF664
:10263000FE731A40828070470A460021018B4FF6D4
:10264000F77319401143018370470A460021018B3B
:102650004FF2FF7319404FF6FF7303EA0223194349
:10266000018370470A460021818B4FF6F7731940AA
:102670001143818370470A460021818B4FF2FF731B
:1026800019404FF6FF7303EA022319438183704711
:102690000A460021018B4FF6FB7319401143018359
:1026A00070470A460021018B4FF6FF3319404FF661
:1026B000FF7303EA02231943018370470A4600218E
:1026C000818B4FF6FB7319401143818370470A4693
:1026D0000021818B4FF6FF3319404FF6FF7303EA59
:1026E00002231943818370470A460021018B4FF66C
:1026F0007F7319401143018370470A460021018B03
:10270000C1F30E014FF6FF7303EA0223194301835D
:1027100070470A460021818B4FF67F7319401143A1
:10272000818370470A460021818BC1F30E014FF669
:10273000FF7303EA02231943818370470A4600218D
:10274000018C4FF6FD7319401143018470470A460E
:102750000021018C4FF6F773194011430184704733
:102760000A460021018C4FF6DF7319404FF6FF73C4
:1027700003EA02131943018470470A460021018CC1
:102780004FF67F7319404FF6FF7303EA02131943A4
:10279000018470470A460021018C4FF6FF5319400F
:1027A0004FF6FF7303EA02231943018470470A4678
:1027B0000021018C4FF2FF7319404FF6FF7303EABB
:1027C00002231943018470470A460021018C4DF60B
:1027D000FF7319404FF6FF7303EA02331943018474
:1027E000704730B5002301248C40A3B2048C9C4375
:1027F0000484048C02FA01F5ADB22C43048430BD8C
:1028000030B5002304248C40A3B2048C9C43048480
:10281000048C02FA01F5ADB22C43048430BD70B5CE
:102820000346002000241846183001258D40ACB224
:102830001D8CA5431D8409B1082909D100EB610055
:10284000056825F0700505600568154305600EE014
:102850000D1FC5F34E052844056825F4E0450560C5
:1028600005684FF6FF7606EA02263543056070BD1F
:1028700021B1028842F00202028004E002884FF691
:10288000FD731A400280704721B1028842F00402B1
:10289000028004E002884FF6FB731A400280704702
:1028A00021B1828842F08002828004E082884FF663
:1028B0007F731A408280704702884FF6F7731A4080
:1028C000028002880A430280704782884FF68F7325
:1028D0001A40828082880A438280704702894FF6BC
:1028E000F8731A40028102890A4302817047028903
:1028F0004FF67F731A40028102890A4302817047B2
:102900008184704781857047818670470187704751
:1029100081877047A0F84010704702884FF6FF4348
:102920001A40028002880A43028070470146888E5E
:1029300070470146088F70470146888F70470146EF
:10294000B1F8400070470146888C70470146088DF9
:10295000704702460020138A0B400BB1012000E0B3
:1029600000207047CA430282704730B502460020FB
:1029700000230024158A05EA0103958905EA01046C
:1029800013B10CB1012000E0002030BDCA43028227
:102990007047000010B50446FB48844209D101216C
:1029A0008803FEF719FF00214FF48040FEF714FF63
:1029B00032E0F648844209D101214804FEF719FFAC
:1029C00000214FF40030FEF714FF25E0F048844268
:1029D00009D101218804FEF70CFF00214FF480206B
:1029E000FEF707FF18E0EB48844209D10121C80433
:1029F000FEF7FFFE00214FF40020FEF7FAFE0BE089
:102A0000E548844208D101210805FEF7F2FE0021C5
:102A10004FF48010FEF7EDFE10BD2DE9F04786B0B3
:102A200005460E460024A24600BFA1460027B089F5
:102A300000B100BF2F462C8A4CF6FF700440F0888E
:102A400004432C82AC894EF6F3100440B0883189DF
:102A50000843718908430443AC81AC8A4FF6FF40B8
:102A60000440B0890443AC8201A8FEF72EFEC6489C
:102A7000874202D1DDF810A001E0DDF80CA0A889A2
:102A800000F4004040B10AEBCA0000EB0A103168C4
:102A90004900B0FBF1F807E00AEBCA0000EB0A10AE
:102AA00031688900B0FBF1F86420B8FBF0F0040154
:102AB0002009642101FB1089A88900F4004040B17D
:102AC000322000EBC900B0FBF1F000F00700044336
:102AD00008E0322000EB09106421B0FBF1F000F0B7
:102AE0000F0004432C8106B0BDE8F0874FF4165167
:102AF000016000218180C18001810C214181002180
:102B00008181704710B502460020108A4FF2FF0302
:102B100018400B884C8823438C882343CC8823435C
:102B20001843108210BD0021018041808180C18046
:102B3000704721B1828942F40052828104E0828987
:102B40004DF6FF731A4082817047F0B503460024AA
:102B500000260025002040F66A17B94200D100BFC8
:102B60001846C1F3421401F01F06012707FA06F5C3
:102B7000012C01D10C3004E0022C01D1103000E016
:102B800014301AB107682F43076002E00768AF43AB
:102B90000760F0BD1AB1838A0B43838202E0838A07
:102BA0008B4383827047028A4FF6F0731A40028289
:102BB000028A0A430282704782894FF2FF731A40E9
:102BC000828182890A438281704721B1828942F0E1
:102BD0000202828104E082894FF6FD731A408281ED
:102BE0007047028A4FF6DF731A400282028A0A4354
:102BF0000282704721B1028A42F48042028204E0DC
:102C0000028A4BF6FF731A4002827047C1F3080232
:102C10008280704701468888C0F308007047818928
:102C200041F0010181817047028BD2B20283028B95
:102C300042EA012202837047028B02F47F42028340
:102C4000028B0A430283704721B1828A42F020023C
:102C5000828204E0828A4FF6DF731A4082827047D4
:102C600021B1828A42F01002828204E0828A4FF609
:102C7000EF731A408282704721B1828A42F00802C3
:102C8000828204E0828A4FF6F7731A40828270478C
:102C900021B1828942F40042828103E08289C2F339
:102CA0000E028281704721B1828A42F400628282E0
:102CB00004E0828A4FF2FF731A4082827047828A50
:102CC0004FF6FB731A408282828A0A4382827047DF
:102CD00021B1828A42F00202828204E0828A4FF6A7
:102CE000FD731A408282704702460020B1F5007FD2
:102CF00000D100BF13880B400BB1012000E0002081
:102D0000704701F40072B2F5007F00D100BFCA43E2
:102D10000280704770B50246002400230025002081
:102D200040F66A16B14200D100BFC1F3421501F06E
:102D30001F03012606FA03F3012D02D196893340C1
:102D400006E0022D02D1168A334001E0968A334014
:102D50000C12012606FA04F41688344013B10CB1A3
:102D6000012000E0002070BD10B50022002340F6D5
:102D70006A14A14200D100BF0A1201249440A3B2F8
:102D8000DC43048010BD00000038014000440040D6
:102D900000480040004C00400050004000B589B0A1
:102DA00001210920FEF7FEFC01214806FEF707FD80
:102DB00001214FF4EA10FEF70AFB03208DF81600FC
:102DC0004FF48070ADF8140048208DF8170005A965
:102DD0007648FEF72BFA4FF40070ADF81400182077
:102DE0008DF8170005A97148FEF720FA14208DF818
:102DF000100000208DF811008DF8120001208DF8D0
:102E0000130004A8FDF751FC6948FDF7B7FC06A8BC
:102E1000FDF7D8FD01208DF81F008DF8200000205F
:102E20008DF81B0004208DF81C0002208DF81D0079
:102E30000420ADF8180006A95D48FDF7B8FC002095
:102E40008DF80A008DF80B0001208DF80C00402051
:102E5000ADF800000020ADF80200ADF80400ADF8B8
:102E60000600ADF8080001208DF80D006846FDF75A
:102E700028FD012202214E48FEF722F809B000BDCC
:102E800070B54C48407A00283ED14A4800680F2867
:102E900004D0172812D03F2834D120E04548D0F87C
:102EA0000B402146444801F0AFFF054601F080FF8A
:102EB000424A03C200204249086024E03D48D0F85D
:102EC0000B4021463C4801F09FFF054601F070FF92
:102ED0003A4AC2E9020100203949086013E0354945
:102EE000D1F80B0001F064FF364A03C23149D1F832
:102EF0000F0001F05DFF334AC2E9020100203049B2
:102F0000086000E000BF00BF70BD10B50221284876
:102F1000FEF73EF890B1274A00212548FDF7B5FE9F
:102F20002948006808B9012000E00020264908600F
:102F3000FFF7A6FF02211E48FEF72AF810BD2DE973
:102F4000F04186B007460D4690460024CDF8048037
:102F500000208DF80C008DF80D008DF80E5000BF8C
:102F600005E0395D0DF10F000155601C84B2AC42E3
:102F7000F7DB01A90E48FDF793FD0646002401E0AA
:102F8000601C84B231460A48FDF722FE18B940F6AB
:102F9000FF708442F4DB40F6FF70844203DB0120C3
:102FA00006B0BDE8F0810020FAE70000000C014007
:102FB00000640040E40200200000A0C2D001002014
:102FC00038000020F80200208481214210B56FF003
:102FD0000400FDF7B4FB2E4800682E49B0FBF1F069
:102FE0002D4908700846007800EB4001C1EBC01085
:102FF0004FF6FF7101EAC0002849088010BD014664
:10300000254A12784A434FF0E0235A6100229A6120
:103010001A46126942F001021A6100BF4FF0E02225
:10302000106900F001021AB100F48032002AF5D0D4
:103030004FF0E022126922F001024FF0E0231A6102
:1030400000229A6170470146144A12884A434FF0A1
:10305000E0235A6100229A611A46126942F0010285
:103060001A6100BF4FF0E022106900F001021AB1AE
:1030700000F48032002AF5D04FF0E022126922F0ED
:1030800001024FF0E0231A6100229A6170470000AC
:103090003C00002000127A0064000020660000203E
:1030A00010B54FF4A060FDF7FBFA10BD014600BF5C
:1030B000704770B504460D4600BF40214B48FFF7EE
:1030C00013FE0028F9D0E1B24848FFF79FFD2046E3
:1030D00070BD10B586B0044601210420FEF762FBE6
:1030E00001214804FEF76BFB4048FFF753FC042026
:1030F000ADF8140003208DF8160018208DF8170085
:1031000005A93B48FEF792F80820ADF8140004200A
:103110008DF8170005A93648FEF788F801940020BD
:10312000ADF80800ADF80A00ADF80C00ADF81000DD
:103130000C20ADF80E0001A92C48FFF76EFC2620EC
:103140008DF8000003208DF801008DF802000120A9
:103150008DF803006846FDF7A8FA012240F22551D8
:103160002248FFF7F2FC01212048FFF7E2FC06B0FD
:1031700010BD10B540F225511C48FFF7CBFD10B330
:103180001A48FFF747FDC4B21A48008800F400400F
:10319000C8B91848008800F4804060B10A2C03D0F8
:1031A00000201449088020E01248008840F40040C4
:1031B0001049088019E00D2C06D10E48008840F413
:1031C00080400C49088010E00A480088C0F30D00D8
:1031D00009490C5407480088401C064908800846E5
:1031E0000088C72801DD0020088010BD0044004091
:1031F000000801406C0000200803002008B50121F0
:103200000820FEF7CFFA0320ADF8000010208DF85B
:10321000030003208DF8020069460448FEF706F813
:1032200003210248FEF7AFF808BD0000000C014082
:1032300008B501214803FEF7B5FA01210846FEF75B
:10324000B1FA01211020FEF7ADFAC020ADF8000060
:1032500018208DF8030003208DF8020069463B48D2
:10326000FDF7E4FF08BD30B587B005460C46ADF864
:103270001450ADF810400020ADF81200ADF8160063
:103280008DF8180004A93248FEF74AFD7020ADF809
:1032900000000120ADF802000020ADF80400ADF8F8
:1032A00006000220ADF808000020ADF80A004FF437
:1032B0008070ADF80C000020ADF80E00694624487F
:1032C000FEF76BFD0020ADF8060069462048FEF7CA
:1032D000A6FD0020ADF8060069461D48FEF7ECFD8E
:1032E0000020ADF8060069461948FEF730FE0121BE
:1032F0001748FFF771F801211548FFF779F807B073
:1033000030BD08B501210820FEF74CFA4FF470409B
:10331000ADF8000010208DF8030003208DF80200A6
:1033200069460C48FDF782FF4FF470410948FEF7EB
:103330002CF808BD70B504460D46FFF779FF294605
:103340002046FFF790FFFFF7DCFF70BD0010014043
:1033500000340140000C014008B501210C20FEF7AB
:1033600021FA01210846FEF71DFA01218548FEF7E2
:103370002EF801218448FEF72AF86846FDF7E1FFA0
:103380004FF40040ADF8000004208DF80300032046
:103390008DF8020069467D48FDF748FFC820ADF86A
:1033A000000004208DF8030003208DF80200694618
:1033B0007748FDF73BFF08BD08B54FF4A060FDF767
:1033C0006FF91C208DF8000000208DF8010002200C
:1033D0008DF8020001208DF803006846FDF765F9BD
:1033E0004FF4A060FDF75CF91E208DF8000000206E
:1033F0008DF8010002208DF8020001208DF80300F5
:103400006846FDF752F94FF4A060FDF749F93720FF
:103410008DF8000000208DF8010001208DF80200D9
:103420008DF803006846FDF740F908BD30B587B058
:1034300005460C4601210520FEF7C1F94FF08040FA
:10344000FEF79AFB5348FEF797FB01A8FEF794FF9F
:10345000ADF80850ADF804400020ADF80A00ADF812
:1034600006008DF80C0001A94FF08040FEF758FCD3
:1034700001A8FEF781FFADF80850ADF80440002028
:10348000ADF80A00ADF806008DF80C0001A941481E
:10349000FEF746FC00231A4603214FF08040FFF759
:1034A0004EF800231A4603213A48FFF748F804A8CB
:1034B000FEF775FF0320ADF8180004A94FF0804017
:1034C000FEF7C1FE01218807FFF74CFA01221146E1
:1034D0009007FEF79CFF00214FF08040FFF710FAA5
:1034E00001218807FEF778FF04A8FEF758FF0320A4
:1034F000ADF8180004A92748FEF7A5FE01212548CC
:10350000FFF730FA012211462248FEF780FF002122
:103510002048FFF7F5F901211E48FEF75DFF07B0CF
:1035200030BD3EB505460C4601212020FEF747F987
:10353000ADF80050ADF804400020ADF80600ADF83D
:1035400002008DF8080069461348FEF7E9FB0121E7
:103550001148FEF741FF012211460F48FEF757FFC1
:103560003EBD10B5FFF7F8FEFFF726FF002141F240
:103570008730FFF75BFF41F61F411820FFF7D1FFAF
:1035800010BD0000000318000002300000080140D8
:10359000000C014000080040001400402DE9F04FED
:1035A0008DB0824614461D4625F000432646DAE9D2
:1035B000008121F000413246404601F00FFBCAE98C
:1035C0000801DAE90A63324600204FF0804101F039
:1035D000C5F98046DAE90863324601F0F3FACDE92D
:1035E0000001DAE90C63324600F0ACFECDE90201DD
:1035F000DAE90663324601F0B1F90022FE4BCDE96B
:10360000040101F0ABF9CDE90801DAE908633246BB
:10361000DAE90481404601F0A1F94FF02042F74B6E
:10362000CDE9000101F09AF9CDE90401DAE90A6374
:103630003246DAE90881404601F0D0FACDE90201CC
:10364000DDE9042300F07EFECDE90601DDE9082373
:1036500000F078FECDE90A01DAE90263324601F0B2
:103660007DF9CAE90E01DAE90A01CAE90C01DAE9D1
:103670000801CAE90A01DAE90E21104600F030FE1D
:10368000834658460DB0BDE8F08F2DE9FC5F044637
:103690008B469246994609EBC400D0E900530AEBE9
:1036A000C4002A46D0E90071384601F057F90022DB
:1036B0001346CDE9000101F015F903D200200146BF
:1036C000BDE8FC9F09EBC400D0E900100AEBC4027E
:1036D000C2E9001009EBC40103C9F1E72DE9F05F6D
:1036E0004FF0000800BF4BE2C54BC64AC6494046F2
:1036F000FFF7CBFFC54A02EB881203C2C34800EBB9
:10370000881000221346D0E90061304601F024FA07
:103710007DD20120BE4901F808000020BD4A02EB1D
:10372000C80210605060B84901EBC802B74901EB0C
:103730008810D2E900633246FFF730FF814601F07E
:1037400037FB04460D460022B34B2046294601F0C4
:1037500003FA01D20024B04D0022B04B2046294686
:1037600001F0C0F801D20024AC4DAD4800EBC80018
:1037700022462B46D0E90061304600F0E3FDA84A1E
:1037800002EBC80203C2A64800EBC801D1E9006100
:103790000022A44B304601F0DFF905D80020A149F2
:1037A0009F4A02EBC80203C29D4800EBC8000022FA
:1037B0001346D0E90061304601F094F805D80021A5
:1037C000974A02EBC80211605160B8F1000F03D0B4
:1037D000B8F1010F38D11BE00120934908600020A7
:1037E0009249C1F8B0018E4800EBC8000022134690
:1037F000D0E90061304600F0A5FD814601F01AF8DD
:103800001FFA80FB59468A48FFF77EF81DE01DE04D
:1038100001208549091D086000208449C1F8B401D0
:103820007F4800EBC80000221346D0E90061304613
:1038300000F088FD814600F0FDFF1FFA80FB59462D
:103840007B48FFF763F800E000BF00BF6F4800EB64
:10385000881000221346D0E90061304601F042F89A
:103860007ED202206A4901F8080000216C4A02EB6E
:10387000C80211605160644901EBC801D1E90063DD
:10388000624901EB88103246FFF788FE814601F05D
:103890008FFA04460D4600225F4B2046294601F070
:1038A0005BF901D200245C4D00225C4B2046294686
:1038B00001F018F801D20024584D564800EBC80119
:1038C000D1E9006122462B46304600F03BFD514ACB
:1038D00002EBC80203C24F4800EBC801D1E9006106
:1038E0000022504B304601F037F906D800214D48F0
:1038F000484A02EBC802C2E90010464800EBC80182
:10390000D1E9006100221346304600F0EBFF05D8F4
:103910000020404A02EBC80210605060B8F1000F6E
:1039200003D0B8F1010F38D11BE000203E490860F8
:1039300001203E49C1F8B001364800EBC801D1E989
:10394000006100221346304600F0FCFC814600F086
:1039500071FF1FFA80FB59463548FEF7D5FF1DE081
:103960001DE000203049091D086001202F49C1F8E1
:10397000B401284800EBC80000221346D0E90061DA
:10398000304600F0DFFC814600F054FF1FFA80FB58
:1039900059462748FEF7BAFF00E000BFECE01B489D
:1039A00000EB881000221346D0E90061304600F099
:1039B000D5FEF3D1164810F8080001287DD100206B
:1039C000144A02EBC80210605060154800EBC800B2
:1039D0004FF06632174BD0E90061304600F0BEFF71
:1039E0000F4A02EBC80203C20D4800EBC801D1E93F
:1039F00000610022104B21E0000079409999993F25
:103A0000D0010020F0010020B00200207000002052
:103A100070010020F003002000005940000059C050
:103A2000D003002000C08740B8812142008021429D
:103A3000003401406666EE3F00004940304600F029
:103A400051FF05D20021514A02EBC80211605160BA
:103A5000B8F1000F03D0B8F1010F2CD114E0012010
:103A60004B49086000204B49C1F8B001474800EBC2
:103A7000C801D1E90021104600F0DCFE86B23146D3
:103A80004548FEF741FF17E001204149091D086044
:103A900000204049C1F8B4013C4800EBC800D0E91F
:103AA0000021104600F0C6FE86B231463A48FEF7C5
:103AB0002DFF01E001E000BF00BF384810F808000A
:103AC000022859D10021314A02EBC802116051602D
:103AD000334800EBC8004FF06632324BD0E900614A
:103AE000304600F03BFF2E4A02EBC80203C22C48CE
:103AF00000EBC80000222C4BD0E90061304600F0FA
:103B0000F1FE05D20021264A02EBC8021160516085
:103B1000B8F1000F03D0B8F1010F2BD114E0002051
:103B20001B49086001201B49C1F8B0011C4800EB8B
:103B3000C800D0E90021104600F07CFE86B2314674
:103B40001548FEF7E1FE16E000201149091D086046
:103B500001201049C1F8B401114800EBC801D1E9B6
:103B60000021104600F066FE86B231460A48FEF794
:103B7000CDFE00E000BF00BF08F1010000F0FF082B
:103B8000B8F1020FFFF6B0ADBDE8F09FD003002002
:103B9000B8812142008021420034014070010020A0
:103BA000F00300206666EE3F0000494000B587B094
:103BB00001211420FDF7F6FD4FF48050ADF81800F8
:103BC00010208DF81B0003208DF81A001020ADF88E
:103BD000180006A9B048FDF729FB06A9AF48FDF774
:103BE00025FB2020ADF8180048208DF81B0006A901
:103BF000A948FDF71BFB00F08CF90021A848FDF750
:103C000000FF0020ADF804004FF48270ADF806000C
:103C10000020ADF80800ADF80A00ADF80C004FF434
:103C20000070ADF80E001820ADF810000020ADF8BF
:103C300012000720ADF8140001A99948FDF73CFED9
:103C400001219748FDF7DDFE00209649086001201C
:103C50009549C1F8900107B000BD2DE9F041074634
:103C60000D461646002091490860384600F02AF9B2
:103C70008046002405E0FF2000F024F92855601C50
:103C8000C4B2B442F7DB0120884908604046BDE871
:103C9000F0812DE9F04107460C4615460020834986
:103CA0000860384600F00EF98046002605E014F85A
:103CB000010B00F007F9701CC6B2AE42F7DB012021
:103CC0007A4908604046BDE8F0811CB578A103C977
:103CD000CDE90001082000F060F905226946302096
:103CE000FFF7D7FF052269461020FFF7B6FF002433
:103CF00006E01DF80400A52800D003E0601CC4B253
:103D0000052CF6DB00BF052C01D001201CBD0020D6
:103D1000FCE770B505460C4600206449086028465B
:103D200000F0D0F80646204600F0CCF801205E49AD
:103D3000C1F89001304670BD70B5044600205B4963
:103D40000860204600F0BEF8FF2000F0BBF80546F2
:103D500001205549C1F89001284670BD70B505464F
:103D6000102000F01AF900204E4908602022294650
:103D7000A020FFF78EFF01204F49C1F8940100BF3A
:103D80004848843800680028FAD10720FFF7D4FF9C
:103D9000044621462720FFF7BCFF04F0100028B19D
:103DA000FF21E120FFF7B5FF102070BD04F02000D7
:103DB00008B12020F9E7FF20F7E770B5044610208E
:103DC00000F0EBF80720FFF7B7FF0546294627204C
:103DD000FFF79FFF05F0400050B1202221466120EF
:103DE000FFF73BFFFF21E220FFF793FF002070BDAC
:103DF0000120FCE710B500202A49086005222F4960
:103E00002A20FFF746FF01212120FFF782FF012131
:103E10002220FFF77EFF28212520FFF77AFF2021AF
:103E20003120FFF776FF0F212620FFF772FF0F21C9
:103E30002020FFF76EFF01201F49C1F8940110BD3B
:103E400010B500201749086005221D493020FFF7F2
:103E500020FF052219492A20FFF71BFF01212120FD
:103E6000FFF757FF01212220FFF753FF1A212420DB
:103E7000FFF74FFF28212520FFF74BFF0F212620BA
:103E8000FFF747FF0E212020FFF743FF01200A49DB
:103E9000C1F8940110BD000000100140000801406D
:103EA0000030014094012242000021429001214251
:103EB000A5A5A5A5A500000000002242A54F000869
:103EC000A04F000870B50546002405E0601CC4B290
:103ED000C82C01DD002070BD02213948FDF715FE18
:103EE0000028F3D029463648FDF7BCFD002405E044
:103EF000601CC4B2C82C01DD0020ECE70121304871
:103F0000FDF703FE0028F3D02D48FDF7ADFDC0B24C
:103F1000E1E700B587B001210420FDF743FC012152
:103F20000803FDF73FFCE020ADF8180018208DF8DD
:103F30001B0003208DF81A0006A92248FDF776F928
:103F4000E0212048FDF71FFA0020ADF804004FF4EF
:103F50008270ADF806000020ADF808000220ADF830
:103F60000A000120ADF80C004002ADF80E00382028
:103F7000ADF810000020ADF812000720ADF81400D5
:103F800001A90F48FDF798FC01210D48FDF739FD07
:103F9000FF20FFF797FF07B000BD10B504460848A3
:103FA00000884FF6C7710840054908800846008818
:103FB0002043088001210248FDF723FD10BD0000C9
:103FC00000300140000801402DE9F047754800220B
:103FD000754BD0E90061304600F068FA8046002257
:103FE000724B00F0BBFC04460022714B00F0AAF9B2
:103FF000704A03C26B4800226B4BD0E90261304625
:1040000000F054FA04460022684B00F0A7FC8046FA
:104010000022694B00F096F9684A03C20022684BFF
:10402000644903C900F05EFC04D200216448614A7F
:10403000C2E900100022634B5E4903C900F08CFD09
:1040400003D200205F495B4A03C200225A4B5B49FE
:1040500003C900F047FC04D200215748574AC2E97F
:1040600000100022584B554903C900F075FD04D2D9
:1040700000215548514AC2E90010BDE8F08770B5EB
:1040800000254C4903C900F0A5FB0646C01706EB06
:1040900010600012A6EB00204C498871454903C905
:1040A00000F098FB0646C01706EB1060000A47496F
:1040B000C871424903C900F08DFB0646C01706EBE4
:1040C00010600012A6EB0020414988713B4903C9EA
:1040D00000F080FB0646C01706EB1060000A3C4962
:1040E000C87100BF022405E03848005D2844C5B20D
:1040F000601CC4B2092CF7DDE8433449085500249C
:10410000002500212B4A1160516000BF0DE02F48AF
:10411000015D3048FEF77AFD00BF40212D48FEF7D3
:10412000E3FD0128F9D1601CC4B20B2CEFDB0025A4
:10413000022405E02648005D2844C5B2601CC4B2D4
:10414000092CF7DDE843224908550024002500200A
:104150001A4A1060506000BF0DE01D48015D1D4807
:10416000FEF754FD00BF40211A48FEF7BDFD0128AF
:10417000F9D1601CC4B20B2CEFDB70BD10B5FFF79A
:1041800023FFFFF77CFF10BD10B50021054A116029
:10419000516000209060D060FFF716FFFFF76FFFBF
:1041A00010BD0000F802002000C0724000009040E6
:1041B00000F07F409001002000206940980100201D
:1041C00000804F400028894000808940780100200D
:1041D0008301002000440040704700000FB40449F0
:1041E00010B503AA029800F009F810BC5DF814FBA2
:1041F000680000207047704770477047074B70B5E4
:104200000D467B4400F011F80446284600F020F8E3
:1042100010B14FF0FF3070BD204670BDADEEFFFF16
:1042200001694A1C02610878704700B58FB0CDE97A
:1042300001310021059105497944CDE9031011466A
:10424000684600F02EF80FB000BD0000E5FFFFFF4C
:10425000007B00F080007047754600F03DF8AE46E8
:1042600005006946534620F00700854618B020B582
:10427000FCF704FABDE820404FF000064FF00007BD
:104280004FF000084FF0000B21F00701AC46ACE8FE
:10429000C009ACE8C009ACE8C009ACE8C0098D466B
:1042A00070472DE9F04106460024D6E90170F56813
:1042B0008046304603E04146B847641C3046A84774
:1042C0000028F8D12046BDE8F0810446AFF3008015
:1042D0002046FBF794FF00000048704710040020C0
:1042E00021F00042A2F16052B2F5801F01F00043BC
:1042F00028BFD2F17F6C0BD95FEA001C43EAC202EF
:1043000042EB507018BF704728BF20F00100704783
:10431000B2F5801FBCBF184670474FEA410C1CF530
:10432000001F02D2084600F036BE70B500F0C0FB98
:1043300000000089FFF7F6BF4FF00040A0F58000B5
:104340007047000010B591EA030F48BF83F00043A7
:1043500000F14C84841A71EB030C05D2121943EB63
:104360000C03001B61EB0C01DFF824E14FEA115450
:10437000A4EB135C1EEA430F18BF9EEA445F73D0A0
:1043800023EA0E03DCF1200E21EA045143F48013EA
:1043900032D322FA0CFE10EB0E0023FA0CFE41EB96
:1043A0000E01CCF1200E03FA0EFE10EB0E0051F1BF
:1043B0000001B1F5801FCCF1200E32D201EB045187
:1043C00012FA0EF2BDE8104058BF7047401C38BFCB
:1043D0005FEA420218BF7047002814BF20F00100B6
:1043E00041F100014FEA410313F5001F38BF704748
:1043F000A1F1C04100F0AABB012A43EB0302ACF1DA
:10440000200CDCF11F0E32BF4FF0000E23FA0CF32C
:1044100010EB030041EB0451B4EB115FD0D0A1EBE2
:10442000045101F5801149085FEA300001EB0451A5
:104430000ED350F1000038BF12FA0EFE08D1BDE8CD
:104440001040C9E7401C38BF5FEA4202CAD1C3E747
:10445000BDE810404FEA410313F5001F38BF704715
:10446000A1F1C04100F072BB9EEA445F08D011EA9E
:104470005E0FBDE8104004BF01F00041002070470E
:10448000BDE8104070B500F013FB00BF64FBBE3EFA
:104490000000E0FF491058BFC1F140415B1058BF18
:1044A000C3F140438B42EFF3008070472DE9C041D8
:1044B00030B4DFF8A0C23CEA111418BF3CEA131470
:1044C00000F0EC8081EA03051CEA111444EAD5747B
:1044D00018BF1CEA131500F0C780A4EB05044FF0C9
:1044E000004545EAC12145EAC32341EA505143EA68
:1044F000525304F17F74994204F500344FEAC0200E
:104500004FEAC22208BF904200F09C804FEA136538
:104510000FF24016765D4FEA134506FB05F7C7F12B
:10452000807706FB07F74FEAD737A7FB0368764289
:10453000C8F58038A7FB06CE38BFA8F1010807FBF5
:1045400008E64FF0000EA6FB028CE6FB03CEDCF182
:10455000000CCEF1004E38BFAEF1010EA6FB0C5898
:104560004FF000074FF00005E6FB0E87A1FB08C6E1
:10457000A0FB07CE16EB0E0645F10005E1FB076533
:1045800015F1E04E7EBFA4F580345FEA46066D412A
:1045900016F1800745F100054FEA17274FEA066636
:1045A00047EA0567A6F1DE46B6F1805F4FEA1525BA
:1045B0001FD9384624F0010C05EBC471BCF1FE6F25
:1045C00001EB0C1102D8F0BCBDE8008124425CBFB5
:1045D00001F5801E9EEAC47F02D4F0BCBDE80081D4
:1045E000244238D4F0BCA1F1C041BDE8004100F044
:1045F000ADBA4FEAD22242EA43524FEAD323A7FB95
:1046000002864FEAD02040EA415007FB03661EEACB
:104610000E0F4FEAD12105FB026658BFA6EB0056EC
:10462000B6EB00564FEA520E4EEAC37E18EB0E0E62
:1046300056EB530EBDD518EB02085E417F1C55F1B9
:104640000005B6E74FF480154FF000074FF0000665
:104650004FF00008ADE7F0BC4FF0000001F1C041A1
:1046600001F00041BDE8008111EA0C1F0CEA1315AE
:1046700000D00CE013EA0C1F00F025804FF0000082
:10468000F0BC81EA030101F00041BDE80081F0BC0B
:10469000BDE8004181EA030100F058BAF0BCBDE872
:1046A000004170B500F004FA097EFC3E00F007B846
:1046B00081EA03014FF0000001F00041704781EAF8
:1046C000030100F043BAF0BCBDE800414FF0000028
:1046D00021497047FFFDFBF9F7F5F4F2F0EEEDEB41
:1046E000E9E8E6E4E3E1E0DEDDDBDAD8D7D5D4D3F0
:1046F000D1D0CFCDCCCBCAC8C7C6C5C4C2C1C0BF3C
:10470000BEBDBCBBBAB9B8B7B6B5B4B3B2B1B0AF41
:10471000AEADACABAAA9A8A8A7A6A5A4A3A3A2A125
:10472000A09F9F9E9D9C9C9B9A99999897979695E0
:1047300095949393929191908F8F8E8E8D8C8C8B7C
:104740008B8A898988888787868585848483838204
:10475000828181800000FF070000F87F51EA030C8E
:1047600017D41CF5801F58BFBCF5801F00F10680D0
:10477000994218BF704708BF9042704707D711F59C
:10478000801F58BF13F5801F19D499427047894282
:1047900070471CF5801F08D5BCF5801FF7D58B42EC
:1047A00018BF704708BF824270474FF4001C1CEBD3
:1047B000410F38BF1CEB430F01D28B42704770B5DD
:1047C00000F076F9922449004FF000514FF08053E9
:1047D000FFF760BE4FEA41034FEA5353A3F58063EE
:1047E000D3F11E03C8BFD3F1210C0CDD4FF0004202
:1047F00042EAC12242EA505232FA03FC8CEAE17CDE
:10480000ACEBE1707047102BC4BF0020704703F57C
:10481000787CBCF1FF3F04D06FF0004282EA2100B7
:10482000704770B500F044F9499224800020704729
:10483000F2E700004FEA1153A3F58063D3F11E03A2
:10484000A8BFD3F1200C08DB4FF0004242EAC1229E
:1048500052EA505232FA03F0704709420BD4102B3F
:10486000C4BF0020704703F5787CBCF1FF3F05D042
:104870004FF0FF3070474FF00000704770B500F008
:1048800017F900BF4992248000207047F0E710F02C
:10489000004248BF4042B0FA80F310FA03F10AD058
:1048A000C3F11D0303F580634FEA415002EB03524D
:1048B00002EBD12170474FF000007047B0FA80F34F
:1048C00010FA03F10AD0C3F11D0303F580634FEA28
:1048D00041504FEA035202EBD12170474FF00000E4
:1048E0007047000051EA030C17D41CF5801F58BF15
:1048F000BCF5801F00F10680994218BF704708BFC1
:104900009042704707D711F5801F58BF13F5801FDD
:1049100019D499427047894270471CF5801F08D509
:10492000BCF5801FF7D58B4218BF704708BF824285
:1049300070474FF4001C1CEB410F38BF1CEB430FBA
:1049400001D28B42704770B500F0B2F89224490052
:104950004FF000514FF08053FFF79CBDDFF848C186
:1049600070B51CEA111E1EBF1CEA13159EEA0C0F3F
:1049700095EA0C0F00F06F8081EA030423EA4C13E0
:104980004EEAD47E21EA4C1141F4801143F48013A5
:10499000AE44A1FB024CA0FB0365AEF17F7E36194D
:1049A00055EB0C05A1FB034C4CF10003A0FB021CD2
:1049B00016EB0C06654153F10003094218BF46F09F
:1049C000010613F4007F0BD14FEA03314FEA0530A3
:1049D000340341EA155140EA16506FF003020AE031
:1049E0004FEAC3214FEAC520F40241EA555140EA9B
:1049F00056506FF0020202EB2E4201EB025585EA9F
:104A0000CE710AD05FEA440C18BF24F0004450F184
:104A1000000041F1000120EAD47040F2FE7C6245C2
:104A200000D270BDA84214BF4FF080444FF0404404
:104A3000002E08BF0024BEF1806FA8BFA1F1C041C5
:104A4000BDE8704080F282804FF0000001F1C0416B
:104A500001F0004170479EEA0C0F0CEA131518BFD5
:104A600095EA0C0F06D04FF0000081EA030E0EF01D
:104A7000004170BD00F01CF88900013E00F007B84D
:104A800000F009B84FEA430C5FEA5C5C08D081EAA9
:104A9000030100F05BB84FEA410C5FEA5C5CF6D1C1
:104AA0004FF00000014970470000FF070000F87F49
:104AB0000EF1020E2EF0030E5EF8046B364205D4A2
:104AC000012A43EB030515F5001F12D8012841EB1D
:104AD000010C1CF5001F0CD80ED14FEAD17C15F546
:104AE000001F0CEB4C0C0CF1020C08BF4CEBD37C00
:104AF00004E04FF0080C01E04FEAD37C0CEB4C05CE
:104B000026FA05F606F00706B6F1040C06D20EEBFF
:104B1000860CBDE870404CF0010C6047DFE80CF0FB
:104B2000090B02024FF000414FF00000A1F50021F7
:104B300070BD19461046012851EB010418BFD4F589
:104B4000001484BF002001F0004170BD0808A0F5EA
:104B500000114FEA3101704753EA010C17D41CF5DC
:104B6000801F58BFBCF5801F00F106808B4218BF24
:104B7000704708BF8242704707D713F5801F58BFA0
:104B800011F5801F19D48B4270479B4270471CF56A
:104B9000801F08D5BCF5801FF7D5994218BF704714
:104BA00008BF904270474FF4001C1CEB430F38BF06
:104BB0001CEB410F01D2994270470FB40CBC03BCEF
:104BC000FFF7C1BE91EA030F10B581F000413FF538
:104BD000C1AB83F0004300F009B8000010B591EAC2
:104BE000030F48BF83F000433FF5B4AB841A71EB69
:104BF000030C07D212198CF0004C43EB0C03001B82
:104C000061EB0C01DFF8A4E14FEA1154A4EB135C53
:104C10001EEA430F18BF9EEA445F00F0B08023EA0B
:104C20006E03524221EA0451C3EB6E0338BF5B1E90
:104C3000DCF1200E25D322FA0CFE10EB0E0043FA15
:104C40000CFE41EB0E01CCF1200E03FA0EFE10EB30
:104C50000E0051F10001CCF1200E29D412FA0EF20F
:104C600001EB0451BDE8104058BF7047401C1CBF09
:104C7000B2F1004F704700280CBF491C20F0010022
:104C8000704712EB020E43EB030218BF4FF0010E08
:104C90004EEA4202ACF1200CDCF11E0E54D943FA6C
:104CA0000CFE10EB0E0051F1FF31CCF11E0ED5D5EC
:104CB0000EF1010E12FA0EFE404141EB010101EB33
:104CC000445C5FEA5C5C10D910EBDE7001EB0451D0
:104CD00038BFBEF1004FBDE8104018BF7047002834
:104CE0000CBF491C20F00100704730D24FEAD42C91
:104CF00011F5001124F400641BD0B1FA81F20B3AD3
:104D0000A41AA41ED2F12003914030FA03F31943F0
:104D1000904001EBCC71002C01EB0451BDE8104038
:104D2000A8BF704701F1C0414FF0000001F0004101
:104D30007047B0FA80F310FA03F100D110BDE41A05
:104D4000173C4805C90AE4E701EB045110BD4910BE
:104D500001EB0451BDE810404FEA300002E04FF093
:104D6000000170474A0008BF0042F8D0B2F5001FAA
:104D700028BF704701F000414FF0000070479EEAE5
:104D8000445F07D011EA5E0FBDE8104004BF002168
:104D900000207047BDE8104070B5FFF789FE00BFE6
:104DA00040DFF63E83F00041104670470000E0FF10
:104DB00043004FEAD30C4FEA3C0C43401FBF40076F
:104DC0000CF1605113F0FE4F70471CF0006F03D1DF
:104DD00000200CF0004170470CF0004343EA507093
:104DE00010B540EACC0000F090F800BF000000923F
:104DF0004FEA0001FFF7AABE4FF000414FF000005C
:104E0000A1F50021704700004FF47F0C1CEAD0127E
:104E10001EBF1CEAD11392EA0C0F93EA0C0F00F0AC
:104E2000478090EA010F48BF42F480724FF0004C77
:104E30004CEA00204CEA012102EB0302A0FB011323
:104E4000A2F50002002918BF43F001035B0028BF50
:104E50004FEA330342EB22425FEA132C4CEBC25081
:104E60002EBFBCEB436FB2F57C0F70474FEA036C6B
:104E7000BCF1004F08BF20F00100B2F57C0F38BF35
:104E800070470BD582F0FF0212F5803FC8BF704714
:104E900000F1C040D8BF00F00040704700F5000CA2
:104EA0005FEA4C0C48BF7047B0F1C04000F073B8E7
:104EB00090EA010F0CEAD11348BF42F480726245B8
:104EC00038BF634504D280EA010000F0004070471B
:104ED00010B500F01AF800BF8900013E00F007B8D5
:104EE00000F009B85FEA410C5FEA1C6C08D080EA68
:104EF000010000F050B85FEA400C5FEA1C6CF6D18C
:104F00004FF00040A0F5800070470EF1020E2EF029
:104F1000030E5EF8044B244204D44FEA4102B2F17E
:104F20007F4F11D84FEA4003B3F17F4F0CD80ED119
:104F30004FEAD07CB2F17F4F0CEB4C0C0CF1020C21
:104F400008BF4CEBD17C04E04FF0080C01E04FEAC5
:104F5000D17C0CEB4C0324FA03F404F00704B4F105
:104F6000040C06D20EEB840CBDE810404CF0010C92
:104F70006047DFE80CF0070802024FF00040A0F5A0
:104F8000800010BD0846420018BFD2F1807288BF71
:104F900000F0004010BDFF2141EAD050C00570472D
:104FA000344310100134431010010000CC4F0008AE
:104FB00000000020D00100006C010008085000082B
:104FC000D0010020A0080000C8010008012ED3591C
:104FD0004084A24A04680901020304060708090C78
:104FE0006910051A020406085A10506908013009B0
:104FF000B840280AFFFF0107031EFF013F0B1A02FA
:085000000B123C190B014200E8
:0400000508000131BD
:00000001FF
