:020000040800F2
:10000000000A0020C1070008DD030008DF03000824
:10001000E3030008E7030008EB030008000000000A
:10002000000000000000000000000000EF030008D6
:10003000F103000800000000F3030008F5030008C6
:10004000DB070008DB070008DB070008DB07000808
:10005000DB070008DB070008DB070008DB070008F8
:10006000DB070008DB070008DB070008DB070008E8
:10007000DB070008DB070008DB070008DB070008D8
:10008000DB070008DB070008DB070008DB070008C8
:10009000DF3C0008DB070008DB070008DB0700087F
:1000A000DB070008DB070008DB070008DB070008A8
:1000B000F70300082F04000865040008DB070008A8
:1000C000DB070008DB070008DB070008DB07000888
:1000D000DB070008DB070008972D0008DB07000896
:1000E000DB070008DB070008DB070008DB07000868
:1000F000DB070008DB070008DB070008DB07000858
:10010000DB070008DB0700089B040008DB0700088A
:10011000DB070008DB070008DB070008D104000844
:10012000DB070008DB070008DB070008DB07000827
:1001300000F002F800F068F80AA090E8000C824491
:100140008344AAF10107DA4501D100F05DF8AFF26E
:10015000090EBAE80F0013F0010F18BFFB1A43F0A5
:10016000010318476C5F00008C5F00000A444FF0E9
:10017000000C10F8013B13F0070408BF10F8014B06
:100180001D1108BF10F8015B641E05D010F8016B4B
:10019000641E01F8016BF9D113F0080F1EBF10F8AF
:1001A000014BAD1C0C1B09D16D1E58BF01F801CBD2
:1001B000FAD505E014F8016B01F8016B6D1EF9D555
:1001C0009142D6D37047000000230024002500266A
:1001D000103A28BF78C1FBD8520728BF30C148BFAA
:1001E0000B6070471FB504F01DF9040000200021CA
:1001F00005F06CF8401C60600020002105F050F80C
:10020000E0601FBD10B510BD03F046FE1146FFF7BC
:10021000E9FF00F070F804F0BFF803B4FFF7F2FF55
:1002200003BC02F055FD0000F0B5C7B04FF48C716F
:1002300001A803F078FD002500240027002622E015
:100240005C48005D202809D05A48005D07EB870113
:1002500001AA02EBC1018855761C641C0EE0641CE7
:100260005448005D202809D0002007EB870101AA2F
:1002700002EBC10188557F1C002603E04D48005D5C
:100280002028ECD000BF4B48005D0028D8D101A841
:1002900004F08AFF484A03C20BA804F085FF474ACE
:1002A00003C215A804F080FF454A03C21FA804F04A
:1002B0007BFF444A03C200250CE0002607E0002033
:1002C00005EB850101AA02EBC1018855761C142EAD
:1002D000F5DB6D1C781C8542EFDB002503E0002078
:1002E000344948556D1C142DF9DB002500240027E6
:1002F000002647B0F0BD002402F07AFC02F0E2FCD8
:100300004FF4165002F0F7FC02F08AFD032140F290
:10031000E73002F03FFE03F002FC00202A490860AB
:10032000C82002F0A2FC44E02848008800F4004005
:1003300018B10020254908800124CCB100202449AF
:100340000870FFF771FF1C48D0E90010214AC2E98C
:1003500000101A48D0E90010C2E90210184903C978
:10036000C2E904011748D0E90010C2E906100024D0
:1003700000201949174A03C200211748083AC2E968
:100380000210C2E9041000201349C2E90601104816
:10039000007870B10C48001D006808B9012000E029
:1003A00000200949091D086002F0D1FE002008491B
:1003B0000870B9E77002002000000020080000204B
:1003C00010000020180000208081214264000020DD
:1003D000210000207001002000004440704700BF51
:1003E000FEE700BFFEE700BFFEE700BFFEE7704785
:1003F00070477047704710B50121880702F0DFF998
:10040000A0B10121880702F0EBF94FF0804000888D
:1004100000F0100028B964480068401C6249086078
:1004200004E061480068401E5F49086010BD10B5D7
:1004300001215E4802F0C3F998B101215B4802F046
:10044000CFF95A48008800F0100028B95648406893
:10045000401C5549486004E053484068401E5249DA
:10046000486010BD10B50121514802F0A8F998B1BB
:1004700001214F4802F0B4F94D48008800F0100007
:1004800028B949488068401C4749886004E04648CC
:100490008068401E4449886010BD10B50121454860
:1004A00002F08DF998B10121424802F099F94148D2
:1004B000008800F0100028B93B48C068401C3A4949
:1004C000C86004E03848C068401E3749C86010BDA5
:1004D0002DE9F0474FF0000A0121374802F06FF98B
:1004E00000285ED04FF0804002F057F93349086091
:1004F0002E4802F052F9314948602D4802F04DF97A
:100500002E4988602B4802F048F92C49C86000BF8A
:1005100035E02A4850F82A00234951F82A1041F2C0
:10052000883202FB0100264951F82A10401A254959
:1005300041F82A0051F82A0005F08DF906460022FC
:10054000214B04F0C7FF04460022204B04F0C2FFF9
:10055000804600221E4B05F0D1F91E4A02EBCA026A
:1005600003C20020104941F82A00144850F82A001C
:10057000134941F82A000AF1010000F0FF0ABAF11C
:10058000040FC6DB0120144908701448006808B93C
:10059000012000E00020114908600121064802F016
:1005A0001FF9BDE8F08700001002002000040040A1
:1005B00000080040000C0040001400402002002011
:1005C00030020020400200200000104000407F4028
:1005D000000079405002002021000020808121424B
:1005E0000CB50020019000906C48006840F4803009
:1005F0006A49086000BF6948006800F40030009054
:100600000198401C0190009818B90198B0F5A06FAE
:10061000F1D16248006800F4003010B10120009070
:1006200001E0002000900098012843D15C48006858
:1006300040F010005A4908600846006820F00300A6
:1006400008600846006840F00200086053484068AF
:10065000524948600846406848600846406840F48F
:10066000806048600846406820F47C104860084676
:10067000406840F4E81048600846006840F0807028
:10068000086000BF4548006800F000700028F9D0FD
:100690004248406820F003004049486008464068EE
:1006A00040F00200486000BF3C48406800F00C0089
:1006B0000828F9D10CBD10B5FFF792FF10BD10B599
:1006C0003648006840F00100344908600846406838
:1006D00034490840314948600846006832490840BA
:1006E0002E4908600846006820F48020086008460B
:1006F000406820F4FE0048604FF41F008860FFF758
:10070000DAFF4FF000602949086010BD10B50021E4
:1007100000200022214B5B6803F00C0121B1042969
:1007200006D0082928D107E0214B224C236027E07E
:100730001F4B204C236023E0184B5B6803F47010C0
:10074000164B5B6803F48032022303EB904022B91E
:10075000194B4343174C23600DE0104B5B6803F4C7
:10076000003323B1144B4343124C236003E0104B7E
:100770004343104C236003E00D4B0E4C236000BF3D
:1007800000BF064B5B68C3F303130C4CE15C094BE1
:100790001B68CB40074C236010BD000000100240D6
:1007A000002002400000FFF8FFFFF6FE08ED00E029
:1007B00000127A003400002000093D0038000020BB
:1007C0000948804709480047FEE7FEE7FEE7FEE7E5
:1007D000FEE7FEE7FEE7FEE7FEE7FEE70448054921
:1007E000054A064B70470000BF06000831010008AB
:1007F00000040020000A002000060020000600205F
:1008000031490143314A1160704770B5002100231E
:100810000F22C47804B32D4C246804F4E064C4F5BA
:10082000E064210AC1F10403CA40447804FA03F1E8
:100830008478144021430901254C0678A155047899
:1008400004F01F050124AC4005786D11AD0005F1E1
:10085000E025C5F8004109E0047804F01F050124F3
:10086000AC401C4D0678761145F8264070BD1A4AFA
:100870000A400243154B1B1F1A60704739B1134AD7
:10088000121D12680243114B1B1D1A6006E00F4A2D
:10089000121D126882430D4B1B1D1A6070470428FD
:1008A00008D14FF0E021096941F004014FF0E02246
:1008B000116107E04FF0E021096921F004014FF0D8
:1008C000E0221161704700000000FA050CED00E025
:1008D00000E400E080E100E080FFFF1F10B5044667
:1008E000FE48844209D10121480601F032F8002176
:1008F0004FF0007001F02DF808E00121880601F0AA
:1009000028F800214FF0806001F023F810BD30B5C9
:10091000024600200023146824F0020414601468C6
:1009200044F00104146000E05B1C546804F001040E
:100930001CB94FF6FF74A342F6D1546804F00104C9
:100940000CB900206CE08C79012C04D1146844F0BF
:100950008004146003E0146824F080041460CC79EF
:10096000012C04D1146844F04004146003E01468BE
:1009700024F0400414600C7A012C04D1146844F073
:100980002004146003E0146824F0200414604C7AFE
:10099000012C04D1146844F01004146003E01468BE
:1009A00024F0100414608C7A012C04D1146844F0F3
:1009B0000804146003E0146824F008041460CC7A7E
:1009C000012C04D1146844F00404146003E014689A
:1009D00024F0040414608C78A407CD7844EA0564FC
:1009E0000D7944EA05444D7944EA05540D886D1E9D
:1009F0002C43D461146824F001041460002300E047
:100A00005B1C546804F001041CB14FF6FF74A34250
:100A1000F6D1546804F001040CB1002000E001207C
:100A200030BD10B50021837A012202FA03F1AC4AED
:100A3000126842F00102AA4B1A60A94A1C321268DD
:100A40008A43A74B1C331A60027BCAB9A44A0C32F2
:100A500012688A43A24B0C331A604288C38842EA68
:100A600003439F4A4032847A42F8343002888388B4
:100A700042EA03439A4A4032847A02EBC40253604A
:100A8000027B012A19D1964A0C3212680A43944B10
:100A90000C331A604288038842EA0343904A40328A
:100AA000847A42F83430C288838842EA03438C4A0D
:100AB0004032847A02EBC4025360C27A3AB9884A5F
:100AC000121D12688A43864B1B1D1A6006E0844A79
:100AD000121D12680A43824B1B1D1A60028932B92B
:100AE0007F4A143212688A437D4B14331A6002899C
:100AF000012A06D17A4A143212680A43784B143319
:100B00001A60427B012A06D1754A1C3212680A43D8
:100B1000734B1C331A60724A126822F00102704B48
:100B20001A6010BD00218171C17101724172817220
:100B3000C1728170C17003210171022141710121D3
:100B4000018070476649096841F00101644A1160FB
:100B50001146096843F60E729143614A11601146CD
:100B6000096841EA002111601146096821F001017C
:100B70001160704721B1026842F48032026003E0E4
:100B8000026822F4803202607047E1B1026842F0EC
:100B9000800202604FF4C272125842F480734FF424
:100BA000C27213504FF4CA72125842F480734FF459
:100BB000CA7213504FF4D272125842F480734FF439
:100BC000D27213501BE0026822F0800202604FF4E0
:100BD000C272125822F480734FF4C27213504FF451
:100BE000CA72125822F480734FF4CA7213504FF431
:100BF000D272125822F480734FF4D272135070479D
:100C000010B502460020936803F08063B3F1806F53
:100C100000D110E0936803F00063B3F1006F01D1DD
:100C2000012008E0936803F08053B3F1805F01D1A5
:100C3000022000E00420042879D002F5C07303EB01
:100C400000131B6803F0010402F5C07303EB0013EB
:100C50001C600B7A7BB94B7A0C8843EA445302F54B
:100C6000C07404EB00142468234302F5C07404EB41
:100C70000014236010E00B7A4C6843EAC4034C7AFA
:100C8000234302F5C07404EB00142468234302F5E7
:100C9000C07404EB001423608B7A03F00F038B7293
:100CA00002F5C07303EB00135B6823F00F0402F539
:100CB000C07303EB00135C6002F5C07303EB001319
:100CC0005B688C7A234302F5C07404EB0014636004
:100CD0008B7B1C064B7B44EA034403E0006400402A
:100CE000006600400B7B44EA0323CC7A234302F5E1
:100CF000C07404EB0014A3608B7C1C064B7C44EA9C
:100D000003440B7C44EA0323CC7B234302F5C074E9
:100D100004EB0014E36002F5C07303EB00131B68DF
:100D200043F0010402F5C07303EB00131C6010BD17
:100D300010B50246002321B1012907D002290FD1A5
:100D400009E09068F94C00EA04030BE09068F84C65
:100D500000EA040306E09068F64C00EA040301E0B0
:100D6000002300BF00BFF44C181BA34216D007DCC1
:100D700083B16FF08060184470B1022818D111E07F
:100D8000B0F5007F10D0ED4C204448B1B0F5003FE5
:100D90000ED10BE002230DE000230BE0002309E05D
:100DA000002307E0012305E0012303E0012301E024
:100DB000002300BF00BFD8B210BD21B1012907D068
:100DC00002290FD109E0826842F0800282600AE0C5
:100DD000826842F40042826005E0826842F40002C8
:100DE000826000E000BF00BF704710B500F5D87307
:100DF00003EB01131B6803F004031372137A53B956
:100E000000F5D87303EB01131B6840F2FF7404EA8A
:100E10005353136009E000F5D87303EB01131B680B
:100E20006FF0604404EAD303536000F5D87303EB1A
:100E300001131B6803F00203537200F5D87303EB30
:100E400001135B6803F00F03937200F5D87303EB93
:100E500001135B681B0AD37400F5D87303EB01130D
:100E60009B68D37200F5D87303EB01139B681C0ACF
:100E7000147300F5D87303EB01139B681C0C5473B7
:100E800000F5D87303EB01139B681B0E937300F5F9
:100E9000D87303EB0113DB68D37300F5D87303EB4E
:100EA0000113DB681C0A147400F5D87303EB0113FB
:100EB000DB681C0C547400F5D87303EB0113DB687A
:100EC0001B0E937421B9C36843F02003C36003E091
:100ED000036943F02003036110BD21B9C26842F0E9
:100EE0002002C26003E0026942F020020261704702
:100EF0000246002019B9D36803F0030006E0012977
:100F000003D1136903F0030000E00020704710B51F
:100F100002460B4600204FF6FF71BBB9146824F05F
:100F2000020444F00104146000E0491E546804F017
:100F30000304012C01D00029F7D1546804F0030404
:100F4000012C01D0002032E0012030E0012B13D130
:100F5000146824F00304146000E0491E546804F08F
:100F600003040CB10029F8D1546804F003040CB157
:100F700000201CE001201AE0022B17D1146824F095
:100F8000010444F00204146000E0491E546804F0B7
:100F90000304022C01D00029F7D1546804F00304A3
:100FA000022C01D0002002E0012000E0002010BD52
:100FB000014600200A6822F0010242F002020A60A3
:100FC0004A6802F00302022A00D10120704701465C
:100FD0004FF6FF7200200B6823F002030B6000E065
:100FE000521E4B6803F00203022B01D1002AF7D1F5
:100FF0004B6803F00203022B00D00120704701462A
:1010000000208A6902F070007047014600208A695A
:10101000100E7047014600208A69C2F307407047EE
:101020001AB143690B43436102E043698B43436157
:10103000704710B50246002001F4700343B1936974
:10104000C1F3130423400BB101202DE000202BE05D
:1010500001F0807343B15368C1F3130423400BB113
:10106000012021E000201FE001F0006343B19368FC
:10107000C1F3130423400BB1012015E0002013E05D
:1010800001F0007343B1D368C1F3130423400BB1E3
:10109000012009E0002007E01369C1F31304234095
:1010A0000BB1012000E0002010BD0022244B99422A
:1010B00002D10023836111E0C1F3130201F0007338
:1010C0000BB1C2600AE001F080630BB1026105E080
:1010D00001F000630BB1826000E04260704702469D
:1010E000002002EA01030BB1012000E0002070475C
:1010F00070B504460D46002660692840002872D06D
:10110000B5F5807F69D01DDC082D42D006DC012DAD
:101110002DD0022D31D0042D7FD134E0102D3ED0C2
:10112000202D42D0402D78D145E00000030000047E
:101130000003000800000310000100080001FFF791
:101140007000F030B5F5004F61D009DCB5F5007FD7
:101150004AD0B5F5806F4DD0B5F5006F5DD150E048
:10116000B5F5803F2DD0B5F5003F56D12FE0A068F2
:101170005549FFF7B4FF064651E0E0680321FFF749
:10118000AEFF06464BE0E0680821FFF7A8FF0646E1
:1011900045E0E0681021FFF7A2FF06463FE0206926
:1011A0000321FFF79CFF064639E020690821FFF77D
:1011B00096FF064633E020691021FFF790FF0646B0
:1011C0002DE060680821FFF78AFF064627E0606887
:1011D0001021FFF784FF064621E0A0690121FFF7F7
:1011E0007EFF06461BE01BE0A0690221FFF777FFA8
:1011F000064614E0A0690421FFF771FF06460EE0E1
:101200000BE0A0697021FFF76AFF064607E06068FF
:101210000421FFF764FF064601E0002600BF00E05E
:101220000026304670BDB1F5007F3AD00FDC202992
:1012300028D006DC01291CD004291DD0082940D162
:101240001DE0402921D0B1F5807F3AD126E0B1F5EB
:10125000004F31D006DCB1F5806F25D0B1F5006FBD
:101260002FD124E0B1F5803F12D0B1F5003F28D155
:1012700011E0154A826025E00822C26022E01022B7
:10128000C2601FE0082202611CE01022026119E026
:101290000822426016E01022426013E004224260FD
:1012A00010E0042242600DE0042242600AE00022C5
:1012B00082610422426005E00022826104224260D1
:1012C00000E000BF00BF70470101010010B50446F7
:1012D000CC48844208D10121042000F02DFB0021DC
:1012E000042000F029FB46E0C748844208D10121D0
:1012F000082000F021FB0021082000F01DFB3AE04F
:10130000C248844208D10121102000F015FB0021C1
:10131000102000F011FB2EE0BD48844208D10121CD
:10132000202000F009FB0021202000F005FB22E036
:10133000B848844208D10121402000F0FDFA002184
:10134000402000F0F9FA16E0B348844208D10121A8
:10135000802000F0F1FA0021802000F0EDFA0AE090
:10136000AE48844207D10121801500F0E5FA002142
:10137000A01500F0E1FA10BD10B50121084600F0FB
:10138000DBFA0021012000F0D7FA10BD2DE9F04171
:10139000024600250026002000230024002791F8A3
:1013A00003C00CF00F0591F803C00CF0100CBCF159
:1013B000000F03D091F802C04CEA050591F800C077
:1013C000BCF1000F31D0146800202BE04FF0010C6D
:1013D0000CFA00F3B1F800C00CEA03069E4220D1DB
:1013E00083004FF00F0C0CFA03F7BC4305FA03FC23
:1013F0004CEA040491F803C0BCF1280F06D14FF069
:10140000010C0CFA00FCC2F814C00AE091F803C009
:10141000BCF1480F05D14FF0010C0CFA00FCC2F8EA
:1014200010C0401C0828D1D31460B1F800C0BCF132
:10143000FF0F34DD546800202EE000F1080C4FF05F
:10144000010808FA0CF3B1F800C00CEA03069E424A
:1014500021D183004FF00F0C0CFA03F7BC4305FABF
:1014600003FC4CEA040491F803C0BCF1280F05D139
:1014700000F1080C08FA0CF8C2F8148091F803C0C7
:10148000BCF1480F07D100F1080C4FF0010808FA31
:101490000CF8C2F81080401C0828CED35460BDE878
:1014A000F0814FF6FF710180022181700421C1702B
:1014B00070470246002093680B400BB1012000E00A
:1014C000002070470146886880B2704702460020BD
:1014D000D3680B400BB1012000E0002070470146AB
:1014E000C86880B2704701617047416170470AB1B6
:1014F000016100E041617047C16070474FF4803284
:101500000A43826181618261826982697047024611
:101510000020434B18684FF68073184040EA0210D1
:1015200008433F4B186070473E49C8617047F0B5AB
:101530000A46002300240021002500F00046B6F1F1
:10154000004F02D1364EF16901E0354E7168C0F3AB
:10155000034583B200F44016B6F5401F08D121F0D0
:1015600070612F4E766826F070662D4F7E6012E017
:1015700000F48016B6F5801F06D1032606FA05F49E
:10158000A14341F0706106E0460D360103FA06F60C
:10159000B14341F0706122B1460D360103FA06F6FF
:1015A000314300F00046B6F1004F02D11C4EF1610C
:1015B00001E01B4E7160F0BD30B500228B071C0F9F
:1015C0000F2303FA04F2164B08338C1053F824301F
:1015D0009343134C08348D1044F8253023468C1067
:1015E00053F824308C07240F00FA04F423430C4CE6
:1015F00008348D1044F8253030BD0A49DC310860CC
:101600007047000000080140000C0140001001403C
:101610000014014000180140001C0140002001405E
:101620000000014000002042DF48006840F0010057
:10163000DD49086008464068DC490840DA494860EE
:1016400008460068DA490840D7490860084600683B
:1016500020F4802008600846406820F4FE004860BE
:101660004FF41F0088607047CF49096821F480312A
:10167000CD4A11601146096821F480211160B0F54E
:10168000803F03D0B0F5802F0ED106E0C64909682F
:1016900041F48031C44A116007E0C349096841F44C
:1016A000A021C14A116000E000BF00BF704710B523
:1016B00001460022002300204A11012A02D1BA4C1F
:1016C000236806E0022A02D1B74C236A01E0B64C37
:1016D000636A01F01F02012494401C400CB10120F8
:1016E00000E0002010BD38B5002000900024002547
:1016F00000BF3120FFF7DBFF05460098401C00903B
:101700000098B0F5A06F01D0002DF2D03120FFF786
:10171000CEFF08B1012400E00024204638BD014678
:101720000020A14A106820F0F80040EAC1001060D3
:101730007047A04908607047024600209A4B5868DD
:1017400020F47C1042EA01031843974B586070471D
:1017500098490866704701460020934A506820F077
:1017600003000843506070478F48406800F00C0049
:101770007047014600208C4A506820F0F000084372
:101780005060704701460020874A506820F4E060AE
:1017900008435060704701460020834A506820F497
:1017A000605040EAC1005060704729B17E4A527AC9
:1017B00002437D4B5A7204E07B4A527A82437A4B51
:1017C0005A7270477B49D831086070470146002043
:1017D000754A506820F4404008435060704700212B
:1017E000714A20321170704A82F82010012802D00C
:1017F00004280AD104E001216B4A2032117005E06F
:101800000521694A2032117000E000BF00BF704717
:101810006949086070476449096A0143624A116274
:101820007047654944390860704730B5002100228F
:10183000002400235C4D6D6805F00C0121B10429E2
:1018400005D0082923D105E05C4D056022E05B4D01
:1018500005601FE0544D6D6805F47012524D6D68BF
:1018600005F48034022505EB92421CB9544D5543D2
:1018700005600BE04C4D6D6805F400351DB1504D11
:101880005543056002E04D4D5543056002E04B4D68
:10189000056000BF00BF444D6D6805F0F001090907
:1018A000484D6B5C0568DD4045603F4D6D6805F453
:1018B000E061090A434D6B5C4568DD4085603A4D47
:1018C0006D6805F46051C90A3E4D6B5C4568DD40AA
:1018D000C560354D6D6805F44041890B3A4D6B5C30
:1018E000C568B5FBF3F5056130BD29B12E4A5269D3
:1018F00002432D4B5A6104E02B4A526982432A4B22
:101900005A61704729B1284A92690243264B9A616D
:1019100004E0254A92698243234B9A61704729B1BA
:10192000214AD2690243204BDA6104E01E4AD2699F
:1019300082431D4BDA61704729B11B4AD2680243CA
:10194000194BDA6004E0184AD2688243164BDA6019
:10195000704729B1144A12690243134B1A6104E01B
:10196000114A12698243104B1A617047124940397B
:10197000086070470F49C86470470B49C8717047C9
:101980000948406A40F08070074948627047014644
:101990000020054A92680A400AB1012000E00020B8
:1019A0007047014988727047001002400000FFF83C
:1019B000FFFFF6FE000042428004424200127A001D
:1019C00000093D00480000205800002010B50446E2
:1019D000FE48844208D10121C014FFF7ADFF002169
:1019E000E014FFF7A9FFC4E0B4F1804F08D1012152
:1019F0000846FFF7AEFF00210120FFF7AAFFB8E07D
:101A0000F348844208D101210220FFF7A2FF002100
:101A10000220FFF79EFFACE0EE48844208D101218E
:101A20000420FFF796FF00210420FFF792FFA0E0BB
:101A3000E948844208D101210820FFF78AFF0021EC
:101A40000820FFF786FF94E0E448844208D1012192
:101A50001020FFF77EFF00211020FFF77AFF88E0BB
:101A6000DF48844208D101212020FFF772FF0021C6
:101A70002020FFF76EFF7CE0DA48844208D1012184
:101A80004014FFF759FF00216014FFF755FF70E085
:101A9000D548844209D10121C804FFF74DFF002138
:101AA0004FF40020FFF748FF63E0D048844209D19B
:101AB00001210805FFF740FF00214FF48010FFF7D8
:101AC0003BFF56E0CA48844209D101214805FFF78F
:101AD00033FF00214FF40010FFF72EFF49E0C54807
:101AE000844208D101214020FFF733FF002140202C
:101AF000FFF72FFF3DE0C048844208D1012180203C
:101B0000FFF727FF00218020FFF723FF31E0BB48CC
:101B1000844208D101218015FFF71BFF0021A01589
:101B2000FFF717FF25E0B648844209D101210804D8
:101B3000FFF702FF00214FF48030FFF7FDFE18E0B1
:101B4000B048844209D101214804FFF7F5FE002185
:101B50004FF40030FFF7F0FE0BE0AB48844208D1B1
:101B600001218804FFF7E8FE00214FF48020FFF7F1
:101B7000E3FE10BD00220288944B98420ED0994B90
:101B800098420BD0B0F1804F08D0914B984205D0CD
:101B9000904B984202D0904B984204D14FF68F73ED
:101BA0001A404B881A438D4B984207D08C4B984271
:101BB00004D04FF6FF431A40CB881A4302808B882B
:101BC00083850B880385814B98420BD0854B9842C7
:101BD00008D08B4B984205D08A4B984202D08A4B52
:101BE000984201D10B7A038601238382704770B536
:101BF000002400220023058C4FF6FE763540058434
:101C0000028C8388048B4FF68F752C40B51E2C40B8
:101C10000D882C43751E2A400D892A434D882A437E
:101C20006A4DA8420BD06F4DA84208D0744DA8420F
:101C300005D0744DA84202D0734DA84213D14FF67F
:101C4000F7752A404D892A434FF6FB752A408D8847
:101C50002A434FF6FF652B404FF6FF552B408D89E9
:101C60002B43CD892B4383800483CD8885860284D2
:101C700070BD70B5002400220023058C4FF6EF766E
:101C800035400584028C8388048B48F6FF752C4010
:101C90004FF6FF452C400D884FF6FF7606EA0525E6
:101CA0002C434FF6DF752A400D8906EA05152A43B5
:101CB0004D8806EA05152A43444DA84202D0494DF5
:101CC000A8421DD14FF67F752A404D894FF6FF7609
:101CD00006EA05152A434FF6BF752A408D8806EAA5
:101CE00005152A434FF6FF352B404FF2FF752B4069
:101CF0008D8906EA85052B43CD8906EA85052B43A8
:101D000083800483CD880587028470BD70B500246C
:101D100000220023058C4FF6FF6635400584028CB7
:101D20008388848B4FF68F752C404FF6FC752C40C2
:101D30000D882C434FF6FF552A400D894FF6FF764C
:101D400006EA05252A434D8806EA05252A431F4D44
:101D5000A84202D0234DA8421DD14FF2FF752A4060
:101D60004D894FF6FF7606EA05252A434FF6FF35E3
:101D70002A408D8806EA05252A434EF6FF752B403A
:101D80004DF6FF752B408D8906EA05152B43CD894D
:101D900006EA05152B4383808483CD8885870284DA
:101DA00070BD70B5002200230024058C4EF6FF762E
:101DB00035400584038C8488828B48F6FF752A4061
:101DC0004FF6FF452A400D8820E00000002C01401E
:101DD0000004004000080040000C004000100040DB
:101DE0000014004000340140004C0140005001400C
:101DF0000054014000180040001C0040002000403A
:101E00000040014000440140004801404FF6FF7689
:101E100006EA05252A434DF6FF752B400D8906EA93
:101E200005352B434D8806EA05352B43FA4DA8426C
:101E300002D0FA4DA84208D14BF6FF752C408D898F
:101E40004FF6FF7606EA85152C4384808283CD8881
:101E5000A0F84050038470BD828B4FF2FF331A40CC
:101E60008283828B4FF6FF7303EA01231A43828336
:101E70007047F0B50C461546002200210026078C5D
:101E80004EF6FF7C07EA0C070784828B018C4FF625
:101E9000FF7707EA043640F6FF473A404FF6FF77F0
:101EA00007EA05273A434FF6FF7707EA03373A4335
:101EB000D94FB8420ED0D94FB8420BD0B0F1804FB5
:101EC00008D0D74FB84205D0D64FB84202D0D64F2F
:101ED000B84206D14DF6FF77394046F48057394372
:101EE00005E047F6FF57394044F480573943828371
:101EF0000184F0BD828B4FF6F3731A408283828B8C
:101F00000A4382837047F0B50C4615460022002133
:101F10000026078C4FF6FF6C07EA0C070784828BBC
:101F2000018C4FF6FF7707EA04264FF60C773A400C
:101F30004FF6FF7707EA03172F433A43B64FB842ED
:101F40000ED0B64FB8420BD0B0F1804F08D0B44F8E
:101F5000B84205D0B34FB84202D0B34FB84206D111
:101F60004FF6FF57394046F48077394305E04FF28A
:101F7000FF57394044F48077394382830184F0BDB0
:101F8000028B4FF2FF331A400283028B4FF6FF732E
:101F900003EA01231A4302837047F0B50C46154645
:101FA000002200210026078C4FF6EF7C07EA0C0781
:101FB0000784028B018C4FF6FF7707EA041640F680
:101FC000FF473A404FF6FF7707EA03373A434FF6A9
:101FD000FF7707EA05273A438F4FB8420ED08F4F5D
:101FE000B8420BD0B0F1804F08D08D4FB84205D029
:101FF0008C4FB84202D08C4FB84206D14FF6DF77F3
:10200000394046F01007394305E04FF65F77394015
:1020100044F01007394302830184F0BD028B4FF670
:10202000F3731A400283028B0A4302837047F0B5B0
:102030000C46154600220021068C4FF6FE773E40E6
:102040000684028B018C4FF60C7632407E1C06EA29
:1020500003162E433243704EB0420ED06F4EB04244
:102060000BD0B0F1804F08D06D4EB04205D06D4E10
:10207000B04202D06C4EB04206D14FF6FD763140F0
:1020800044F00106314305E04FF6F576314044F067
:102090000106314302830184F0BD70B505460C464C
:1020A0005D4885420ED05D4885420BD0B5F1804F2A
:1020B00008D05B48854205D05A48854202D05A482C
:1020C000854200D100E000BF208850B92389A28852
:1020D00061882846FFF7ABFFE1882846FFF79EFF9F
:1020E00025E0208804280AD12389A288618828460F
:1020F000FFF753FFE1882846FFF742FF17E02088EB
:1021000008280AD12389A28861882846FFF7FBFEA8
:10211000E1882846FFF7EEFE09E02389A28861885E
:102120002846FFF7A6FEE1882846FFF795FE70BD1A
:102130002DE9F04105460C4600260127608808B9C4
:10214000022600E00026A088012801D1022700E035
:1021500001272088A0B92389A28861882846FFF733
:1021600066FFE1882846FFF759FF23893A46314642
:102170002846FFF712FFE1882846FFF701FF13E02A
:102180002389A28861882846FFF707FFE18828464F
:10219000FFF7F6FE23893A4631462846FFF747FF08
:1021A000E1882846FFF73AFFBDE8F0810A884B88AE
:1021B0001A438B881A43CB881A430B891A434B89DD
:1021C0001A438B891A43A0F8442070474FF6FF71D9
:1021D000818000210180C18041800172704700210F
:1021E000018041808180C180018141818181C181E3
:1021F0007047002101804180012181800021C18040
:10220000018170470021018041808180C18001816E
:102210004181818170470000002C01400034014061
:102220000004004000080040000C004021B102887A
:1022300042F00102028004E002884FF6FE731A4069
:102240000280704731B1B0F8442042F40042A0F857
:10225000442005E0B0F84420C2F30E02A0F8442068
:1022600070471AB183890B43838102E083898B43D2
:10227000838170478182704741EA0203A0F84830A9
:1022800070471AB183890B43838102E083898B43B2
:102290008381704701894FF6F872114001817047C0
:1022A0000A46002101894FF68F73194011430181BD
:1022B000704730B504460D4629462046FFF7F0FF2B
:1022C000208940F00700208130BD2DE9F04104460F
:1022D0000D4616461F46602D06D13B46012231466B
:1022E0002046FFF75AFE05E03B46012231462046D4
:1022F000FFF79DFE29462046FFF7D2FF208940F0D8
:1023000007002081BDE8F08130B50C46002101892D
:10231000C9B24FF6FF7505EA032515432543294346
:10232000018130BD2DE9F04105460E46174698461D
:10233000002443463A4631462846FFF7E5FF2C89FC
:102340004FF6F870044044F007044FF68F700440D5
:1023500044F070042C81BDE8F081F0B504460D46D0
:1023600016461F463B46324629462046FFF7CCFF1D
:10237000208940F480402081F0BD01858282704731
:102380000A46002101884FF68F73194011430180DE
:102390007047F0B50C4615461E460021002200236A
:1023A0000189028B038C4FF6F877394021434FF6B1
:1023B000FC473A4040F201173A434FF6DD773B4085
:1023C0004FF6FF7707EA06172F433B43018102834D
:1023D0000384F0BD0A460021018B4FF68F7319402C
:1023E0001143018370470A460021018B48F6FF73B1
:1023F00019404FF6FF7303EA022319430183704724
:102400000A460021818B4FF68F7319401143818357
:1024100070470A460021818B48F6FF7319404FF63A
:10242000FF7303EA022319438183704721B10288B5
:1024300042F08002028004E002884FF67F731A4067
:102440000280704721B1828842F00402828004E059
:1024500082884FF6FB731A408280704721B18288D0
:1024600042F00802828004E082884FF6F7731A4037
:102470008280704721B1828842F00102828004E0AC
:1024800082884FF6FE731A40828070470A46002108
:10249000018B4FF6F77319401143018370470A46C9
:1024A0000021018B4FF2FF7319404FF6FF7303EACF
:1024B00002231943018370470A460021818B4FF69E
:1024C000F77319401143818370470A460021818BBD
:1024D0004FF2FF7319404FF6FF7303EA02231943CB
:1024E000818370470A460021018B4FF6FB73194028
:1024F0001143018370470A460021018B4FF6FF33D9
:1025000019404FF6FF7303EA022319430183704712
:102510000A460021818B4FF6FB73194011438183DA
:1025200070470A460021818B4FF6FF3319404FF662
:10253000FF7303EA02231943818370470A4600218F
:10254000018B4FF67F7319401143018370470A4690
:102550000021018BC1F30E014FF6FF7303EA022342
:102560001943018370470A460021818B4FF67F7320
:1025700019401143818370470A460021818BC1F3C2
:102580000E014FF6FF7303EA02231943818370475C
:102590000A460021018C4FF6FD7319401143018456
:1025A00070470A460021018C4FF6F773194011431A
:1025B000018470470A460021018C4FF6DF731940F1
:1025C0004FF6FF7303EA02131943018470470A466A
:1025D0000021018C4FF67F7319404FF6FF7303EA19
:1025E00002131943018470470A460021018C4FF6FB
:1025F000FF5319404FF6FF7303EA02231943018486
:1026000070470A460021018C4FF2FF7319404FF6C4
:10261000FF7303EA02231943018470470A4600212D
:10262000018C4DF6FF7319404FF6FF7303EA023336
:1026300019430184704730B5002301248C40A3B2B4
:10264000048C9C430484048C02FA01F5ADB22C4343
:10265000048430BD30B5002304248C40A3B2048C24
:102660009C430484048C02FA01F5ADB22C4304842B
:1026700030BD70B5034600200024184618300125EF
:102680008D40ACB21D8CA5431D8409B1082909D128
:1026900000EB6100056825F07005056005681543CD
:1026A00005600EE00D1FC5F34E052844056825F4AE
:1026B000E045056005684FF6FF7606EA02263543D9
:1026C000056070BD21B1028842F00202028004E080
:1026D00002884FF6FD731A400280704721B10288CC
:1026E00042F00402028004E002884FF6FB731A40B5
:1026F0000280704721B1828842F08002828004E02B
:1027000082884FF67F731A408280704702884FF6A6
:10271000F7731A40028002880A4302807047828859
:102720004FF68F731A40828082880A4382807047F6
:1027300002894FF6F8731A40028102890A43028126
:10274000704702894FF67F731A40028102890A435B
:102750000281704781847047818570478186704708
:102760000187704781877047A0F840107047028842
:102770004FF6FF431A40028002880A4302807047E6
:102780000146888E70470146088F70470146888F42
:1027900070470146B1F8400070470146888C704789
:1027A0000146088D704702460020138A0B400BB18A
:1027B000012000E000207047CA430282704730B514
:1027C0000246002000230024158A05EA01039589AA
:1027D00005EA010413B10CB1012000E0002030BD76
:1027E000CA4302827047000010B50446FB48844289
:1027F00009D101218803FFF79FF800214FF48040A1
:10280000FFF79AF832E0F648844209D101214804E2
:10281000FFF79FF800214FF40030FFF79AF825E00A
:10282000F048844209D101218804FFF792F8002181
:102830004FF48020FFF78DF818E0EB48844209D16F
:102840000121C804FFF785F800214FF40020FFF7AD
:1028500080F80BE0E548844208D101210805FFF724
:1028600078F800214FF48010FFF773F810BD2DE9C0
:10287000F04786B005460E460024A24600BFA1469A
:102880000027B08900B100BF2F462C8A4CF6FF709C
:102890000440F08804432C82AC894EF6F3100440C7
:1028A000B08831890843718908430443AC81AC8AFC
:1028B0004FF6FF400440B0890443AC8201A8FEF704
:1028C000B4FFC648874202D1DDF810A001E0DDF870
:1028D0000CA0A88900F4004040B10AEBCA0000EB4C
:1028E0000A1031684900B0FBF1F807E00AEBCA00B2
:1028F00000EB0A1031688900B0FBF1F86420B8FBE6
:10290000F0F004012009642101FB1089A88900F47A
:10291000004040B1322000EBC900B0FBF1F000F004
:102920000700044308E0322000EB09106421B0FBEB
:10293000F1F000F00F0004432C8106B0BDE8F087F1
:102940004FF41651016000218180C18001810C216A
:10295000418100218181704710B502460020108A14
:102960004FF2FF0318400B884C8823438C88234385
:10297000CC8823431843108210BD00210180418080
:102980008180C180704721B1828942F400528281E6
:1029900004E082894DF6FF731A4082817047F0B5DA
:1029A0000346002400260025002040F66A17B9429D
:1029B00000D100BF1846C1F3421401F01F060127E1
:1029C00007FA06F5012C01D10C3004E0022C01D1EC
:1029D000103000E014301AB107682F43076002E09E
:1029E0000768AF430760F0BD1AB1838A0B43838247
:1029F00002E0838A8B4383827047028A4FF6F0732A
:102A00001A400282028A0A430282704782894FF288
:102A1000FF731A40828182890A438281704721B103
:102A2000828942F00202828104E082894FF6FD73BE
:102A30001A4082817047028A4FF6DF731A40028281
:102A4000028A0A430282704721B1028A42F480421C
:102A5000028204E0028A4BF6FF731A40028270473A
:102A6000C1F308028280704701468888C0F30800DD
:102A70007047818941F0010181817047028BD2B298
:102A80000283028B42EA012202837047028B02F426
:102A90007F420283028B0A430283704721B1828AFC
:102AA00042F02002828204E0828A4FF6DF731A40ED
:102AB0008282704721B1828A42F01002828204E051
:102AC000828A4FF6EF731A408282704721B1828A60
:102AD00042F00802828204E0828A4FF6F7731A40BD
:102AE0008282704721B1828942F40042828103E0F0
:102AF0008289C2F30E028281704721B1828A42F438
:102B00000062828204E0828A4FF2FF731A4082825E
:102B10007047828A4FF6FB731A408282828A0A4388
:102B20008282704721B1828A42F00202828204E0EE
:102B3000828A4FF6FD731A40828270470246002057
:102B4000B1F5007F00D100BF13880B400BB101200D
:102B500000E00020704701F40072B2F5007F00D160
:102B600000BFCA430280704770B5024600240023AC
:102B70000025002040F66A16B14200D100BFC1F323
:102B8000421501F01F03012606FA03F3012D02D1BD
:102B90009689334006E0022D02D1168A334001E0C7
:102BA000968A33400C12012606FA04F41688344043
:102BB00013B10CB1012000E0002070BD10B500225F
:102BC000002340F66A14A14200D100BF0A1201247A
:102BD0009440A3B2DC43048010BD000000380140E3
:102BE0000044004000480040004C004000500040BD
:102BF00010B56FF00400FDF752FE2E4800682E4914
:102C0000B0FBF1F02D4908700846007800EB400158
:102C1000C1EBC0104FF6FF7101EAC00028490880DF
:102C200010BD0146254A12784A434FF0E0235A610D
:102C300000229A611A46126942F001021A6100BF2D
:102C40004FF0E022106900F001021AB100F4803266
:102C5000002AF5D04FF0E022126922F001024FF075
:102C6000E0231A6100229A6170470146144A1288D3
:102C70004A434FF0E0235A6100229A611A461269D2
:102C800042F001021A6100BF4FF0E022106900F02B
:102C900001021AB100F48032002AF5D04FF0E02290
:102CA000126922F001024FF0E0231A6100229A61BA
:102CB000704700003400002000127A005C00002001
:102CC0005E00002010B54FF4A060FDF799FD10BD27
:102CD000014600BF704770B504460D4600BF402155
:102CE0004B48FFF72BFF0028F9D0E1B24848FFF727
:102CF000B7FE204670BD10B586B004460121042001
:102D0000FEF700FE01214804FEF709FE4048FFF7E8
:102D10006BFD0420ADF8140003208DF81600182078
:102D20008DF8170005A93B48FEF730FB0820ADF8E9
:102D3000140004208DF8170005A93648FEF726FB7D
:102D400001940020ADF80800ADF80A00ADF80C00C1
:102D5000ADF810000C20ADF80E0001A92C48FFF7CB
:102D600086FD26208DF8000003208DF801008DF8E7
:102D7000020001208DF803006846FDF746FD0122A0
:102D800040F225512248FFF70AFE01212048FFF7B3
:102D9000FAFD06B010BD10B540F225511C48FFF7F2
:102DA000E3FE10B31A48FFF75FFEC4B21A4800886A
:102DB00000F40040C8B91848008800F4804060B1B1
:102DC0000A2C03D000201449088020E01248008813
:102DD00040F400401049088019E00D2C06D10E483F
:102DE000008840F480400C49088010E00A480088C0
:102DF000C0F30D0009490C5407480088401C0649DF
:102E0000088008460088C72801DD0020088010BD22
:102E100000440040000801406400002070020020CF
:102E200008B501211820FEF76DFD0320ADF8000064
:102E300010208DF8030003208DF802006946094830
:102E4000FEF7A4FA03210748FEF74DFB2020ADF85A
:102E5000000069460448FEF799FA20210248FEF76F
:102E600042FB08BD000C01400010014008B50121E3
:102E70004803FEF747FD01210846FEF743FD012107
:102E80001020FEF73FFD01210420FEF73BFD4FF42B
:102E90007070ADF8000018208DF8030003208DF845
:102EA000020069464148FEF771FA08BD30B587B0A7
:102EB00005460C46ADF81450ADF810400020ADF8B2
:102EC0001200ADF816008DF8180004A93848FEF776
:102ED00051FE7020ADF800000120ADF80200002086
:102EE000ADF80400ADF806000220ADF8080000209F
:102EF000ADF80A004FF48070ADF80C000020ADF87A
:102F00000E0069462A48FEF772FE0020ADF8060062
:102F100069462748FEF7ADFE0020ADF80600694679
:102F20002348FEF7F3FE0020ADF80600694620486E
:102F3000FEF737FF01211E48FFF778F901211C48F1
:102F4000FFF780F907B030BD08B501210C20FEF76E
:102F5000D9FC4FF47040ADF8000010208DF803004C
:102F600003208DF8020069461248FEF70FFA4FF46D
:102F700070411048FEF7B9FA4FF47060ADF80000E8
:102F800069460D48FEF702FA4FF470610A48FEF7F1
:102F9000ACFA08BD70B504460D46FFF767FF294639
:102FA0002046FFF783FFFFF7CFFF70BD0010014001
:102FB00000340140000C0140000801402DE9F04FB1
:102FC0008DB0824614461D4625F000432646DAE9B8
:102FD000008121F000413246404602F0CFFDCAE9AF
:102FE0000801DAE90A63324600204FF0804102F01E
:102FF00085FC8046DAE90863324602F0B3FDCDE98C
:103000000001DAE90C63324602F0A8F9CDE90201C9
:10301000DAE90663324602F071FC0022FE4BCDE98C
:10302000040102F06BFCCDE90801DAE908633246DD
:10303000DAE90481404602F061FC4FF02042F74B90
:10304000CDE9000102F05AFCCDE90401DAE90A6396
:103050003246DAE90881404602F090FDCDE90201EE
:10306000DDE9042302F07AF9CDE90601DDE9082360
:1030700002F074F9CDE90A01DAE90263324602F09E
:103080003DFCCAE90E01DAE90A01CAE90C01DAE9F4
:103090000801CAE90A01DAE90E21104602F02CF90A
:1030A000834658460DB0BDE8F08F2DE9FC5F04461D
:1030B000894616461D46D9E9007121F000410022DB
:1030C000D74B384602F0DEFB12D305EBC400D0E943
:1030D00000A306EBC4005246D0E90071384602F066
:1030E0000DFC00221346CDE9000102F005FD0CD8CD
:1030F00005EBC400D0E9001006EBC402C2E90010E1
:1031000005EBC40103C9BDE8FC9F05EBC400D0E991
:10311000007306EBC4003A46D0E900A1504602F025
:10312000EDFB00221346CDE9000102F0ABFB02D219
:1031300000200146E7E705EBC400D0E9001006EBEC
:10314000C402C2E9001005EBC40103C9DBE72DE9A5
:10315000F05F4FF0000800BF2DE3B24BB24AB34915
:103160004046FFF7A2FFB24A02EB881203C2B04802
:1031700000EB881000221346D0E90061304602F0CF
:10318000BBFC7CD20120AB4901F808000021AA4A0F
:1031900002EBC80211605160A44901EBC801D1E9FA
:1031A0000063A34901EB88103246FFF707FF814611
:1031B00002F0CEFD04460D460022A04B20462946D3
:1031C00002F09AFC01D200249C4D00229C4B204628
:1031D000294602F057FB01D20024994D994800EB93
:1031E000C80022462B46D0E90061304602F0B6F80E
:1031F000944A02EBC80203C2924800EBC8000022C6
:10320000914BD0E90061304602F076FC06D80021EF
:103210008D488C4A02EBC802C2E90010894800EBD5
:10322000C80000221346D0E90061304602F02AFBB4
:1032300005D80021834A02EBC80211605160B8F141
:10324000000F09D0B8F1010F23D0B8F1020F3CD024
:10325000B8F1030F71D153E001207C4908600020D0
:103260007B49C1F8B001774800EBC8000022134643
:10327000D0E90061304602F071F8814600E05EE07E
:1032800002F0BCFA1FFA80FB59467248FFF766FA53
:1032900054E001206D49091D086000206C49C1F807
:1032A000B401684800EBC80000221346D0E9006171
:1032B000304602F053F8814602F0A0FA1FFA80FB74
:1032C00059466448FFF74CFA38E00120624908602B
:1032D00000206249C1F8A8015A4800EBC80000224A
:1032E0001346D0E90061304602F038F8814602F01A
:1032F00085FA1FFA80FB59465648FFF733FA1DE05E
:1033000001205549091D086000205449C1F8AC014D
:103310004C4800EBC801D1E9006100221346304659
:1033200002F01CF8814602F069FA1FFA80FB594648
:103330004848FFF719FA01E0FFE700BF00BF3C482B
:1033400000EB881000221346D0E90061304602F0FD
:1033500099FA5FD20220374901F808000021394A62
:1033600002EBC80211605160304901EBC801D1E99C
:1033700000632F4901EB88103246FFF71FFE81469C
:1033800002F0E6FC04460D4600222C4B204629465E
:1033900002F0B2FB01D20024284D0022284B204627
:1033A000294602F06FFA01D20024254D224800EB95
:1033B000C80022462B46D0E90061304601F0CEFF1E
:1033C0001D4A02EBC80203C21B4800EBC801D1E949
:1033D000006100221C4B304602F08EFB05D8002015
:1033E0001949154A02EBC80203C2134800EBC80092
:1033F00000221346D0E90061304602F043FA05D8B6
:1034000000210D4A02EBC80211605160B8F1000FB3
:1034100030D025E09EE00000000079409999993F66
:103420000000E03F700100209001002050020020C9
:103430006800002068010020580300200000594067
:10344000000059C03803002000208C40B881214280
:103450000080214200340140A001214200002142AD
:10346000B8F1010F21D0B8F1020F3AD0B8F1030F33
:103470006ED151E00020D34908600120D249C1F843
:10348000B001D24800EBC80000221346D0E9006129
:10349000304601F063FF814602F0B0F91FFA80FB6D
:1034A0005946CB48FFF75AF953E00020C549091D9A
:1034B00008600120C449C1F8B401C44800EBC80148
:1034C000D1E9006100221346304601F047FF8146F2
:1034D00002F094F91FFA80FB5946BD48FFF740F906
:1034E00037E00020BB4908600120BB49C1F8A801B2
:1034F000B64800EBC80000221346D0E90061304610
:1035000001F02CFF814602F079F91FFA80FB594641
:10351000AF48FFF727F91CE00020AE49091D0860FD
:103520000120AD49C1F8AC01A84800EBC800002259
:103530001346D0E90061304601F010FF814602F0E9
:103540005DF91FFA80FB5946A148FFF70DF900E02D
:1035500000BF2CE1A14800EB881000221346D0E9FF
:103560000061304602F00EF9F3D19D4810F80800D2
:10357000012872D10021954A02EBC8021160516006
:10358000984800EBC801D1E900614FF06632964BD4
:10359000304602F0B3F9934A02EBC80203C29148E5
:1035A00000EBC801D1E900610022904B304602F0E7
:1035B00069F905D200218B4A02EBC8021160516003
:1035C000B8F1000F09D0B8F1010F1BD0B8F1020F0C
:1035D0002ED0B8F1030F57D140E00120794908609F
:1035E00000207949C1F8B0017E4800EBC800D0E95D
:1035F0000021104602F002F986B231467448FFF706
:10360000ADF842E001206F49091D086000206E49B5
:10361000C1F8B401734800EBC801D1E9002110469C
:1036200002F0ECF886B231466948FFF799F82CE0D1
:1036300001206849086000206749C1F8A80169486D
:1036400000EBC800D0E90021104602F0D7F886B29E
:1036500031465F48FFF786F817E017E001205D4923
:10366000091D086000205C49C1F8AC015D4800EB11
:10367000C800D0E90021104602F0C0F886B23146F9
:103680005348FFF771F800E000BF00BF544810F83E
:103690000800022872D10020524A02EBC8021060D2
:1036A00050604A4800EBC8004FF066324E4BD0E9FC
:1036B0000061304602F022F9444A02EBC80203C21C
:1036C000424800EBC801D1E900610022474B304677
:1036D00002F0D8F805D200213C4A02EBC802116082
:1036E0005160B8F1000F09D0B8F1010F1BD0B8F14B
:1036F000020F2ED0B8F1030F57D140E0002031491E
:10370000086001203049C1F8B001304800EBC80022
:10371000D0E90021104602F071F886B231462C48FB
:10372000FFF71CF842E000202649091D086001202F
:103730002549C1F8B401254800EBC800D0E90021B3
:10374000104602F05BF886B231462148FFF708F8D0
:103750002CE000201F49086001201F49C1F8A80182
:103760001A4800EBC801D1E90021104602F046F8E2
:1037700086B231461648FEF7F5FF17E017E0002045
:103780001449091D086001201349C1F8AC010F4814
:1037900000EBC800D0E90021104602F02FF886B2F5
:1037A00031460B48FEF7E0FF00E000BF00BF08F124
:1037B000010000F0FF08B8F1040FFFF6CEACBDE841
:1037C000F09F0000B8812142008021425803002070
:1037D00000340140A0012142000021426800002085
:1037E00068010020380300206666EE3F0000494073
:1037F00008B501210C20FEF785F801210846FEF7E7
:1038000081F80121CE48FDF792FE0121CD48FDF758
:103810008EFE6846FDF745FE48F2C300ADF8000095
:1038200004208DF8030003208DF802006946C64885
:10383000FDF7ACFDC820ADF8000004208DF80300B2
:1038400003208DF802006946C048FDF79FFD08BDC2
:1038500008B54FF4A060FCF7D3FF1C208DF80000E2
:1038600000208DF8010002208DF8020001208DF863
:1038700003006846FCF7C9FF4FF4A060FCF7C0FFE7
:103880001D208DF8000000208DF8010002208DF829
:10389000020001208DF803006846FCF7B6FF4FF4E4
:1038A000A060FCF7ADFF1E208DF8000000208DF811
:1038B000010002208DF8020001208DF80300684607
:1038C000FCF7A3FF4FF4A060FCF79AFF32208DF8BD
:1038D000000000208DF8010002208DF80200012078
:1038E0008DF803006846FCF790FF4FF4A060FCF7EA
:1038F00087FF37208DF8000000208DF8010001209F
:103900008DF802008DF803006846FCF77EFF08BDC5
:1039100030B587B005460C4601210F20FDF7FFFFAB
:103920004FF08040FEF752F88948FEF74FF889487B
:10393000FEF74CF88848FEF749F801A8FEF746FC68
:10394000ADF80850ADF804400020ADF80A00ADF81D
:1039500006008DF80C0001A94FF08040FEF70AF92F
:1039600001A8FEF733FCADF80850ADF80440002084
:10397000ADF80A00ADF806008DF80C0001A97448F6
:10398000FEF7F8F801A8FEF721FCADF80850ADF8F5
:1039900004400020ADF80A00ADF806008DF80C00D8
:1039A00001A96C48FEF7E6F801A8FEF70FFCADF898
:1039B0000850ADF804400020ADF80A00ADF806004C
:1039C0008DF80C0001A96448FEF7D4F800231A46CC
:1039D00003214FF08040FEF7DCFC00231A46032150
:1039E0005B48FEF7D6FC00231A4603215948FEF730
:1039F000D0FC00231A4603215748FEF7CAFC04A84E
:103A0000FEF7F7FB0320ADF8180004A94FF0804043
:103A1000FEF743FB01218807FEF7CEFE0122114687
:103A20009007FEF71EFC00214FF08040FEF792FE4B
:103A300001218807FEF7FAFB04A8FEF7DAFB032052
:103A4000ADF8180004A94248FEF727FB01214048C1
:103A5000FEF7B2FE012211463D48FEF702FC0021AE
:103A60003B48FEF777FE01213948FEF7DFFB04A84B
:103A7000FEF7BFFB0320ADF8180004A93548FEF798
:103A80000CFB01213348FEF797FE01221146314815
:103A9000FEF7E7FB00212F48FEF75CFE01212D48D1
:103AA000FEF7C4FB04A8FEF7A4FB0320ADF8180042
:103AB00004A92948FEF7F1FA01212748FEF77CFE08
:103AC000012211462448FEF7CCFB00212248FEF7D4
:103AD00041FE01212048FEF7A9FB07B030BD3EB5ED
:103AE00005460C4601212020FDF719FFADF80050D6
:103AF000ADF804400020ADF80600ADF802008DF8E6
:103B0000080069461548FEF735F801211348FEF70D
:103B10008DFB012211461148FEF7A3FB3EBD10B5F7
:103B2000FFF766FEFFF794FE002141F28730FFF7B2
:103B3000EFFE41F61F411820FFF7D1FF10BD000036
:103B4000000318000002300000080140000C014092
:103B50000004004000080040000C00400014004039
:103B600000B589B001210920FDF7CCFE01214806EE
:103B7000FDF7D5FE01214FF4EA10FDF7D8FC032034
:103B80008DF816004FF48070ADF8140048208DF8C1
:103B9000170005A95B48FDF7F9FB4FF40070ADF87D
:103BA000140018208DF8170005A95648FDF7EEFB04
:103BB00014208DF8100000208DF811008DF81200EF
:103BC00001208DF8130004A8FCF71FFE4E48FCF7F7
:103BD00085FE06A8FCF7A6FF01208DF81F008DF8D2
:103BE000200000208DF81B0004208DF81C0002200E
:103BF0008DF81D000420ADF8180006A94248FCF716
:103C000086FE00208DF80A008DF80B0001208DF84B
:103C10000C004020ADF800000020ADF80200ADF827
:103C20000400ADF80600ADF8080001208DF80D0085
:103C30006846FCF7F6FE012202213348FDF7F0F951
:103C400009B000BD70B53148407A002846D12F48F0
:103C500000680F2806D0172821D01F282DD027282C
:103C600039D139E02948D0F80B402146284802F0E4
:103C70009BF8054602F06CF8264A03C22348D0F8A8
:103C80000F402146244802F08FF8054602F060F804
:103C9000204AC2E902010020204908601DE01B48BB
:103CA000D0F80B401E49204602F07EF8054602F08F
:103CB0004FF8184AC2E906010FE01448D0F80B404B
:103CC0001749204602F070F8054602F041F8114A03
:103CD000C2E9040100BF00BF00BF00BF70BD10B546
:103CE00002210948FDF704FA50B1084A00210648AC
:103CF000FDF77BF8FFF7A6FF02210348FDF7F8F96F
:103D000010BD0000000C0140006400408C03002046
:103D10000000A042700100200000A0C2300000207E
:103D200000803B4470474FF0000200B513469446B4
:103D30009646203922BFA0E80C50A0E80C50B1F103
:103D40002001BFF4F7AF090728BFA0E80C5048BF17
:103D50000CC05DF804EB890028BF40F8042B08BFB5
:103D6000704748BF20F8022B11F0804F18BF00F8B1
:103D7000012B7047704770477047704710B500F0CF
:103D800059F8006810BD10B5044600F053F80460FF
:103D900010BD00000FB4002300B589B00CA900913C
:103DA0000B99CB60204B7B440693204B7B440793BD
:103DB00004236FF00042CDE901321D4A7A446B467C
:103DC00008920246002002F01BF909B05DF814FBCE
:103DD00070B506464FF0FF3015460C46324686B0A9
:103DE0000091CDE9010169460020049004A8FFF785
:103DF000D1FF03460498211825B108B10A4600E016
:103E000022462A6000280DD0002B02DD009888424F
:103E100008D03246081B69460094CDE9010404A885
:103E2000FFF7B8FF06B070BDA5000000BD000000A0
:103E30007D00000000487047A003002010B5044634
:103E400000F050F80068005D00F0010010BD42680D
:103E500042B1016811F8013B23B1521EC0E90012C2
:103E6000184670470121C160881E704742685AB1E8
:103E7000C368016843B983688B4205D0491E521C50
:103E8000C0E90012002070474FF0FF30704700007B
:103E900000487047A00300207546FFF7F9FFAE46C3
:103EA00005006946534620F00700854618B020B546
:103EB000FCF794FCBDE820404FF000064FF00007EF
:103EC0004FF000084FF0000B21F00701AC46ACE8C2
:103ED000C009ACE8C009ACE8C009ACE8C0098D462F
:103EE0007047000010B500F09DFA001D10BD00BF26
:103EF000DD1300002DE9FF4F064689B00878FF2842
:103F000006D0491C2D2805D000244FF0000908E0F8
:103F100000200CE00124F8E709EB8903491C00EBC1
:103F200043090878FF28F7D114B1C9F10000814690
:103F3000107800252C46AA4629462D2801D02B288A
:103F400004D1521C2D2813D0002082468B461078B5
:103F5000FF280FD04FF0000C0A21521CA5FB01785E
:103F600004FB018105FB0C11C5194BEB0104EEE7C5
:103F70000120EAE7002108464FF00000BAF1000FE7
:103F800002D000EB80004008C0F38158B8F1010F67
:103F900001DD4FF0FF380C9809EB000755EA0400EB
:103FA00009D04FF0020917F5FA7F0BDA4FEACA7011
:103FB000C6E900B012E04FEACA70C6E900B00DB021
:103FC000BDE8F08FB7F5FA7F0DDDF0487844D0E911
:103FD0000010C6E9001040EACA707060FFF72AFFBF
:103FE000C0F80090EBE7391E02DAC8F1000200E0E9
:103FF000424600DA794206A800F018FA06AB93E8C8
:10400000070003AB83E8070044F23E005BEA0401CB
:104010000090584604D144F21E012C465D460091A2
:10402000210C0904014306D10099240444EA1544F3
:104030002D041039009104F07F41014306D100990D
:10404000240244EA15642D020839009104F07041FD
:10405000014306D10099240144EA15742D01091F7A
:10406000009104F04041014306D10099A40044EAC4
:104070009574AD00891E009104F00041084304D1FD
:1040800000986D196441401E009042466846002F1A
:10409000CDE9014503A902DD00F0E3FE01E000F0F7
:1040A000B8FEBAF1000F04460D4601D084F000447A
:1040B00040F2FF7724F00040284303D0C4F30A50B5
:1040C000B84212D1FFF7B6FEC0F80090C4F30A5010
:1040D000B8420AD1AE487844D0E90010C6E90010D1
:1040E00004F000410843706069E7C6E9005466E7E0
:1040F0002DE9FF4F1F464FF0000A4FF0FF384546AD
:1041000091B0D7E90146CDF83CA000F08BF9C0682A
:104110000168405C1090B96912986D1C8847396A33
:10412000814688470028F6D1B9F1FF3F0AD0002E1A
:1041300024F4D06411DDB9F12B0F08D0B9F12D0FA3
:104140000BD102E0404615B03AE744F48064B96907
:1041500012986D1C8847761E8146600504A901D51A
:104160002D2000E02B20002E01F1010B0DF1300875
:104170008DF810003FDDB9F1690F08D0B9F1490F92
:1041800005D0B9F16E0F02D0B9F14E0F1CD13B46EC
:1041900001A8009580E85002DDE912126FF00200DC
:1041A00001F032FFC11CCED10EE0B96912986D1C2E
:1041B000884781461398761E44F4007405600F9872
:1041C000401C002E0F9016DDB9F1300FEDD0B9F183
:1041D000780F02D0B9F1580F0DD10F9801280AD1EC
:1041E0003B46CDE90054DDE91212001F029601F0B2
:1041F00009FFC11CA7D1109989453ED144F0800424
:1042000006E01399681CAAF1010A44F400740860DE
:10421000B9696D1C1298761E884730288146F0D007
:104220002BE01099894505D1200603D4761E44F071
:10423000800418E0484600F0B0FF08B3761E0DF188
:1042400023018B4544F4007408D2A9F130000BF827
:10425000010B200607D5AAF1010003E0200602D4D5
:104260000AF101008246A00502D51399681C086076
:10427000B96912986D1C88478146002ED1DC53E045
:10428000002E51DDB9F1650F02D0B9F1450F4BD1C8
:10429000A00549D5B9696D1C1298761E24F44074A6
:1042A0008847002E81460CDD2B2804D0B9F12D0F54
:1042B00007D144F48074B96912986D1C8847761E42
:1042C0008146E00501D52D2100E02B2108F8011BD6
:1042D000CDF8008021E0761E0DF13901884544F4C7
:1042E00000740CD2A9F1300010F0FF0088F8000033
:1042F00002D10099884509D908F1010806E0E005D6
:1043000001D5244801E042F20F708246B969129843
:104310006D1C8847814613980560002E04DD4846D1
:1043200000F03BFF0028D6D1F96912988847FF209A
:1043300053468BF8000088F8000000200A900B908C
:1043400004AA0CA90AA8FFF7D5FDA00502D46FF0B6
:104350000100F8E614F0240F0AD0E00714D1386801
:10436000DDE90A12031D3B600068C0E900120BE0A2
:104370000AA9684600F0BAFEE00705D13868009A3D
:10438000011D3960006802602846DCE6202100003B
:1043900016200000F1D8FFFF0446AFF3008020464E
:1043A000FBF73BFF4FF0013C50F8042B51F8043B66
:1043B0009A4221D1A2EB0C03934313EACC1317D1F9
:1043C00050F8042B51F8043B9A4215D1A2EB0C0390
:1043D000934313EACC130BD150F8042B51F8043B50
:1043E0009A4209D1A2EB0C03934313EACC13DBD01E
:1043F0004FF00000704700BFD01A01BAB1FA81F146
:1044000001F0180122FA01F0CB40C1F12001DBB22A
:10441000C0B2C01A2CFA01F3D11A914311EAC311A8
:10442000E6D1704700487047C00300202DE9F047EF
:10443000814616468AB0334878440DC88DE80D0091
:1044400030487844801C03AC0DC884E80D0041F668
:104450009B300844372190FBF1F290FBF1F5A5F178
:10446000800501FB12041B3C02D56442012000E0E0
:104470000020DFF890A080460027FA44AAF1BE0A87
:104480000DE0E00709D03246684607EB47010AEB2A
:10449000810100F0D2FC8DE8070064107F1C002C25
:1044A000EFD1184F7F44AC3F18E0E80714D007EB7A
:1044B00004100DF1180A90E80E008AE80E00C0689A
:1044C000F04201D198190890324606A903A800F0DD
:1044D000B4FC03AB83E807006D10641C002DE4D12D
:1044E00032466946B8F1000F03A802D000F07DFC07
:1044F00001E000F0A2FCC9E90001C9F808200AB0F7
:10450000BDE8F0877C1C00002DE9FF4F1F464FF0EF
:104510003C0987B04FF00042DDE9141001F10108B9
:10452000DDF858A002EA4050039000200490834632
:10453000054604460590B969461E08988847AAF1C1
:10454000010A0290BAF1000F37DD02982E2815D02B
:10455000102100F012FA00282ADB4FF0010B049919
:10456000014316D0B9F1000F0BDB4A46C11700F02A
:10457000F1F905430C43A9F1040905E00120059078
:1045800007E008B145F0010501200490059800B945
:10459000361DB969089808F101088847BBF1000F7A
:1045A000AAF1010A0290CDD00999C1F80080C9E7AB
:1045B0000298702808D0502806D0F96908988847D2
:1045C000BBF1000F14D04FE0002002900120BBF19E
:1045D000000F049009D0B969089808F101088847CC
:1045E000AAF10109B9F1000F07DCF96908988847B9
:1045F0006FF001000BB0BDE8F08F2B2804D02D2800
:104600000CD14FF0FF300490B969089808F1010807
:104610008847A9F10109B9F1000FE6DD411CE4D09A
:104620000A2100F0AAF90028DFDB029908F101084D
:1046300001EB810100EB41000290B96908988847BD
:104640000A2100F09AF9099AA9F10109B9F1000FBC
:10465000C2F8008001DD0028E7DAF9690898884788
:104660000499029800FB016655EA040004D004F0A6
:104670004041090002D006E0039898E0A40044EA13
:104680009574AD00B61E04F00041080002D16D190A
:104690006441761E159810F0240F03D04FF00B09DB
:1046A0005C4803E04FF028096FF07D0082465645D4
:1046B00007DAAAEB06018944B9F1410F01DD4FF099
:1046C000410901200021A9F1010200F043F902464D
:1046D00028400B462140084301D0012100E0002181
:1046E000501E029143F1FF3128402140084301D080
:1046F000012000E000200299834651EA0B014FD0CF
:10470000002108464FF00000039900F4400039B141
:1047100000EB80004FF4400100EBD07001EA600034
:104720008015012802DD4FF0FF3000E013D0401C5F
:1047300036D0029860B3BBF1000F0CD14A4601207D
:10474000002100F007F928402140084301D0012052
:1047500000E00020E0B101204A46002100F0FAF814
:10476000034640190A4661412D1A8C4111D3B9F113
:10477000400F09DD159810F0240F02D0AAF134067D
:1047800003E0AAF1170600E0761C00254FF0004474
:1047900006E05B1E42F1FF3220EA030521EA020433
:1047A000CAF10100B04206DA1B49039808430190A0
:1047B000002000900EE0039AC4F3D321E80A0A43D4
:1047C000164940EA44500A433146CDE900026846A2
:1047D00000F0D8FC159810F0240F0BD01598C007E6
:1047E00015D13868DDE90012031D3B600068C0E99F
:1047F00000120CE002A8694600F078FC1598C0078A
:1048000005D13868029A011D39600068026040468F
:10481000F0E6000002FCFFFF0000F07F0000F03F28
:104820002DE9FF4F92461D4685B04FF00041DDE96E
:10483000124BDDE914727F1E01EA4B50414940F0F2
:10484000FF4940EA0108002122F020004928049194
:1048500002D04E2828D04CE03BA0012607C88DE8A6
:104860000700A9690698641C88477F1E014606D484
:104870001DF8060018B121F0200181420BD0E96932
:1048800006988847032E34D0082E32D06FF00100EE
:1048900009B0BDE8F08F761C032E01D0082EE0D1C0
:1048A000601CCAF80000DCE7A9690698641C884708
:1048B0007F1E2AD420F02000412826D1A96906981D
:1048C000641C88477F1E20D420F020004E281CD175
:1048D000A9690698641C88477F1E48F4002849F49B
:1048E0008009CAF8004001D4282806D0E969069852
:1048F00088475FEACB7012D022E0A9690698641C51
:1049000088477F1E01D4002803DAE96906988847A2
:10491000BCE72928F1D1641CCAF80040E9E71BF084
:10492000240F07D028680499031D2B600068C0E994
:10493000001805E02868021D2A600068C0F8009091
:104940002046A5E70000F07F494E46494E4954599C
:1049500000000000B2F120030AD5C2F1200301FAE1
:1049600002F120FA03F300FA02F041EA0301704772
:1049700000FA03F14FF0000070473A2800D23038B7
:1049800020F02002412A01D3A2F13700884201D34E
:104990004FF0FF30704720F07F4C80EA030023F097
:1049A0007F47ACEB070303F57C5300F0004003F1B5
:1049B000FF032DE980494FEA154B09B44FEA144330
:1049C00025EA0B4E24EA03480FF2042606EB1327D0
:1049D00049083E785FEA320203FB0667C7F5000725
:1049E00007FB06F64FEA54374FEAD64606F10206B1
:1049F00007FB066CCCF1005C4FEA1C472CEA074C25
:104A000007FB06F40CFB06F504EB15464FEA961679
:104A100034BF00204FF000404FEAD13706FB07FCBF
:104A20004FEA1C4C0CFB0BF7D21B03FB0CF761EBA2
:104A300007010CFB0EF7B0EB074072EB17420CFBC3
:104A400008F734BFA2EB0742B2EB074261EB174114
:104A50004FEA0C444FEA910706FB07FC4FEA1C4C57
:104A60000CFB0BF7B0EBC74072EB573203FB0CF7B4
:104A700034BFA2EBC742B2EBC74261EB57310CFB2C
:104A80000EF7B0EBC70072EB57720CFB08F734BFA0
:104A9000A2EBC702B2EBC70261EB5771039F4FEA6B
:104AA000816141EA921104EBCC044FEAD1374FEA1D
:104AB000826206FB07FC42EA90124FEA80604FEAEE
:104AC0001C4C0CFB0BF7D21B03FB0CF761EB070133
:104AD0000CFB0EF7B0EB074072EB17420CFB08F72C
:104AE00034BFA2EB0742B2EB074261EB17414FEA3A
:104AF0008C554FEA910704EB9C2406FB07FC4FEA18
:104B00001C4C0CFB0BF7B0EBC74072EB573203FBAE
:104B10000CF734BFA2EBC742B2EBC74261EB57318F
:104B20000CFB0EF7B0EBC70072EB57720CFB08F7EB
:104B300034BFA2EBC702B2EBC70261EB577115EBB2
:104B40004C254FEA816141EA92114FEA82624FEAB5
:104B5000D13742EA901206FB07FC44F100044FEA09
:104B600080604FEA1C4C0CFB0BF7D21B03FB0CF7CD
:104B700061EB07010CFB0EF7B0EB074072EB17423D
:104B80000CFB08F734BFA2EB0742B2EB074261EB24
:104B9000174115EB1C154FEA813141EA92414FEA6A
:104BA000823242EA90424FEA80304FEA0C7644F17A
:104BB000000448EA03434EEA0B484FF0000EB2EB04
:104BC000080C71EB030724BF624639464EEB0E0E0C
:104BD0004FF0000B0018524149414BEB0B0BB2EB6D
:104BE000080C71EB03077BF1000B24BF62463946CA
:104BF0004EEB0E0E4FF0000B0018524149414BEBAB
:104C00000B0BB2EB080C71EB03077BF1000B24BF1D
:104C1000624639464EEB0E0E51EA020718BF46F0C7
:104C2000010616EB0E7655F1000254F1000103D592
:104C3000BDE88901BDE80088BDE88901BDE80048FC
:104C4000B619524141EB0101A3F101037047808085
:104C50007F7E7D7C7B7A79787776767574737271D6
:104C600071706F6E6E6D6C6C6B6A6A69686867668E
:104C700066656464636362616160605F5F5E5E5D20
:104C80005D5C5C5B5B5A5A59595858575756565594
:104C900055555454535352525251515050504F4FF6
:104CA0004F4E4E4D4D4D4C4C4C4B4B4B4A4A4A4946
:104CB0004949484848474747474646464545454489
:104CC0004444444343434342424242414141000041
:104CD00046EA0646A3F570534FEA164646EA4256A0
:104CE0004FEAD22242EA415210B54FEAD121A3F154
:104CF000010300F017F820F0004000F1010C00F073
:104D0000004701EB00501146BCF5006F40EA070078
:104D100000D210BD02484FF0000140EA070010BD6C
:104D20000000F07F002B26D4770021D01CB54FEA7D
:104D3000370703B44FF010004FF010014FF00000A0
:104D40000FBCBDE810400BF1010BBBF1010F08BF18
:104D50005FEA170722BF12F1010211F101014FF0C2
:104D6000004143F1000300F0004043EA00007047B7
:104D7000F9D35708DAE746EA064613F1400F4FEA3F
:104D800016461FDD13F1200FDFBF16430A46002130
:104D900020335B42C8D0C3F1200746EA064602FA38
:104DA00007F74FEA164646EA0706C3F1200722FA3C
:104DB00003F201FA07F721FA03F14FF0000342EA88
:104DC0000702B1E746EA020646EA06464FEA1646F9
:104DD00046EA0106BCBF46EA0646360C4FF0000321
:104DE0004FF000024FF000019EE72DE9C0489346C6
:104DF00030B491E8380007C831EA400C48BF34EAC3
:104E0000430C03D5FFF7C7FDFFF78CFFF0BCBDE8EF
:104E100000882DE9C048934630B491E8380007C8AF
:104E200031EA400C48BF34EA430C03D5FFF7B3FD29
:104E3000FFF74EFFF0BCBDE800882DE9C04893465F
:104E400030B491E8380007C810F0804F08BF13F065
:104E5000804F03D100F019F8FFF764FFF0BCBDE804
:104E600000882DE9C048934630B491E8380007C85F
:104E700010F0804F08BF13F0804F03D100F005F809
:104E8000FFF726FFF0BCBDE8008820F07F4780EAEE
:104E9000030023F07F4C07EB0C03A3F57C5300F0D9
:104EA0000040A3F1FE0392F0000F00F0B38095F0F4
:104EB000000F00F077802DE901494FEA11404FEAD9
:104EC000144621EA004800FB06FC24EA064708FBDA
:104ED00006F607FB08F800FB07F718EB06484CEB53
:104EE000164C4FEA124B18EB07484FEA15464CEBAD
:104EF000174022EA0B4E0BFB06FC25EA06470EFB89
:104F000006F607FB0EFE0BFB07F71EEB064E4CEBFF
:104F1000164C4FF000061EEB074E4CEB174B18EBF0
:104F20000B0840F1000018EB0E0B58EB000840F1A5
:104F300000008F1A4FF000013CBFC943661B14BF2D
:104F4000B5EB040C00213CBFC943F61B4FEA1744E4
:104F50004EEA8E0E27EA04454FEA1C4704FB07621F
:104F60002CEA074C05FB07F70CFB05F604FB0CFCD1
:104F700016EB074642EB174216EB0C4642EB1C427F
:104F80001BEB060658EB0202414146EA9E0601D59C
:104F9000BDE80189B619524141EB0101A3F10103BA
:104FA000BDE801894FEA14454FEA114724EA054656
:104FB00021EA074C05FB07F406FB07F70CFB06F19B
:104FC00005FB0CFC11EB074144EB17444FEA124779
:104FD00011EB0C4144EB1C4422EA074C05FB07F2A1
:104FE00006FB07F70CFB06F605FB0CFC16EB074669
:104FF00042EB174216EB0C4642EB1C456A1854F183
:10500000000148BF7047B619524141EB0101A3F1BD
:105010000103704795F0000F37D04FEA11424FEA75
:10502000144721EA024624EA074C02FB07F106FB7B
:1050300007F70CFB06F402FB0CFC14EB074441EBF6
:1050400017414FEA154714EB0C4441EB1C4125EA8C
:10505000074C02FB07F506FB07F70CFB06F602FB05
:105060000CFC16EB074645EB174516EB0C4645EBDB
:105070001C42121951F1000148BF7047B619524144
:1050800041EB0101A3F1010370474FEA14454FEAD8
:10509000114724EA054621EA074C05FB07F106FB08
:1050A00007F70CFB06F24FF0000605FB0CFC12EBB9
:1050B000074241EB174112EB0C4251EB1C4148BF38
:1050C0007047921841EB0101A3F10103704740F2D0
:1050D000013200204FF0E04100F064BF024A00209E
:1050E000110700F05FBF000001FDFFFF10B504468F
:1050F000D1E9000100F002F8206010BDF8B50446C7
:105100000D466A4600F066F800987E300090002850
:105110001FDC002213462046294600F033FB18D03E
:10512000002140F608004FF00000064620462946C0
:1051300000F0E2F8044640F6080006EA00014FF0ED
:10514000000034F0004004BF0220FEF71CFE2046A1
:10515000F8BD0098FF280DDB0220FEF714FE0022A8
:1051600013462046294600F0C7FC8CBF04484FF088
:10517000FF40F8BD20462946BDE8F84000F0BCB825
:10518000000080FF10B504460A46D4E90003194622
:1051900000F04CF8C4E9000110BD30380A2801D2F3
:1051A000012070470020704730B583B00446FEF7F9
:1051B000E5FD05460020CDE900000246214668468F
:1051C000FEF706FE2846FEF7DEFDDDE9000103B02E
:1051D00030BD000010B5144600222260114A21F0B3
:1051E00000439342A8BF10BD53EA000208BF10BDA0
:1051F000B3F5801FA8BF226807DA362200F0D2FE7E
:105200006FF0350221F000432260DFF81CC06FF31D
:105210001E510CEB23531A4441F0FF5141F0005151
:10522000226010BD0000F07F02FCFFFF2DE9F0417D
:1052300006460C4640F2FF75174635EA14502BD04F
:1052400000221346304600F09DFA25D03A463046FB
:10525000214600F0A7FE06460C4635EA145010D051
:1052600000221346304600F08DFA15D10220FEF7D9
:105270008AFDFFF733FF0A46214662F31E01BDE8AF
:10528000F0810220FEF77FFDFFF721FF0A4621464D
:1052900062F31E01BDE8F08130462146BDE8F08191
:1052A00010B500290AD00878002807D005487844AE
:1052B000FFF778F8002801D0002010BD024878449C
:1052C00010BD00004A0E0000420E000010B500297B
:1052D0000AD00878002807D005487844FFF762F81C
:1052E000002801D0002010BD0248784410BD000005
:1052F0003A0E0000320E000021F00042A2F160528E
:10530000B2F5801F01F0004328BFD2F17F6C0BD9AA
:105310005FEA001C43EAC20242EB507018BF7047BC
:1053200028BF20F001007047B2F5801FBCBF1846AF
:1053300070474FEA410C1CF5001F02D2084600F0EE
:10534000FABD70B500F084FB00000089FFF7F6BFDE
:105350004FF00040A0F580007047000010B591EAC2
:10536000030F48BF83F0004300F11084841A71EBEF
:10537000030C05D2121943EB0C03001B61EB0C016B
:10538000DFF824E14FEA1154A4EB135C1EEA430F4B
:1053900018BF9EEA445F73D023EA0E03DCF1200EAF
:1053A00021EA045143F4801332D322FA0CFE10EBAD
:1053B0000E0023FA0CFE41EB0E01CCF1200E03FA95
:1053C0000EFE10EB0E0051F10001B1F5801FCCF183
:1053D000200E32D201EB045112FA0EF2BDE8104059
:1053E00058BF7047401C38BF5FEA420218BF704781
:1053F000002814BF20F0010041F100014FEA4103F1
:1054000013F5001F38BF7047A1F1C04100F06EBB1B
:10541000012A43EB0302ACF1200CDCF11F0E32BF7A
:105420004FF0000E23FA0CF310EB030041EB045194
:10543000B4EB115FD0D0A1EB045101F58011490804
:105440005FEA300001EB04510ED350F1000038BF89
:1054500012FA0EFE08D1BDE81040C9E7401C38BF63
:105460005FEA4202CAD1C3E7BDE810404FEA4103F8
:1054700013F5001F38BF7047A1F1C04100F036BBE3
:105480009EEA445F08D011EA5E0FBDE8104004BFF9
:1054900001F0004100207047BDE8104070B500F0F9
:1054A000D7FA00BF64FBBE3E0000E0FF02494FF0A8
:1054B000000000F045BD00BF0000F87F491058BF54
:1054C000C1F140415B1058BFC3F140438B42EFF341
:1054D000008070472DE9C04130B4DFF8A0C23CEA3B
:1054E000111418BF3CEA131400F0EC8081EA0305A4
:1054F0001CEA111444EAD57418BF1CEA131500F015
:10550000C780A4EB05044FF0004545EAC12145EAF8
:10551000C32341EA505143EA525304F17F74994244
:1055200004F500344FEAC0204FEAC22208BF90427F
:1055300000F09C804FEA13650FF24016765D4FEA4B
:10554000134506FB05F7C7F1807706FB07F74FEA1F
:10555000D737A7FB03687642C8F58038A7FB06CE8D
:1055600038BFA8F1010807FB08E64FF0000EA6FBC4
:10557000028CE6FB03CEDCF1000CCEF1004E38BF0E
:10558000AEF1010EA6FB0C584FF000074FF00005DE
:10559000E6FB0E87A1FB08C6A0FB07CE16EB0E06A6
:1055A00045F10005E1FB076515F1E04E7EBFA4F56E
:1055B00080345FEA46066D4116F1800745F100052B
:1055C0004FEA17274FEA066647EA0567A6F1DE4667
:1055D000B6F1805F4FEA15251FD9384624F0010C3B
:1055E00005EBC471BCF1FE6F01EB0C1102D8F0BCED
:1055F000BDE8008124425CBF01F5801E9EEAC47FA5
:1056000002D4F0BCBDE80081244238D4F0BCA1F142
:10561000C041BDE8004100F069BA4FEAD22242EA37
:1056200043524FEAD323A7FB02864FEAD02040EA39
:10563000415007FB03661EEA0E0F4FEAD12105FB1E
:10564000026658BFA6EB0056B6EB00564FEA520E64
:105650004EEAC37E18EB0E0E56EB530EBDD518EB7B
:1056600002085E417F1C55F10005B6E74FF4801536
:105670004FF000074FF000064FF00008ADE7F0BC18
:105680004FF0000001F1C04101F00041BDE8008190
:1056900011EA0C1F0CEA131500D00CE013EA0C1FE2
:1056A00000F025804FF00000F0BC81EA030101F01A
:1056B0000041BDE80081F0BCBDE8004181EA030182
:1056C00000F014BAF0BCBDE8004170B500F0C0F9BC
:1056D000097EFC3E00F007B881EA03014FF00000AC
:1056E00001F00041704781EA030100F0FFB9F0BC0E
:1056F000BDE800414FF0000021497047FFFDFBF974
:10570000F7F5F4F2F0EEEDEBE9E8E6E4E3E1E0DEF4
:10571000DDDBDAD8D7D5D4D3D1D0CFCDCCCBCAC866
:10572000C7C6C5C4C2C1C0BFBEBDBCBBBAB9B8B78D
:10573000B6B5B4B3B2B1B0AFAEADACABAAA9A8A880
:10574000A7A6A5A4A3A3A2A1A09F9F9E9D9C9C9B4E
:105750009A999998979796959594939392919190F9
:105760008F8F8E8E8D8C8C8B8B8A8989888887878A
:105770008685858484838382828181800000FF07FF
:105780000000F87F51EA030C17D41CF5801F58BFA6
:10579000BCF5801F00F10680994218BF704708BF12
:1057A0009042704707D711F5801F58BF13F5801F2F
:1057B00019D499427047894270471CF5801F08D55B
:1057C000BCF5801FF7D58B4218BF704708BF8242D7
:1057D00070474FF4001C1CEB410F38BF1CEB430F0C
:1057E00001D28B42704770B500F032F99224490023
:1057F0004FF000514FF08053FFF760BE4FEA115356
:10580000A3F58063D3F11E03A8BFD3F1200C08DBFE
:105810004FF0004242EAC12252EA505232FA03F0FB
:10582000704709420BD4102BC4BF0020704703F50A
:10583000787CBCF1FF3F05D04FF0FF3070474FF050
:105840000000704770B500F003F900BF4992248052
:1058500000207047F0E710F0004248BF4042B0FA25
:1058600080F310FA03F10AD0C3F11D0303F580633E
:105870004FEA415002EB035202EBD12170474FF047
:105880000000704751EA030C17D41CF5801F58BF65
:10589000BCF5801F00F10680994218BF704708BF11
:1058A0009042704707D711F5801F58BF13F5801F2E
:1058B00019D499427047894270471CF5801F08D55A
:1058C000BCF5801FF7D58B4218BF704708BF8242D6
:1058D00070474FF4001C1CEB410F38BF1CEB430F0B
:1058E00001D28B42704770B500F0B2F892244900A3
:1058F0004FF000514FF08053FFF7E0BDDFF848C193
:1059000070B51CEA111E1EBF1CEA13159EEA0C0F8F
:1059100095EA0C0F00F06F8081EA030423EA4C1330
:105920004EEAD47E21EA4C1141F4801143F48013F5
:10593000AE44A1FB024CA0FB0365AEF17F7E36199D
:1059400055EB0C05A1FB034C4CF10003A0FB021C22
:1059500016EB0C06654153F10003094218BF46F0EF
:10596000010613F4007F0BD14FEA03314FEA0530F3
:10597000340341EA155140EA16506FF003020AE081
:105980004FEAC3214FEAC520F40241EA555140EAEB
:1059900056506FF0020202EB2E4201EB025585EAEF
:1059A000CE710AD05FEA440C18BF24F0004450F1D5
:1059B000000041F1000120EAD47040F2FE7C624513
:1059C00000D270BDA84214BF4FF080444FF0404455
:1059D000002E08BF0024BEF1806FA8BFA1F1C04116
:1059E000BDE8704080F282804FF0000001F1C041BC
:1059F00001F0004170479EEA0C0F0CEA131518BF26
:105A000095EA0C0F06D04FF0000081EA030E0EF06D
:105A1000004170BD00F01CF88900013E00F007B89D
:105A200000F009B84FEA430C5FEA5C5C08D081EAF9
:105A3000030100F05BB84FEA410C5FEA5C5CF6D111
:105A40004FF00000014970470000FF070000F87F99
:105A50000EF1020E2EF0030E5EF8046B364205D4F2
:105A6000012A43EB030515F5001F12D8012841EB6D
:105A7000010C1CF5001F0CD80ED14FEAD17C15F596
:105A8000001F0CEB4C0C0CF1020C08BF4CEBD37C50
:105A900004E04FF0080C01E04FEAD37C0CEB4C051E
:105AA00026FA05F606F00706B6F1040C06D20EEB50
:105AB000860CBDE870404CF0010C6047DFE80CF04C
:105AC000090B02024FF000414FF00000A1F5002148
:105AD00070BD19461046012851EB010418BFD4F5DA
