:020000040800F2
:1000000078090020450100088916000881160008BB
:1000100085160008290F0008692900080000000063
:10002000000000000000000000000000651900084A
:10003000D11400080000000011170008831C0008FC
:100040005F0100085F0100085F0100085F01000810
:100050005F0100085F0100085F0100085F01000800
:100060005F0100085F0100085F0100085F010008F0
:100070005F0100085F0100085F0100085F010008E0
:100080005F0100085F0100085F0100085F010008D0
:10009000312800085F0100085F0100085F010008C7
:1000A0005F0100085F0100085F0100085F010008B0
:1000B0005F0100085F0100085F0100085F010008A0
:1000C0005F0100085F0100085F0100085F01000890
:1000D0005F01000815240008492400087D24000859
:1000E0005F0100085F0100085F0100085F01000870
:1000F0005F0100085F0100085F0100085F01000860
:100100005F0100085F0100085F0100085F0100084F
:10011000E12300085F010008191E0008351E0008D1
:100120005F0100085F0100085F0100085F0100082F
:10013000DFF80CD000F0A2FC00480047453300086F
:10014000780900200648804706480047FEE7FEE79A
:10015000FEE7FEE7FEE7FEE7FEE7FEE7FEE7FEE777
:10016000851C000831010008D2B201E000F8012B23
:10017000491EFBD270470022F6E710B513460A4627
:1001800004461946FFF7F0FF204610BDF0B480EAA0
:100190000102D40F4200B2EB410F02D202460846E0
:1001A00011464A0042D0C30DDDB2C1F3C752AD1AA9
:1001B000202D35DAC1F3160141F4000204B1524298
:1001C000C5F1200602FA06F12A411044B3EBD05FD4
:1001D00023D0C4B1012DA0EBC35009DCF0BC4FF01B
:1001E000004202EAC352DBB200F5000000F08BBB14
:1001F000400000F1807000EBC350A0F1807040EA35
:10020000D170490009E0490841EAC071A0EBC35030
:1002100000F50000400800EBC350F0BC00F06ABBE2
:100220006142012202EB4101001BF6E7F0BC70477E
:1002300081F00041AAE780F00040A7E780EA0102D0
:1002400010B502F00043400022D04A001FD0010E3A
:1002500001EB1261C0F35600C2F3560240F40000F5
:1002600042F40002A0FB022000047F39140400D0F5
:10027000401C50EA124001D44000491EC2B20C0694
:1002800004EBD010401C4008802A02D003E000207C
:1002900010BD20F00100002900DA0020184310BD35
:1002A00030B480EA010202F0004530F0004221F053
:1002B000004013D090B1C30DD40DC2F31601C0F3AA
:1002C0001600E41A41F4000140F400027D3491422A
:1002D00001D3641C00E04900002C02DA30BC00208D
:1002E00070474FF400000023914201D3891A034361
:1002F00040084FEA4101F7D151B1914202D14FF08C
:10030000004105E002D24FF0010101E06FF0010170
:1003100003EBC450284430BC00F0ECBA2DE9FE4F8A
:10032000804681EA0300C00F0C46009021F0004196
:1003300023F00045B8EB0200A94105D24046214612
:1003400090461C460B46024623F00040104347D01F
:10035000270DC7F30A00C3F30A510290401A019017
:1003600040286BDAC3F3130040F4801B00989246D8
:1003700020B10023D2EB030A63EB0B0B0198594623
:10038000C0F14002504600F036FA06460D4650468F
:100390005946019A00F04EFA10EB08006141002422
:1003A00087EA115284EAE7731A4340D0009A62B395
:1003B000019A012A4FEA075215DC001B61EB02018A
:1003C0004FF0004202EA0752CDE90042001C41F51D
:1003D000801132462B4600F0D3FA03B0BDE8F08F0F
:1003E00040462146F9E7001B61EB0201001C41F584
:1003F000801300185B412018A2F5001747EB03019A
:1004000040EAD570B6196D4111E06D084FEA360625
:1004100045EAC0754FEA0752001B61EB0201001C60
:1004200041F5801149084FEA300000195141324628
:100430002B4603B0BDE8F04F00F093BA00980122BC
:1004400040000023D0EB020263EBE07300982146EA
:100450004FEAE074B8EB000061EB0401E9E783F0D8
:1004600000435BE781F0004158E72DE9FE4F81EA48
:10047000030404F0004421F0004100944FF0000B0D
:1004800023F0004350EA01045ED052EA03045BD03B
:10049000C3F30A54C1F30A552C44A4F2F334019473
:1004A000A0FB0254C1F3130141F48011C3F3130301
:1004B00043F4801301FB024400FB034E840A970AB5
:1004C00044EA815447EA8357A4FB076802958D0AE2
:1004D00005FB07854FEA932C04FB0C542705029D6E
:1004E0004FEA065847EA1637B5EB08056EEB070CDE
:1004F000870E920E47EA811742EA8312A7FB020198
:10050000B6EB0B0164EB00042B0D43EA0C335E18D1
:1005100044EB1C50DA465146E7FB0201C5F31304D5
:100520004FEA0B3343EA14534FEA0432019C43EA87
:100530000603A4F10C040294009CCDE900B400F081
:100540001FFA03B0BDE8F08F00200146F9E72DE95E
:10055000F04D81EA030404F0004B21F000451446FD
:100560004FF0000A23F0004150EA050220D054EA7F
:1005700001021DD0C5F30A570246C5F31303C1F3A8
:100580001300C1F30A5640F4801543F48013A7EB1F
:100590000608101BD64608F2FD3873EB050002D39F
:1005A00008F1010801E092185B41B8F1000F03DA8D
:1005B00000200146BDE8F08D00204FF48011064672
:1005C00084460EE0171B73EB050705D3121B63EB84
:1005D000050306434CEA010C49084FEA3000921823
:1005E0005B4150EA0107EDD152EA030012D082EAE2
:1005F000040083EA0501084305D0101BAB4106D275
:100600000122002306E000224FF0004302E06FF0D9
:10061000010253101AEB06004CEB085110EB0A00D4
:1006200041EB0B01BDE8F04D00F09BB99623002291
:10063000114600F068B90EB5C10F80EAE0700844B9
:10064000CA07002140F233438DE80E000A460B46EC
:1006500000F096F903B000BD20F00040C10DC0F3DA
:10066000160040F400007F2901DA00207047962927
:1006700003DCC1F19601C840704796398840704745
:10068000C1F30A5210B5C1F3130140F2FF3341F434
:1006900080119A4201DA002010BD40F233439A42A1
:1006A000A2F2334203DC524200F0B4F810BD904095
:1006B00010BD00F0004230F000400AD0C10D01F53D
:1006C0006071C0F3160042EA0151C20840071143AD
:1006D000704700200146704730B5041E71F10004D8
:1006E00004DB4FF00044404264EB0101141E73F13F
:1006F000000405DB1C464FF00043524263EB040349
:100700008B4208BF824230BD01F0004330B421F07B
:10071000004150EA010206D00A0DA2F56072C1F351
:100720001301002A02DC30BC00207047440F44EA69
:10073000C104C100E01830BC00EBC25000F0DAB8D0
:10074000002801DBC0F10040002901DBC1F10041BC
:1007500081427047002801DBC0F10040002901DB25
:10076000C1F100418842704730B50B460146002078
:100770002022012409E021FA02F59D4205D303FA63
:1007800002F5491B04FA02F52844151EA2F10102E4
:10079000F1DC30BD2DE9F05F0546002092469B4616
:1007A00088460646814640241BE028464146474687
:1007B000224600F02FF853465A46C01A914110D3F2
:1007C00011461846224600F016F82D1A67EB01086C
:1007D0004F4622460120002100F00DF817EB0009DA
:1007E0004E41201EA4F10104DFDC484631462A4672
:1007F0004346BDE8F09F202A04DB203A00FA02F1CC
:10080000002070479140C2F1200320FA03F31943FE
:1008100090407047202A04DB203A21FA02F00021A0
:10082000704721FA02F3D040C2F120029140084300
:1008300019467047202A06DBCB17203A41FA02F00E
:1008400043EAE07306E041FA02F3D040C2F120022D
:1008500091400843194670470FB4002300B589B092
:100860000CA900910B996FF00042CB601E4B0693D0
:100870001E4B07930423CDE901321D4A089202461C
:100880006B46002000F092F909B05DF814FB70B5DA
:1008900086B006464FF0FF300091CDE901010020FF
:1008A00015460C4604903246694604A8FFF7D4FF6B
:1008B00003460498211825B108B10A4600E02246F3
:1008C0002A6000280DD0002B02DD0098884208D055
:1008D000081B0094CDE901043246694604A8FFF7DD
:1008E000BBFF06B070BD0000E50D0008030E000858
:1008F000A10A00080029A8BF7047401C490008BF92
:1009000020F00100704710B4B0FA80FC00FA0CF03F
:1009100050EA010404BF10BC704749B1CCF1200477
:1009200021FA04F411FA0CF118BF01212143084304
:10093000A3EB0C01CB1D4FEA00614FEA102042BF30
:10094000002010BC704700EBC35010440029A4BF26
:1009500010BC7047401C490008BF20F0010010BCCB
:10096000704710B5141E73F1000408DA401C41F101
:10097000000192185B411A4301D120F0010010BD23
:100980002DE9F04D92469B4611B1B1FA81F202E099
:10099000B0FA80F220329046FFF72DFF04460F4652
:1009A00040EA0A0041EA0B0153465A46084313D075
:1009B000114653EA010019D0C8F140025046FFF732
:1009C00029FF05460E46504659464246FFF713FF9B
:1009D000084305D0012004E020463946BDE8F08DEB
:1009E0000020054346EAE0762C4337430A98630526
:1009F000E40AA0EB08000022FD0A44EA47540A304A
:100A000002D500200146E9E7010510196941DDE939
:100A1000084500196941BDE8F04DA2E7C1F30A524B
:100A2000C1F3130140F2FF3341F480119A4202DA1C
:100A300000200146704740F233439A42A2F233420B
:100A400002DC5242FFF7E6BEFFF7D5BE30B5041E0A
:100A500071F1000404DB4FF00044404264EB0101FB
:100A6000141E73F1000405DB1C464FF00043524294
:100A700063EB0403994208BF904230BD064C074D1A
:100A800006E0E06840F0010394E80700984710345E
:100A9000AC42F6D3FFF750FB283700084837000870
:100AA000C0B24FF4F05100F0BDB900002DE9FF4F86
:100AB000087881B09946FF2805D0491C2D2804D01C
:100AC0000024002308E000230BE00124F9E703EBF6
:100AD000830300EB4303491C0878FF28F7D104B1D6
:100AE0005B4200200090147801462D2C01D02B2C65
:100AF00004D1521C2D2C12D000240094002516780D
:100B0000FF2E0ED00A24A0FB04C801FB048100279D
:100B100000FB0711521C16EB0C006941EFE70124A2
:100B2000EBE7994450EA01020ED00024AA4D264674
:100B3000DFF8A88200F08AF982468B46B9F10000FE
:100B400009DAC9F100071BE001980021C0E9001192
:100B500005B0BDE8F08F074612E0F80707D022463F
:100B60002B4630464146FFF780FC06468846224623
:100B70002B4610461946FFF778FC04460D467F10B9
:100B8000002FEAD1B9F1000F32464346504659468C
:100B900002DAFFF7DCFC01E0FFF767FC009A0AB11C
:100BA00081F00041019AC2E90001D1E72DE9FF4F30
:100BB0001F468DB0D7E901464FF0FF382E2045463D
:100BC0004FF000090B90B9696D1C0E988847396A7F
:100BD000824688470028F6D1BAF1FF3F0AD024F4B4
:100BE000D064002E11DDBAF12B0F08D0BAF12D0F11
:100BF0000BD102E0404611B0ABE744F48064B96920
:100C00006D1C0E9888478246761E6946600501D5A0
:100C10002D2000E02B208DF8000001F1010B0DF1DB
:100C2000200809E0B9696D1C0E98884782460F9824
:100C300044F40074761E0560002E02DDBAF1300F18
:100C4000F0D00B998A453ED144F0800406E00F991C
:100C5000681CA9F1010944F400740860B9696D1CAD
:100C6000761E0E98884782463028F0D02BE00B99EC
:100C70008A4505D1200603D444F08004761E18E08E
:100C8000504601F051FF08B30DF11301761E44F4F4
:100C900000748B4508D2AAF130000BF8010B200636
:100CA00007D5A9F1010003E0200602D409F10100F3
:100CB0008146A00502D50F99681C0860B9696D1CB2
:100CC0000E9888478246002ED1DC53E0002E51DD7D
:100CD000BAF1650F02D0BAF1450F4BD1A00549D545
:100CE000B9696D1C24F44074761E0E9888478246BC
:100CF000002E0CDD2B2804D0BAF12D0F07D144F4BF
:100D00008074B9696D1C0E9888478246761EE0058E
:100D100001D52D2100E02B2108F8011BCDF82C80F6
:100D200021E00DF12901761E44F4007488450CD2AF
:100D3000AAF1300010F0FF0088F8000002D10B99F2
:100D4000884509D908F1010806E0E00501D52448E5
:100D500001E042F20F708146B9696D1C0E98884718
:100D600082460F980560002E04DD504601F0DCFE3F
:100D70000028D6D1F9690E988847FF208BF800002B
:100D800088F800000020069007904B466A4608A9A4
:100D900006A8FFF78BFEA00502D46FF001002AE73A
:100DA00014F0240F0AD0E00714D1DDE906123868E8
:100DB000031D3B600068C0E900120BE0DDE906019D
:100DC000FFF7A2FC0146E00704D13868021D3A6033
:100DD0000068016028460EE7000024400000F03F54
:100DE000F1D8FFFF426842B1016811F8013B23B11D
:100DF000521EC0E90012184670470121C160881ECA
:100E0000704742685AB1C368016843B983688B422E
:100E100005D0491E521CC0E90012002070474FF057
:100E2000FF3070477F2801D9002208E0064A02EB14
:100E30005002C007127800D1120902F00F020120FF
:100E40009040084070470000E83600080EB540F2B8
:100E5000334202920022CDE900221346FFF790FDB3
:100E600003B000BD1FB50121202000F065FC42F257
:100E70000F70ADF8080041F61F40ADF804000020E7
:100E8000ADF8060001A90E4801F052F937208DF89F
:100E9000000001208DF8010000208DF802000120E3
:100EA0008DF80300684600F0F1FB0122114604486A
:100EB00001F01CF80121024800F0FBFF1FBD0000FB
:100EC0000014004008B50121082000F055FC032063
:100ED0008DF802000003ADF8000010208DF803002B
:100EE00069460C4800F0F5FA0B490C4801F002FB8A
:100EF0004FF48051074800F0C1FB4FF40051054802
:100F000000F0BAFB642002F0E5F905A001F02EFD27
:100F100008BD0000000C014040420F0000480040A6
:100F200041580D0A0000000000BFFEE700B589B07F
:100F30000121092000F020FC0121480600F0FCFB03
:100F400001214FF4EA1000F04FFB03208DF816004A
:100F50004FF48070ADF8140048208DF8170005A9F3
:100F60002F4800F0B6FA4FF40070ADF814001820C6
:100F70008DF8170005A92A4800F0ABFA14208DF867
:100F8000100000208DF811008DF8120001208DF85E
:100F9000130004A800F07AFB224800F045F806A8E8
:100FA00000F07DFA01208DF81F008DF82000002050
:100FB0008DF81B0004208DF81C0002208DF81D0008
:100FC0000420ADF8180006A9164800F066F90020C4
:100FD0008DF80A0001208DF80B0000208DF80C0020
:100FE0004FF49C60ADF800004FF4DC60ADF80200F7
:100FF0004FF4BC60ADF804004FF40E60ADF806008D
:101000000020ADF8080001208DF80D00684600F0C2
:1010100027F801220221034800F036F909B000BD8B
:10102000000C01400064004010B504460B488442A7
:1010300009D10121480600F08FFB00214FF000701C
:1010400000F08AFB08E00121880600F085FB002102
:101050004FF0806000F080FB10BD00000064004095
:1010600010B50021837A012202FA03F13D4A126889
:1010700042F001023B4B1A603A4A1C3212688A4322
:10108000384B1C331A60027BCAB9364A0C321268DC
:101090008A43344B0C331A604288C38842EA0343C4
:1010A000304A4032847A42F834300288838842EAF7
:1010B00003432C4A4032847A02EBC4025360027B21
:1010C000012A19D1274A0C3212680A43254B0C33E6
:1010D0001A604288038842EA0343224A4032847AF3
:1010E00042F83430C288838842EA03431D4A4032C2
:1010F000847A02EBC4025360C27A3AB9194A121DCB
:1011000012688A43174B1B1D1A6006E0154A121D10
:1011100012680A43134B1B1D1A60028932B9114A27
:10112000143212688A430F4B14331A600289012A61
:1011300006D10C4A143212680A430A4B14331A605F
:10114000427B012A06D1074A1C3212680A43054B2A
:101150001C331A60034A126822F00102014B1A6024
:1011600010BD00000066004070B504460D46002624
:1011700060692840002871D0B5F5807F5CD010DC14
:10118000082D35D006DC012D20D0022D24D0042DD1
:1011900072D127E0102D31D0202D35D0402D6BD1CC
:1011A00038E0B5F5004F60D009DCB5F5007F49D0D7
:1011B000B5F5806F4CD0B5F5006F5DD14FE0B5F55A
:1011C000803F2DD0B5F5003F56D12FE0A0682D49C6
:1011D00000F075F9064651E0E068032100F06FF970
:1011E00006464BE0E068082100F069F9064645E054
:1011F000E068102100F063F906463FE02069032112
:1012000000F05DF9064639E02069082100F057F941
:10121000064633E02069102100F051F906462DE022
:101220006068082100F04BF9064627E0606810214D
:1012300000F045F9064621E0A069012100F03FF9E0
:1012400006461BE0A069022100F039F9064615E0C8
:10125000A069042100F033F906460FE00FE0A06911
:10126000702100F02CF9064608E06068042100F0C7
:1012700026F9064602E0FFE7002600BF00E0002650
:10128000304670BD010101001AB143690B4343614F
:1012900002E043698B434361704730B5024600204A
:1012A0000023146824F002041460146844F001045C
:1012B000146000E05B1C546804F001041CB94FF694
:1012C000FF74A342F6D1546804F001040CB9002065
:1012D0006CE08C79012C04D1146844F08004146013
:1012E00003E0146824F080041460CC79012C04D14C
:1012F000146844F04004146003E0146824F04004CF
:1013000014600C7A012C04D1146844F02004146099
:1013100003E0146824F0200414604C7A012C04D1FA
:10132000146844F01004146003E0146824F01004FE
:1013300014608C7A012C04D1146844F00804146001
:1013400003E0146824F008041460CC7A012C04D162
:10135000146844F00404146003E0146824F00404E6
:1013600014608C78A407CD7844EA05640D7944EACA
:1013700005444D7944EA05540D886D1E2C43D46113
:10138000146824F001041460002300E05B1C54681E
:1013900004F001041CB14FF6FF74A342F6D1546867
:1013A00004F001040CB1002000E0012030BD10B5B4
:1013B00000F5D87303EB01131B6803F004031372E9
:1013C000137A53B900F5D87303EB01131B6840F28D
:1013D000FF7404EA5353136009E000F5D87303EB7C
:1013E00001131B686FF0604404EAD303536000F5F7
:1013F000D87303EB01131B6803F00203537200F56B
:10140000D87303EB01135B6803F00F03937200F5CD
:10141000D87303EB01135B681B0AD37400F5D87310
:1014200003EB01139B68D37200F5D87303EB011330
:101430009B681C0A147300F5D87303EB01139B68B7
:101440001C0C547300F5D87303EB01139B681B0E3F
:10145000937300F5D87303EB0113DB68D37300F5C6
:10146000D87303EB0113DB681C0A147400F5D873FE
:1014700003EB0113DB681C0C547400F5D87303EB09
:101480000113DB681B0E937421B9C36843F020037A
:10149000C36003E0036943F02003036110BD002132
:1014A0008171C171017241728172C1728170C170AA
:1014B000032101710221417101210180704702461F
:1014C000002002EA01030BB1012000E00020704778
:1014D00070472DE9F0410246002500260020002338
:1014E0000024002791F803C00CF00F0591F803C009
:1014F0000CF0100CBCF1000F03D091F802C04CEAC4
:10150000050591F800C0BCF1000F31D0146800202F
:101510002BE04FF0010C0CFA00F3B1F800C00CEA1C
:1015200003069E4220D183004FF00F0C0CFA03F704
:10153000BC4305FA03FC4CEA040491F803C0BCF177
:10154000280F06D14FF0010C0CFA00FCC2F814C0B1
:101550000AE091F803C0BCF1480F05D14FF0010C2F
:101560000CFA00FCC2F810C0401C0828D1D314604B
:10157000B1F800C0BCF1FF0F34DD546800202EE04C
:1015800000F1080C4FF0010808FA0CF3B1F800C0A4
:101590000CEA03069E4221D183004FF00F0C0CFA97
:1015A00003F7BC4305FA03FC4CEA040491F803C0BA
:1015B000BCF1280F05D100F1080C08FA0CF8C2F8AC
:1015C000148091F803C0BCF1480F07D100F1080C5A
:1015D0004FF0010808FA0CF8C2F81080401C0828E7
:1015E000CED35460BDE8F081F0B50A460023002454
:1015F0000021002500F00046B6F1004F02D11D4E3B
:10160000F16901E01B4E7168C0F3034583B200F439
:101610004016B6F5401F08D121F07061154E76686E
:1016200026F07066134F7E6012E000F48016B6F567
:10163000801F06D1032606FA05F4A14341F070612C
:1016400006E0460D360103FA06F6B14341F070613B
:1016500022B1460D360103FA06F6314300F000468A
:10166000B6F1004F02D1034EF16101E0014E71600D
:10167000F0BD00000000014041617047016170470A
:1016800000BFFEE700BFFEE77047000070B5002115
:1016900000230F22C47804B3154C246804F4E064DA
:1016A000C4F5E064210AC1F10403CA40447804FA95
:1016B00003F184781440214309010E4C0678A155AA
:1016C000047804F01F050124AC4005786D11AD00CD
:1016D00005F1E025C5F8004109E0047804F01F0594
:1016E0000124AC40044D0678761145F8264070BDC3
:1016F0000CED00E000E400E080E100E0024901437D
:10170000024A1160704700000000FA050CED00E08D
:1017100070470A4690F84110425410F8413F591C56
:10172000CB1701EB93639B11A1EB831303704178FB
:10173000491C41704138704729B1064AD2690243B9
:10174000044BDA6104E0034AD2698243014BDA6157
:10175000704700000010024029B1064A1269024396
:10176000044B1A6104E0034A12698243014B1A6177
:10177000704700000010024029B1064A92690243F6
:10178000044B9A6104E0034A92698243014B9A61D7
:10179000704700000010024030B5002100220024F4
:1017A00000232D4D6D6805F00C0121B1042905D0F1
:1017B000082923D105E0294D056022E0274D056069
:1017C0001FE0254D6D6805F47012234D6D6805F41A
:1017D0008034022505EB92421CB9214D554305602A
:1017E0000BE01D4D6D6805F400351DB11C4D5543D2
:1017F000056002E0194D5543056002E0174D056094
:1018000000BF00BF144D6D6805F0F0010909154DCA
:101810006B5C0568DD4045600F4D6D6805F4E06167
:10182000090A104D6B5C4568DD4085600A4D6D68A6
:1018300005F46051C90A0B4D6B5C4568DD40C5601D
:10184000054D6D6805F44041890B074D6B5CC5681B
:10185000B5FBF3F5056130BD0010024000127A00BF
:1018600000093D001400002024000020F0B50346CC
:101870000025002121E0002607E03046761C41F2D9
:101880008837B84201D9012505E031480078314F49
:101890003F78B842F1D000BF05B110E02C4F387846
:1018A000471CDFF8ACC08CF800702B4F3F5CDFF8B2
:1018B000ACC00CF80170481CC1B29942DBDB00BF20
:1018C0000A46002426488078FE283FD02DB1FF2B01
:1018D00003D0204800781E4F3870032A36DD1F4899
:1018E0000078FF2803D11D484078FF2805D019480B
:1018F0000078174F38700020F0BD18488078184FD6
:10190000BF78B84205D013480078114F38700020D6
:10191000F2E71248C778101F874205D00D480078BB
:101920000B4F38700020E7E7022105E00B48405CD0
:101930002044C4B2481CC1B29142F7DBFF2C05D051
:1019400004480078024F38700020D5E71046D3E7EE
:101950007000002071000020540400205403002077
:10196000D4030020704710B500F002F810BD00004D
:101970000CB50020019000903348006840F480309E
:101980003149086000BF3048006800F40030009022
:101990000198401C0190009818B90198B0F5A06F0B
:1019A000F1D12948006800F4003010B10120009006
:1019B00001E0002000900098012843D123480068EE
:1019C00040F01000214908600846006820F003003C
:1019D00008600846006840F0020008601A48406845
:1019E000194948600846406848600846406840F425
:1019F000806048600846406820F47C1048600846D3
:101A0000406840F4E81048600846006840F0807084
:101A1000086000BF0C48006800F000700028F9D092
:101A20000948406820F003000749486008464068BC
:101A300040F00200486000BF0348406800F00C001E
:101A40000828F9D10CBD000000100240002002401F
:101A50002DE9FF5F83462D4801695846FEF796FB46
:101A60000190FEF726FE0022294BCDE90201FEF788
:101A70006EFD07460022274BFEF7F7FC0546FEF7F2
:101A8000FFFD044640F22F30844200D30446CC2CA4
:101A900000D8CC242046E11704EB11610912A4EB15
:101AA00001211D4A9171E11704EB1161090AD171FD
:101AB0004FF0000A4FF0020907E0174810F809003C
:101AC000824409F1010000F0FF09B9F1090FF4DDCA
:101AD0006FEA0A00104901F809004FF0000910E010
:101AE0000D4810F809100D4800F09DFE00BF402180
:101AF0000A4800F0CBFD0128F9D109F1010000F0FE
:101B0000FF09B9F10B0FEBDBBDE8FF9F883600083A
:101B100000C0724000009040490000200048004092
:101B20002DE9FF5F83464FF480513148FFF7A6FD52
:101B30004FF400512E48FFF79FFD2E48C1685846CC
:101B4000FEF724FB0190FEF7B4FD00222A4BCDE9FD
:101B50000201FEF7FCFC07460022284BFEF785FC3D
:101B60000546FEF78DFD044640F22F30844200D337
:101B70000446CC2C00D8CC242046E11704EB11619C
:101B80000912A4EB01211E4A9171E11704EB1161C6
:101B9000090AD1714FF0000A4FF0020907E0184816
:101BA00010F80900824409F1010000F0FF09B9F1C1
:101BB000090FF4DD6FEA0A00114901F809004FF03E
:101BC000000910E00E4810F809100E4800F02BFE36
:101BD00000BF40210B4800F059FD0128F9D109F15F
:101BE000010000F0FF09B9F10B0FEBDBBDE8FF9F2F
:101BF000000C01408836000800C072400000904090
:101C00003E000020004800402DE9F04385B0054625
:101C100014216846FEF7AFFA4FF000090DE02846A0
:101C200000F05CFB0446202C06D00DF8094009F1B9
:101C3000010000F0FF0900E003E095F842000028F1
:101C4000EDD100BF684601F00EFB0746FEF75CFDD4
:101C50000646304605B0BDE8F083042808D14FF0B1
:101C6000E021096941F004014FF0E022116107E031
:101C70004FF0E021096921F004014FF0E0221161E9
:101C80007047704710B51348006840F001001149D3
:101C9000086008464068104908400E4948600846F8
:101CA00000680E4908400B4908600846006820F4A7
:101CB000802008600846406820F4FE0048604FF429
:101CC0001F008860FFF74FFE4FF000600449086076
:101CD00010BD0000001002400000FFF8FFFFF6FEFC
:101CE00008ED00E02DE9F04389B001210846FFF737
:101CF00023FD01210520FFF73FFD0720ADF820005F
:101D000018208DF8230003208DF8220008A93C48F4
:101D1000FFF7DFFB44F61F60ADF818004720ADF871
:101D200014000020ADF81A00ADF8160005A94FF018
:101D3000804000F0FDF96020ADF804000120ADF80E
:101D400006000020ADF80C002E4A51682E4A50685B
:101D5000FEF71CFA81462D49FEF7A2FA80462C496F
:101D6000FEF76CFA07462B49FEF710FA0646FEF717
:101D700073FC0446234A9168234A9068FEF706FAEA
:101D800081462249FEF78CFA80462149FEF756FA31
:101D900007462049FEF7FAF90646FEF75DFC0546C0
:101DA00040F2DC50ADF80A0001A94FF0804000F08D
:101DB000A7F80821C80600F0EFF8A0B2ADF80A00B5
:101DC00001A94FF0804000F0F1F80821C80600F0AA
:101DD0003FF9A8B2ADF80A0001A94FF0804000F029
:101DE00045F90821C80600F091F90121880700F0A3
:101DF00051F80121880700F05CF809B0BDE8F083D4
:101E0000000801408000002088360008000096434A
:101E10000000FA440000FA4310B50120034908709D
:101E20000121034800F042F810BD000069000020C5
:101E30000010004010B50121124800F046F8F8B13A
:101E40000121104800F032F80F480078401C0E497C
:101E50000870084600780A2802D10C48FFF760FE97
:101E600009480078142802D10948FFF759FE0648AE
:101E70000078142190FBF1F201FB12000249087076
:101E800010BD0000001400406B0000200000B4C230
:101E90000000B44221B1028842F08002028004E0D6
:101EA00002884FF67F731A4002807047CA4302824D
:101EB000704721B1028842F00102028004E00288EA
:101EC0004FF6FE731A400280704730B5024600207C
:101ED00000230024158A05EA0103958905EA010417
:101EE00013B10CB1012000E0002030BD1AB183898C
:101EF0000B43838102E083898B4383817047000019
:101F000070B5002400220023058C4FF6FE76354084
:101F10000584028C8388048B4FF68F752C40B51E88
:101F20002C400D882C43751E2A400D892A434D886C
:101F30002A43144DA8420BD0134DA84208D0134D8C
:101F4000A84205D0124DA84202D0124DA84213D18A
:101F50004FF6F7752A404D892A434FF6FB752A4004
:101F60008D882A434FF6FF652B404FF6FF552B40D7
:101F70008D892B43CD892B4383800483CD8885862F
:101F8000028470BD002C014000340140004001403B
:101F900000440140004801400A460021018B4FF6F1
:101FA000F7731940114301837047000070B5002496
:101FB00000220023058C4FF6EF7635400584028C15
:101FC0008388048B48F6FF752C404FF6FF452C4064
:101FD0000D884FF6FF7606EA05252C434FF6DF7590
:101FE0002A400D8906EA05152A434D8806EA05159B
:101FF0002A43154DA84202D0144DA8421DD14FF6D8
:102000007F752A404D894FF6FF7606EA05152A436B
:102010004FF6BF752A408D8806EA05152A434FF60C
:10202000FF352B404FF2FF752B408D8906EA850561
:102030002B43CD8906EA85052B4383800483CD8815
:102040000587028470BD0000002C0140003401406F
:102050000A460021018B4FF2FF7319404FF6FF73C0
:1020600003EA0223194301837047000070B500247E
:1020700000220023058C4FF6FF6635400584028C54
:102080008388848B4FF68F752C404FF6FC752C405F
:102090000D882C434FF6FF552A400D894FF6FF76E9
:1020A00006EA05252A434D8806EA05252A43154DEB
:1020B000A84202D0144DA8421DD14FF2FF752A400C
:1020C0004D894FF6FF7606EA05252A434FF6FF3580
:1020D0002A408D8806EA05252A434EF6FF752B40D7
:1020E0004DF6FF752B408D8906EA05152B43CD89EA
:1020F00006EA05152B4383808483CD888587028477
:1021000070BD0000002C0140003401400A4600214F
:10211000818B4FF6F7731940114381837047818695
:10212000704701877047818770478184704700003E
:10213000002202881D4B98420ED01D4B98420BD0B6
:10214000B0F1804F08D01B4B984205D01A4B9842F3
:1021500002D01A4B984204D14FF68F731A404B8825
:102160001A43174B984207D0164B984204D04FF6AB
:10217000FF431A40CB881A4302808B8883850B88E3
:1021800003850A4B98420BD0094B984208D00E4B5E
:10219000984205D00D4B984202D00D4B984201D188
:1021A0000B7A03860123838270470000002C0140D4
:1021B000003401400004004000080040000C0040D2
:1021C0000010004000140040004001400044014065
:1021D000004801402DE9F0473B48407A002871D182
:1021E00039480068272806D02F2815D0372834D042
:1021F000472865D154E03448D0F80B402046FEF71C
:1022000058FA0546314A324BFEF72FF90746FEF7DA
:102210007BFA3049086054E02B48D0F80B40204648
:10222000FEF747FA0546294A294BFEF71EF90746ED
:10223000FEF76AFA274948602348D0F80F40204645
:10224000FEF737FA0546214A214BFEF70EF90746FD
:10225000FEF75AFA1F49886033E01B48D0F80B405C
:102260002046FEF726FA0546184A194BFEF7FDF8F8
:102270000746FEF749FA1749C8601348D0F80F40DF
:1022800084F000494846FEF714FA07460F4A104BFF
:10229000FEF7EBF80546FEF737FA0E49086110E045
:1022A0000948D0F80B00002802DD00200A49087018
:1022B0000548D0F80B0010B902200749087000BF8C
:1022C00000BF00BFBDE8F087A800002061376C5B4D
:1022D00094A94C40540000206A000020014691F867
:1022E00040000A5C11F8403F581CC31700EB936391
:1022F0009B11A0EB83130B708878401E88704039C7
:10230000104670472DE9F047804689461546FF2064
:102310002D4908704870084680F80280A81CC870D3
:10232000084680F80490002406E02848015D264A0B
:10233000601D1154601CC4B2AC42F6DB0027A81D1E
:10234000C6B2022405E02048005D3844C7B2601CD4
:10235000C4B2701EA042F6DCF8431B4908551C4865
:1023600000781C4908704FF480511B48FFF786F92C
:102370004FF400511848FFF77FF900240DE000BF2B
:102380004021164800F082F90028F9D00E48015D7E
:10239000124800F048FA601CC4B2B442EFDB00BF40
:1023A00040210E4800F072F90028F9D04FF4005196
:1023B0000948FFF763F94FF480510748FFF75CF9CC
:1023C0003046BDE8F0870000D4030020D40200208E
:1023D0007100002070000020000C01400048004007
:1023E00010B540F22551094800F05DF960B1074889
:1023F00000F014FAC4B2064890F84200402803D016
:1024000021460348FFF785F910BD0000004C00404D
:102410004E02002010B540F22551094800F043F962
:1024200060B1074800F0FAF9C4B2064890F84200DB
:10243000402803D021460348FFF76BF910BD000088
:1024400000380140BC00002010B540F22551094879
:1024500000F029F960B1074800F0E0F9C4B206487D
:1024600090F84200402803D021460348FFF751F975
:1024700010BD0000004400404201002010B540F2B1
:1024800025510B4800F00FF980B140F22551084862
:1024900000F014F8064800F0C1F9C4B20549087804
:1024A000411C044A117004490C5400BF10BD0000C7
:1024B00000480040710000205404002010B50022A4
:1024C000002340F66A14A14200D100BF0A12012481
:1024D0009440A3B2DC43048010BD21B1828942F450
:1024E0000052828104E082894DF6FF731A40828196
:1024F0007047000030B587B004460D465C48844202
:102500001ED1012144F20500FFF736F903208DF8B2
:102510001A006015ADF8180018208DF81B0006A9E8
:102520005448FEF7D6FF04208DF81B000002ADF8DA
:10253000180006A94F48FEF7CCFF25208DF80400AF
:102540004D48844221D101210520FFF715F90121D1
:102550004804FFF7F1F803208DF81A000420ADF8C5
:10256000180018208DF81B0006A94248FEF7B1FF9D
:1025700004208DF81B000820ADF8180006A93D487E
:10258000FEF7A7FF26208DF804003C48844221D1A5
:1025900001210920FFF7F0F801218804FFF7CCF8AA
:1025A00003208DF81A002015ADF8180018208DF8BA
:1025B0001B0006A93248FEF78CFF04208DF81B0093
:1025C0004002ADF8180006A92D48FEF782FF27202B
:1025D0008DF804002B48844221D101211120FFF7FE
:1025E000CBF80121C804FFF7A7F803208DF81A00E3
:1025F0002015ADF8180018208DF81B0006A92248F8
:10260000FEF767FF04208DF81B004002ADF81800AC
:1026100006A91D48FEF75DFF34208DF804000295E1
:102620000020ADF80C00ADF80E00ADF81000ADF8CC
:1026300014000C20ADF8120002A9204600F082F828
:1026400003208DF805008DF8060001208DF80700A5
:1026500001A8FFF71BF8012240F22551204600F0A7
:102660004CF801212046FFF738FF07B030BD0000CD
:10267000003801400008014000440040004800408C
:10268000000C0140004C00400010014002460020B8
:10269000B1F5007F00D100BF13880B400BB10120C2
:1026A00000E00020704770B502460024002300259A
:1026B000002040F66A16B14200D100BFC1F34215B6
:1026C00001F01F03012606FA03F3012D02D19689BA
:1026D000334006E0022D02D1168A334001E0968A8B
:1026E00033400C12012606FA04F41688344013B164
:1026F0000CB1012000E0002070BDF0B503460024BD
:1027000000260025002040F66A17B94200D100BF1C
:102710001846C1F3421401F01F06012707FA06F517
:10272000012C01D10C3004E0022C01D1103000E06A
:1027300014301AB107682F43076002E00768AF43FF
:102740000760F0BD2DE9F04786B005460E4600242F
:10275000A24600BFA1460027B08900B100BF2F46A6
:102760002C8A4CF6FF700440F08804432C82AC891C
:102770004EF6F3100440B08831890843718908434C
:102780000443AC81AC8A4FF6FF400440B089044357
:10279000AC8201A8FFF700F81F48874202D1DDF89C
:1027A00010A001E0DDF80CA0A88900F4004040B1C1
:1027B0000AEBCA0000EB0A1031684900B0FBF1F8DF
:1027C00007E00AEBCA0000EB0A1031688900B0FB91
:1027D000F1F86420B8FBF0F004012009642101FB4A
:1027E0001089A88900F4004040B1322000EBC900F4
:1027F000B0FBF1F000F00700044308E0322000EBEA
:1028000009106421B0FBF1F000F00F0004432C81AB
:1028100006B0BDE8F0870000003801400146888816
:10282000C0F308007047C1F30802828070470000BF
:1028300010B502210748FEF797FC50B1064A002167
:102840000448FEF7B4FDFFF7C5FC02210148FEF77E
:102850008BFC10BD00640040A80000202DE9F0476B
:10286000002442E0234951F82400FDF722FF0546E9
:102870000E46214A52F82410204A52F82400FDF74F
:10288000D7FC8146FDF715FF21F0004107462A4697
:102890003346FDF721FF06D2174850F824001749A8
:1028A00041F824001FE0144A52F82410134A52F849
:1028B0002400FDF74FFF0BD20E4A52F824100F4AA6
:1028C00052F82400FDF7B4FC0C4941F824000AE05A
:1028D000084A52F82410094A52F82400FDF756FC21
:1028E000064941F82400601CC4B2052CBADBBDE8DF
:1028F000F08700007436000854000020800000209B
:102900001FB5044601211020FEF716FF04EB8400DA
:102910000121C1EB400080B2ADF8080041F61F4034
:10292000ADF804000020ADF8060001A90D48FFF73E
:10293000FFFB36208DF8000001208DF801000020FB
:102940008DF8020001208DF803006846FEF79EFE18
:10295000012211460348FFF7C9FA01210148FFF798
:10296000A8FA1FBD0010004000BFFEE70FB4054BE2
:1029700010B503A9044A029800F0DEF810BC5DF817
:1029800014FB000021330008780000200148006893
:10299000704700007C00002002E008C8121F08C138
:1029A000002AFAD170477047002001E001C1121FD0
:1029B000002AFBD170470000014908607047000001
:1029C0007C0000202DE9FF5FDDE90220010DDDF82C
:1029D00038B0024318D044F61050A1F2FF31414301
:1029E0000D140F98012820D0A5EB0B00401C5FEAC6
:1029F000000A4FF00004474EDFF81C91A0465046F5
:102A000016D5CAF1000728E00F98012443A2012837
:102A100008D0002100980F9BC0E90021C0E90243C3
:102A2000BDE8FF9F6FEA0B01F4E7CBF10000DEE7A2
:102A3000074612E0F80707D022463346404649468B
:102A4000FDF713FD80468946224633461046194657
:102A5000FDF70BFD04460E467F10002FEAD1DDE99D
:102A60000201BAF1000F42464B4602DAFDF7FDFCC7
:102A700001E0FDF76CFD04460E460022284BFDF7F1
:102A8000E5FF03D84FF0FF30014607E00022254B59
:102A900020463146FDF742FCFDF7C0FF102409E057
:102AA000002C0ADB0A220023FDF774FE019B303262
:102AB0001A55641E50EA0102F2D1641C019AC4F155
:102AC000110314440F9A012A03D0012208430DD1A7
:102AD0000AE0084304D000204FF0110B0F9080E76C
:102AE000A3EB0B056D1E0DE05B4504DD4FF000020E
:102AF00005F1010504E003DA4FF00002A5F101053C
:102B0000002AECD000980F99C0E90231C0E90045D5
:102B100086E70000000024400000F03F3000000085
:102B20000000F0430000E03F30380A2801D20120C5
:102B300070470020704700002DE9FF4F95B09B467D
:102B40008946064600250FE2252877D1002427462E
:102B5000F84A0121059400E0044316F8013F203BA8
:102B600001FA03F01042F7D130782A2811D06FF023
:102B70002F033078A0F13002092A16D8059A44F0C4
:102B8000020402EB820203EB42021044761C059021
:102B9000EFE759F8042B0592002A03DA504244F477
:102BA0000054059044F00204761C30782E2816D18B
:102BB00016F8010F44F004042A280DD06FF02F02FC
:102BC0003078A0F13003092B09D807EB870302EB1B
:102BD0004303C718761CF3E759F8047B761C30785A
:102BE0006C280FD006DC4C2817D068280DD06A2836
:102BF00014D104E0742810D07A280FD10DE044F4E9
:102C000000140AE044F4801401E044F440147278A3
:102C1000824202D104F58014761C761C3078662836
:102C20000BD013DC582877D009DC002875D0452854
:102C3000F6D04628F4D047281AD19DE118E0632841
:102C400035D0642879D0652812D195E1702873D0E9
:102C500008DC6728F1D069286FD06E280DD06F2866
:102C600006D1B5E073282CD0752875D0782874D09B
:102C70005A46179990476D1C75E1C4F3025002281B
:102C800009D003280DD0D9F8001004280DD00D600C
:102C900009F1040967E1D9F80010EA17C1E9005207
:102CA000F6E7D9F800100D80F2E70D70F0E719F89B
:102CB000041B8DF8001000208DF80100EA46012069
:102CC00003E059F804AB4FF0FF3061074FF000010B
:102CD00002D40DE008F101018846B9420FDA8045BF
:102CE000F8DB1AF808100029F4D108E008F1010116
:102CF00088468142FADB1AF808100029F6D10598B7
:102D00005B46A0EB080721463846179A00F094FA74
:102D1000284400EB080507E04DE029E10DE01AF832
:102D2000010B5A4617999047B8F10108F7D25B4654
:102D300021463846179A13E142E00A220092C4F372
:102D400002524FF0000A022A08D059F804CB032A95
:102D50004FEAEC710AD00DE029E02AE009F1070101
:102D600021F00702F2E802C1914609E00FFA8CFC5B
:102D70004FEAEC71042A03D14FFA8CFC4FEAEC7154
:102D8000002907DA0A460021DCF1000C61EB0201A0
:102D90002D2202E0220504D52B228DF804200122E9
:102DA00003E0E20701D02022F7E7904659E00A212C
:102DB00002E010220DE010214FF0000A00910BE01C
:102DC00010224FF0000A44F004040827009203E0A8
:102DD00008224FF0000A0092C4F30252022A05D0E2
:102DE00059F804CB0021032A08D009E009F10701B2
:102DF00021F00702F2E802C1914605E01FFA8CFCBF
:102E0000042A01D10CF0FF0C4FF00008220728D54E
:102E1000702806D0009B83F0100353EA0A0305D004
:102E20000EE040228DF80420012208E05CEA010255
:102E300006D030228DF804208DF80500022290463D
:102E4000009B83F0080353EA0A030AD15CEA0102FB
:102E500001D1620705D530228DF804204FF001081A
:102E60007F1E582804D034A003900EA802900DE0D5
:102E700036A0F9E753466046009AFDF78BFC84467E
:102E80000398825C0298401E029002705CEA010086
:102E9000F0D1029806A9081A00F1200A600702D5AD
:102EA00024F4803400E00127574502DDA7EB0A0037
:102EB00000E0002000EB0A01009005984144401A10
:102EC0000590E00306D45B462146179A059800F06A
:102ED000B3F90544002706E001A85A46C05D1799DA
:102EE00090476D1C7F1C4745F6DBE0030CD55B4625
:102EF0002146179A059800F09FF9054404E0302018
:102F00005A46179990476D1C0099481E0090002959
:102F1000F5DC08E0029802995A460078491C0291B3
:102F2000179990476D1CBAF10001AAF1010AF1DC72
:102F300065E100000928010030313233343536377D
:102F400038396162636465660000000030313233F5
:102F50003435363738394142434445460000000095
:102F600000F058F90544761C307800287FF4ECAD69
:102F700019B02846BDE8F08F620700D4062709F192
:102F8000070222F0070CFCE80223E14603F00048A8
:102F90005FEA080C02D00FF2702C0DE05FEA045CCF
:102FA00002D50FF2682C07E05FEAC47C02D00FF272
:102FB000602C01E0AFF2700C4FF0FF3823F00043BB
:102FC000CDF850C065280CD006DC452809D046282D
:102FD0001DD047283DD13DE0662818D067287ED116
:102FE00038E00021112F01DB112000E0781CCDE931
:102FF000000106A90EA8FFF7E5FCDDE90F010E9A16
:1030000003910021009207F1010A04914DE04FF075
:1030100000400097CDE9011006A90EA8FFF7D2FCE9
:10302000DDE90F0203920E9B11990022DDF80CA03E
:103030000093049211B9791C00EB010AB7EB0A0066
:1030400004D4C0F1FF3007F1010A0490AAEB070095
:10305000019044E0012F00DA01270021112F01DD4A
:10306000112000E03846CDE9000106A90EA8FFF7BF
:10307000A9FCDDE90F010E9A039100210491009251
:10308000BA4621070CD40399514500DA8A46BAF1B1
:10309000010F05DD009AAAF10101515C302908D029
:1030A000B84202DA10F1040F06DA0121CDE901106D
:1030B00015E0AAF10101E9E7002805DC04990144C3
:1030C0000491AAEB000102E0411C514500DD8A4653
:1030D0000499401A401C01904FF0004002902007D4
:1030E00004D40198504501DBCDF8048000208DF810
:1030F0004F0002980DF14F07B0F1004F25D02B2063
:103100000E9002984FF0020800280CDA404202901C
:103110002D200E9007E00A210298FDF725FB3031A3
:10312000029007F8011DB8F10001A8F10108F2DCD6
:1031300002980028EFD1791E0E980870307800F0C0
:10314000200040F0450007F8020D12A8C01B00F156
:1031500007081498007800B1012000EB0A010198DB
:1031600001EBE07105984144401A401E0590E003D0
:1031700006D45B462146179A059800F05DF8054491
:103180001498007818B15A46179990476D1CE003BF
:1031900024D55B462146179A059800F04DF8054462
:1031A0001CE00498002807DBDDE90301884203DD09
:1031B0000098405C179901E0179930205A469047D3
:1031C000049805F10105401C04900198401E0190EF
:1031D00004D12E205A46179990476D1CBAF1000170
:1031E000AAF1010ADDDC05E017F8010B5A46179930
:1031F00090476D1CB8F10001A8F10108F4DC5B46B2
:103200002146179A0598ABE62D0000002B00000020
:10321000200000002DE9F041044600251E46174617
:10322000880404D405E039462020B0476D1C641E94
:10323000F9D52846BDE8F0812DE9F0410446002586
:103240001E469046C80301D5302700E02027880499
:1032500004D505E041463846B0476D1C641EF9D5DB
:103260002846BDE8F08130B583B00446FFF78EFBF9
:1032700005460020CDE90000024621466846FDF7DC
:1032800006FB2846FFF798FBDDE9000103B030BDDF
:1032900010B56FF00400FEF7E0FC0A4800680A4928
:1032A000B0FBF1F0094908700846007800EB4001D6
:1032B000C1EBC0104FF6FF7101EAC000044908805D
:1032C00010BD00000000002000127A006C000020F9
:1032D0006E0000200146114A12884A434FF0E02355
:1032E0005A6100229A611A46126942F001021A617B
:1032F00000BF4FF0E022106900F001021AB100F4A3
:103300008032002AF5D04FF0E022126922F001024B
:103310004FF0E0231A6100229A6170476E0000208E
:1033200070B504460D46E1B20548FFF77CFA00BFD0
:1033300080210348FFF7AAF90028F9D0204670BD84
:103340000038014086B0FFF7A3FF4FF4A060FEF7FE
:10335000D5F9FDF7EBFD4FF4E131A748FFF7CAF8C7
:103360004FF4E131A548FFF7C5F8FDF7ABFDFEF7D7
:10337000B9FC1420FFF7C4FAFDF774FDA0A0FFF715
:10338000F5FA37E1A04890F84200012821DD0A2033
:10339000FFF7A0FF002511E09B48FEF735FC04462F
:1033A0009A4840F825402046FDF783F90646324604
:1033B0000B4697A0FFF7DAFA681CC5B2052DEBDBC8
:1033C0009248006980F000409049086193A0FFF79F
:1033D000CDFA934800780028D3DDFFF73FFA9149F2
:1033E0000868FDF723F906468F4841683046FDF727
:1033F000B1F906D28B490868FDF718F98A49486087
:1034000010E088494868FDF711F90646864841688A
:103410003046FDF795F905D282494868FDF706F96F
:10342000814948607F498868FDF700F906467E4873
:1034300081683046FDF78EF906D27A498868FDF733
:10344000F5F87949886010E07649C868FDF7EEF82C
:103450000646754881683046FDF772F905D2714914
:10346000C868FDF7E3F8704988606F4A11686F4AD1
:103470001068FCF78BFE82466D49FCF711FF814610
:103480006C49FCF7DBFE07466B49FCF77FFE0646FE
:10349000FDF7E2F880461FFA88F14FF08040FEF712
:1034A0003EFE614A5168614A5068FCF7C1FE82469F
:1034B0006249FCF7F5FE81465E49FCF7BFFE074610
:1034C0005D49FCF763FE0646FDF7C6F880461FFA25
:1034D00088F14FF08040FEF724FE534A9168534A2A
:1034E0009068FCF753FE82465449FCF7D9FE8146AA
:1034F0005049FCF7A3FE07464F49FCF747FE064636
:10350000FDF7AAF880461FFA88F14FF08040FEF7D9
:103510000AFE4B48007830B1012813D0022812D09F
:1035200003285FD159E04748FEF7FAFA00214648E0
:10353000FEF7FBFD01214448FEF7BBFC012040499A
:1035400008704FE04EE000213F48FEF7B2FC242017
:103550003E49087002204870022211460A20FEF7F8
:10356000D1FE0820FEF782F91E203849087038483D
:1035700040794870364880798870032211460A20C5
:10358000FEF7C0FE2949C868FDF793F8CDE90401AC
:103590002F494A79897902EB0120FDF74CF88146E1
:1035A00000222C4BFCF7D3FF00222B4BCDE900016E
:1035B000FCF75BFFCDE90201DDE90423FCF74FFFD7
:1035C0000646FDF7A1F81849C8600846C0680F49CB
:1035D000C86003201A49087004E01349C868FEF760
:1035E0009FFA00BF00BF10490869FEF731FA0020BA
:1035F0000B490870C6E6000000380140004C00404E
:1036000073746172740A0000BC0000205400002032
:10361000252E326620202020000000000D0A000028
:10362000690000209C3600088000002088360008D1
:10363000000034430000FA440000FA4300009643BF
:103640006A0000200000B44200140040D4020020B0
:10365000540300200000904000C07240FFFF0A07A2
:10366000031A5F5F5F5F55FFFF0607031A5F5F5F27
:103670005F5900000000003F9A99193E0000803E0B
:1036800000002041000020410000B44200008C42B4
:10369000000000000000164300008C420000000003
:1036A0003C00000000000000960000000000B44252
:1036B00000001643000016430000164300001643A6
:1036C0000000B442000016430000164300001643F9
:1036D000000016430000B4420000164300001643E9
:1036E0000000164300001643DDDDDDDDDCBBBBDD85
:1036F000DDDDDDDDDDDDDDDD988888888888888892
:1037000077777777778888888555555666666666B1
:103710006666666666688888833333322222222290
:10372000222222222228888D48370008000000200B
:103730008000000098290008C83700088000002099
:10374000F8080000A829000800A24A0400000000B0
:103750000000000001020304060708090000000041
:103760000102030401020304060708090204060813
:10377000FFFF0A07031EFF01FF00D7FFFF06070335
:103780001EFF01FF000AFFFF0A07031E00005F0083
:1037900000FFFF0607031E00005F0000000000009E
:1037A000000000000000A041000000000000000038
:1037B0000000000000000000000000000000000009
:0837C000000000000000000001
:0400000508000131BD
:00000001FF
