:020000040800F2
:10000000E00A0020510A0008090700080B07000851
:100010000F0700081307000817070008000000007A
:100020000000000000000000000000001B070008A6
:100030001D070008000000001F0700082107000836
:100040006B0A00086B0A00086B0A00086B0A0008BC
:100050006B0A00086B0A00086B0A00086B0A0008AC
:100060006B0A00086B0A00086B0A00086B0A00089C
:100070006B0A00086B0A00086B0A00086B0A00088C
:100080006B0A00086B0A00086B0A00086B0A00087C
:10009000CB4100086B0A00086B0A00086B0A0008D5
:1000A0006B0A00086B0A00086B0A00086B0A00085C
:1000B00023070008C34600085B0700086B0A000816
:1000C0006B0A00086B0A00086B0A00086B0A00083C
:1000D0006B0A0008233300086B0A00085335000838
:1000E0006B0A00086B0A00086B0A00086B0A00081C
:1000F0006B0A00086B0A00086B0A00086B0A00080C
:100100006B0A00086B0A0008910700086B0A0008D8
:100110003B3400086B0A00086B0A000893070008CC
:100120006B0A00086B0A00086B0A00086B0A0008DB
:1001300000F002F800F068F80AA090E8000C824491
:100140008344AAF10107DA4501D100F05DF8AFF26E
:10015000090EBAE80F0013F0010F18BFFB1A43F0A5
:1001600001031847406B0000606B00000A444FF029
:10017000000C10F8013B13F0070408BF10F8014B06
:100180001D1108BF10F8015B641E05D010F8016B4B
:10019000641E01F8016BF9D113F0080F1EBF10F8AF
:1001A000014BAD1C0C1B09D16D1E58BF01F801CBD2
:1001B000FAD505E014F8016B01F8016B6D1EF9D555
:1001C0009142D6D37047000000230024002500266A
:1001D000103A28BF78C1FBD8520728BF30C148BFAA
:1001E0000B6070471FB504F02BFE040000200021B7
:1001F00005F07AFD401C60600020002105F05EFDE6
:10020000E0601FBD10B510BD04F054FB1146FFF7B0
:10021000E9FF00F046F904F0CDFD03B4FFF7F2FF6B
:1002200003BC03F023F8000010B5044600BF4021D2
:10023000FB4802F051FF0028F9D02146F84802F0AF
:10024000DDFE10BDF0B589B006460F4615461C2DE3
:1002500001DD09B0F0BD002101AAE81C115488207D
:100260008DF804008DF805608DF80650002405E037
:10027000395DE01C01AA1154601CC4B2AC42F7DB2A
:1002800000240AE001A9E81C085C095D0844C1B229
:1002900001AAE81C1154601CC4B2E81C8442F1DBC2
:1002A000002405E001A9085DFFF7BEFF601CC4B291
:1002B000281D8442F6DB00BFCBE72DE9FE43044650
:1002C0000D4617461E46DDE90A89200A8DF8000012
:1002D000E0B28DF80100280A8DF80200E8B28DF82E
:1002E0000300380A8DF80400F8B28DF80500300AD2
:1002F0008DF80600F0B28DF807004FEA18208DF84F
:10030000080008F0FF008DF809004FEA19208DF869
:100310000A0009F0FF008DF80B000C226946A120AD
:10032000FFF790FFBDE8FE832DE9F04F87B004464C
:100330000D4616461F46DDE911ABDDF840904FF043
:10034000000806E000200DF8080008F1010000F0A8
:10035000FF08B8F11C0FF5DB200A8DF80000E0B2B1
:100360008DF80100280A8DF80200E8B28DF803002C
:10037000300A8DF80400F0B28DF80500380A8DF8C7
:100380000600F8B28DF807004FEA19208DF8080032
:1003900009F0FF008DF809004FEA1A208DF80A00D5
:1003A0000AF0FF008DF80B004FEA1B208DF81200B9
:1003B0000BF0FF008DF813001398000A8DF814005D
:1003C0001398C0B28DF815001498000A8DF8160025
:1003D0001498C0B28DF817001C226946AF20FFF7B1
:1003E00031FF07B0BDE8F08FF0B5C7B04FF48C71A6
:1003F00001A804F0A6F9002500240027002622E029
:100400008848005D202809D08648005D07EB8701F9
:1004100001AA02EBC1018855761C641C0EE0641C25
:100420008048005D202809D0002007EB870101AA41
:1004300002EBC10188557F1C002603E07948005D6E
:100440002028ECD000BF7748005D0028D8D101A853
:1004500005F0B8FB744A03C20BA805F0B3FB734A5E
:1004600003C200250CE0002607E0002005EB850113
:1004700001AA02EBC1018855761C142EF5DB6D1C18
:10048000781C8542EFDB002503E0002065494855D4
:100490006D1C142DF9DB002500240027002647B031
:1004A000F0BD0025624C362602F070FE02F0D8FE48
:1004B00003F00DF903F01FF903F0AAFE032140F247
:1004C000E73003F0FAF803F098FD03F0B3FD4FF4C2
:1004D000E13002F0DAFE574802F060FF4FF4FA70A4
:1004E00002F091FE03F0BEFF02205349087028E09D
:1004F0005248807A5149504A1278895C08444F49E1
:1005000088724F48807A4E494B4A1278895C084479
:100510004B4988724B48807A4A49474A1278895C2D
:100520000844484988724848807A4749424A1278C4
:10053000895C0844444988723F480078401C3E4921
:1005400008703D4800780A28D2DB3C48807AC043D6
:100550003A4988723A48807AC043394988723948A2
:10056000807AC043374988723748807AC043364919
:1005700088720B21314804F08FF80B21314804F0C8
:100580008BF8B7E0314803F050FF40B900202F4905
:1005900081F82000084600783030C6B201252C488A
:1005A000008800F4004028B10020294908801D4837
:1005B00006780125012D6FD10025A6F1310008280C
:1005C0006BD2DFE800F004101E49596B757C2046A1
:1005D00006F0CCF81F4A03C2204606F0C7F81D4AB1
:1005E000C2E902017DE0204606F0C0F8194A03C2C4
:1005F00084F00047384606F0B9F8164AC2E902010D
:100600006FE084F00047384606F0B0F8114A03C2A4
:10061000204606F0ABF80F4AC2E9020161E0000093
:1006200000380140E0010020000000200800002008
:100630000000304140420F00100000202000002048
:100640002B0000203600002041000020A8010020DF
:10065000A4000020480100202749204606F0B2F8F7
:10066000074606F083F8254A03C2204606F07EF8C6
:10067000224AC2E9020134E0204606F077F81F4A18
:1006800003C21D49204606F09DF8074606F06EF8A5
:100690001A4AC2E9020124E024E020E00021174ABE
:1006A000116051609160D16001201549087018E017
:1006B0000021124A116051609160D16011E084F014
:1006C0000047384606F052F80C4A03C284F000474F
:1006D000384606F04BF8094AC2E9020101E0372624
:1006E00000BF00BF0748007820B103F0D1F8002018
:1006F0000449087046E700000000A04048010020BF
:100700004C00002011000020704700BFFEE700BF32
:10071000FEE700BFFEE700BFFEE770477047704787
:10072000704710B50121880702F017FBA0B1012125
:10073000880702F023FB4FF08040008800F0100093
:1007400028B940480068401C3E49086004E03D4824
:100750000068401E3B49086010BD10B501213A48B1
:1007600002F0FBFA98B10121374802F007FB364846
:10077000008800F0100028B932484068401C314918
:10078000486004E02F484068401E2E49486010BD74
:1007900070472DE9F0474FF0000A01212B4802F085
:1007A000DCFA00284CD04FF0804002F0C4FA28490F
:1007B0000860254802F0BFFA2549486000BF35E0CF
:1007C000234850F82A001F4951F82A104FF4FA72B2
:1007D00002FB01001F4951F82A10401A1E4941F836
:1007E0002A0051F82A0005F044FD064600221B4B62
:1007F00005F07EFB04460022194B05F079FB80468C
:100800000022184B05F088FD174A02EBCA0203C20A
:1008100000200C4941F82A000D4850F82A000D49E3
:1008200041F82A000AF1010000F0FF0ABAF1020FB4
:10083000C6DB01200D4908700121044802F09EFA30
:10084000BDE8F0875400002000080040001400407C
:100850005C000020640000206C00002000001040BC
:1008600000407F4000007940D001002011000020AE
:100870000CB50020019000906C48006840F4803076
:100880006A49086000BF6948006800F400300090C1
:100890000198401C0190009818B90198B0F5A06F1C
:1008A000F1D16248006800F4003010B101200090DE
:1008B00001E0002000900098012843D15C480068C6
:1008C00040F010005A4908600846006820F0030014
:1008D00008600846006840F002000860534840681D
:1008E000524948600846406848600846406840F4FD
:1008F000806048600846406820F47C1048600846E4
:10090000406840F4E81048600846006840F0807095
:10091000086000BF4548006800F000700028F9D06A
:100920004248406820F0030040494860084640685B
:1009300040F00200486000BF3C48406800F00C00F6
:100940000828F9D10CBD10B5FFF792FF10BD10B506
:100950003648006840F001003449086008464068A5
:100960003449084031494860084600683249084027
:100970002E4908600846006820F480200860084678
:10098000406820F4FE0048604FF41F008860FFF7C5
:10099000DAFF4FF000602949086010BD10B5002152
:1009A00000200022214B5B6803F00C0121B10429D7
:1009B00006D0082928D107E0214B224C236027E0EC
:1009C0001F4B204C236023E0184B5B6803F470102E
:1009D000164B5B6803F48032022303EB904022B98C
:1009E000194B4343174C23600DE0104B5B6803F435
:1009F000003323B1144B4343124C236003E0104BEC
:100A00004343104C236003E00D4B0E4C236000BFAA
:100A100000BF064B5B68C3F303130C4CE15C094B4E
:100A20001B68CB40074C236010BD00000010024043
:100A3000002002400000FFF8FFFFF6FE08ED00E096
:100A400000127A007400002000093D0078000020A8
:100A50000948804709480047FEE7FEE7FEE7FEE752
:100A6000FEE7FEE7FEE7FEE7FEE7FEE7044805498E
:100A7000054A064B704700004F0900083101000885
:100A8000E0040020E00A0020E0060020E00600204C
:100A900031490143314A1160704770B5002100238C
:100AA0000F22C47804B32D4C246804F4E064C4F528
:100AB000E064210AC1F10403CA40447804FA03F156
:100AC0008478144021430901254C0678A155047807
:100AD00004F01F050124AC4005786D11AD0005F14F
:100AE000E025C5F8004109E0047804F01F05012461
:100AF000AC401C4D0678761145F8264070BD1A4A68
:100B00000A400243154B1B1F1A60704739B1134A44
:100B1000121D12680243114B1B1D1A6006E00F4A9A
:100B2000121D126882430D4B1B1D1A60704704286A
:100B300008D14FF0E021096941F004014FF0E022B3
:100B4000116107E04FF0E021096921F004014FF045
:100B5000E0221161704700000000FA050CED00E092
:100B600000E400E080E100E080FFFF1F10B50446D4
:100B7000FE48844209D10121480601F032F80021E3
:100B80004FF0007001F02DF808E00121880601F017
:100B900028F800214FF0806001F023F810BD30B537
:100BA000024600200023146824F002041460146834
:100BB00044F00104146000E05B1C546804F001047C
:100BC0001CB94FF6FF74A342F6D1546804F0010437
:100BD0000CB900206CE08C79012C04D1146844F02D
:100BE0008004146003E0146824F080041460CC795D
:100BF000012C04D1146844F04004146003E014682C
:100C000024F0400414600C7A012C04D1146844F0E0
:100C10002004146003E0146824F0200414604C7A6B
:100C2000012C04D1146844F01004146003E014682B
:100C300024F0100414608C7A012C04D1146844F060
:100C40000804146003E0146824F008041460CC7AEB
:100C5000012C04D1146844F00404146003E0146807
:100C600024F0040414608C78A407CD7844EA056469
:100C70000D7944EA05444D7944EA05540D886D1E0A
:100C80002C43D461146824F001041460002300E0B4
:100C90005B1C546804F001041CB14FF6FF74A342BE
:100CA000F6D1546804F001040CB1002000E00120EA
:100CB00030BD10B50021837A012202FA03F1AC4A5B
:100CC000126842F00102AA4B1A60A94A1C3212684B
:100CD0008A43A74B1C331A60027BCAB9A44A0C3260
:100CE00012688A43A24B0C331A604288C38842EAD6
:100CF00003439F4A4032847A42F834300288838822
:100D000042EA03439A4A4032847A02EBC4025360B7
:100D1000027B012A19D1964A0C3212680A43944B7D
:100D20000C331A604288038842EA0343904A4032F7
:100D3000847A42F83430C288838842EA03438C4A7A
:100D40004032847A02EBC4025360C27A3AB9884ACC
:100D5000121D12688A43864B1B1D1A6006E0844AE6
:100D6000121D12680A43824B1B1D1A60028932B998
:100D70007F4A143212688A437D4B14331A60028909
:100D8000012A06D17A4A143212680A43784B143386
:100D90001A60427B012A06D1754A1C3212680A4346
:100DA000734B1C331A60724A126822F00102704BB6
:100DB0001A6010BD00218171C1710172417281728E
:100DC000C1728170C1700321017102214171012141
:100DD000018070476649096841F00101644A116069
:100DE0001146096843F60E729143614A116011463B
:100DF000096841EA002111601146096821F00101EA
:100E00001160704721B1026842F48032026003E051
:100E1000026822F4803202607047E1B1026842F059
:100E2000800202604FF4C272125842F480734FF491
:100E3000C27213504FF4CA72125842F480734FF4C6
:100E4000CA7213504FF4D272125842F480734FF4A6
:100E5000D27213501BE0026822F0800202604FF44D
:100E6000C272125822F480734FF4C27213504FF4BE
:100E7000CA72125822F480734FF4CA7213504FF49E
:100E8000D272125822F480734FF4D272135070470A
:100E900010B502460020936803F08063B3F1806FC1
:100EA00000D110E0936803F00063B3F1006F01D14B
:100EB000012008E0936803F08053B3F1805F01D113
:100EC000022000E00420042879D002F5C07303EB6F
:100ED00000131B6803F0010402F5C07303EB001359
:100EE0001C600B7A7BB94B7A0C8843EA445302F5B9
:100EF000C07404EB00142468234302F5C07404EBAF
:100F00000014236010E00B7A4C6843EAC4034C7A67
:100F1000234302F5C07404EB00142468234302F554
:100F2000C07404EB001423608B7A03F00F038B7200
:100F300002F5C07303EB00135B6823F00F0402F5A6
:100F4000C07303EB00135C6002F5C07303EB001386
:100F50005B688C7A234302F5C07404EB0014636071
:100F60008B7B1C064B7B44EA034403E00064004097
:100F7000006600400B7B44EA0323CC7A234302F54E
:100F8000C07404EB0014A3608B7C1C064B7C44EA09
:100F900003440B7C44EA0323CC7B234302F5C07457
:100FA00004EB0014E36002F5C07303EB00131B684D
:100FB00043F0010402F5C07303EB00131C6010BD85
:100FC00010B50246002321B1012907D002290FD113
:100FD00009E09068F94C00EA04030BE09068F84CD3
:100FE00000EA040306E09068F64C00EA040301E01E
:100FF000002300BF00BFF44C181BA34216D007DC2F
:1010000083B16FF08060184470B1022818D111E0EC
:10101000B0F5007F10D0ED4C204448B1B0F5003F52
:101020000ED10BE002230DE000230BE0002309E0CA
:10103000002307E0012305E0012303E0012301E091
:10104000002300BF00BFD8B210BD21B1012907D0D5
:1010500002290FD109E0826842F0800282600AE032
:10106000826842F40042826005E0826842F4000235
:10107000826000E000BF00BF704710B500F5D87374
:1010800003EB01131B6803F004031372137A53B9C3
:1010900000F5D87303EB01131B6840F2FF7404EAF8
:1010A0005353136009E000F5D87303EB01131B6879
:1010B0006FF0604404EAD303536000F5D87303EB88
:1010C00001131B6803F00203537200F5D87303EB9E
:1010D00001135B6803F00F03937200F5D87303EB01
:1010E00001135B681B0AD37400F5D87303EB01137B
:1010F0009B68D37200F5D87303EB01139B681C0A3D
:10110000147300F5D87303EB01139B681C0C547324
:1011100000F5D87303EB01139B681B0E937300F566
:10112000D87303EB0113DB68D37300F5D87303EBBB
:101130000113DB681C0A147400F5D87303EB011368
:10114000DB681C0C547400F5D87303EB0113DB68E7
:101150001B0E937421B9C36843F02003C36003E0FE
:10116000036943F02003036110BD21B9C26842F056
:101170002002C26003E0026942F02002026170476F
:101180000246002019B9D36803F0030006E00129E4
:1011900003D1136903F0030000E00020704710B58D
:1011A00002460B4600204FF6FF71BBB9146824F0CD
:1011B000020444F00104146000E0491E546804F085
:1011C0000304012C01D00029F7D1546804F0030472
:1011D000012C01D0002032E0012030E0012B13D19E
:1011E000146824F00304146000E0491E546804F0FD
:1011F00003040CB10029F8D1546804F003040CB1C5
:1012000000201CE001201AE0022B17D1146824F002
:10121000010444F00204146000E0491E546804F024
:101220000304022C01D00029F7D1546804F0030410
:10123000022C01D0002002E0012000E0002010BDBF
:10124000014600200A6822F0010242F002020A6010
:101250004A6802F00302022A00D1012070470146C9
:101260004FF6FF7200200B6823F002030B6000E0D2
:10127000521E4B6803F00203022B01D1002AF7D162
:101280004B6803F00203022B00D001207047014697
:1012900000208A6902F070007047014600208A69C8
:1012A000100E7047014600208A69C2F3074070475C
:1012B0001AB143690B43436102E043698B434361C5
:1012C000704710B50246002001F4700343B19369E2
:1012D000C1F3130423400BB101202DE000202BE0CB
:1012E00001F0807343B15368C1F3130423400BB181
:1012F000012021E000201FE001F0006343B193686A
:10130000C1F3130423400BB1012015E0002013E0CA
:1013100001F0007343B1D368C1F3130423400BB150
:10132000012009E0002007E01369C1F31304234002
:101330000BB1012000E0002010BD0022244B994297
:1013400002D10023836111E0C1F3130201F00073A5
:101350000BB1C2600AE001F080630BB1026105E0ED
:1013600001F000630BB1826000E04260704702460A
:10137000002002EA01030BB1012000E000207047C9
:1013800070B504460D46002660692840002872D0DA
:10139000B5F5807F69D01DDC082D42D006DC012D1B
:1013A0002DD0022D31D0042D7FD134E0102D3ED030
:1013B000202D42D0402D78D145E0000003000004EC
:1013C0000003000800000310000100080001FFF7FF
:1013D0007000F030B5F5004F61D009DCB5F5007F45
:1013E0004AD0B5F5806F4DD0B5F5006F5DD150E0B6
:1013F000B5F5803F2DD0B5F5003F56D12FE0A06860
:101400005549FFF7B4FF064651E0E0680321FFF7B6
:10141000AEFF06464BE0E0680821FFF7A8FF06464E
:1014200045E0E0681021FFF7A2FF06463FE0206993
:101430000321FFF79CFF064639E020690821FFF7EA
:1014400096FF064633E020691021FFF790FF06461D
:101450002DE060680821FFF78AFF064627E06068F4
:101460001021FFF784FF064621E0A0690121FFF764
:101470007EFF06461BE01BE0A0690221FFF777FF15
:10148000064614E0A0690421FFF771FF06460EE04E
:101490000BE0A0697021FFF76AFF064607E060686D
:1014A0000421FFF764FF064601E0002600BF00E0CC
:1014B0000026304670BDB1F5007F3AD00FDC202900
:1014C00028D006DC01291CD004291DD0082940D1D0
:1014D0001DE0402921D0B1F5807F3AD126E0B1F559
:1014E000004F31D006DCB1F5806F25D0B1F5006F2B
:1014F0002FD124E0B1F5803F12D0B1F5003F28D1C3
:1015000011E0154A826025E00822C26022E0102224
:10151000C2601FE0082202611CE01022026119E093
:101520000822426016E01022426013E0042242606A
:1015300010E0042242600DE0042242600AE0002232
:1015400082610422426005E000228261042242603E
:1015500000E000BF00BF70470101010010B5044664
:10156000CC48844208D10121042000F02DFB002149
:10157000042000F029FB46E0C748844208D101213D
:10158000082000F021FB0021082000F01DFB3AE0BC
:10159000C248844208D10121102000F015FB00212F
:1015A000102000F011FB2EE0BD48844208D101213B
:1015B000202000F009FB0021202000F005FB22E0A4
:1015C000B848844208D10121402000F0FDFA0021F2
:1015D000402000F0F9FA16E0B348844208D1012116
:1015E000802000F0F1FA0021802000F0EDFA0AE0FE
:1015F000AE48844207D10121801500F0E5FA0021B0
:10160000A01500F0E1FA10BD10B50121084600F068
:10161000DBFA0021012000F0D7FA10BD2DE9F041DE
:10162000024600250026002000230024002791F810
:1016300003C00CF00F0591F803C00CF0100CBCF1C6
:10164000000F03D091F802C04CEA050591F800C0E4
:10165000BCF1000F31D0146800202BE04FF0010CDA
:101660000CFA00F3B1F800C00CEA03069E4220D148
:1016700083004FF00F0C0CFA03F7BC4305FA03FC90
:101680004CEA040491F803C0BCF1280F06D14FF0D6
:10169000010C0CFA00FCC2F814C00AE091F803C077
:1016A000BCF1480F05D14FF0010C0CFA00FCC2F858
:1016B00010C0401C0828D1D31460B1F800C0BCF1A0
:1016C000FF0F34DD546800202EE000F1080C4FF0CD
:1016D000010808FA0CF3B1F800C00CEA03069E42B8
:1016E00021D183004FF00F0C0CFA03F7BC4305FA2D
:1016F00003FC4CEA040491F803C0BCF1280F05D1A7
:1017000000F1080C08FA0CF8C2F8148091F803C034
:10171000BCF1480F07D100F1080C4FF0010808FA9E
:101720000CF8C2F81080401C0828CED35460BDE8E5
:10173000F0814FF6FF710180022181700421C17098
:1017400070470246002093680B400BB1012000E077
:10175000002070470146886880B27047024600202A
:10176000D3680B400BB1012000E000207047014618
:10177000C86880B2704701617047416170470AB123
:10178000016100E041617047C16070474FF48032F1
:101790000A4382618161826182698269704702467F
:1017A0000020434B18684FF68073184040EA02103F
:1017B00008433F4B186070473E49C8617047F0B519
:1017C0000A46002300240021002500F00046B6F15F
:1017D000004F02D1364EF16901E0354E7168C0F319
:1017E000034583B200F44016B6F5401F08D121F03E
:1017F00070612F4E766826F070662D4F7E6012E085
:1018000000F48016B6F5801F06D1032606FA05F40B
:10181000A14341F0706106E0460D360103FA06F679
:10182000B14341F0706122B1460D360103FA06F66C
:10183000314300F00046B6F1004F02D11C4EF16179
:1018400001E01B4E7160F0BD30B500228B071C0F0C
:101850000F2303FA04F2164B08338C1053F824308C
:101860009343134C08348D1044F8253023468C10D4
:1018700053F824308C07240F00FA04F423430C4C53
:1018800008348D1044F8253030BD0A49DC31086039
:101890007047000000080140000C014000100140AA
:1018A0000014014000180140001C014000200140CC
:1018B0000000014000002042DF48006840F00100C5
:1018C000DD49086008464068DC490840DA4948605C
:1018D00008460068DA490840D749086008460068A9
:1018E00020F4802008600846406820F4FE0048602C
:1018F0004FF41F0088607047CF49096821F4803198
:10190000CD4A11601146096821F480211160B0F5BB
:10191000803F03D0B0F5802F0ED106E0C64909689C
:1019200041F48031C44A116007E0C349096841F4B9
:10193000A021C14A116000E000BF00BF704710B590
:1019400001460022002300204A11012A02D1BA4C8C
:10195000236806E0022A02D1B74C236A01E0B64CA4
:10196000636A01F01F02012494401C400CB1012065
:1019700000E0002010BD38B50020009000240025B4
:1019800000BF3120FFF7DBFF05460098401C0090A8
:101990000098B0F5A06F01D0002DF2D03120FFF7F4
:1019A000CEFF08B1012400E00024204638BD0146E6
:1019B0000020A14A106820F0F80040EAC100106041
:1019C0007047A04908607047024600209A4B58684B
:1019D00020F47C1042EA01031843974B586070478B
:1019E00098490866704701460020934A506820F0E5
:1019F00003000843506070478F48406800F00C00B7
:101A00007047014600208C4A506820F0F0000843DF
:101A10005060704701460020874A506820F4E0601B
:101A200008435060704701460020834A506820F404
:101A3000605040EAC1005060704729B17E4A527A36
:101A400002437D4B5A7204E07B4A527A82437A4BBE
:101A50005A7270477B49D8310860704701460020B0
:101A6000754A506820F44040084350607047002198
:101A7000714A20321170704A82F82010012802D079
:101A800004280AD104E001216B4A2032117005E0DC
:101A90000521694A2032117000E000BF00BF704785
:101AA0006949086070476449096A0143624A1162E2
:101AB0007047654944390860704730B500210022FD
:101AC000002400235C4D6D6805F00C0121B1042950
:101AD00005D0082923D105E05C4D056022E05B4D6F
:101AE00005601FE0544D6D6805F47012524D6D682D
:101AF00005F48034022505EB92421CB9544D554340
:101B000005600BE04C4D6D6805F400351DB1504D7E
:101B10005543056002E04D4D5543056002E04B4DD5
:101B2000056000BF00BF444D6D6805F0F001090974
:101B3000484D6B5C0568DD4045603F4D6D6805F4C0
:101B4000E061090A434D6B5C4568DD4085603A4DB4
:101B50006D6805F46051C90A3E4D6B5C4568DD4017
:101B6000C560354D6D6805F44041890B3A4D6B5C9D
:101B7000C568B5FBF3F5056130BD29B12E4A526940
:101B800002432D4B5A6104E02B4A526982432A4B8F
:101B90005A61704729B1284A92690243264B9A61DB
:101BA00004E0254A92698243234B9A61704729B128
:101BB000214AD2690243204BDA6104E01E4AD2690D
:101BC00082431D4BDA61704729B11B4AD268024338
:101BD000194BDA6004E0184AD2688243164BDA6087
:101BE000704729B1144A12690243134B1A6104E089
:101BF000114A12698243104B1A61704712494039E9
:101C0000086070470F49C86470470B49C871704736
:101C10000948406A40F080700749486270470146B1
:101C20000020054A92680A400AB1012000E0002025
:101C30007047014988727047001002400000FFF8A9
:101C4000FFFFF6FE000042428004424200127A008A
:101C500000093D00880000209800002010B50446CF
:101C6000BE48844208D101218014FFF7ADFF002156
:101C7000A014FFF7A9FF16E0B948844208D101215A
:101C80000014FFF7AEFF00212014FFF7AAFF0AE0BF
:101C9000B448844207D10121C013FFF7A2FF0021FD
:101CA000E013FFF79EFF10BD10B50022028802F47A
:101CB00041520B884C8823438C882343CC88234390
:101CC0000C8923434C8923438C892343CC892343A8
:101CD0001A430280838B4FF2FF74234083830B8A65
:101CE000038210BD2DE9F04F85B005460C464FF03C
:101CF000000902274FF000084FF0010B0026B24602
:101D0000A88B4FF240010840A88302202884B5F830
:101D10001C90A068022801D100BF38E0A08810B94B
:101D20004FF0010B01E04FF0020B8D48854200D1CE
:101D300000E000BF6846FFF7C0FEDDF800A0E088C5
:101D4000B0F5007F0AD14FEA1A2000EB8000400076
:101D5000A168B0FBF1F0401D86B20BE04FEA4B10DA
:101D6000BAFBF0F000EB80004000A168B0FBF1F09E
:101D7000401D86B20A20B6FBF0F606F00108A6EB7D
:101D80000800C0F34F074FF6FF7000EA0828022F43
:101D900001DBFF2F02DD02274FF00008E08840EA58
:101DA000080038432884A088A18908436188084333
:101DB0002188084340F4006040EA0909A5F81C9016
:101DC00005B0BDE8F08F0021018041808180C18095
:101DD000018141818181C1810721018270470021F8
:101DE000018041808180C180022181600021818148
:101DF000704721B1028842F04002028004E002886C
:101E00004FF6BF731A400280704721B1828B42F4B3
:101E10008062828304E0828B4FF6FF331A40828314
:101E2000704730B5002400230C110125A540ABB24A
:101E30001AB185881D43858002E085889D43858091
:101E400030BD1AB183880B43838002E083888B43C3
:101E500083807047818170470146888970474FF6BB
:101E6000FF62914204D0028842F48072028004E052
:101E700002884FF6FF631A400280704721B18288C2
:101E800042F00402828004E082884FF6FB731A401D
:101E90008280704702884FF2FF731A4002800288E6
:101EA0000A4302807047018841F4805101807047E5
:101EB00021B1028842F40052028004E002884DF60B
:101EC000FF731A400280704702460020012901D0AA
:101ED000108B00E0908A70470146088A7047B1F580
:101EE000804F04D1028842F48042028004E00288DC
:101EF0004BF6FF731A400280704702460020138998
:101F00000B400BB1012000E000207047CA43028162
:101F10007047F0B50246002000240023002501F0A0
:101F20000F070126BE40B4B20B1101269E40B3B28A
:101F3000968806EA03051689264016B10DB10120E0
:101F400000E00020F0BD10B5002201F00F040123D5
:101F5000A3409AB2D343038110BD0000003001407A
:101F600000380040003C004010B50446FE48844262
:101F700008D10121C014FFF727FE0021E014FFF76C
:101F800023FEC4E0B4F1804F08D101210846FFF7D9
:101F900028FE00210120FFF724FEB8E0F348844228
:101FA00008D101210220FFF71CFE00210220FFF7CB
:101FB00018FEACE0EE48844208D101210420FFF76E
:101FC00010FE00210420FFF70CFEA0E0E948844247
:101FD00008D101210820FFF704FE00210820FFF7A7
:101FE00000FE94E0E448844208D101211020FFF76C
:101FF000F8FD00211020FFF7F4FD88E0DF4884425F
:1020000008D101212020FFF7ECFD00212020FFF75F
:10201000E8FD7CE0DA48844208D101214014FFF752
:10202000D3FD00216014FFF7CFFD70E0D548844256
:1020300009D10121C804FFF7C7FD00214FF400209A
:10204000FFF7C2FD63E0D048844209D101210805B1
:10205000FFF7BAFD00214FF48010FFF7B5FD56E001
:10206000CA48844209D101214805FFF7ADFD00218E
:102070004FF40010FFF7A8FD49E0C548844208D19D
:1020800001214020FFF7ADFD00214020FFF7A9FD11
:102090003DE0C048844208D101218020FFF7A1FD26
:1020A00000218020FFF79DFD31E0BB48844208D12C
:1020B00001218015FFF795FD0021A015FFF791FD87
:1020C00025E0B648844209D101210804FFF77CFDD0
:1020D00000214FF48030FFF777FD18E0B0488442CC
:1020E00009D101214804FFF76FFD00214FF40030B2
:1020F000FFF76AFD0BE0AB48844208D10121880458
:10210000FFF762FD00214FF48020FFF75DFD10BD59
:1021100000220288944B98420ED0994B98420BD0E3
:10212000B0F1804F08D0914B984205D0904B984227
:1021300002D0904B984204D14FF68F731A404B88CF
:102140001A438D4B984207D08C4B984204D04FF6DF
:10215000FF431A40CB881A4302808B8883850B8803
:102160000385814B98420BD0854B984208D08B4B0E
:10217000984205D08A4B984202D08A4B984201D1AE
:102180000B7A038601238382704770B500240022F6
:102190000023058C4FF6FE7635400584028C83883B
:1021A000048B4FF68F752C40B51E2C400D882C43A8
:1021B000751E2A400D892A434D882A436A4DA8423C
:1021C0000BD06F4DA84208D0744DA84205D0744D75
:1021D000A84202D0734DA84213D14FF6F7752A409A
:1021E0004D892A434FF6FB752A408D882A434FF6C6
:1021F000FF652B404FF6FF552B408D892B43CD8932
:102200002B4383800483CD888586028470BD70B59E
:10221000002400220023058C4FF6EF76354005841C
:10222000028C8388048B48F6FF752C404FF6FF45DF
:102230002C400D884FF6FF7606EA05252C434FF615
:10224000DF752A400D8906EA05152A434D8806EAFE
:1022500005152A43444DA84202D0494DA8421DD13C
:102260004FF67F752A404D894FF6FF7606EA051531
:102270002A434FF6BF752A408D8806EA05152A4382
:102280004FF6FF352B404FF2FF752B408D8906EA44
:1022900085052B43CD8906EA85052B43838004837E
:1022A000CD880587028470BD70B50024002200230C
:1022B000058C4FF6FF6635400584028C8388848B3D
:1022C0004FF68F752C404FF6FC752C400D882C4333
:1022D0004FF6FF552A400D894FF6FF7606EA052591
:1022E0002A434D8806EA05252A431F4DA84202D0FD
:1022F000234DA8421DD14FF2FF752A404D894FF65C
:10230000FF7606EA05252A434FF6FF352A408D88D9
:1023100006EA05252A434EF6FF752B404DF6FF755C
:102320002B408D8906EA05152B43CD8906EA051554
:102330002B4383808483CD888587028470BD70B5EC
:10234000002200230024058C4EF6FF7635400584DC
:10235000038C8488828B48F6FF752A404FF6FF4530
:102360002A400D8820E00000002C014000040040BD
:1023700000080040000C0040001000400014004025
:1023800000340140004C0140005001400054014025
:1023900000180040001C00400020004000400140A8
:1023A00000440140004801404FF6FF7606EA05254B
:1023B0002A434DF6FF752B400D8906EA05352B4360
:1023C0004D8806EA05352B43FA4DA84202D0FA4D56
:1023D000A84208D14BF6FF752C408D894FF6FF7649
:1023E00006EA85152C4384808283CD88A0F840506E
:1023F000038470BD828B4FF2FF331A408283828B3D
:102400004FF6FF7303EA01231A4382837047F0B546
:102410000C461546002200210026078C4EF6FF7C54
:1024200007EA0C070784828B018C4FF6FF7707EAD7
:10243000043640F6FF473A404FF6FF7707EA052794
:102440003A434FF6FF7707EA03373A43D94FB8428A
:102450000ED0D94FB8420BD0B0F1804F08D0D74F33
:10246000B84205D0D64FB84202D0D64FB84206D1B6
:102470004DF6FF77394046F48057394305E047F67B
:10248000FF57394044F48057394382830184F0BDBB
:10249000828B4FF6F3731A408283828B0A438283C6
:1024A0007047F0B50C461546002200210026078C27
:1024B0004FF6FF6C07EA0C070784828B018C4FF6FE
:1024C000FF7707EA04264FF60C773A404FF6FF777E
:1024D00007EA03172F433A43B64FB8420ED0B64F20
:1024E000B8420BD0B0F1804F08D0B44FB84205D0FD
:1024F000B34FB84202D0B34FB84206D14FF6FF57A0
:10250000394046F48077394305E04FF2FF573940B0
:1025100044F48077394382830184F0BD028B4FF20B
:10252000FF331A400283028B4FF6FF7303EA012345
:102530001A4302837047F0B50C461546002200216D
:102540000026078C4FF6EF7C07EA0C070784028B06
:10255000018C4FF6FF7707EA041640F6FF473A4032
:102560004FF6FF7707EA03373A434FF6FF7707EA5C
:1025700005273A438F4FB8420ED08F4FB8420BD049
:10258000B0F1804F08D08D4FB84205D08C4FB84283
:1025900002D08C4FB84206D14FF6DF77394046F073
:1025A0001007394305E04FF65F77394044F01007D4
:1025B000394302830184F0BD028B4FF6F3731A4056
:1025C0000283028B0A4302837047F0B50C4615461E
:1025D00000220021068C4FF6FE773E400684028BD7
:1025E000018C4FF60C7632407E1C06EA03162E4311
:1025F0003243704EB0420ED06F4EB0420BD0B0F1AD
:10260000804F08D06D4EB04205D06D4EB04202D022
:102610006C4EB04206D14FF6FD76314044F00106D3
:10262000314305E04FF6F576314044F00106314381
:1026300002830184F0BD70B505460C465D488542B5
:102640000ED05D4885420BD0B5F1804F08D05B4875
:10265000854205D05A48854202D05A48854200D169
:1026600000E000BF208850B92389A28861882846ED
:10267000FFF7ABFFE1882846FFF79EFF25E02088A3
:1026800004280AD12389A28861882846FFF753FFCE
:10269000E1882846FFF742FF17E0208808280AD182
:1026A0002389A28861882846FFF7FBFEE188284637
:1026B000FFF7EEFE09E02389A28861882846FFF72C
:1026C000A6FEE1882846FFF795FE70BD2DE9F04192
:1026D00005460C4600260127608808B9022600E05E
:1026E0000026A088012801D1022700E001272088C8
:1026F000A0B92389A28861882846FFF766FFE18890
:102700002846FFF759FF23893A4631462846FFF706
:1027100012FFE1882846FFF701FF13E02389A28812
:1027200061882846FFF707FFE1882846FFF7F6FE95
:1027300023893A4631462846FFF747FFE188284675
:10274000FFF73AFFBDE8F0810A884B881A438B886F
:102750001A43CB881A430B891A434B891A438B8936
:102760001A43A0F8442070474FF6FF718180002182
:102770000180C18041800172704700210180418049
:102780008180C180018141818181C18170470021A7
:1027900001804180012181800021C1800181704739
:1027A0000021018041808180C1800181418181813E
:1027B00070470000002C014000340140000400403C
:1027C00000080040000C004021B1028842F00102E4
:1027D000028004E002884FF6FE731A4002807047C0
:1027E00031B1B0F8442042F40042A0F8442005E0A2
:1027F000B0F84420C2F30E02A0F8442070471AB18A
:1028000083890B43838102E083898B4383817047F3
:102810008182704741EA0203A0F8483070471AB13C
:1028200083890B43838102E083898B4383817047D3
:1028300001894FF6F8721140018170470A46002164
:1028400001894FF68F73194011430181704730B5EC
:1028500004460D4629462046FFF7F0FF208940F048
:102860000700208130BD2DE9F04104460D46164693
:102870001F46602D06D13B46012231462046FFF718
:102880005AFE05E03B46012231462046FFF79DFEF9
:1028900029462046FFF7D2FF208940F0070020811B
:1028A000BDE8F08130B50C4600210189C9B24FF670
:1028B000FF7505EA0325154325432943018130BDF2
:1028C0002DE9F04105460E4617469846002443463A
:1028D0003A4631462846FFF7E5FF2C894FF6F87057
:1028E000044044F007044FF68F70044044F0700435
:1028F0002C81BDE8F081F0B504460D4616461F4612
:102900003B46324629462046FFF7CCFF208940F45B
:1029100080402081F0BD0185828270470A460021F7
:1029200001884FF68F731940114301807047F0B54D
:102930000C4615461E460021002200230189028B09
:10294000038C4FF6F877394021434FF6FC473A4065
:1029500040F201173A434FF6DD773B404FF6FF77E1
:1029600007EA06172F433B43018102830384F0BD2E
:102970000A460021018B4FF68F73194011430183E2
:1029800070470A460021018B48F6FF7319404FF645
:10299000FF7303EA02231943018370470A460021AB
:1029A000818B4FF68F7319401143818370470A461C
:1029B0000021818B48F6FF7319404FF6FF7303EA3D
:1029C000022319438183704721B1028842F08002BB
:1029D000028004E002884FF67F731A40028070473D
:1029E00021B1828842F00402828004E082884FF69E
:1029F000FB731A408280704721B1828842F008023E
:102A0000828004E082884FF6F7731A408280704714
:102A100021B1828842F00102828004E082884FF670
:102A2000FE731A40828070470A460021018B4FF6E0
:102A3000F77319401143018370470A460021018B47
:102A40004FF2FF7319404FF6FF7303EA0223194355
:102A5000018370470A460021818B4FF6F7731940B6
:102A60001143818370470A460021818B4FF2FF7327
:102A700019404FF6FF7303EA02231943818370471D
:102A80000A460021018B4FF6FB7319401143018365
:102A900070470A460021018B4FF6FF3319404FF66D
:102AA000FF7303EA02231943018370470A4600219A
:102AB000818B4FF6FB7319401143818370470A469F
:102AC0000021818B4FF6FF3319404FF6FF7303EA65
:102AD00002231943818370470A460021018B4FF678
:102AE0007F7319401143018370470A460021018B0F
:102AF000C1F30E014FF6FF7303EA0223194301836A
:102B000070470A460021818B4FF67F7319401143AD
:102B1000818370470A460021818BC1F30E014FF675
:102B2000FF7303EA02231943818370470A46002199
:102B3000018C4FF6FD7319401143018470470A461A
:102B40000021018C4FF6F77319401143018470473F
:102B50000A460021018C4FF6DF7319404FF6FF73D0
:102B600003EA02131943018470470A460021018CCD
:102B70004FF67F7319404FF6FF7303EA02131943B0
:102B8000018470470A460021018C4FF6FF5319401B
:102B90004FF6FF7303EA02231943018470470A4684
:102BA0000021018C4FF2FF7319404FF6FF7303EAC7
:102BB00002231943018470470A460021018C4DF617
:102BC000FF7319404FF6FF7303EA02331943018480
:102BD000704730B5002301248C40A3B2048C9C4381
:102BE0000484048C02FA01F5ADB22C43048430BD98
:102BF00030B5002304248C40A3B2048C9C4304848D
:102C0000048C02FA01F5ADB22C43048430BD70B5DA
:102C10000346002000241846183001258D40ACB230
:102C20001D8CA5431D8409B1082909D100EB610061
:102C3000056825F0700505600568154305600EE020
:102C40000D1FC5F34E052844056825F4E0450560D1
:102C500005684FF6FF7606EA02263543056070BD2B
:102C600021B1028842F00202028004E002884FF69D
:102C7000FD731A400280704721B1028842F00402BD
:102C8000028004E002884FF6FB731A40028070470E
:102C900021B1828842F08002828004E082884FF66F
:102CA0007F731A408280704702884FF6F7731A408C
:102CB000028002880A430280704782884FF68F7331
:102CC0001A40828082880A438280704702894FF6C8
:102CD000F8731A40028102890A430281704702890F
:102CE0004FF67F731A40028102890A4302817047BE
:102CF000818470478185704781867047018770475E
:102D000081877047A0F84010704702884FF6FF4354
:102D10001A40028002880A43028070470146888E6A
:102D200070470146088F70470146888F70470146FB
:102D3000B1F8400070470146888C70470146088D05
:102D4000704702460020138A0B400BB1012000E0BF
:102D500000207047CA430282704730B50246002007
:102D600000230024158A05EA0103958905EA010478
:102D700013B10CB1012000E0002030BDCA43028233
:102D80007047000010B50446FB48844209D1012178
:102D90008803FEF719FF00214FF48040FEF714FF6F
:102DA00032E0F648844209D101214804FEF719FFB8
:102DB00000214FF40030FEF714FF25E0F048844274
:102DC00009D101218804FEF70CFF00214FF4802077
:102DD000FEF707FF18E0EB48844209D10121C8043F
:102DE000FEF7FFFE00214FF40020FEF7FAFE0BE095
:102DF000E548844208D101210805FEF7F2FE0021D2
:102E00004FF48010FEF7EDFE10BD2DE9F04786B0BF
:102E100005460E460024A24600BFA1460027B08901
:102E200000B100BF2F462C8A4CF6FF700440F0889A
:102E300004432C82AC894EF6F3100440B0883189EB
:102E40000843718908430443AC81AC8A4FF6FF40C4
:102E50000440B0890443AC8201A8FEF72EFEC648A8
:102E6000874202D1DDF810A001E0DDF80CA0A889AE
:102E700000F4004040B10AEBCA0000EB0A103168D0
:102E80004900B0FBF1F807E00AEBCA0000EB0A10BA
:102E900031688900B0FBF1F86420B8FBF0F0040160
:102EA0002009642101FB1089A88900F4004040B189
:102EB000322000EBC900B0FBF1F000F00700044342
:102EC00008E0322000EB09106421B0FBF1F000F0C3
:102ED0000F0004432C8106B0BDE8F0874FF4165173
:102EE000016000218180C18001810C21418100218C
:102EF0008181704710B502460020108A4FF2FF030F
:102F000018400B884C8823438C882343CC88234368
:102F10001843108210BD0021018041808180C18052
:102F2000704721B1828942F40052828104E0828993
:102F30004DF6FF731A4082817047F0B503460024B6
:102F400000260025002040F66A17B94200D100BFD4
:102F50001846C1F3421401F01F06012707FA06F5CF
:102F6000012C01D10C3004E0022C01D1103000E022
:102F700014301AB107682F43076002E00768AF43B7
:102F80000760F0BD1AB1838A0B43838202E0838A13
:102F90008B4383827047028A4FF6F0731A40028295
:102FA000028A0A430282704782894FF2FF731A40F5
:102FB000828182890A438281704721B1828942F0ED
:102FC0000202828104E082894FF6FD731A408281F9
:102FD0007047028A4FF6DF731A400282028A0A4360
:102FE0000282704721B1028A42F48042028204E0E8
:102FF000028A4BF6FF731A4002827047C1F308023F
:103000008280704701468888C0F308007047818934
:1030100041F0010181817047028BD2B20283028BA1
:1030200042EA012202837047028B02F47F4202834C
:10303000028B0A430283704721B1828A42F0200248
:10304000828204E0828A4FF6DF731A4082827047E0
:1030500021B1828A42F01002828204E0828A4FF615
:10306000EF731A408282704721B1828A42F00802CF
:10307000828204E0828A4FF6F7731A408282704798
:1030800021B1828942F40042828103E08289C2F345
:103090000E028281704721B1828A42F400628282EC
:1030A00004E0828A4FF2FF731A4082827047828A5C
:1030B0004FF6FB731A408282828A0A4382827047EB
:1030C00021B1828A42F00202828204E0828A4FF6B3
:1030D000FD731A408282704702460020B1F5007FDE
:1030E00000D100BF13880B400BB1012000E000208D
:1030F000704701F40072B2F5007F00D100BFCA43EF
:103100000280704770B5024600240023002500208D
:1031100040F66A16B14200D100BFC1F3421501F07A
:103120001F03012606FA03F3012D02D196893340CD
:1031300006E0022D02D1168A334001E0968A334020
:103140000C12012606FA04F41688344013B10CB1AF
:10315000012000E0002070BD10B50022002340F6E1
:103160006A14A14200D100BF0A1201249440A3B204
:10317000DC43048010BD00000038014000440040E2
:1031800000480040004C00400050004010B56FF077
:103190000400FDF7CCFC2E4800682E49B0FBF1F08E
:1031A0002D4908700846007800EB4001C1EBC010C3
:1031B0004FF6FF7101EAC0002849088010BD0146A2
:1031C000254A12784A434FF0E0235A6100229A615F
:1031D0001A46126942F001021A6100BF4FF0E02264
:1031E000106900F001021AB100F48032002AF5D013
:1031F0004FF0E022126922F001024FF0E0231A6141
:1032000000229A6170470146144A12884A434FF0DF
:10321000E0235A6100229A611A46126942F00102C3
:103220001A6100BF4FF0E022106900F001021AB1EC
:1032300000F48032002AF5D04FF0E022126922F02B
:1032400001024FF0E0231A6100229A6170470000EA
:103250007400002000127A009C0000209E000020D4
:1032600010B54FF4A060FDF713FC10BD014600BF80
:10327000704700BFC44A128802F04002002AF9D009
:10328000C2B2C14B1B1D1A80704710B586B00446F0
:10329000012144F20400FEF77DFC4FF40070ADF80C
:1032A000140003208DF8160018208DF8170005A9CA
:1032B000B648FEF7B3F94FF48060ADF8140004206F
:1032C0008DF8170005A9B148FEF7A8F925208DF85B
:1032D000000003208DF801008DF8020001208DF818
:1032E00003006846FDF7D9FB01940020ADF8080003
:1032F000ADF80A00ADF80C00ADF810000C20ADF8E8
:103300000E0001A9A048FFF780FD012240F22551DF
:103310009D48FFF712FE01219B48FFF702FE06B011
:1033200010BD10B540F225519748FFF7EBFE10B3E2
:103330009548FFF767FEC4B29548008800F4004046
:10334000C8B99348008800F4804060B10A2C03D0CB
:1033500000208F49088020E08D48008840F400401C
:103360008B49088019E00D2C06D18948008840F46B
:1033700080408749088010E085480088C0F30D0030
:1033800084490C5482480088401C814908800846C2
:103390000088C72801DD0020088010BD10B586B068
:1033A000044601211020FEF7F5FB0121C804FEF7B9
:1033B000FEFB4FF48060ADF8140003208DF816007A
:1033C00018208DF8170005A97348FEF727F94FF468
:1033D0000060ADF8140004208DF8170005A96E48B0
:1033E000FEF71CF934208DF8000003208DF8010051
:1033F0008DF8020001208DF803006846FDF74DFBB3
:1034000001940020ADF80800ADF80A00ADF80C00FA
:10341000ADF810000C20ADF80E0001A95F48FFF7D1
:10342000F4FC012240F225515C48FFF786FD0121A2
:103430005A48FFF776FD06B010BD10B540F2255191
:103440005648FFF75FFE10B35448FFF7DBFDC4B2E8
:103450005348008800F40040C8B95148008800F47F
:10346000804060B10A2C03D000204D49088020E044
:103470004B48008840F400404949088019E00D2C71
:1034800006D14748008840F480404549088010E054
:1034900043480088C0F30D0042490C54404800885E
:1034A000401C3F49088008460088C72801DD0020ED
:1034B000088010BD10B586B0044601218804FEF7CF
:1034C00076FB01210820FEF765FB4FF48060ADF824
:1034D000140003208DF8160018208DF8170005A998
:1034E0003148FEF79BF84FF40060ADF8140004205B
:1034F0008DF8170005A92C48FEF790F827208DF8C5
:10350000000003208DF801008DF8020001208DF8E5
:1035100003006846FDF7C1FA01940020ADF80800E9
:10352000ADF80A00ADF80C00ADF810000C20ADF8B5
:103530000E0001A91D48FFF768FC012240F2255149
:103540001A48FFF7FAFC01211848FFF7EAFC06B019
:1035500010BD10B540F225511448FFF7D3FD90B1CE
:103560001248FFF74FFDC4B211481249098844546C
:1035700010480088401C0F49088008460088C7286A
:1035800001DD0020088010BD003801400008014026
:10359000A4000020E001002000100140004C004089
:1035A000A6000020A8020020000C014000480040B6
:1035B00070030020A800002008B501214803FEF791
:1035C000E9FA01210846FEF7E5FA01211020FEF78D
:1035D000E1FAC020ADF8000018208DF803000320A8
:1035E0008DF8020069465348FEF718F808BD30B55B
:1035F00087B005460C46ADF81450ADF810400020D9
:10360000ADF81200ADF816008DF8180004A94A486C
:10361000FEF77EFD7020ADF800000120ADF802003D
:103620000020ADF80400ADF806000220ADF8080057
:103630000020ADF80A004FF48070ADF80C000020B7
:10364000ADF80E0069463C48FEF79FFD0020ADF83E
:10365000060069463848FEF7DAFD01213648FFF7D3
:10366000B3F801213448FFF7BBF807B030BD08B507
:1036700001210C20FEF78EFA4FF47040ADF80000E7
:1036800010208DF8030003208DF8020069462B48B6
:10369000FDF7C4FF4FF470412848FEF76EF84FF471
:1036A0007060ADF8000069462548FDF7B7FF4FF49C
:1036B00070612348FEF761F808BD70B504460D46F9
:1036C000FFF77AFF29462046FFF791FF70BD08B546
:1036D00001210820FEF75EFA4FF47040ADF80000BB
:1036E00010208DF8030003208DF80200694613486E
:1036F000FDF794FF08BD08B501211020FEF74AFA36
:103700004FF44070ADF8000010208DF80300032046
:103710008DF8020069460748FDF780FF4FF480717D
:103720000448FEF728F84FF400710248FEF725F828
:1037300008BD00000010014000340140000C0140B1
:10374000000801402DE9F04F8DB0824614461D4619
:1037500025F000432646DAE9008121F00041324697
:10376000404602F019FFCAE90801DAE90A63324665
:1037700000204FF0804102F0CFFD8046DAE9086377
:10378000324602F0FDFECDE90001DAE90C63324673
:1037900002F0F2FACDE90201DAE90663324602F0FC
:1037A000BBFD0022FE4BCDE9040102F0B5FDCDE9E1
:1037B0000801DAE908633246DAE90481404602F09A
:1037C000ABFD4FF02042F74BCDE9000102F0A4FD24
:1037D000CDE90401DAE90A633246DAE908814046B4
:1037E00002F0DAFECDE90201DDE9042302F0C4FAB9
:1037F000CDE90601DDE9082302F0BEFACDE90A01B0
:10380000DAE90263324602F087FDCAE90E01DAE91D
:103810000A01CAE90C01DAE90801CAE90A01DAE990
:103820000E21104602F076FA834658460DB0BDE8E8
:10383000F08F2DE9FC5F04468B469246994609EBD2
:10384000C400D0E900530AEBC4002A46D0E9007155
:10385000384602F061FD00221346CDE9000102F076
:103860001FFD09D209EBC40103C90AEBC40203C25C
:1038700000200146BDE8FC9F09EBC400D0E9001020
:103880000AEBC402C2E9001009EBC40103C9F1E765
:103890002DE9F05F4FF0000800BF91E2C24BC34A30
:1038A000C3494046FFF7C5FFC24A02EB881203C274
:1038B000C04800EB8811D1E9006100221346304670
:1038C00002F028FE7ED20120BB4901F8080000204A
:1038D000BA4A02EBC80210605060B54901EBC80259
:1038E000B44901EB8810D2E900633246FFF72AFFA2
:1038F000814602F03BFF04460D460022B04B2046B5
:10390000294602F007FE01D20024AD4D0022AD4B46
:103910002046294602F0C4FC01D20024A94DAA4841
:1039200000EBC80022462B46D0E90061304602F089
:1039300023FAA54A02EBC80203C2A34800EBC80160
:10394000D1E900610022A14B304602F0E3FD06D828
:1039500000219E489C4A02EBC802C2E900109A4826
:1039600000EBC80000221346D0E90061304602F0A7
:1039700097FC05D80021944A02EBC80211605160FF
:10398000B8F1000F03D0B8F1010F38D11BE00120CE
:103990008F49086000208F49C1F8B0018A4800EBC8
:1039A000C80000221346D0E90061304602F0E4F975
:1039B000814602F031FC1FFA80FB59468648FFF72A
:1039C0009BF91DE01DE001208149091D08600020D0
:1039D0008049C1F8B4017C4800EBC80000221346BE
:1039E000D0E90061304602F0C7F9814602F014FCCC
:1039F0001FFA80FB59467848FFF780F900E000BFC6
:103A0000DAE16C4800EB8811D1E90061002213462D
:103A1000304602F045FC7CD20220674901F80800DC
:103A20000021694A02EBC80211605160604901EB54
:103A3000C801D1E900635F4901EB88103246FFF706
:103A400081FE814602F092FE04460D4600225C4B48
:103A50002046294602F05EFD01D20024584D002286
:103A6000584B2046294602F01BFC01D20024554D3C
:103A7000524800EBC80022462B46D0E90061304690
:103A800002F07AF94D4A02EBC80203C24B4800EB40
:103A9000C80000224D4BD0E90061304602F03AFDEB
:103AA00006D800214948454A02EBC802C2E9001085
:103AB000424800EBC80000221346D0E900613046BE
:103AC00002F0EEFB05D800213C4A02EBC80211606F
:103AD0005160B8F1000F03D0B8F1010F39D11CE0EB
:103AE00000203B49086001203A49C1F8B001334841
:103AF00000EBC80000221346D0E90061304602F016
:103B00003BF9814602F088FB1FFA80FB5946324898
:103B100000E020E0FFF7F0F81CE000202C49091D30
:103B2000086001202B49C1F8B401244800EBC8000B
:103B300000221346D0E90061304602F01DF98146AB
:103B400002F06AFB1FFA80FB59462348FFF7D6F8BC
:103B500000E000BF30E1174800EB88100022134658
:103B6000D0E90061304602F01BFBF3D1124810F897
:103B7000080001286FD10021104A02EBC802116031
:103B80005160114800EBC801D1E900614FF0663285
:103B9000124B304602F0C0FB0B4A02EBC8021FE09A
:103BA000000079409999993F480100205801002070
:103BB000D0010020B0000020300100204804002087
:103BC00000005940000059C03804002000E0854042
:103BD000B881214200802142003401406666EE3FF8
:103BE00003C27A4800EBC801D1E900610022784B9A
:103BF000304602F055FB05D20021744A02EBC802A0
:103C000011605160714800EBC8000022714BD0E98F
:103C10000061304602F07EFC05D800206D496B4AF9
:103C200002EBC80203C2694800EBC801D1E9006198
:103C300000221346304602F033FB05D80021634AC8
:103C400002EBC80211605160B8F1000F04D0B8F166
:103C5000010F2CD115E02CE001205F490860002005
:103C60005E49C1F8B001594800EBC800D0E9002115
:103C7000104602F0D1FA86B231465948FFF73CF8B7
:103C800016E001205449091D086000205349C1F87D
:103C9000B4014E4800EBC800D0E90021104602F004
:103CA000BBFA86B231464E48FFF728F800E000BF65
:103CB00000BF4C4810F8080002287DD10020434A7C
:103CC00002EBC80210605060474800EBC801D1E920
:103CD00000614FF06632454B304602F01DFB424A10
:103CE00002EBC80203C2404800EBC801D1E9006101
:103CF0000022374B304602F0D3FA05D200213A4A6F
:103D000002EBC80211605160374800EBC800002286
:103D1000304BD0E90061304602F0FCFB06D80021B0
:103D20002C48314A02EBC802C2E900102E4800EBD1
:103D3000C80000221346D0E90061304602F0B0FA14
:103D400005D80021284A02EBC80211605160B8F181
:103D5000000F03D0B8F1010F2CD114E000201E4950
:103D6000086001201D49C1F8B0011F4800EBC800E0
:103D7000D0E90021104602F04FFA86B231461848C9
:103D8000FEF7BAFF17E000201349091D0860012063
:103D90001249C1F8B401144800EBC800D0E9002171
:103DA000104602F039FA86B231460D48FEF7A6FFFA
:103DB00001E001E000BF00BF08F1010000F0FF08D2
:103DC000B8F1020FFFF66AADBDE8F09F380400209D
:103DD0000000494000E08540B88121420080214236
:103DE0000034014030010020480400206666EE3FA8
:103DF00008B501210C20FDF7CDFE01210846FDF795
:103E0000C9FE01218548FDF7DAFC01218448FDF750
:103E1000D6FC6846FDF78DFC4FF40040ADF800007D
:103E200004208DF8030003208DF8020069467D48C8
:103E3000FDF7F4FBC820ADF8000004208DF8030066
:103E400003208DF8020069467748FDF7E7FB08BDBF
:103E500008B54FF4A060FCF71BFE1C208DF8000095
:103E600000208DF8010002208DF8020001208DF85D
:103E700003006846FCF711FE4FF4A060FCF708FE53
:103E80001E208DF8000000208DF8010002208DF822
:103E9000020001208DF803006846FCF7FEFD4FF498
:103EA000A060FCF7F5FD37208DF8000000208DF8AC
:103EB000010001208DF802008DF803006846FCF730
:103EC000ECFD08BD30B587B005460C460121052044
:103ED000FDF76DFE4FF08040FEF746F85348FEF7C1
:103EE00043F801A8FEF740FCADF80850ADF80440D7
:103EF0000020ADF80A00ADF806008DF80C0001A90D
:103F00004FF08040FEF704F901A8FEF72DFCADF854
:103F10000850ADF804400020ADF80A00ADF80600E6
:103F20008DF80C0001A94148FEF7F2F800231A466B
:103F300003214FF08040FEF7FAFC00231A460321CC
:103F40003A48FEF7F4FC04A8FEF721FC0320ADF884
:103F5000180004A94FF08040FEF76DFB012188078F
:103F6000FEF7F8FE012211469007FEF748FC0021FB
:103F70004FF08040FEF7BCFE01218807FEF724FCCD
:103F800004A8FEF704FC0320ADF8180004A9274894
:103F9000FEF751FB01212548FEF7DCFE0122114608
:103FA0002248FEF72CFC00212048FEF7A1FE01214B
:103FB0001E48FEF709FC07B030BD3EB505460C466D
:103FC00001212020FDF7F3FDADF80050ADF80440CD
:103FD0000020ADF80600ADF802008DF80800694633
:103FE0001348FEF795F801211148FEF7EDFB012279
:103FF00011460F48FEF703FC3EBD10B5FFF7F8FE73
:10400000FFF726FF002140F2F310FFF75BFF41F6B8
:104010001F411820FFF7D1FF10BD0000000318005A
:104020000002300000080140000C01400008004080
:104030000014004000B589B001210920FDF7AAFD58
:1040400001214806FDF7B3FD01214FF4EA10FDF709
:10405000B6FB03208DF816004FF48070ADF8140005
:1040600048208DF8170005A96148FDF7D7FA4FF4ED
:104070000070ADF8140018208DF8170005A95C48F1
:10408000FDF7CCFA14208DF8100000208DF81100F7
:104090008DF8120001208DF8130004A8FCF7FDFC38
:1040A0005448FCF763FD06A8FCF784FE01208DF858
:1040B0001F008DF8200000208DF81B0004208DF8D3
:1040C0001C0002208DF81D000420ADF8180006A980
:1040D0004848FCF764FD00208DF80A008DF80B00BD
:1040E00001208DF80C004020ADF800000020ADF854
:1040F0000200ADF80400ADF80600ADF8080001209C
:104100008DF80D006846FCF7D4FD012202213948E4
:10411000FDF7CEF809B000BD10B53748407A002849
:1041200052D1354800680F2806D0172827D01F28FD
:1041300036D0272845D145E02F48D0F80B002F492D
:104140000860084601682E4802F09EFB044602F013
:104150000DFB2C4A03C22848D0F80F0027490860FD
:1041600008460168264802F08FFB044602F0FEFA7A
:10417000244AC2E9020100202349086023E01E48C6
:10418000D0F80B001D49086020491C48006802F067
:104190007BFB044602F0EAFA1A4AC2E9060112E081
:1041A0001548D0F80B0015490860184913480068F5
:1041B00002F06AFB044602F0D9FA124AC2E904018D
:1041C00000BF00BF00BF00BF10BD10B502210948ED
:1041D000FDF7D6F850B1084A00210648FCF74DFF1C
:1041E000FFF79AFF02210348FDF7CAF810BD00004F
:1041F000000C0140006400406C04002038010020E5
:104200000000F041480100205000002000803B44A5
:1042100000B587B001211420FDF7BCFC1020ADF8DB
:1042200018008DF81B0003208DF81A0006A9B64867
:10423000FDF7F4F91021B448FDF79FFA2020ADF8FE
:10424000180006A9B148FDF7E9F91020ADF81800EB
:1042500048208DF81B0006A9AC48FDF7DFF9302196
:10426000AA48FDF78AFA00F08CF90021A848FDF76A
:10427000C0FD0020ADF804004FF48270ADF80600D8
:104280000020ADF80800ADF80A00ADF80C004FF4BE
:104290000070ADF80E001820ADF810000020ADF849
:1042A00012000720ADF8140001A99948FDF7FCFCA5
:1042B00001219748FDF79DFD0020964908600120E7
:1042C0009549C1F8900107B000BD2DE9F0410746BE
:1042D0000D461646002091490860384600F02AF93C
:1042E0008046002405E0FF2000F024F92855601CDA
:1042F000C4B2B442F7DB0120884908604046BDE8FB
:10430000F0812DE9F04107460C461546002083490F
:104310000860384600F00EF98046002605E014F8E3
:10432000010B00F007F9701CC6B2AE42F7DB0120AA
:104330007A4908604046BDE8F0811CB578A103C900
:10434000CDE90001082000F060F90522694630201F
:10435000FFF7D7FF052269461020FFF7B6FF0024BC
:1043600006E01DF80400A52800D003E0601CC4B2DC
:10437000052CF6DB00BF052C01D001201CBD002060
:10438000FCE770B505460C460020644908602846E5
:1043900000F0D0F80646204600F0CCF801205E4937
:1043A000C1F89001304670BD70B5044600205B49ED
:1043B0000860204600F0BEF8FF2000F0BBF805467C
:1043C00001205549C1F89001284670BD70B50546D9
:1043D000102000F01AF900204E49086020222946DA
:1043E000A020FFF78EFF01204F49C1F8940100BFC4
:1043F0004848843800680028FAD10720FFF7D4FF26
:10440000044621462720FFF7BCFF04F0100028B126
:10441000FF21E120FFF7B5FF102070BD04F0200060
:1044200008B12020F9E7FF20F7E770B50446102017
:1044300000F0EBF80720FFF7B7FF054629462720D5
:10444000FFF79FFF05F0400050B120222146612078
:10445000FFF73BFFFF21E220FFF793FF002070BD35
:104460000120FCE710B500202A49086005222F49E9
:104470002A20FFF746FF01212120FFF782FF0121BB
:104480002220FFF77EFF28212520FFF77AFF202139
:104490003120FFF776FF0F212620FFF772FF0F2153
:1044A0002020FFF76EFF01201F49C1F8940110BDC5
:1044B00010B500201749086005221D493020FFF77C
:1044C00020FF052219492A20FFF71BFF0121212087
:1044D000FFF757FF01212220FFF753FF1A21242065
:1044E000FFF74FFF28212520FFF74BFF0F21262044
:1044F000FFF747FF0E212020FFF743FF01200A4965
:10450000C1F8940110BD00000008014000100140F6
:1045100000300140940122420000214290012142DA
:10452000A5A5A5A5A5000000000022420B6C00086F
:10453000066C000870B50546002405E0601CC4B296
:10454000C82C01DD002070BD02213948FDF7D5FCE3
:104550000028F3D029463648FDF77CFC002405E00E
:10456000601CC4B2C82C01DD0020ECE701213048FA
:10457000FDF7C3FC0028F3D02D48FDF76DFCC0B259
:10458000E1E700B587B001210420FDF703FB01211D
:104590000803FDF7FFFAE020ADF8180018208DF8A9
:1045A0001B0003208DF81A0006A92248FDF736F8F3
:1045B000E0212048FDF7DFF80020ADF804004FF4BB
:1045C0008270ADF806000020ADF808000220ADF8BA
:1045D0000A000120ADF80C004002ADF80E003820B2
:1045E000ADF810000020ADF812000720ADF814005F
:1045F00001A90F48FDF758FB01210D48FDF7F9FB14
:10460000FF20FFF797FF07B000BD10B5044608482C
:1046100000884FF6C77108400549088008460088A1
:104620002043088001210248FDF7E3FB10BD000094
:1046300000300140000801407FB505460C460121CD
:104640000220FDF7B4FA3648FDF78EFCADF80850AD
:10465000ADF804400020ADF80A00ADF8060001A94D
:104660002F48FDF755FD012211462D48FEF7C7F8EA
:104670001D208DF8000000208DF8010003208DF82A
:10468000020001208DF803006846FCF706FA0121BC
:104690002348FEF799F87FBD70B505460E46002405
:1046A0000CE0295D1F48FEF7A9FC00BF40211D4812
:1046B000FEF712FD0128F9D1601CC4B2B442F0DB50
:1046C00070BD10B501211648FEF747FB38B3012134
:1046D0001348FEF753FB14480068401C1249086059
:1046E000084600680C281AD3002008600F4800789C
:1046F000C0430E4908700846007840B10B210C48B1
:10470000FFF7CAFF0B210B48FFF7C6FF07E00B219D
:104710000948FFF7C1FF0B210848FFF7BDFF10BD97
:1047200000040040004C00403C01002040010020FB
:1047300020000020360000202B0000204100002037
:1047400070474FF0000200B5134694469646203954
:1047500022BFA0E80C50A0E80C50B1F12001BFF43A
:10476000F7AF090728BFA0E80C5048BF0CC05DF8A0
:1047700004EB890028BF40F8042B08BF704748BFEE
:1047800020F8022B11F0804F18BF00F8012B704762
:10479000704770477047704710B500F059F80068CF
:1047A00010BD10B5044600F053F8046010BD0000C1
:1047B0000FB4002300B589B00CA900910B99CB6010
:1047C000204B7B440693204B7B44079304236FF0DC
:1047D0000042CDE901321D4A7A446B4608920246F6
:1047E000002002F0F2F909B05DF814FB70B506463E
:1047F0004FF0FF3015460C46324686B00091CDE9A9
:10480000010169460020049004A8FFF7D1FF034688
:104810000498211825B108B10A4600E022462A6012
:1048200000280DD0002B02DD0098884208D03246C7
:10483000081B69460094CDE9010404A8FFF7B8FFFE
:1048400006B070BDA5000000BD0000007D000000A6
:10485000004870478004002010B5044600F050F86E
:104860000068005D00F0010010BD426842B10168BF
:1048700011F8013B23B1521EC0E9001218467047DF
:104880000121C160881E704742685AB1C36801683F
:1048900043B983688B4205D0491E521CC0E90012FF
:1048A000002070474FF0FF3070470000004870470D
:1048B000800400207546FFF7F9FFAE460500694603
:1048C000534620F00700854618B020B5FCF7CEF817
:1048D000BDE820404FF000064FF000074FF0000801
:1048E0004FF0000B21F00701AC46ACE8C009ACE882
:1048F000C009ACE8C009ACE8C0098D4670470000AB
:1049000010B500F09DFA001D10BD00BFDD130000C2
:104910002DE9FF4F064689B00878FF2806D0491CCC
:104920002D2805D000244FF0000908E000200CE0FD
:104930000124F8E709EB8903491C00EB43090878D7
:10494000FF28F7D114B1C9F1000081461078002585
:104950002C46AA4629462D2801D02B2804D1521CCA
:104960002D2813D0002082468B461078FF280FD0C8
:104970004FF0000C0A21521CA5FB017804FB0181B9
:1049800005FB0C11C5194BEB0104EEE70120EAE72A
:10499000002108464FF00000BAF1000F02D000EBF2
:1049A00080004008C0F38158B8F1010F01DD4FF0DD
:1049B000FF380C9809EB000755EA040009D04FF0C6
:1049C000020917F5FA7F0BDA4FEACA70C6E900B0A0
:1049D00012E04FEACA70C6E900B00DB0BDE8F08F32
:1049E000B7F5FA7F0DDDF0487844D0E90010C6E94C
:1049F000001040EACA707060FFF72AFFC0F800900C
:104A0000EBE7391E02DAC8F1000200E0424600DAA4
:104A1000794206A800F018FA06AB93E8070003AB4A
:104A200083E8070044F23E005BEA04010090584628
:104A300004D144F21E012C465D460091210C09046C
:104A4000014306D10099240444EA15442D04103989
:104A5000009104F07F41014306D10099240244EA09
:104A600015642D020839009104F07041014306D10C
:104A70000099240144EA15742D01091F009104F0E6
:104A80004041014306D10099A40044EA9574AD0069
:104A9000891E009104F00041084304D100986D196B
:104AA0006441401E009042466846002FCDE9014512
:104AB00003A902DD00F0E3FE01E000F0B8FEBAF168
:104AC000000F04460D4601D084F0004440F2FF7709
:104AD00024F00040284303D0C4F30A50B84212D156
:104AE000FFF7B6FEC0F80090C4F30A50B8420AD1EE
:104AF000AE487844D0E90010C6E9001004F0004147
:104B00000843706069E7C6E9005466E72DE9FF4F86
:104B10001F464FF0000A4FF0FF38454691B0D7E9E5
:104B20000146CDF83CA000F08BF9C0680168405CFC
:104B30001090B96912986D1C8847396A8146884778
:104B40000028F6D1B9F1FF3F0AD0002E24F4D0643A
:104B500011DDB9F12B0F08D0B9F12D0F0BD102E007
:104B6000404615B03AE744F48064B96912986D1C68
:104B70008847761E8146600504A901D52D2000E0F6
:104B80002B20002E01F1010B0DF130088DF81000E3
:104B90003FDDB9F1690F08D0B9F1490F05D0B9F17E
:104BA0006E0F02D0B9F14E0F1CD13B4601A8009503
:104BB00080E85002DDE912126FF0020002F009F8FD
:104BC000C11CCED10EE0B96912986D1C8847814690
:104BD0001398761E44F4007405600F98401C002E54
:104BE0000F9016DDB9F1300FEDD0B9F1780F02D08A
:104BF000B9F1580F0DD10F9801280AD13B46CDE9E4
:104C00000054DDE91212001F029601F0E0FFC11C02
:104C1000A7D1109989453ED144F0800406E013994C
:104C2000681CAAF1010A44F400740860B9696D1C9B
:104C30001298761E884730288146F0D02BE01099D4
:104C4000894505D1200603D4761E44F0800418E07F
:104C5000484600F0B0FF08B3761E0DF123018B45E6
:104C600044F4007408D2A9F130000BF8010B2006BF
:104C700007D5AAF1010003E0200602D40AF10100E1
:104C80008246A00502D51399681C0860B96912987C
:104C90006D1C88478146002ED1DC53E0002E51DD8B
:104CA000B9F1650F02D0B9F1450F4BD1A00549D537
:104CB000B9696D1C1298761E24F440748847002E42
:104CC00081460CDD2B2804D0B9F12D0F07D144F417
:104CD0008074B96912986D1C8847761E8146E0057C
:104CE00001D52D2100E02B2108F8011BCDF8008013
:104CF00021E0761E0DF13901884544F400740CD290
:104D0000A9F1300010F0FF0088F8000002D10099EE
:104D1000884509D908F1010806E0E00501D52448D5
:104D200001E042F20F708246B96912986D1C884703
:104D3000814613980560002E04DD484600F03BFFD5
:104D40000028D6D1F96912988847FF2053468BF87E
:104D5000000088F8000000200A900B9004AA0CA91B
:104D60000AA8FFF7D5FDA00502D46FF00100F8E610
:104D700014F0240F0AD0E00714D13868DDE90A12D4
:104D8000031D3B600068C0E900120BE00AA96846F9
:104D900000F0BAFEE00705D13868009A011D3960BD
:104DA000006802602846DCE6D8220000CE21000020
:104DB000F1D8FFFF0446AFF300802046FBF72DFA41
:104DC0004FF0013C50F8042B51F8043B9A4221D19A
:104DD000A2EB0C03934313EACC1317D150F8042B26
:104DE00051F8043B9A4215D1A2EB0C03934313EA0A
:104DF000CC130BD150F8042B51F8043B9A4209D143
:104E0000A2EB0C03934313EACC13DBD04FF000006A
:104E1000704700BFD01A01BAB1FA81F101F0180150
:104E200022FA01F0CB40C1F12001DBB2C0B2C01ABE
:104E30002CFA01F3D11A914311EAC311E6D170475C
:104E400000487047A00400202DE9F047814616462F
:104E50008AB0334878440DC88DE80D003048784456
:104E6000801C03AC0DC884E80D0041F69B3008445B
:104E7000372190FBF1F290FBF1F5A5F1800501FBE4
:104E800012041B3C02D56442012000E00020DFF840
:104E900090A080460027FA44AAF1BE0A0DE0E00780
:104EA00009D03246684607EB47010AEB810100F062
:104EB000D2FC8DE8070064107F1C002CEFD1184F46
:104EC0007F44AC3F18E0E80714D007EB04100DF165
:104ED000180A90E80E008AE80E00C068F04201D17E
:104EE00098190890324606A903A800F0B4FC03AB59
:104EF00083E807006D10641C002DE4D1324669463A
:104F0000B8F1000F03A802D000F07DFC01E000F032
:104F1000A2FCC9E90001C9F808200AB0BDE8F08781
:104F2000341E00002DE9FF4F1F464FF03C0987B0AB
:104F30004FF00042DDE9141001F10108DDF858A03E
:104F400002EA405003900020049083460546044640
:104F50000590B969461E08988847AAF1010A02908F
:104F6000BAF1000F37DD02982E2815D0102100F07D
:104F700012FA00282ADB4FF0010B0499014316D0E6
:104F8000B9F1000F0BDB4A46C11700F0F1F90543F8
:104F90000C43A9F1040905E00120059007E008B1E0
:104FA00045F0010501200490059800B9361DB96946
:104FB000089808F101088847BBF1000FAAF1010A1F
:104FC0000290CDD00999C1F80080C9E702987028F5
:104FD00008D0502806D0F96908988847BBF1000F1F
:104FE00014D04FE0002002900120BBF1000F04908C
:104FF00009D0B969089808F101088847AAF10109A0
:10500000B9F1000F07DCF969089888476FF00100D3
:105010000BB0BDE8F08F2B2804D02D280CD14FF019
:10502000FF300490B969089808F101088847A9F190
:105030000109B9F1000FE6DD411CE4D00A2100F0BE
:10504000AAF90028DFDB029908F1010801EB8101D0
:1050500000EB41000290B969089888470A2100F0E6
:105060009AF9099AA9F10109B9F1000FC2F8008073
:1050700001DD0028E7DAF969089888470499029861
:1050800000FB016655EA040004D004F04041090029
:1050900002D006E0039898E0A40044EA9574AD00BD
:1050A000B61E04F00041080002D16D196441761E5D
:1050B000159810F0240F03D04FF00B095C4803E063
:1050C0004FF028096FF07D008246564507DAAAEBBB
:1050D00006018944B9F1410F01DD4FF0410901207A
:1050E0000021A9F1010200F043F9024628400B46D5
:1050F0002140084301D0012100E00021501E02910F
:1051000043F1FF3128402140084301D0012000E055
:1051100000200299834651EA0B014FD00021084636
:105120004FF00000039900F4400039B100EB80001B
:105130004FF4400100EBD07001EA600080150128B7
:1051400002DD4FF0FF3000E013D0401C36D0029853
:1051500060B3BBF1000F0CD14A460120002100F0E2
:1051600007F928402140084301D0012000E0002039
:10517000E0B101204A46002100F0FAF80346401948
:105180000A4661412D1A8C4111D3B9F1400F09DD56
:10519000159810F0240F02D0AAF1340603E0AAF10A
:1051A000170600E0761C00254FF0004406E05B1E69
:1051B00042F1FF3220EA030521EA0204CAF10100AC
:1051C000B04206DA1B490398084301900020009082
:1051D0000EE0039AC4F3D321E80A0A43164940EAD1
:1051E00044500A433146CDE90002684600F0D8FC3D
:1051F000159810F0240F0BD01598C00715D13868FA
:10520000DDE90012031D3B600068C0E900120CE0FC
:1052100002A8694600F078FC1598C00705D13868E7
:10522000029A011D3960006802604046F0E6000005
:1052300002FCFFFF0000F07F0000F03F2DE9FF4F70
:1052400092461D4685B04FF00041DDE9124BDDE985
:1052500014727F1E01EA4B50414940F0FF4940EA79
:105260000108002122F020004928049102D04E2894
:1052700028D04CE03BA0012607C88DE80700A969AB
:105280000698641C88477F1E014606D41DF8060058
:1052900018B121F0200181420BD0E96906988847B6
:1052A000032E34D0082E32D06FF0010009B0BDE8D3
:1052B000F08F761C032E01D0082EE0D1601CCAF8B6
:1052C0000000DCE7A9690698641C88477F1E2AD481
:1052D00020F02000412826D1A9690698641C88473F
:1052E0007F1E20D420F020004E281CD1A9690698EA
:1052F000641C88477F1E48F4002849F48009CAF8D6
:10530000004001D4282806D0E969069888475FEA5A
:10531000CB7012D022E0A9690698641C88477F1ED2
:1053200001D4002803DAE96906988847BCE72928F0
:10533000F1D1641CCAF80040E9E71BF0240F07D044
:1053400028680499031D2B600068C0E9001805E077
:105350002868021D2A600068C0F800902046A5E772
:105360000000F07F494E46494E4954590000000064
:10537000B2F120030AD5C2F1200301FA02F120FAAA
:1053800003F300FA02F041EA0301704700FA03F167
:105390004FF0000070473A2800D2303820F0200249
:1053A000412A01D3A2F13700884201D34FF0FF30E8
:1053B000704720F07F4C80EA030023F07F47ACEB7E
:1053C000070303F57C5300F0004003F1FF032DE9D0
:1053D00080494FEA154B09B44FEA144325EA0B4EB6
:1053E00024EA03480FF2042606EB132749083E7807
:1053F0005FEA320203FB0667C7F5000707FB06F604
:105400004FEA54374FEAD64606F1020607FB066C10
:10541000CCF1005C4FEA1C472CEA074C07FB06F472
:105420000CFB06F504EB15464FEA961634BF002038
:105430004FF000404FEAD13706FB07FC4FEA1C4C07
:105440000CFB0BF7D21B03FB0CF761EB07010CFB0A
:105450000EF7B0EB074072EB17420CFB08F734BFB6
:10546000A2EB0742B2EB074261EB17414FEA0C4453
:105470004FEA910706FB07FC4FEA1C4C0CFB0BF7AD
:10548000B0EBC74072EB573203FB0CF734BFA2EB13
:10549000C742B2EBC74261EB57310CFB0EF7B0EBE2
:1054A000C70072EB57720CFB08F734BFA2EBC702C0
:1054B000B2EBC70261EB5771039F4FEA816141EA8A
:1054C000921104EBCC044FEAD1374FEA826206FB1B
:1054D00007FC42EA90124FEA80604FEA1C4C0CFB3A
:1054E0000BF7D21B03FB0CF761EB07010CFB0EF76C
:1054F000B0EB074072EB17420CFB08F734BFA2EB8E
:105500000742B2EB074261EB17414FEA8C554FEA75
:10551000910704EB9C2406FB07FC4FEA1C4C0CFB98
:105520000BF7B0EBC74072EB573203FB0CF734BFFD
:10553000A2EBC742B2EBC74261EB57310CFB0EF74F
:10554000B0EBC70072EB57720CFB08F734BFA2EB4D
:10555000C702B2EBC70261EB577115EB4C254FEA5E
:10556000816141EA92114FEA82624FEAD13742EA01
:10557000901206FB07FC44F100044FEA80604FEAFA
:105580001C4C0CFB0BF7D21B03FB0CF761EB070168
:105590000CFB0EF7B0EB074072EB17420CFB08F761
:1055A00034BFA2EB0742B2EB074261EB174115EBA8
:1055B0001C154FEA813141EA92414FEA823242EAB8
:1055C00090424FEA80304FEA0C7644F1000448EAFA
:1055D00003434EEA0B484FF0000EB2EB080C71EBA0
:1055E000030724BF624639464EEB0E0E4FF0000B08
:1055F0000018524149414BEB0B0BB2EB080C71EB1D
:1056000003077BF1000B24BF624639464EEB0E0EBA
:105610004FF0000B0018524149414BEB0B0BB2EB22
:10562000080C71EB03077BF1000B24BF624639467F
:105630004EEB0E0E51EA020718BF46F0010616EBBC
:105640000E7655F1000254F1000103D5BDE8890141
:10565000BDE80088BDE88901BDE80048B61952419F
:1056600041EB0101A3F10103704780807F7E7D7CC7
:105670007B7A7978777676757473727171706F6EE4
:105680006E6D6C6C6B6A6A6968686766666564648F
:10569000636362616160605F5F5E5E5D5D5C5C5B19
:1056A0005B5A5A5959585857575656555555545488
:1056B000535352525251515050504F4F4F4E4E4DE6
:1056C0004D4D4C4C4C4B4B4B4A4A4A494949484832
:1056D0004847474747464646454545444444444372
:1056E00043434342424242414141000046EA0646AA
:1056F000A3F570534FEA164646EA42564FEAD222C5
:1057000042EA415210B54FEAD121A3F1010300F062
:1057100017F820F0004000F1010C00F0004701EB09
:1057200000501146BCF5006F40EA070000D210BDE2
:1057300002484FF0000140EA070010BD0000F07F72
:10574000002B26D4770021D01CB54FEA370703B4CD
:105750004FF010004FF010014FF000000FBCBDE8FB
:1057600010400BF1010BBBF1010F08BF5FEA1707F7
:1057700022BF12F1010211F101014FF0004143F18A
:10578000000300F0004043EA00007047F9D35708D7
:10579000DAE746EA064613F1400F4FEA16461FDDE8
:1057A00013F1200FDFBF16430A46002120335B426E
:1057B000C8D0C3F1200746EA064602FA07F74FEAC7
:1057C000164646EA0706C3F1200722FA03F201FA59
:1057D00007F721FA03F14FF0000342EA0702B1E7AD
:1057E00046EA020646EA06464FEA164646EA010639
:1057F000BCBF46EA0646360C4FF000034FF00002ED
:105800004FF000019EE72DE9C048934630B491E87F
:10581000380007C831EA400C48BF34EA430C03D5CE
:10582000FFF7C7FDFFF78CFFF0BCBDE800882DE94E
:10583000C048934630B491E8380007C831EA400CBC
:1058400048BF34EA430C03D5FFF7B3FDFFF74EFF23
:10585000F0BCBDE800882DE9C048934630B491E81B
:10586000380007C810F0804F08BF13F0804F03D1F5
:1058700000F019F8FFF764FFF0BCBDE800882DE9DF
:10588000C048934630B491E8380007C810F0804F04
:1058900008BF13F0804F03D100F005F8FFF726FF93
:1058A000F0BCBDE8008820F07F4780EA030023F0C9
:1058B0007F4C07EB0C03A3F57C5300F00040A3F1F1
:1058C000FE0392F0000F00F0B38095F0000F00F09F
:1058D00077802DE901494FEA11404FEA144621EA49
:1058E000004800FB06FC24EA064708FB06F607FB17
:1058F00008F800FB07F718EB06484CEB164C4FEA8C
:10590000124B18EB07484FEA15464CEB174022EABA
:105910000B4E0BFB06FC25EA06470EFB06F607FBC3
:105920000EFE0BFB07F71EEB064E4CEB164C4FF032
:1059300000061EEB074E4CEB174B18EB0B0840F123
:10594000000018EB0E0B58EB000840F100008F1A16
:105950004FF000013CBFC943661B14BFB5EB040CFC
:1059600000213CBFC943F61B4FEA17444EEA8E0E96
:1059700027EA04454FEA1C4704FB07622CEA074C60
:1059800005FB07F70CFB05F604FB0CFC16EB0746C2
:1059900042EB174216EB0C4642EB1C421BEB060691
:1059A00058EB0202414146EA9E0601D5BDE8018955
:1059B000B619524141EB0101A3F10103BDE8018990
:1059C0004FEA14454FEA114724EA054621EA074CFD
:1059D00005FB07F406FB07F70CFB06F105FB0CFCC7
:1059E00011EB074144EB17444FEA124711EB0C410E
:1059F00044EB1C4422EA074C05FB07F206FB07F7C1
:105A00000CFB06F605FB0CFC16EB074642EB1742B7
:105A100016EB0C4642EB1C456A1854F1000148BFD6
:105A20007047B619524141EB0101A3F101037047E0
:105A300095F0000F37D04FEA11424FEA144721EAA0
:105A4000024624EA074C02FB07F106FB07F70CFBB2
:105A500006F402FB0CFC14EB074441EB17414FEA40
:105A6000154714EB0C4441EB1C4125EA074C02FBA3
:105A700007F506FB07F70CFB06F602FB0CFC16EB22
:105A8000074645EB174516EB0C4645EB1C42121931
:105A900051F1000148BF7047B619524141EB010175
:105AA000A3F1010370474FEA14454FEA114724EA76
:105AB000054621EA074C05FB07F106FB07F70CFB3F
:105AC00006F24FF0000605FB0CFC12EB074241EB1F
:105AD000174112EB0C4251EB1C4148BF7047921822
