:020000040800F2
:1000000068070020ED0100089D180008071500088A
:1000100099180008E7130008131F000800000000EB
:10002000000000000000000000000000291A000885
:10003000EB13000800000000111900083D1B000828
:10004000070200080702000807020008070200086C
:10005000070200080702000807020008070200085C
:10006000070200080702000807020008070200084C
:10007000070200080702000807020008070200083C
:10008000070200080702000807020008070200082C
:10009000070200080702000807020008070200081C
:1000A000070200080702000807020008070200080C
:1000B00007020008A11B0008070200080702000849
:1000C00007020008070200080702000807020008EC
:1000D00007020008F11C00080702000807020008D8
:1000E00007020008070200080702000807020008CC
:1000F00007020008070200080702000807020008BC
:1001000007020008070200080702000807020008AB
:10011000070200080702000807020008070200089B
:10012000070200080702000807020008070200088B
:1001300000F002F800F04AF80AA090E8000C8244AF
:100140008344AAF10107DA4501D100F03FF8AFF28C
:10015000090EBAE80F0013F0010F18BFFB1A43F0A5
:1001600001031847D02F0000F02F0000103A24BFE1
:1001700078C878C1FAD8520724BF30C830C144BF0C
:1001800004680C607047000000230024002500264E
:10019000103A28BF78C1FBD8520728BF30C148BFEA
:1001A0000B607047662902F0AF86642900F0748006
:1001B000002070471FB500F0D7FB0400002000218D
:1001C00002F078FAE0601FBD10B510BD00F0E4FC4D
:1001D0001146FFF7EFFF02F06BF900F002FD03B4E8
:1001E000FFF7F2FF03BC01F014FF0000094880474D
:1001F00009480047FEE7FEE7FEE7FEE7FEE7FEE709
:10020000FEE7FEE7FEE7FEE704480549054A064B20
:1002100070470000411B0008310100086801002000
:100220006807002068030020680300207047000072
:100230000FB4044910B503AA029800F083FB10BC68
:100240005DF814FB1800002070B50446856900684D
:10025000C10601D5302600E02026C00707D070BDBA
:10026000D4E9012130469047206A401C20626D1E6F
:10027000F6D570BD70B5044685690078C00707D112
:1002800070BDD4E9012120209047206A401C2062E3
:100290006D1EF6D570BD00002DE9F0410646002424
:1002A00010687529314616A510D0AFF300800028DC
:1002B00002DA404213A507E031688A0701D512A58A
:1002C00002E0490704D511A5012401E0AFF3008045
:1002D00000210A2206F1240709E0B0FBF2FCB0FB82
:1002E000F2F302FB1C00303078541846491C0028F9
:1002F000F3D123462A463046BDE8F04100F0BCB8B1
:10030000000000002D0000002B0000002000000075
:100310002DE9F0474FF0000A89460446C0F820A0B6
:100320002046E1688847002876D0252806D0D4E901
:1003300001219047206A401C2062F1E7E1682046D5
:1003400000268847C4F81CA005460027C4F818A05A
:100350002A2D09D0284601F055FE38B304EB870852
:10036000303DC8F8185019E059F8041B204604EB3A
:1003700087029161E1688847012F054618D1E0693D
:10038000002820DA26F020061DE0D8F8180000EB3F
:10039000800005EB40003038C8F818002046E168BE
:1003A0008847054601F02EFE0028EED1012F0AD025
:1003B0002E2D08D12046E16888477F1C0546022F74
:1003C00046F02006C4DBA069002803DA404246F06C
:1003D0000106A061F00701D026F010066C2D0AD0AE
:1003E000682D08D04C2D39D06A2D35D0742D35D0DC
:1003F0007A2D33D016E0E1682F4620468847B84270
:1004000005460AD16C2F27D04FF48060E16806437F
:1004100020468847054605E027E06C2F1AD04FF4A8
:10042000807006430DB3A5F14100192802D820358C
:1004300046F400664A462946204626604E46FFF7A7
:10044000B1FE80B101280BD0F61D26F0070000F1A7
:10045000080965E74020E4E78020D7E70020D5E7DA
:1004600006F104095CE7284661E7206ABDE8F087E9
:1004700070477047704770472DE9F0470D46994621
:100480009246044600F124080168880604D5E06914
:1004900021F01001216000E00120A84201DD471B8E
:1004A00000E00027A1697A1902EB0900081AA0618F
:1004B0002078C00602D42046FFF7C6FE002608E0DA
:1004C000D4E901211AF806009047206A401C761CE6
:1004D00020624E45F4DB2078C0060AD52046FFF79F
:1004E000B3FE06E0D4E9012130209047206A401C89
:1004F0002062381EA7F10107F4DC07E0D4E90121EE
:1005000018F805009047206A401C2062281EA5F1BB
:100510000105F3DC2046FFF7ADFE2078000602D58A
:100520000220BDE8F0870120FBE770472DE9FF4F6F
:100530000C461E464FF0FF378BB0D2E90001DDF8C4
:1005400060800A908A46C1F30A5505B93D460021EC
:1005500008464FF00000BAF1000F00F4400005DA41
:1005600000EB80004FF4400101EA50004FEA90593F
:10057000B9F1010F00DDB9460A9850EA4A000ED0E1
:1005800044F61050A5F2FF3545432F14B8F1000F83
:100590001ED07542291E1EDDC9F100021CE0B8F113
:1005A000010F4FF0000001D0302103E0F24305E0DD
:1005B0002154401CB042FBDB304600220021215474
:1005C0000B99C1F80880C1E900200FB0BDE8F08F99
:1005D000BD1B6D1CDEE74A4600DA694206A800F042
:1005E00065FA06AB93E8070003AB83E807005046C3
:1005F0000A9900F03DFB8DE80700A0F500501F3878
:1006000000900398002D09DD42F21F014A4608447C
:1006100003A90390684600F09CFD08E0A0F5005097
:100620004A461F3803A90390684600F0A6FD8DE8EE
:1006300007000004000C03D04FF0FF30410800E039
:100640001046B8F1000F03D00022009215461EE0BC
:10065000751E05D400F08CF9303262556D1EF9D547
:10066000B3460122084302D000227F1C04E0207818
:10067000302801D100227F1E002A099786D01DE074
:10068000112D07DA00F074F9303262556D1C50EA12
:100690000102F5D1084302D00098C8B10EE0002154
:1006A000681E05E0235C625C63542254401E491CB2
:1006B0008142F7DBAB46A81B401E0990002004F8DE
:1006C0000B000B98099AC0F80880C0E9002B7CE762
:1006D00011264FF0000859E72DE9F04F88460446EF
:1006E000D21D22F0070191B0D1E90001CDE90A0144
:1006F00001F011FC02460B98C00F01D02D2007E03D
:100700002068810701D52B2002E0202101EAC000EA
:10071000032A099001D0072A05DB034641462046FB
:1007200000F084F90BE12078800601D5E06900E053
:100730000620B8F1650F814606D0B8F1660F18D0D3
:10074000B8F1670F70D131E00020B9F1110F0090BE
:1007500001DB112301E009F101030AAA01A90CA898
:10076000FFF7E4FEDDE90C70002609F10105834680
:1007700047E001204B4600904FF000470AAA01A92C
:100780000CA8FFF7D3FEDDE90DB00C995D460026FD
:1007900010B909F101000D18B9EB050003D4C0F13F
:1007A000FF3609F10105A5EB09002BE0B9F1010FB6
:1007B00001DA4FF001090020B9F1110F009048460D
:1007C00001DD112300E003460AAA01A90CA8FFF7E6
:1007D000ADFEDDE90C704D4600268346207800070B
:1007E0000AD4AB4500DA5D4601A8012D04DD4119AC
:1007F00011F8011C302907D04F4502DA17F1040F18
:1008000004DA012082460FE06D1EEEE7002F02DCC5
:10081000ED1B3E4403E0781CA84200DD7D1CB81BA4
:1008200000F1010A4FF000472078000703D4AA45E1
:1008300001DB4FF0FF3A0021B7F1004F0DF1430803
:100840008DF8431024D002202B23002F01DA7F42A1
:100850002D230A21021EA0F1010000DC5FB197FBED
:10086000F1FC97FBF1F201FB1C7C17460CF1300CFC
:1008700008F801CDEEE7A8F1010003702188090511
:1008800001D5452100E06521A0F1010800F8011C17
:1008900009980FA9A1EB0807FF1D00B1012041191C
:1008A00001EBEA70A1693844081A401EA061207863
:1008B000C00602D42046FFF7C7FC099828B1D4E946
:1008C00001219047206A401C20622078C00622D572
:1008D0002046FFF7B9FC1EE0002E04DBB34502DD25
:1008E00001A8805D00E03020D4E901219047206A12
:1008F000401C2062761CAAF101005FEA000A0AD1BE
:1009000000F032F8C0680168405CD4E901219047EA
:10091000206A401C2062281EA5F10105DCDC07E0EE
:10092000D4E9012118F8010B9047206A401C20628D
:10093000381EA7F10107F3DC2046FFF79BFC0320DC
:1009400011B043E6074B70B50D467B4400F05BF8F1
:100950000446284600F018F910B14FF0FF3070BD82
:10096000204670BD471B000000487047240100204E
:1009700030B5B0F10A024FEA900E71F100034EEA71
:10098000817EB0EB0E0061EB91014FEA101E4EEA42
:10099000017E10EB0E0041EB11114FEA102E4EEAD2
:1009A000016E10EB0E0041EB11214FEA104E4EEAA2
:1009B000014E10EB0E0041EB1141401841F10001D6
:1009C0004FEAD00040EA41704FEAD10110EB8005B8
:1009D0004FEA810444EA907444EB01046D1944EB3E
:1009E0000404521BA3414FF0000348BF0A3200D554
:1009F00030BD401C41F1000130BD000001694A1CBE
:100A000002610878704700B58FB0CDE9013100214F
:100A1000059105497944CDE9031011466846FFF771
:100A200077FC0FB000BD0000E5FFFFFF2DE9F041AE
:100A30001F46044603260168072A01F4006004DB10
:100A400008B116A505E016A503E008B115A500E05C
:100A500015A521F010002060A069C01EA0610FB193
:100A6000401EA0612046FFF7EFFB4FB1D4E9012102
:100A700038469047206A401C2062C01C206206E075
:100A8000206AFAE7D4E9012115F8010B9047761E98
:100A9000F8D22046FFF7EEFBBDE8F0814E414E0054
:100AA0006E616E00494E4600696E66002DE9F047A2
:100AB000814616468AB0334878440DC88DE80D004B
:100AC00030487844801C03AC0DC884E80D0041F622
:100AD0009B300844372190FBF1F290FBF1F5A5F132
:100AE000800501FB12041B3C02D56442012000E09A
:100AF0000020DFF890A080460027FA44AAF1BE0A41
:100B00000DE0E00709D03246684607EB47010AEBE3
:100B1000810100F032FB8DE8070064107F1C002C7F
:100B2000EFD1184F7F44AC3F18E0E80714D007EB33
:100B300004100DF1180A90E80E008AE80E00C06853
:100B4000F04201D198190890324606A903A800F096
:100B500014FB03AB83E807006D10641C002DE4D187
:100B600032466946B8F1000F03A802D000F0F1FA4E
:100B700001E000F002FBC9E90001C9F808200AB051
:100B8000BDE8F08760260000007B00F08000704721
:100B900000487047040100207546FFF7F9FFAE4694
:100BA00005006946534620F00700854618B020B579
:100BB000FFF72AFBBDE820404FF000064FF000078A
:100BC0004FF000084FF0000B21F00701AC46ACE8F5
:100BD000C009ACE8C009ACE8C009ACE8C0098D4662
:100BE00070470446AFF300802046FFF7F8FA000094
:100BF0004FF0013C50F8042B51F8043B9A4221D1AC
:100C0000A2EB0C03934313EACC1317D150F8042B37
:100C100051F8043B9A4215D1A2EB0C03934313EA1B
:100C2000CC130BD150F8042B51F8043B9A4209D154
:100C3000A2EB0C03934313EACC13DBD04FF000007C
:100C4000704700BFD01A01BAB1FA81F101F0180162
:100C500022FA01F0CB40C1F12001DBB2C0B2C01AD0
:100C60002CFA01F3D11A914311EAC311E6D170476E
:100C70005FEA400C08BF91F0000F4FEA8C234FEA67
:100C8000C12243EA51514FEA1C5018BF00F5F04011
:100C90004FEA300018BF41F000415FEA6C5C00F0A1
:100CA0002980BCF1FF3F08BF40F080407047130C23
:100CB00006BF12044FF0100C4FF0000C130E04BFCF
:100CC00012020CF1080C130F04BF12010CF1040CFA
:100CD000930F04BF92000CF1020CD30F04BF52001B
:100CE0000CF1010C11464FF00002A0F11F00A0EB27
:100CF0000C00704711F0004F08BF704731F0004101
:100D00003FF4D5AF0B0C06BF09044FF0100C4FF0A9
:100D1000000C0B0E04BF09020CF1080C0B0F04BFF2
:100D200009010CF1040C8B0F04BF89000CF1020CBB
:100D3000CB0F04BF49000CF1010CCCF12003A0EB58
:100D40000C0022FA03F302FA0CF241EA030100F16B
:100D50000100704720F07F4C80EA030023F07F47BA
:100D6000ACEB070303F57C5300F0004003F1FF03F5
:100D70002DE980494FEA154B09B44FEA144325EA9F
:100D80000B4E24EA03480FF2042606EB132749080A
:100D90003E785FEA320203FB0667C7F5000707FBF0
:100DA00006F64FEA54374FEAD64606F1020607FB2D
:100DB000066CCCF1005C4FEA1C472CEA074C07FBA1
:100DC00006F40CFB06F504EB15464FEA961634BF05
:100DD00000204FF000404FEAD13706FB07FC4FEAF6
:100DE0001C4C0CFB0BF7D21B03FB0CF761EB070150
:100DF0000CFB0EF7B0EB074072EB17420CFB08F749
:100E000034BFA2EB0742B2EB074261EB17414FEA56
:100E10000C444FEA910706FB07FC4FEA1C4C0CFB05
:100E20000BF7B0EBC74072EB573203FB0CF734BF44
:100E3000A2EBC742B2EBC74261EB57310CFB0EF796
:100E4000B0EBC70072EB57720CFB08F734BFA2EB94
:100E5000C702B2EBC70261EB5771039F4FEA816192
:100E600041EA921104EBCC044FEAD1374FEA826297
:100E700006FB07FC42EA90124FEA80604FEA1C4CE6
:100E80000CFB0BF7D21B03FB0CF761EB07010CFB10
:100E90000EF7B0EB074072EB17420CFB08F734BFBC
:100EA000A2EB0742B2EB074261EB17414FEA8C55C8
:100EB0004FEA910704EB9C2406FB07FC4FEA1C4C0D
:100EC0000CFB0BF7B0EBC74072EB573203FB0CF790
:100ED00034BFA2EBC742B2EBC74261EB57310CFB08
:100EE0000EF7B0EBC70072EB57720CFB08F734BF7C
:100EF000A2EBC702B2EBC70261EB577115EB4C25B1
:100F00004FEA816141EA92114FEA82624FEAD1379A
:100F100042EA901206FB07FC44F100044FEA8060AD
:100F20004FEA1C4C0CFB0BF7D21B03FB0CF761EBDD
:100F300007010CFB0EF7B0EB074072EB17420CFBFE
:100F400008F734BFA2EB0742B2EB074261EB17414F
:100F500015EB1C154FEA813141EA92414FEA82328A
:100F600042EA90424FEA80304FEA0C7644F10004A6
:100F700048EA03434EEA0B484FF0000EB2EB080C70
:100F800071EB030724BF624639464EEB0E0E4FF05D
:100F9000000B0018524149414BEB0B0BB2EB080C14
:100FA00071EB03077BF1000B24BF624639464EEB21
:100FB0000E0E4FF0000B0018524149414BEB0B0B4A
:100FC000B2EB080C71EB03077BF1000B24BF624608
:100FD00039464EEB0E0E51EA020718BF46F00106E5
:100FE00016EB0E7655F1000254F1000103D5BDE871
:100FF0008901BDE80088BDE88901BDE80048B6194F
:10100000524141EB0101A3F10103704780807F7ED3
:101010007D7C7B7A7978777676757473727171706E
:101020006F6E6E6D6C6C6B6A6A6968686766666520
:101030006464636362616160605F5F5E5E5D5D5CAE
:101040005C5B5B5A5A59595858575756565555551F
:101050005454535352525251515050504F4F4F4E7F
:101060004E4D4D4D4C4C4C4B4B4B4A4A4A494949CD
:10107000484848474747474646464545454444440F
:10108000444343434342424242414141002B26D420
:10109000770021D01CB54FEA370703B44FF010009A
:1010A0004FF010014FF000000FBCBDE810400BF1F5
:1010B000010BBBF1010F08BF5FEA170722BF12F156
:1010C000010211F101014FF0004143F1000300F072
:1010D000004043EA00007047F9D35708DAE746EAD0
:1010E000064613F1400F4FEA16461FDD13F1200F9D
:1010F000DFBF16430A46002120335B42C8D0C3F14C
:10110000200746EA064602FA07F74FEA164646EA7D
:101110000706C3F1200722FA03F201FA07F721FAC2
:1011200003F14FF0000342EA0702B1E746EA020684
:1011300046EA06464FEA164646EA0106BCBF46EABC
:101140000646360C4FF000034FF000024FF000014E
:101150009EE72DE9C048934630B491E8380007C8AF
:1011600031EA400C48BF34EA430C03D5FFF7F2FDE7
:10117000FFF78CFFF0BCBDE800882DE9C04893461E
:1011800030B491E8380007C810F0804F08BF13F062
:10119000804F03D100F005F8FFF778FFF0BCBDE801
:1011A000008820F07F4780EA030023F07F4C07EBA4
:1011B0000C03A3F57C5300F00040A3F1FE0392F072
:1011C000000F00F0B38095F0000F00F077802DE95C
:1011D00001494FEA11404FEA144621EA004800FB5A
:1011E00006FC24EA064708FB06F607FB08F800FBA6
:1011F00007F718EB06484CEB164C4FEA124B18EB6E
:1012000007484FEA15464CEB174022EA0B4E0BFB02
:1012100006FC25EA06470EFB06F607FB0EFE0BFB57
:1012200007F71EEB064E4CEB164C4FF000061EEB7C
:10123000074E4CEB174B18EB0B0840F1000018EB76
:101240000E0B58EB000840F100008F1A4FF0000120
:101250003CBFC943661B14BFB5EB040C00213CBF67
:10126000C943F61B4FEA17444EEA8E0E27EA04459F
:101270004FEA1C4704FB07622CEA074C05FB07F703
:101280000CFB05F604FB0CFC16EB074642EB174281
:1012900016EB0C4642EB1C421BEB060658EB020217
:1012A000414146EA9E0601D5BDE80189B619524181
:1012B00041EB0101A3F10103BDE801894FEA1445A7
:1012C0004FEA114724EA054621EA074C05FB07F4DB
:1012D00006FB07F70CFB06F105FB0CFC11EB0741C5
:1012E00044EB17444FEA124711EB0C4144EB1C440A
:1012F00022EA074C05FB07F206FB07F70CFB06F694
:1013000005FB0CFC16EB074642EB174216EB0C46AE
:1013100042EB1C456A1854F1000148BF7047B619EA
:10132000524141EB0101A3F10103704795F0000F19
:1013300037D04FEA11424FEA144721EA024624EA25
:10134000074C02FB07F106FB07F70CFB06F402FB58
:101350000CFC14EB074441EB17414FEA154714EB23
:101360000C4441EB1C4125EA074C02FB07F506FB48
:1013700007F70CFB06F602FB0CFC16EB074645EBE9
:10138000174516EB0C4645EB1C42121951F10001B2
:1013900048BF7047B619524141EB0101A3F1010367
:1013A00070474FEA14454FEA114724EA054621EAFF
:1013B000074C05FB07F106FB07F70CFB06F24FF0A5
:1013C000000605FB0CFC12EB074241EB174112EB48
:1013D0000C4251EB1C4148BF7047921841EB010190
:1013E000A3F10103704700BFFEE770472DE9F0410C
:1013F000024600250026002000230024002791F843
:1014000003C00CF00F0591F803C00CF0100CBCF1F8
:10141000000F03D091F802C04CEA050591F800C016
:10142000BCF1000F31D0146800202BE04FF0010C0C
:101430000CFA00F3B1F800C00CEA03069E4220D17A
:1014400083004FF00F0C0CFA03F7BC4305FA03FCC2
:101450004CEA040491F803C0BCF1280F06D14FF008
:10146000010C0CFA00FCC2F814C00AE091F803C0A9
:10147000BCF1480F05D14FF0010C0CFA00FCC2F88A
:1014800010C0401C0828D1D31460B1F800C0BCF1D2
:10149000FF0F34DD546800202EE000F1080C4FF0FF
:1014A000010808FA0CF3B1F800C00CEA03069E42EA
:1014B00021D183004FF00F0C0CFA03F7BC4305FA5F
:1014C00003FC4CEA040491F803C0BCF1280F05D1D9
:1014D00000F1080C08FA0CF8C2F8148091F803C067
:1014E000BCF1480F07D100F1080C4FF0010808FAD1
:1014F0000CF8C2F81080401C0828CED35460BDE818
:10150000F0810161704700BFFEE7000010B50020C8
:101510000F4908600F48006820F070400D490860CE
:101520000846006840F04050086000200A49C1F8B1
:10153000B401022000F088FF012005490860022064
:1015400000F082FF00200449C1F8B00110BD000086
:10155000B0812142000C01400080214208B50121E8
:10156000082000F0E7F94FF44050ADF800001020DB
:101570008DF8030003208DF8020069460448FFF748
:1015800035FF4FF440510248FFF7BBFF08BD000094
:10159000000C014010B500200F4908600F4800689A
:1015A00020F070400D4908600846006840F0405047
:1015B000086001200A49C1F8B401022000F044FF8C
:1015C000012005490860022000F03EFF0020044988
:1015D000C1F8B00110BD0000B0812142000C0140F3
:1015E0000080214270B5054600241748006820F0AD
:1015F0007040154908600846006840F000400860E7
:10160000002616E0002011490860022000F01CFFAF
:1016100001200F49C1F8B0016006040E0B487C3868
:10162000006808B1601CC4B2012000F00DFF701CFE
:10163000C6B2082EE6DB15B9FFF7ACFF01E0FFF7F5
:1016400065FF204670BD0000000C0140B0812142C2
:101650000080214270B504461848006820F07040B0
:10166000164908600846006840F0405008600020B5
:101670001349086000251EE0E00920B1012010494F
:10168000091D086003E000200D49091D086060067F
:10169000040E022000F0D8FE012009490860022053
:1016A00000F0D2FE00200749C1F8B001022000F08E
:1016B000CBFE681CC5B2082DDEDB70BD000C0140FE
:1016C000B08121420080214270B5044600F036F816
:1016D0003C20FFF7BFFF00F07DF82046FFF7BAFF80
:1016E00000F078F800F02AF83D20FFF7B3FF00F093
:1016F00071F80020FFF776FF054600F045F8052059
:1017000000F07CFE284670BD70B505460C4600F022
:1017100015F83C20FFF79EFF00F05CF82846FFF725
:1017200099FF00F057F82046FFF794FF00F052F8B9
:1017300000F02AF80A2000F061FE70BD10B50F48D5
:10174000006820F070400D4908600846006840F0CD
:101750004050086001200A4908600A49C1F8B001F8
:10176000042000F071FE002005490860042000F00C
:101770006BFE00200349C1F8B00110BD000C014010
:10178000B48121420080214210B50F48006820F04A
:1017900070400D4908600846006840F040500860FD
:1017A00000200A4908600A49C1F8B401042000F089
:1017B0004BFE0120054908600549C1F8B401042029
:1017C00000F042FE10BD0000000C0140B08121423B
:1017D0000080214210B500241448006820F07040B9
:1017E000124908600846006840F000400860012087
:1017F0000F49086000F028FE01200E49C1F8B00131
:1018000000F022FE07E0601CC4B2FA2C03DDFFF7F3
:10181000BBFF012010BD0648803800680028F2D1C7
:101820000349091F086000BFF4E70000000C0140F5
:10183000B48121420080214210B510210020FFF721
:1018400063FF00210120FFF75FFF00210220FFF767
:101850005BFF10BD08B50121142000F06BF81020CB
:101860008DF8030003208DF802004FF48070ADF86E
:10187000000069460648FFF7B9FD28208DF80300EF
:101880004020ADF8000069460248FFF7AFFD08BDF3
:10189000000801400010014000BFFEE77047000053
:1018A00070B5002100230F22C47804B3154C2468BE
:1018B00004F4E064C4F5E064210AC1F10403CA4001
:1018C000447804FA03F184781440214309010E4C52
:1018D0000678A155047804F01F050124AC40057872
:1018E0006D11AD0005F1E025C5F8004109E004786F
:1018F00004F01F050124AC40044D0678761145F82C
:10190000264070BD0CED00E000E400E080E100E066
:101910007047000029B1064AD2690243044BDA61DC
:1019200004E0034AD2698243014BDA617047000048
:101930000010024029B1064A92690243044B9A61A1
:1019400004E0034A92698243014B9A6170470000A8
:101950000010024030B500210022002400232D4D4C
:101960006D6805F00C0121B1042905D0082923D1A7
:1019700005E0294D056022E0274D05601FE0254D5B
:101980006D6805F47012234D6D6805F480340225EE
:1019900005EB92421CB9214D554305600BE01D4DEE
:1019A0006D6805F400351DB11C4D5543056002E01E
:1019B000194D5543056002E0174D056000BF00BF9B
:1019C000144D6D6805F0F0010909154D6B5C056853
:1019D000DD4045600F4D6D6805F4E061090A104D6A
:1019E0006B5C4568DD4085600A4D6D6805F46051AB
:1019F000C90A0B4D6B5C4568DD40C560054D6D68DF
:101A000005F44041890B074D6B5CC568B5FBF3F5E8
:101A1000056130BD0010024000127A0000093D004F
:101A20001E0000202E000020704710B500F002F8C4
:101A300010BD00000CB500200190009033480068F4
:101A400040F480303149086000BF3048006800F43D
:101A5000003000900198401C0190009818B901983E
:101A6000B0F5A06FF1D12948006800F4003010B142
:101A70000120009001E0002000900098012843D14F
:101A80002348006840F010002149086008460068BB
:101A900020F0030008600846006840F0020008607B
:101AA0001A48406819494860084640684860084636
:101AB000406840F4806048600846406820F47C102C
:101AC00048600846406840F4E810486008460068EE
:101AD00040F08070086000BF0C48006800F00070A3
:101AE0000028F9D00948406820F003000749486001
:101AF0000846406840F00200486000BF0348406864
:101B000000F00C000828F9D10CBD000000100240C4
:101B100000200240042808D14FF0E021096941F07B
:101B200004014FF0E022116107E04FF0E021096964
:101B300021F004014FF0E02211617047704700006E
:101B400010B51348006840F00100114908600846CC
:101B50004068104908400E494860084600680E4930
:101B600008400B4908600846006820F4802008609F
:101B70000846406820F4FE0048604FF41F0088606B
:101B8000FFF753FF4FF000600449086010BD0000EC
:101B9000001002400000FFF8FFFFF6FE08ED00E035
:101BA00010B50120034908700121034800F006F830
:101BB00010BD00003200002000040040CA43028231
:101BC000704721B1028842F00102028004E00288DD
:101BD0004FF6FE731A40028070471AB183890B4397
:101BE000838102E083898B43838170477FB50546FB
:101BF0000C461D208DF8000001208DF80100022008
:101C00008DF8020001208DF803006846FFF748FEBA
:101C100001210220FFF77EFEADF80850ADF8044028
:101C20000020ADF80A00ADF8060001A9064800F052
:101C30000DF800210448FFF7C4FF012211460248B5
:101C4000FFF7CBFF7FBD00000004004000220288A8
:101C50001D4B98420ED01D4B98420BD0B0F1804FD7
:101C600008D01B4B984205D01A4B984202D01A4B11
:101C7000984204D14FF68F731A404B881A43174B82
:101C8000984207D0164B984204D04FF6FF431A40B3
:101C9000CB881A4302808B8883850B8803850A4B87
:101CA00098420BD0094B984208D00E4B984205D071
:101CB0000D4B984202D00D4B984201D10B7A03860E
:101CC0000123838270470000002C01400034014052
:101CD0000004004000080040000C004000100040DC
:101CE0000014004000400140004401400048014011
:101CF00010B540F225511D4800F04AF810B31B48BA
:101D000000F002F9C4B21A48008800F40040C8B9D3
:101D10001748008800F4804060B10A2C03D00020EE
:101D20001349088020E01248008840F40040104920
:101D3000088019E00D2C06D10D48008840F4804041
:101D40000B49088010E00A480088C0F30D000949DB
:101D50000C5407480088401C054908800846008844
:101D6000C72801DD0020088010BD000000380140B8
:101D70001C0000203C00002021B1828942F4005266
:101D8000828104E082894DF6FF731A408281704798
:101D900070B50246002400230025002040F66A1694
:101DA000B14200D100BFC1F3421501F01F0301266B
:101DB00006FA03F3012D02D19689334006E0022D85
:101DC00002D1168A334001E0968A33400C12012674
:101DD00006FA04F41688344013B10CB1012000E077
:101DE000002070BDF0B50346002400260025002029
:101DF00040F66A17B94200D100BF1846C1F3421439
:101E000001F01F06012707FA06F5012C01D10C305D
:101E100004E0022C01D1103000E014301AB1076840
:101E20002F43076002E00768AF430760F0BD000082
:101E30002DE9F04786B005460E460024A24600BFB5
:101E4000A1460027B08900B100BF2F462C8A4CF66E
:101E5000FF700440F08804432C82AC894EF6F310E6
:101E60000440B08831890843718908430443AC8138
:101E7000AC8A4FF6FF400440B0890443AC8201A80D
:101E8000FFF768FD1F48874202D1DDF810A001E08E
:101E9000DDF80CA0A88900F4004040B10AEBCA00AC
:101EA00000EB0A1031684900B0FBF1F807E00AEBDB
:101EB000CA0000EB0A1031688900B0FBF1F8642019
:101EC000B8FBF0F004012009642101FB1089A88906
:101ED00000F4004040B1322000EBC900B0FBF1F04B
:101EE00000F00700044308E0322000EB09106421F1
:101EF000B0FBF1F000F00F0004432C8106B0BDE808
:101F0000F08700000038014001468888C0F30800CF
:101F1000704700BFFEE7490050EAC12018BF042007
:101F20004A0D18BF40F0010040F2FF72B2EB515F62
:101F300008BF40F00200012808BF052070472DE9C6
:101F4000F0414F1E00EBC7010446D1E900011546E0
:101F50001E4637F006020DD02A46334600F0E0FD5B
:101F60007F1E04EBC703D3E9002300F0B9FB37F071
:101F70000602F1D1022F25D0042F13D0062F18BF4F
:101F8000BDE8F0812A46334600F0CAFDD4E90A23B1
:101F900000F0A6FB2A46334600F0C2FDD4E9082330
:101FA00000F09EFB2A46334600F0BAFDD4E9062332
:101FB00000F096FB2A46334600F0B2FDD4E9042334
:101FC00000F08EFB2A46334600F0AAFDD4E9022336
:101FD00000F086FB2A46334600F0A2FDD4E9002338
:101FE000BDE8F04100F07CBB012200F0C1BF00F071
:101FF00077BB0000024A0020110700F0B9BF0000C3
:1020000001FDFFFF30380A2801D20120704700206F
:102010007047014600BF70472DE9F84F04460D4652
:1020200021F0004000917349814211DC72498842DD
:1020300001DC06D12CB120462946BDE8F84FFFF758
:10204000D3BF6E48002DCCBF6D496E49BDE8F88FF7
:102050006D49814211DD6D498142D8BF4FF0FF3695
:102060006DDD20462946FFF756FF042808BFFFF71D
:10207000C1FF20462946BDE8F88F6549654F25F028
:102080000045814233DD6449814219DD0026324634
:102090004FF080432046294600F022FB80468A46C6
:1020A00001222046294600F063FF00223B4600F053
:1020B00041FE4246534600F0C3FB04460D463EE057
:1020C00001260022BA463B462046294600F008FB7E
:1020D00080460F46002253462046294600F02AFE3D
:1020E00042463B4600F0ACFB04460D4627E04B4918
:1020F00081421BDDDFF828A102260022534620463C
:10210000294600F00DFD00223B4600F0E9FA80462A
:102110000F46002253462046294600F00BFE424659
:102120003B4600F08DFB04460D4608E003262246A0
:102130002B4600203B4900F083FB04460D46224617
:102140002B461046194600F0EBFC8B4682460246B1
:102150000B4600F0E5FC07460246334888460B462E
:1021600006217844FFF7EBFE52465B4600F0D8FCB0
:1021700082462E488B463A46434605217844FFF76F
:10218000DEFE3A46434600F0CBFC02460B46002EEC
:10219000504659460CDA00F0A3FA22462B4600F0CE
:1021A000BFFC01B022462B46BDE8F04F00F0B6BDA3
:1021B00000F096FA22462B4600F0B2FC1C4A7A4404
:1021C00002EBC603D3E9002300F0B4FD22462B4600
:1021D00000F0B0FD174A7A4402EBC603D3E90023AE
:1021E00000F09CFD009A002AB8BF81F00041BDE8D4
:1021F000F88F0000000010440000F07F182D4454B8
:10220000FB21F93FFB21F9BF0000DC3F0000203E2D
:102210000000F33F0000F03F0000E63F0080034075
:102220000000F83F0000F0BF020F0000C00E0000E9
:102230005E0E0000260E00002DE9F04D9446CCF114
:10224000000423F000464CEA0404524F46EAD474DA
:102250009A46884621F00042BC4206D8454240EAF0
:10226000050442EAD474BC4204D9BDE8F04D62468C
:10227000FFF7BDBEAAF14055A5F17F6555EA0C04F4
:102280000BD0022404EAAA74434DDFF810E144EABB
:10229000D87452EA000B04D00CE0BDE8F04DFFF713
:1022A000BBBE002C14BF012CBDE8F08D022C30D039
:1022B000032C32D056EA0C0B0AD0BE4220D1BA42CF
:1022C00009D126F0804622F080423346114617E0BD
:1022D00000291ADB25E0DFF8C8B0FB44002C04BF5E
:1022E000DBE90001BDE8F08D012C02BFDBE9000154
:1022F00081F00041BDE8F08D022C0AD0032C0CD0F7
:10230000BA4212D1B8F1000F0BDA23482549BDE8D3
:10231000F08D28462449BDE8F08D28467146BDE879
:10232000F08D1D482149BDE8F08D921B12153C2A05
:10233000C4BF19481D490EDCBAF1000FBEBF12F12F
:102340003C0F0020014606DB624600F079FA21F0DE
:102350000041FFF761FE002C08BFBDE8F08D012CA5
:1023600004BF81F00041BDE8F08D114A114B022CF1
:1023700007D000F0DFFC2A46BDE8F04D0A4B00F024
:10238000D9BC00F0D7FC2A46BDE8F04D064B00F062
:10239000C5BC00000000F07F182D4454FB2109C08B
:1023A000BA0D0000FB21F9BFFB210940FB21F93FD9
:1023B000075C143326A6A13C10B56FF00400FFF7AC
:1023C000A9FB0A4800680A49B0FBF1F00949087006
:1023D0000846007800EB4001C1EBC0104FF6FF71DA
:1023E00001EAC0000449088010BD00000000002080
:1023F00000127A0014000020160000200146114A45
:1024000012884A434FF0E0235A6100229A611A462B
:10241000126942F001021A6100BF4FF0E022106918
:1024200000F001021AB100F48032002AF5D04FF01A
:10243000E022126922F001024FF0E0231A6100222B
:102440009A617047160000200146114A12784A43EB
:102450004FF0E0235A6100229A611A46126942F055
:1024600001021A6100BF4FF0E022106900F0010282
:102470001AB100F48032002AF5D04FF0E022126940
:1024800022F001024FF0E0231A6100229A617047A6
:102490001400002000BF054A128802F04002002A02
:1024A000F9D0C2B2014B1B1D1A80704700380140A1
:1024B0008AB04FF0B40BB420099000200890079028
:1024C0004FF4E13000F0A6F8FFF776FFFFF7C2F90E
:1024D00047214FF6FF70FFF789FBFFF73FF84FF4F6
:1024E0007A70FFF78BFF31A0FDF7A2FEFFF7A4F98A
:1024F0005AE00320FFF7E8F8374908700420FFF797
:10250000E3F8354948700520FFF7DEF83249887056
:102510000620FFF7D9F83049C8700720FFF7D4F834
:102520002D4908710820FFF7CFF82B49487108465C
:102530004078097840EA01242748C07826498978FC
:1025400040EA0129244840792349097940EA012ACF
:10255000204600F0CDFA07468846484600F0C8FA03
:102560003A464346CDE90001FFF766FE1B4A1C4B85
:10257000CDE9020100F0D4FA00221A4BCDE90401A2
:1025800000F0AEF805460E46DDE9082107988DE813
:10259000100ECDE9042106902A46334612A0FDF71D
:1025A00047FE1420FFF72AFFA3E70000E6ACA2E8ED
:1025B000BF8EE4BDBFE794A8484D4335383833E4B7
:1025C000B889E8BDB4E794B5E5AD90E68C87E58DB4
:1025D00097E992885C720A0033000020775AF01A5B
:1025E000DCA54C400080664025342E316C662020EE
:1025F00025346420202534642020253464202025BF
:10260000346420202534642020253464202025349F
:10261000640D0A0010B586B00446012144F204009E
:10262000FFF788F94FF40070ADF8140003208DF81F
:10263000160018208DF8170005A91C48FEF7D6FED5
:102640004FF48060ADF8140004208DF8170005A940
:102650001648FEF7CBFE25208DF8000003208DF8EC
:1026600001008DF8020001208DF803006846FFF795
:1026700017F901940020ADF80800ADF80A00ADF894
:102680000C00ADF810000C20ADF80E0001A90848B0
:10269000FFF7CEFB012240F225510548FFF7A2FBD0
:1026A00001210348FFF768FB06B010BD0008014098
:1026B0000038014010B500290AD00878002807D05A
:1026C00005487844FEF794FA002801D0002010BD98
:1026D0000248784410BD0000920A00008A0A0000F7
:1026E00010B591EA030F48BF83F0004300F12A833D
:1026F000841A71EB030C05D2121943EB0C03001B77
:1027000061EB0C01DFF824E14FEA1154A4EB135CF8
:102710001EEA430F18BF9EEA445F73D023EA0E03FC
:10272000DCF1200E21EA045143F4801332D322FA63
:102730000CFE10EB0E0023FA0CFE41EB0E01CCF167
:10274000200E03FA0EFE10EB0E0051F10001B1F560
:10275000801FCCF1200E32D201EB045112FA0EF29E
:10276000BDE8104058BF7047401C38BF5FEA4202C6
:1027700018BF7047002814BF20F0010041F100018C
:102780004FEA410313F5001F38BF7047A1F1C04164
:1027900000F0BEBA012A43EB0302ACF1200CDCF1DD
:1027A0001F0E32BF4FF0000E23FA0CF310EB0300A4
:1027B00041EB0451B4EB115FD0D0A1EB045101F512
:1027C000801149085FEA300001EB04510ED350F14B
:1027D000000038BF12FA0EFE08D1BDE81040C9E76C
:1027E000401C38BF5FEA4202CAD1C3E7BDE81040CF
:1027F0004FEA410313F5001F38BF7047A1F1C041F4
:1028000000F086BA9EEA445F08D011EA5E0FBDE888
:10281000104004BF01F0004100207047BDE81040A7
:1028200070B500F027FA00BF64FBBE3E0000E0FF79
:1028300002494FF0000000F069BB00BF0000F87FC4
:102840002DE9C04130B4DFF8A0C23CEA111418BF32
:102850003CEA131400F0EC8081EA03051CEA111431
:1028600044EAD57418BF1CEA131500F0C780A4EB26
:1028700005044FF0004545EAC12145EAC32341EA7A
:10288000505143EA525304F17F74994204F50034E5
:102890004FEAC0204FEAC22208BF904200F09C805D
:1028A0004FEA13650FF24016765D4FEA134506FBBB
:1028B00005F7C7F1807706FB07F74FEAD737A7FB85
:1028C00003687642C8F58038A7FB06CE38BFA8F16A
:1028D000010807FB08E64FF0000EA6FB028CE6FBA2
:1028E00003CEDCF1000CCEF1004E38BFAEF1010E8C
:1028F000A6FB0C584FF000074FF00005E6FB0E87D3
:10290000A1FB08C6A0FB07CE16EB0E0645F100059D
:10291000E1FB076515F1E04E7EBFA4F580345FEA68
:1029200046066D4116F1800745F100054FEA17276D
:102930004FEA066647EA0567A6F1DE46B6F1805F14
:102940004FEA15251FD9384624F0010C05EBC47158
:10295000BCF1FE6F01EB0C1102D8F0BCBDE80081A8
:1029600024425CBF01F5801E9EEAC47F02D4F0BC05
:10297000BDE80081244238D4F0BCA1F1C041BDE8DB
:10298000004100F0C5B94FEAD22242EA43524FEA71
:10299000D323A7FB02864FEAD02040EA415007FB31
:1029A00003661EEA0E0F4FEAD12105FB026658BFEF
:1029B000A6EB0056B6EB00564FEA520E4EEAC37E27
:1029C00018EB0E0E56EB530EBDD518EB02085E4108
:1029D0007F1C55F10005B6E74FF480154FF0000756
:1029E0004FF000064FF00008ADE7F0BC4FF00000DC
:1029F00001F1C04101F00041BDE8008111EA0C1F66
:102A00000CEA131500D00CE013EA0C1F00F025802F
:102A10004FF00000F0BC81EA030101F00041BDE885
:102A20000081F0BCBDE8004181EA030100F070B90B
:102A3000F0BCBDE8004170B500F01CF9097EFC3E19
:102A400000F007B881EA03014FF0000001F00041F7
:102A5000704781EA030100F05BB9F0BCBDE80041BA
:102A60004FF0000021497047FFFDFBF9F7F5F4F244
:102A7000F0EEEDEBE9E8E6E4E3E1E0DEDDDBDAD819
:102A8000D7D5D4D3D1D0CFCDCCCBCAC8C7C6C5C477
:102A9000C2C1C0BFBEBDBCBBBAB9B8B7B6B5B4B38E
:102AA000B2B1B0AFAEADACABAAA9A8A8A7A6A5A479
:102AB000A3A3A2A1A09F9F9E9D9C9C9B9A9999983D
:102AC0009797969595949393929191908F8F8E8EE0
:102AD0008D8C8C8B8B8A898988888787868585846D
:102AE00084838382828181800000FF070000F87F59
:102AF00010F0004248BF4042B0FA80F310FA03F1F0
:102B00000AD0C3F11D0303F580634FEA415002EB85
:102B1000035202EBD12170474FF0000070470000D4
:102B2000DFF848C170B51CEA111E1EBF1CEA131560
:102B30009EEA0C0F95EA0C0F00F06F8081EA030407
:102B400023EA4C134EEAD47E21EA4C1141F4801161
:102B500043F48013AE44A1FB024CA0FB0365AEF12D
:102B60007F7E361955EB0C05A1FB034C4CF100039D
:102B7000A0FB021C16EB0C06654153F10003094251
:102B800018BF46F0010613F4007F0BD14FEA033162
:102B90004FEA0530340341EA155140EA16506FF010
:102BA00003020AE04FEAC3214FEAC520F40241EADA
:102BB000555140EA56506FF0020202EB2E4201EBF3
:102BC000025585EACE710AD05FEA440C18BF24F0A2
:102BD000004450F1000041F1000120EAD47040F2BD
:102BE000FE7C624500D270BDA84214BF4FF0804405
:102BF0004FF04044002E08BF0024BEF1806FA8BFF4
:102C0000A1F1C041BDE8704080F282804FF0000029
:102C100001F1C04101F0004170479EEA0C0F0CEA3F
:102C2000131518BF95EA0C0F06D04FF0000081EA8B
:102C3000030E0EF0004170BD00F01CF88900013E4B
:102C400000F007B800F009B84FEA430C5FEA5C5C9B
:102C500008D081EA030100F05BB84FEA410C5FEA5B
:102C60005C5CF6D14FF00000014970470000FF079F
:102C70000000F87F0EF1020E2EF0030E5EF8046BDA
:102C8000364205D4012A43EB030515F5001F12D87F
:102C9000012841EB010C1CF5001F0CD80ED14FEAA6
:102CA000D17C15F5001F0CEB4C0C0CF1020C08BF8D
:102CB0004CEBD37C04E04FF0080C01E04FEAD37CEE
:102CC0000CEB4C0526FA05F606F00706B6F1040CE7
:102CD00006D20EEB860CBDE870404CF0010C60474C
:102CE000DFE80CF0090B02024FF000414FF000004A
:102CF000A1F5002170BD19461046012851EB0104D1
:102D000018BFD4F5001484BF002001F0004170BD4D
:102D10000808A0F500114FEA3101704791EA030F4E
:102D200010B581F000413FF5E3AC83F0004300F0C3
:102D300009B8000010B591EA030F48BF83F00043C3
:102D40003FF5D6AC841A71EB030C07D212198CF044
:102D5000004C43EB0C03001B61EB0C01DFF8A4E11A
:102D60004FEA1154A4EB135C1EEA430F18BF9EEA0E
:102D7000445F00F0B08023EA6E03524221EA04511E
:102D8000C3EB6E0338BF5B1EDCF1200E25D322FAA5
:102D90000CFE10EB0E0043FA0CFE41EB0E01CCF1E1
:102DA000200E03FA0EFE10EB0E0051F10001CCF1E3
:102DB000200E29D412FA0EF201EB0451BDE81040A6
:102DC00058BF7047401C1CBFB2F1004F704700282D
:102DD0000CBF491C20F00100704712EB020E43EBC0
:102DE000030218BF4FF0010E4EEA4202ACF1200C74
:102DF000DCF11E0E54D943FA0CFE10EB0E0051F11B
:102E0000FF31CCF11E0ED5D50EF1010E12FA0EFED9
:102E1000404141EB010101EB445C5FEA5C5C10D98D
:102E200010EBDE7001EB045138BFBEF1004FBDE87E
:102E3000104018BF704700280CBF491C20F001004B
:102E4000704730D24FEAD42C11F5001124F40064FD
:102E50001BD0B1FA81F20B3AA41AA41ED2F12003BE
:102E6000914030FA03F31943904001EBCC71002CF0
:102E700001EB0451BDE81040A8BF704701F1C0410B
:102E80004FF0000001F000417047B0FA80F310FAF3
:102E900003F100D110BDE41A173C4805C90AE4E764
:102EA00001EB045110BD491001EB0451BDE8104085
:102EB0004FEA300002E04FF0000170474A0008BFBF
:102EC0000042F8D0B2F5001F28BF704701F0004162
:102ED0004FF0000070479EEA445F07D011EA5E0F92
:102EE000BDE8104004BF002100207047BDE810403D
:102EF00070B5FFF7BFFE00BF40DFF63E83F0004134
:102F0000104670470000E0FFFDF7E6BB0CF00F0332
:102F1000092B08BF082000F059800A2B0BD0082B82
:102F200018BF704708BF1CF0400F0AD04FF00000D8
:102F30004FF0000170471CF0400F18BF4FF00040E9
:102F400070471CF0100F08D020F0704300F07F4253
:102F500042EAD3014FEA4370704700F0604021F02D
:102F60007F4242EA000201F07F4040EA72707047FF
:102F70004FF0FF0C4CF4E06C1CEA11531CBF9CEAB0
:102F8000030C9445C2BFDA4201EB02517047002B9B
:102F90000DD0BCF1000F0FD0002A01F00041A4BFFA
:102FA00041F0E04141F07F614FF00000704701F0D7
:102FB00000414FF00000704750EA01334FF09B0C86
:102FC00018BF4CF0806C7FF433AC70471CF4801F4A
:102FD00011D01CF4E02F03D06FEACC3149007047C8
:102FE0004FF04050EFF3008222F0704242EA0002BC
:102FF00082F3008870474FF0000070470000000027
:103000004FBB610567ACDD3F182D4454FB21E93F00
:103010009BF681D20B73EF3F182D4454FB21F93FEF
:10302000E2652F227F2B7A3C075C143326A6813C75
:10303000BDCBF07A8807703C075C143326A6913C20
:10304000C4EB98999999C9BF711623FEC671BCBF8C
:103050006D9A74AFF2B0B3BF9AFDDE522DDEADBFF4
:103060002F6C6A2C44B4A2BF0D5555555555D53F0C
:10307000FF8300922449C23F6E204CC5CD45B73F27
:10308000513DD0A0660DB13FEB0D76244B7BA93F9F
:1030900011DA22E33AAD903F00000000000000008A
:1030A00002400000000000A00000000005400000F9
:1030B000000000C8000000000C4000000000409C20
:1030C00000000000194000000020BCBE000000000D
:1030D00034400000BFC91B8E00000004B540000052
:1030E000504BCFD06607E2CF010000006C410000DA
:1030F0003E8251AADFEEA73401000000D942000051
:10310000DCB5A0E23A301F97FFFFFFFFB445000097
:10311000FD25A0C8E9A3C14FFFFFFFFFFF3F00004F
:103120000000008000000000FF3F00000000008061
:103130000000000070310008000000203C0000008A
:103140006C010008AC3100083C0000202C07000096
:10315000880100081C00000043000000F8FFFFFF8A
:103160000C0000000E0000000F0000002E00000008
:1031700000A24A0400000000000000000102030455
:103180000607080900000000000000000000000021
:1031900000000102030401020304060708090204F7
:0C31A00006080000000000000000000015
:04000005080001ED01
:00000001FF
