:020000040800F2
:10000000380A00203D0700086D0300086F03000850
:1000100073030008770300087B030008000000005A
:100020000000000000000000000000007F03000846
:100030008103000800000000830300088503000816
:100040005707000857070008570700085707000818
:100050005707000857070008570700085707000808
:1000600057070008570700085707000857070008F8
:1000700057070008570700085707000857070008E8
:1000800057070008570700085707000857070008D8
:10009000732D000857070008570700085707000886
:1000A00057070008570700085707000857070008B8
:1000B00087030008BF030008F5030008570700087E
:1000C0005707000857070008570700085707000898
:1000D00057070008570700080B30000857070008AB
:1000E0005707000857070008570700085707000878
:1000F0005707000857070008570700085707000868
:1001000057070008570700082B0400085707000886
:100110005707000857070008570700086104000840
:100120005707000857070008570700085707000837
:1001300000F002F800F067F80AA090E8000C824492
:100140008344AAF10107DA4501D100F05CF8AFF26F
:10015000090EBAE80F0013F0010F18BFFB1A43F0A5
:10016000010318478C5A0000AC5A00000A444FF0B3
:10017000000C10F8013B13F0070408BF10F8014B06
:100180001D1108BF10F8015B641E05D010F8016B4B
:10019000641E01F8016BF9D113F0080F1EBF10F8AF
:1001A000014BAD1C0C1B09D16D1E58BF01F801CBD2
:1001B000FAD505E014F8016B01F8016B6D1EF9D555
:1001C0009142D6D37047000000230024002500266A
:1001D000103A28BF78C1FBD8520728BF30C148BFAA
:1001E0000B607047662905F0B784002070471FB583
:1001F00004F0FCF804000020002104F04BFEE06055
:100200001FBD10B510BD04F009FA1146FFF7EFFF4E
:1002100000F03AF804F027FA03B4FFF7F2FF03BC4A
:1002200002F090FE13B582B09DF808008DF8000032
:100230009DF809008DF801009DF80A008DF8020074
:100240009DF80B008DF803009DF80C008DF804005C
:100250009DF80D008DF805009DF80E008DF8060044
:100260009DF80F008DF8070047220821684602F02C
:100270009AFD04462CB135A003F054FE002004B0D2
:1002800010BD4FF0FF30FAE7002402F0EBFD02F062
:1002900053FE4FF4E13002F068FE02F0FBFE032152
:1002A00040F2E73002F0A4FF03F019FE02F05EFC1A
:1002B00000202B49086034E02A48007820B103F080
:1002C0000CF9002027490870002403E003F06DF8C2
:1002D000601CC4B2042CF9DB234800221346D0E989
:1002E0000051284605F02AF81BD11F48002213466A
:1002F000D0E90251284605F021F812D11A49D1E976
:10030000045100221346284605F018F809D1164872
:1003100000221346D0E90651284605F00FF800D117
:1003200000E0C9E700BF01200D4908600CE00D485E
:10033000007820B103F0D1F800200A490870601C51
:10034000C4B2962C00DB0024F1E7000043414EB715
:10035000A2CBCDCAA7B0DCA3A1A3A1A3A10000009A
:10036000848121422100002098010020704700BFB5
:10037000FEE700BFFEE700BFFEE700BFFEE77047F5
:1003800070477047704710B50121880702F0D5F912
:10039000A0B10121880702F0E1F94FF08040008808
:1003A00000F0100028B960480068401C5E490860F1
:1003B00004E05D480068401E5B49086010BD10B550
:1003C00001215A4802F0B9F998B10121574802F0C9
:1003D000C5F95648008800F0100028B95248406816
:1003E000401C5149486004E04F484068401E4E4957
:1003F000486010BD10B501214D4802F09EF998B13A
:1004000001214B4802F0AAF94948008800F0100089
:1004100028B945488068401C4349886004E0424848
:100420008068401E4049886010BD10B501214148D8
:1004300002F083F998B101213E4802F08FF93D485E
:10044000008800F0100028B93748C068401C3649C1
:10045000C86004E03448C068401E3349C86010BD1D
:100460002DE9F0474FF0000A0121334802F065F909
:10047000002856D04FF0804002F04DF92F49086017
:100480002A4802F048F92D494860294802F043F90A
:100490002A498860274802F03EF92849C86000BF11
:1004A00035E0264850F82A00254951F82A10401A0C
:1004B0001D4951F82A1041F2883202FB01002149FE
:1004C00041F82A0051F82A0004F0D1FF0646002224
:1004D0001D4B04F0DBFD044600221C4B04F0D6FD4E
:1004E000804600221A4B05F015F81A4A02EBCA02A0
:1004F00003C200200C4941F82A00104850F82A0095
:100500000F4941F82A000AF1010000F0FF0ABAF190
:10051000040FC6DB0120104908700121064802F0D3
:100520001DF9BDE8F08700003802002000040040FB
:1005300000080040000C0040001400404802002069
:1005400058020020680200200000104000407F4058
:100550000000794078020020210000200CB5002026
:10056000019000906C48006840F480306A4908604F
:1005700000BF6948006800F4003000900198401CFA
:100580000190009818B90198B0F5A06FF1D16248B8
:10059000006800F4003010B10120009001E000205C
:1005A00000900098012843D15C48006840F010009A
:1005B0005A4908600846006820F0030008600846B1
:1005C000006840F0020008605348406852494860A3
:1005D0000846406848600846406840F480604860CB
:1005E0000846406820F47C1048600846406840F4A3
:1005F000E81048600846006840F08070086000BF5E
:100600004548006800F000700028F9D04248406872
:1006100020F00300404948600846406840F002006E
:10062000486000BF3C48406800F00C000828F9D141
:100630000CBD10B5FFF792FF10BD10B5364800682D
:1006400040F00100344908600846406834490840D9
:100650003149486008460068324908402E49086020
:100660000846006820F4802008600846406820F4AE
:10067000FE0048604FF41F008860FFF7DAFF4FF07C
:1006800000602949086010BD10B50021002000223B
:10069000214B5B6803F00C0121B1042906D0082925
:1006A00028D107E0214B224C236027E01F4B204C30
:1006B000236023E0184B5B6803F47010164B5B68F3
:1006C00003F48032022303EB904022B9194B4343D9
:1006D000174C23600DE0104B5B6803F4003323B12B
:1006E000144B4343124C236003E0104B4343104C24
:1006F000236003E00D4B0E4C236000BF00BF064B90
:100700005B68C3F303130C4CE15C094B1B68CB40E3
:10071000074C236010BD0000001002400020024082
:100720000000FFF8FFFFF6FE08ED00E000127A007F
:100730003000002000093D003400002009488047B7
:1007400009480047FEE7FEE7FEE7FEE7FEE7FEE7B3
:10075000FEE7FEE7FEE7FEE704480549054A064BCB
:10076000704700003B0600083101000838040020F3
:10077000380A00203806002038060020314901439D
:10078000314A1160704770B5002100230F22C478F0
:1007900004B32D4C246804F4E064C4F5E064210A39
:1007A000C1F10403CA40447804FA03F18478144088
:1007B00021430901254C0678A155047804F01F0552
:1007C0000124AC4005786D11AD0005F1E025C5F8B8
:1007D000004109E0047804F01F050124AC401C4DE1
:1007E0000678761145F8264070BD1A4A0A40024341
:1007F000154B1B1F1A60704739B1134A121D12683E
:100800000243114B1B1D1A6006E00F4A121D1268AD
:1008100082430D4B1B1D1A607047042808D14FF00E
:10082000E021096941F004014FF0E022116107E085
:100830004FF0E021096921F004014FF0E02211613D
:10084000704700000000FA050CED00E000E400E055
:1008500080E100E080FFFF1F10B50446FE4884429F
:1008600009D10121480601F032F800214FF0007053
:1008700001F02DF808E00121880601F028F8002198
:100880004FF0806001F023F810BD30B50246002023
:100890000023146824F002041460146844F0010476
:1008A000146000E05B1C546804F001041CB94FF6AE
:1008B000FF74A342F6D1546804F001040CB900207F
:1008C0006CE08C79012C04D1146844F0800414602D
:1008D00003E0146824F080041460CC79012C04D166
:1008E000146844F04004146003E0146824F04004E9
:1008F00014600C7A012C04D1146844F020041460B4
:1009000003E0146824F0200414604C7A012C04D114
:10091000146844F01004146003E0146824F0100418
:1009200014608C7A012C04D1146844F0080414601B
:1009300003E0146824F008041460CC7A012C04D17C
:10094000146844F00404146003E0146824F0040400
:1009500014608C78A407CD7844EA05640D7944EAE4
:1009600005444D7944EA05540D886D1E2C43D4612D
:10097000146824F001041460002300E05B1C546838
:1009800004F001041CB14FF6FF74A342F6D1546881
:1009900004F001040CB1002000E0012030BD10B5CE
:1009A0000021837A012202FA03F1AC4A126842F074
:1009B0000102AA4B1A60A94A1C3212688A43A74B4B
:1009C0001C331A60027BCAB9A44A0C3212688A43EB
:1009D000A24B0C331A604288C38842EA03439F4A01
:1009E0004032847A42F834300288838842EA0343F2
:1009F0009A4A4032847A02EBC4025360027B012A95
:100A000019D1964A0C3212680A43944B0C331A607F
:100A10004288038842EA0343904A4032847A42F88B
:100A20003430C288838842EA03438C4A4032847A55
:100A300002EBC4025360C27A3AB9884A121D1268A6
:100A40008A43864B1B1D1A6006E0844A121D1268F9
:100A50000A43824B1B1D1A60028932B97F4A143245
:100A600012688A437D4B14331A600289012A06D129
:100A70007A4A143212680A43784B14331A60427B64
:100A8000012A06D1754A1C3212680A43734B1C3383
:100A90001A60724A126822F00102704B1A6010BD8F
:100AA00000218171C171017241728172C1728170C4
:100AB000C170032101710221417101210180704740
:100AC0006649096841F00101644A116011460968EC
:100AD00043F60E729143614A11601146096841EA7A
:100AE000002111601146096821F001011160704771
:100AF00021B1026842F48032026003E0026822F40D
:100B0000803202607047E1B1026842F08002026008
:100B10004FF4C272125842F480734FF4C2721350F1
:100B20004FF4CA72125842F480734FF4CA721350D1
:100B30004FF4D272125842F480734FF4D2721350B1
:100B40001BE0026822F0800202604FF4C272125869
:100B500022F480734FF4C27213504FF4CA721258C9
:100B600022F480734FF4CA7213504FF4D2721258A9
:100B700022F480734FF4D2721350704710B50246BE
:100B80000020936803F08063B3F1806F00D110E020
:100B9000936803F00063B3F1006F01D1012008E016
:100BA000936803F08053B3F1805F01D1022000E02D
:100BB0000420042879D002F5C07303EB00131B68EE
:100BC00003F0010402F5C07303EB00131C600B7A01
:100BD0007BB94B7A0C8843EA445302F5C07404EBAA
:100BE00000142468234302F5C07404EB001423604E
:100BF00010E00B7A4C6843EAC4034C7A234302F5B5
:100C0000C07404EB00142468234302F5C07404EBA1
:100C1000001423608B7A03F00F038B7202F5C0730C
:100C200003EB00135B6823F00F0402F5C07303EBC2
:100C300000135C6002F5C07303EB00135B688C7AF1
:100C4000234302F5C07404EB001463608B7B1C0625
:100C50004B7B44EA034403E000640040006600402C
:100C60000B7B44EA0323CC7A234302F5C07404EBE4
:100C70000014A3608B7C1C064B7C44EA03440B7C71
:100C800044EA0323CC7B234302F5C07404EB001435
:100C9000E36002F5C07303EB00131B6843F001042B
:100CA00002F5C07303EB00131C6010BD10B50246C3
:100CB000002321B1012907D002290FD109E0906852
:100CC000F94C00EA04030BE09068F84C00EA0403D6
:100CD00006E09068F64C00EA040301E0002300BF40
:100CE00000BFF44C181BA34216D007DC83B16FF091
:100CF0008060184470B1022818D111E0B0F5007F6F
:100D000010D0ED4C204448B1B0F5003F0ED10BE0BF
:100D100002230DE000230BE0002309E0002307E09D
:100D2000012305E0012303E0012301E0002300BFCC
:100D300000BFD8B210BD21B1012907D002290FD1BF
:100D400009E0826842F0800282600AE0826842F430
:100D50000042826005E0826842F40002826000E0A6
:100D600000BF00BF704710B500F5D87303EB011347
:100D70001B6803F004031372137A53B900F5D87398
:100D800003EB01131B6840F2FF7404EA5353136032
:100D900009E000F5D87303EB01131B686FF06044A2
:100DA00004EAD303536000F5D87303EB01131B6807
:100DB00003F00203537200F5D87303EB01135B6871
:100DC00003F00F03937200F5D87303EB01135B6814
:100DD0001B0AD37400F5D87303EB01139B68D3721D
:100DE00000F5D87303EB01139B681C0A147300F51C
:100DF000D87303EB01139B681C0C547300F5D87374
:100E000003EB01139B681B0E937300F5D87303EB80
:100E10000113DB68D37300F5D87303EB0113DB68B0
:100E20001C0A147400F5D87303EB0113DB681C0C67
:100E3000547400F5D87303EB0113DB681B0E937435
:100E400021B9C36843F02003C36003E0036943F0A2
:100E50002003036110BD21B9C26842F02002C260C4
:100E600003E0026942F0200202617047024600205E
:100E700019B9D36803F0030006E0012903D113690F
:100E800003F0030000E00020704710B502460B4657
:100E900000204FF6FF71BBB9146824F0020444F03F
:100EA0000104146000E0491E546804F00304012C9E
:100EB00001D00029F7D1546804F00304012C01D0BB
:100EC000002032E0012030E0012B13D1146824F01F
:100ED0000304146000E0491E546804F003040CB1DC
:100EE0000029F8D1546804F003040CB100201CE080
:100EF00001201AE0022B17D1146824F0010444F0F9
:100F00000204146000E0491E546804F00304022C3B
:100F100001D00029F7D1546804F00304022C01D059
:100F2000002002E0012000E0002010BD014600206A
:100F30000A6822F0010242F002020A604A6802F0E6
:100F40000302022A00D10120704701464FF6FF72CA
:100F500000200B6823F002030B6000E0521E4B6878
:100F600003F00203022B01D1002AF7D14B6803F0F2
:100F70000203022B00D001207047014600208A693D
:100F800002F070007047014600208A69100E704719
:100F9000014600208A69C2F3074070471AB14369CD
:100FA0000B43436102E043698B434361704710B5D3
:100FB0000246002001F4700343B19369C1F31304A6
:100FC00023400BB101202DE000202BE001F08073C5
:100FD00043B15368C1F3130423400BB1012021E056
:100FE00000201FE001F0006343B19368C1F31304D4
:100FF00023400BB1012015E0002013E001F0007345
:1010000043B1D368C1F3130423400BB1012009E0BD
:10101000002007E01369C1F3130423400BB1012042
:1010200000E0002010BD0022244B994202D1002391
:10103000836111E0C1F3130201F000730BB1C260D0
:101040000AE001F080630BB1026105E001F000638A
:101050000BB1826000E0426070470246002002EA65
:1010600001030BB1012000E00020704770B5044679
:101070000D46002660692840002872D0B5F5807FB3
:1010800069D01DDC082D42D006DC012D2DD0022DAB
:1010900031D0042D7FD134E0102D3ED0202D42D010
:1010A000402D78D145E00000030000040003000853
:1010B00000000310000100080001FFF77000F0308D
:1010C000B5F5004F61D009DCB5F5007F4AD0B5F524
:1010D000806F4DD0B5F5006F5DD150E0B5F5803F24
:1010E0002DD0B5F5003F56D12FE0A0685549FFF748
:1010F000B4FF064651E0E0680321FFF7AEFF064665
:101100004BE0E0680821FFF7A8FF064645E0E068ED
:101110001021FFF7A2FF06463FE020690321FFF7F9
:101120009CFF064639E020690821FFF796FF064636
:1011300033E020691021FFF790FF06462DE060683C
:101140000821FFF78AFF064627E060681021FFF7B5
:1011500084FF064621E0A0690121FFF77EFF0646D5
:101160001BE01BE0A0690221FFF777FF064614E0B1
:10117000A0690421FFF771FF06460EE00BE0A069AD
:101180007021FFF76AFF064607E060680421FFF759
:1011900064FF064601E0002600BF00E0002630465E
:1011A00070BDB1F5007F3AD00FDC202928D006DCD5
:1011B00001291CD004291DD0082940D11DE0402957
:1011C00021D0B1F5807F3AD126E0B1F5004F31D082
:1011D00006DCB1F5806F25D0B1F5006F2FD124E08A
:1011E000B1F5803F12D0B1F5003F28D111E0154A8A
:1011F000826025E00822C26022E01022C2601FE067
:10120000082202611CE01022026119E008224260FB
:1012100016E01022426013E00422426010E0042233
:1012200042600DE0042242600AE000228261042252
:10123000426005E0002282610422426000E000BFBB
:1012400000BF70470101010010B50446CC4884423C
:1012500008D10121042000F02DFB0021042000F022
:1012600029FB46E0C748844208D10121082000F04C
:1012700021FB0021082000F01DFB3AE0C248844217
:1012800008D10121102000F015FB0021102000F0F2
:1012900011FB2EE0BD48844208D10121202000F03E
:1012A00009FB0021202000F005FB22E0B848844221
:1012B00008D10121402000F0FDFA0021402000F07B
:1012C000F9FA16E0B348844208D10121802000F0E9
:1012D000F1FA0021802000F0EDFA0AE0AE488442E5
:1012E00007D10121801500F0E5FA0021A01500F0DA
:1012F000E1FA10BD10B50121084600F0DBFA00212B
:10130000012000F0D7FA10BD2DE9F041024600257A
:101310000026002000230024002791F803C00CF0D1
:101320000F0591F803C00CF0100CBCF1000F03D0B6
:1013300091F802C04CEA050591F800C0BCF1000F1D
:1013400031D0146800202BE04FF0010C0CFA00F3B0
:10135000B1F800C00CEA03069E4220D183004FF092
:101360000F0C0CFA03F7BC4305FA03FC4CEA040427
:1013700091F803C0BCF1280F06D14FF0010C0CFA14
:1013800000FCC2F814C00AE091F803C0BCF1480F99
:1013900005D14FF0010C0CFA00FCC2F810C0401C43
:1013A0000828D1D31460B1F800C0BCF1FF0F34DDC0
:1013B000546800202EE000F1080C4FF0010808FAF4
:1013C0000CF3B1F800C00CEA03069E4221D1830061
:1013D0004FF00F0C0CFA03F7BC4305FA03FC4CEA80
:1013E000040491F803C0BCF1280F05D100F1080CEA
:1013F00008FA0CF8C2F8148091F803C0BCF1480F49
:1014000007D100F1080C4FF0010808FA0CF8C2F8F7
:101410001080401C0828CED35460BDE8F0814FF600
:10142000FF710180022181700421C1707047024662
:10143000002093680B400BB1012000E000207047B2
:101440000146886880B2704702460020D3680B408E
:101450000BB1012000E0002070470146C86880B24F
:10146000704701617047416170470AB1016100E056
:1014700041617047C16070474FF480320A43826116
:101480008161826182698269704702460020434B14
:1014900018684FF68073184040EA021008433F4B2B
:1014A000186070473E49C8617047F0B50A4600238E
:1014B00000240021002500F00046B6F1004F02D1C3
:1014C000364EF16901E0354E7168C0F3034583B2D1
:1014D00000F44016B6F5401F08D121F070612F4E80
:1014E000766826F070662D4F7E6012E000F480165C
:1014F000B6F5801F06D1032606FA05F4A14341F094
:10150000706106E0460D360103FA06F6B14341F07C
:10151000706122B1460D360103FA06F6314300F040
:101520000046B6F1004F02D11C4EF16101E01B4EA6
:101530007160F0BD30B500228B071C0F0F2303FA3A
:1015400004F2164B08338C1053F824309343134C99
:1015500008348D1044F8253023468C1053F824307D
:101560008C07240F00FA04F423430C4C08348D102C
:1015700044F8253030BD0A49DC310860704700006E
:1015800000080140000C014000100140001401401F
:1015900000180140001C01400020014000000140F3
:1015A00000002042DF48006840F00100DD4908608B
:1015B00008464068DC490840DA4948600846006847
:1015C000DA490840D74908600846006820F48020BE
:1015D00008600846406820F4FE0048604FF41F0091
:1015E00088607047CF49096821F48031CD4A116085
:1015F0001146096821F480211160B0F5803F03D0C5
:10160000B0F5802F0ED106E0C649096841F480315B
:10161000C44A116007E0C349096841F4A021C14AE6
:10162000116000E000BF00BF704710B50146002206
:10163000002300204A11012A02D1BA4C236806E097
:10164000022A02D1B74C236A01E0B64C636A01F06A
:101650001F02012494401C400CB1012000E0002036
:1016600010BD38B5002000900024002500BF3120B7
:10167000FFF7DBFF05460098401C00900098B0F58E
:10168000A06F01D0002DF2D03120FFF7CEFF08B1BE
:10169000012400E00024204638BD01460020A14A74
:1016A000106820F0F80040EAC10010607047A049BF
:1016B00008607047024600209A4B586820F47C105E
:1016C00042EA01031843974B5860704798490866EF
:1016D000704701460020934A506820F003000843F9
:1016E000506070478F48406800F00C00704701461A
:1016F00000208C4A506820F0F0000843506070478A
:1017000001460020874A506820F4E060084350609A
:10171000704701460020834A506820F4605040EA38
:10172000C1005060704729B17E4A527A02437D4B16
:101730005A7204E07B4A527A82437A4B5A7270475B
:101740007B49D8310860704701460020754A5068CF
:1017500020F440400843506070470021714A203215
:101760001170704A82F82010012802D004280AD192
:1017700004E001216B4A2032117005E00521694A1D
:101780002032117000E000BF00BF70476949086057
:1017900070476449096A0143624A116270476549AA
:1017A00044390860704730B500210022002400232E
:1017B0005C4D6D6805F00C0121B1042905D00829A4
:1017C00023D105E05C4D056022E05B4D05601FE024
:1017D000544D6D6805F47012524D6D6805F48034F7
:1017E000022505EB92421CB9544D554305600BE0B0
:1017F0004C4D6D6805F400351DB1504D55430560E5
:1018000002E04D4D5543056002E04B4D056000BFC1
:1018100000BF444D6D6805F0F0010909484D6B5C4F
:101820000568DD4045603F4D6D6805F4E061090ADB
:10183000434D6B5C4568DD4085603A4D6D6805F44D
:101840006051C90A3E4D6B5C4568DD40C560354D51
:101850006D6805F44041890B3A4D6B5CC568B5FB7A
:10186000F3F5056130BD29B12E4A526902432D4B73
:101870005A6104E02B4A526982432A4B5A617047ED
:1018800029B1284A92690243264B9A6104E0254A0D
:1018900092698243234B9A61704729B1214AD269E8
:1018A0000243204BDA6104E01E4AD26982431D4B99
:1018B000DA61704729B11B4AD2680243194BDA60DA
:1018C00004E0184AD2688243164BDA60704729B1A7
:1018D000144A12690243134B1A6104E0114A126957
:1018E0008243104B1A6170471249403908607047B3
:1018F0000F49C86470470B49C87170470948406A6E
:1019000040F0807007494862704701460020054A50
:1019100092680A400AB1012000E0002070470149A6
:1019200088727047001002400000FFF8FFFFF6FECB
:10193000000042428004424200127A0000093D0049
:10194000440000205400002010B50446FE488442A4
:1019500008D10121C014FFF7ADFF0021E014FFF70B
:10196000A9FFC4E0B4F1804F08D101210846FFF778
:10197000AEFF00210120FFF7AAFFB8E0F348844240
:1019800008D101210220FFF7A2FF00210220FFF76A
:101990009EFFACE0EE48844208D101210420FFF70D
:1019A00096FF00210420FFF792FFA0E0E94884425F
:1019B00008D101210820FFF78AFF00210820FFF746
:1019C00086FF94E0E448844208D101211020FFF70B
:1019D0007EFF00211020FFF77AFF88E0DF48844275
:1019E00008D101212020FFF772FF00212020FFF7FE
:1019F0006EFF7CE0DA48844208D101214014FFF7F1
:101A000059FF00216014FFF755FF70E0D54884426C
:101A100009D10121C804FFF74DFF00214FF4002038
:101A2000FFF748FF63E0D048844209D1012108054F
:101A3000FFF740FF00214FF48010FFF73BFF56E017
:101A4000CA48844209D101214805FFF733FF00212C
:101A50004FF40010FFF72EFF49E0C548844208D13B
:101A600001214020FFF733FF00214020FFF72FFF27
:101A70003DE0C048844208D101218020FFF727FFC4
:101A800000218020FFF723FF31E0BB48844208D1CA
:101A900001218015FFF71BFF0021A015FFF717FF9D
:101AA00025E0B648844209D101210804FFF702FF6E
:101AB00000214FF48030FFF7FDFE18E0B04884426B
:101AC00009D101214804FFF7F5FE00214FF4003051
:101AD000FFF7F0FE0BE0AB48844208D101218804F7
:101AE000FFF7E8FE00214FF48020FFF7E3FE10BD72
:101AF00000220288944B98420ED0994B98420BD00A
:101B0000B0F1804F08D0914B984205D0904B98424D
:101B100002D0904B984204D14FF68F731A404B88F5
:101B20001A438D4B984207D08C4B984204D04FF605
:101B3000FF431A40CB881A4302808B8883850B8829
:101B40000385814B98420BD0854B984208D08B4B34
:101B5000984205D08A4B984202D08A4B984201D1D4
:101B60000B7A038601238382704770B5002400221C
:101B70000023058C4FF6FE7635400584028C838861
:101B8000048B4FF68F752C40B51E2C400D882C43CE
:101B9000751E2A400D892A434D882A436A4DA84262
:101BA0000BD06F4DA84208D0744DA84205D0744D9B
:101BB000A84202D0734DA84213D14FF6F7752A40C0
:101BC0004D892A434FF6FB752A408D882A434FF6EC
:101BD000FF652B404FF6FF552B408D892B43CD8958
:101BE0002B4383800483CD888586028470BD70B5C5
:101BF000002400220023058C4FF6EF763540058443
:101C0000028C8388048B48F6FF752C404FF6FF4505
:101C10002C400D884FF6FF7606EA05252C434FF63B
:101C2000DF752A400D8906EA05152A434D8806EA24
:101C300005152A43444DA84202D0494DA8421DD162
:101C40004FF67F752A404D894FF6FF7606EA051557
:101C50002A434FF6BF752A408D8806EA05152A43A8
:101C60004FF6FF352B404FF2FF752B408D8906EA6A
:101C700085052B43CD8906EA85052B4383800483A4
:101C8000CD880587028470BD70B500240022002332
:101C9000058C4FF6FF6635400584028C8388848B63
:101CA0004FF68F752C404FF6FC752C400D882C4359
:101CB0004FF6FF552A400D894FF6FF7606EA0525B7
:101CC0002A434D8806EA05252A431F4DA84202D023
:101CD000234DA8421DD14FF2FF752A404D894FF682
:101CE000FF7606EA05252A434FF6FF352A408D8800
:101CF00006EA05252A434EF6FF752B404DF6FF7583
:101D00002B408D8906EA05152B43CD8906EA05157A
:101D10002B4383808483CD888587028470BD70B512
:101D2000002200230024058C4EF6FF763540058402
:101D3000038C8488828B48F6FF752A404FF6FF4556
:101D40002A400D8820E00000002C014000040040E3
:101D500000080040000C004000100040001400404B
:101D600000340140004C014000500140005401404B
:101D700000180040001C00400020004000400140CE
:101D800000440140004801404FF6FF7606EA052571
:101D90002A434DF6FF752B400D8906EA05352B4386
:101DA0004D8806EA05352B43FA4DA84202D0FA4D7C
:101DB000A84208D14BF6FF752C408D894FF6FF766F
:101DC00006EA85152C4384808283CD88A0F8405094
:101DD000038470BD828B4FF2FF331A408283828B63
:101DE0004FF6FF7303EA01231A4382837047F0B56D
:101DF0000C461546002200210026078C4EF6FF7C7B
:101E000007EA0C070784828B018C4FF6FF7707EAFD
:101E1000043640F6FF473A404FF6FF7707EA0527BA
:101E20003A434FF6FF7707EA03373A43D94FB842B0
:101E30000ED0D94FB8420BD0B0F1804F08D0D74F59
:101E4000B84205D0D64FB84202D0D64FB84206D1DC
:101E50004DF6FF77394046F48057394305E047F6A1
:101E6000FF57394044F48057394382830184F0BDE1
:101E7000828B4FF6F3731A408283828B0A438283EC
:101E80007047F0B50C461546002200210026078C4D
:101E90004FF6FF6C07EA0C070784828B018C4FF624
:101EA000FF7707EA04264FF60C773A404FF6FF77A4
:101EB00007EA03172F433A43B64FB8420ED0B64F46
:101EC000B8420BD0B0F1804F08D0B44FB84205D023
:101ED000B34FB84202D0B34FB84206D14FF6FF57C6
:101EE000394046F48077394305E04FF2FF573940D7
:101EF00044F48077394382830184F0BD028B4FF232
:101F0000FF331A400283028B4FF6FF7303EA01236B
:101F10001A4302837047F0B50C4615460022002193
:101F20000026078C4FF6EF7C07EA0C070784028B2C
:101F3000018C4FF6FF7707EA041640F6FF473A4058
:101F40004FF6FF7707EA03373A434FF6FF7707EA82
:101F500005273A438F4FB8420ED08F4FB8420BD06F
:101F6000B0F1804F08D08D4FB84205D08C4FB842A9
:101F700002D08C4FB84206D14FF6DF77394046F099
:101F80001007394305E04FF65F77394044F01007FA
:101F9000394302830184F0BD028B4FF6F3731A407C
:101FA0000283028B0A4302837047F0B50C46154644
:101FB00000220021068C4FF6FE773E400684028BFD
:101FC000018C4FF60C7632407E1C06EA03162E4337
:101FD0003243704EB0420ED06F4EB0420BD0B0F1D3
:101FE000804F08D06D4EB04205D06D4EB04202D049
:101FF0006C4EB04206D14FF6FD76314044F00106FA
:10200000314305E04FF6F576314044F001063143A7
:1020100002830184F0BD70B505460C465D488542DB
:102020000ED05D4885420BD0B5F1804F08D05B489B
:10203000854205D05A48854202D05A48854200D18F
:1020400000E000BF208850B92389A2886188284613
:10205000FFF7ABFFE1882846FFF79EFF25E02088C9
:1020600004280AD12389A28861882846FFF753FFF4
:10207000E1882846FFF742FF17E0208808280AD1A8
:102080002389A28861882846FFF7FBFEE18828465D
:10209000FFF7EEFE09E02389A28861882846FFF752
:1020A000A6FEE1882846FFF795FE70BD2DE9F041B8
:1020B00005460C4600260127608808B9022600E084
:1020C0000026A088012801D1022700E001272088EE
:1020D000A0B92389A28861882846FFF766FFE188B6
:1020E0002846FFF759FF23893A4631462846FFF72D
:1020F00012FFE1882846FFF701FF13E02389A28839
:1021000061882846FFF707FFE1882846FFF7F6FEBB
:1021100023893A4631462846FFF747FFE18828469B
:10212000FFF73AFFBDE8F0810A884B881A438B8895
:102130001A43CB881A430B891A434B891A438B895C
:102140001A43A0F8442070474FF6FF7181800021A8
:102150000180C1804180017270470021018041806F
:102160008180C180018141818181C18170470021CD
:1021700001804180012181800021C180018170475F
:102180000021018041808180C18001814181818164
:1021900070470000002C0140003401400004004062
:1021A00000080040000C004021B1028842F001020A
:1021B000028004E002884FF6FE731A4002807047E6
:1021C00031B1B0F8442042F40042A0F8442005E0C8
:1021D000B0F84420C2F30E02A0F8442070471AB1B0
:1021E00083890B43838102E083898B43838170471A
:1021F0008182704741EA0203A0F8483070471AB163
:1022000083890B43838102E083898B4383817047F9
:1022100001894FF6F8721140018170470A4600218A
:1022200001894FF68F73194011430181704730B512
:1022300004460D4629462046FFF7F0FF208940F06E
:102240000700208130BD2DE9F04104460D461646B9
:102250001F46602D06D13B46012231462046FFF73E
:102260005AFE05E03B46012231462046FFF79DFE1F
:1022700029462046FFF7D2FF208940F00700208141
:10228000BDE8F08130B50C4600210189C9B24FF696
:10229000FF7505EA0325154325432943018130BD18
:1022A0002DE9F04105460E46174698460024434660
:1022B0003A4631462846FFF7E5FF2C894FF6F8707D
:1022C000044044F007044FF68F70044044F070045B
:1022D0002C81BDE8F081F0B504460D4616461F4638
:1022E0003B46324629462046FFF7CCFF208940F482
:1022F00080402081F0BD0185828270470A4600211E
:1023000001884FF68F731940114301807047F0B573
:102310000C4615461E460021002200230189028B2F
:10232000038C4FF6F877394021434FF6FC473A408B
:1023300040F201173A434FF6DD773B404FF6FF7707
:1023400007EA06172F433B43018102830384F0BD54
:102350000A460021018B4FF68F7319401143018308
:1023600070470A460021018B48F6FF7319404FF66B
:10237000FF7303EA02231943018370470A460021D1
:10238000818B4FF68F7319401143818370470A4642
:102390000021818B48F6FF7319404FF6FF7303EA63
:1023A000022319438183704721B1028842F08002E1
:1023B000028004E002884FF67F731A400280704763
:1023C00021B1828842F00402828004E082884FF6C4
:1023D000FB731A408280704721B1828842F0080264
:1023E000828004E082884FF6F7731A40828070473B
:1023F00021B1828842F00102828004E082884FF697
:10240000FE731A40828070470A460021018B4FF606
:10241000F77319401143018370470A460021018B6D
:102420004FF2FF7319404FF6FF7303EA022319437B
:10243000018370470A460021818B4FF6F7731940DC
:102440001143818370470A460021818B4FF2FF734D
:1024500019404FF6FF7303EA022319438183704743
:102460000A460021018B4FF6FB731940114301838B
:1024700070470A460021018B4FF6FF3319404FF693
:10248000FF7303EA02231943018370470A460021C0
:10249000818B4FF6FB7319401143818370470A46C5
:1024A0000021818B4FF6FF3319404FF6FF7303EA8B
:1024B00002231943818370470A460021018B4FF69E
:1024C0007F7319401143018370470A460021018B35
:1024D000C1F30E014FF6FF7303EA02231943018390
:1024E00070470A460021818B4FF67F7319401143D4
:1024F000818370470A460021818BC1F30E014FF69C
:10250000FF7303EA02231943818370470A460021BF
:10251000018C4FF6FD7319401143018470470A4640
:102520000021018C4FF6F773194011430184704765
:102530000A460021018C4FF6DF7319404FF6FF73F6
:1025400003EA02131943018470470A460021018CF3
:102550004FF67F7319404FF6FF7303EA02131943D6
:10256000018470470A460021018C4FF6FF53194041
:102570004FF6FF7303EA02231943018470470A46AA
:102580000021018C4FF2FF7319404FF6FF7303EAED
:1025900002231943018470470A460021018C4DF63D
:1025A000FF7319404FF6FF7303EA023319430184A6
:1025B000704730B5002301248C40A3B2048C9C43A7
:1025C0000484048C02FA01F5ADB22C43048430BDBE
:1025D00030B5002304248C40A3B2048C9C430484B3
:1025E000048C02FA01F5ADB22C43048430BD70B501
:1025F0000346002000241846183001258D40ACB257
:102600001D8CA5431D8409B1082909D100EB610087
:10261000056825F0700505600568154305600EE046
:102620000D1FC5F34E052844056825F4E0450560F7
:1026300005684FF6FF7606EA02263543056070BD51
:1026400021B1028842F00202028004E002884FF6C3
:10265000FD731A400280704721B1028842F00402E3
:10266000028004E002884FF6FB731A400280704734
:1026700021B1828842F08002828004E082884FF695
:102680007F731A408280704702884FF6F7731A40B2
:10269000028002880A430280704782884FF68F7357
:1026A0001A40828082880A438280704702894FF6EE
:1026B000F8731A40028102890A4302817047028935
:1026C0004FF67F731A40028102890A4302817047E4
:1026D0008184704781857047818670470187704784
:1026E00081877047A0F84010704702884FF6FF437B
:1026F0001A40028002880A43028070470146888E91
:1027000070470146088F70470146888F7047014621
:10271000B1F8400070470146888C70470146088D2B
:10272000704702460020138A0B400BB1012000E0E5
:1027300000207047CA430282704730B5024600202D
:1027400000230024158A05EA0103958905EA01049E
:1027500013B10CB1012000E0002030BDCA43028259
:102760007047000010B50446FB48844209D101219E
:102770008803FFF79FF800214FF48040FFF79AF895
:1027800032E0F648844209D101214804FFF79FF85E
:1027900000214FF40030FFF79AF825E0F04884421A
:1027A00009D101218804FFF792F800214FF480201D
:1027B000FFF78DF818E0EB48844209D10121C804E5
:1027C000FFF785F800214FF40020FFF780F80BE0B9
:1027D000E548844208D101210805FFF778F8002177
:1027E0004FF48010FFF773F810BD2DE9F04786B065
:1027F00005460E460024A24600BFA1460027B08928
:1028000000B100BF2F462C8A4CF6FF700440F088C0
:1028100004432C82AC894EF6F3100440B088318911
:102820000843718908430443AC81AC8A4FF6FF40EA
:102830000440B0890443AC8201A8FEF7B4FFC64847
:10284000874202D1DDF810A001E0DDF80CA0A889D4
:1028500000F4004040B10AEBCA0000EB0A103168F6
:102860004900B0FBF1F807E00AEBCA0000EB0A10E0
:1028700031688900B0FBF1F86420B8FBF0F0040186
:102880002009642101FB1089A88900F4004040B1AF
:10289000322000EBC900B0FBF1F000F00700044368
:1028A00008E0322000EB09106421B0FBF1F000F0E9
:1028B0000F0004432C8106B0BDE8F0874FF4165199
:1028C000016000218180C18001810C2141810021B2
:1028D0008181704710B502460020108A4FF2FF0335
:1028E00018400B884C8823438C882343CC8823438F
:1028F0001843108210BD0021018041808180C18079
:10290000704721B1828942F40052828104E08289B9
:102910004DF6FF731A4082817047F0B503460024DC
:1029200000260025002040F66A17B94200D100BFFA
:102930001846C1F3421401F01F06012707FA06F5F5
:10294000012C01D10C3004E0022C01D1103000E048
:1029500014301AB107682F43076002E00768AF43DD
:102960000760F0BD1AB1838A0B43838202E0838A39
:102970008B4383827047028A4FF6F0731A400282BB
:10298000028A0A430282704782894FF2FF731A401B
:10299000828182890A438281704721B1828942F013
:1029A0000202828104E082894FF6FD731A4082811F
:1029B0007047028A4FF6DF731A400282028A0A4386
:1029C0000282704721B1028A42F48042028204E00E
:1029D000028A4BF6FF731A4002827047C1F3080265
:1029E0008280704701468888C0F30800704781895B
:1029F00041F0010181817047028BD2B20283028BC8
:102A000042EA012202837047028B02F47F42028372
:102A1000028B0A430283704721B1828A42F020026E
:102A2000828204E0828A4FF6DF731A408282704706
:102A300021B1828A42F01002828204E0828A4FF63B
:102A4000EF731A408282704721B1828A42F00802F5
:102A5000828204E0828A4FF6F7731A4082827047BE
:102A600021B1828942F40042828103E08289C2F36B
:102A70000E028281704721B1828A42F40062828212
:102A800004E0828A4FF2FF731A4082827047828A82
:102A90004FF6FB731A408282828A0A438282704711
:102AA00021B1828A42F00202828204E0828A4FF6D9
:102AB000FD731A408282704702460020B1F5007F04
:102AC00000D100BF13880B400BB1012000E00020B3
:102AD000704701F40072B2F5007F00D100BFCA4315
:102AE0000280704770B502460024002300250020B4
:102AF00040F66A16B14200D100BFC1F3421501F0A1
:102B00001F03012606FA03F3012D02D196893340F3
:102B100006E0022D02D1168A334001E0968A334046
:102B20000C12012606FA04F41688344013B10CB1D5
:102B3000012000E0002070BD10B50022002340F607
:102B40006A14A14200D100BF0A1201249440A3B22A
:102B5000DC43048010BD0000003801400044004008
:102B600000480040004C00400050004000B589B0D3
:102B700001210920FEF784FE01214806FEF78DFEA3
:102B800001214FF4EA10FEF790FC03208DF81600A7
:102B90004FF48070ADF8140048208DF8170005A997
:102BA0009C48FEF7B1FB4FF40070ADF814001820FC
:102BB0008DF8170005A99748FEF7A6FB14208DF89D
:102BC000100000208DF811008DF8120001208DF802
:102BD000130004A8FDF7D7FD8F48FDF73DFE06A8BA
:102BE000FDF75EFF01208DF81F008DF8200000200A
:102BF0008DF81B0004208DF81C0002208DF81D00AC
:102C00000420ADF8180006A98348FDF73EFE002019
:102C10008DF80A008DF80B0001208DF80C00402083
:102C2000ADF800000020ADF80200ADF80400ADF8EA
:102C30000600ADF8080001208DF80D006846FDF78C
:102C4000AEFE012202217448FEF7A8F909B000BDCA
:102C50002DE9FC477148407A00287CD16F48006814
:102C60001F283CD0272864D08F2802D097287CD1F9
:102C70001AE06A48D0F80B00694908606748D0F844
:102C80000F004860486802F06FFE05460E46644932
:102C9000086802F069FE07463A460B4661A0CDE996
:102CA000005601F03FF961E05C48D0F80B005C4948
:102CB00088605A48D0F80F00C860C86802F054FE17
:102CC00005460E465649886802F04EFE07463A46CB
:102CD0000B4658A0CDE9005601F024F946E04F48D4
:102CE000D0F80B40D0F80F905649204602F068FE0D
:102CF000054602F039FE544AC2E9060151494846E8
:102D000002F05EFE054602F02FFE4F4AC2E90201C4
:102D1000484602F029FE07468846204602F024FE77
:102D200005462A460B4649A0CDE9007801F0FAF89D
:102D300000BF3A48D0F80B40D0F80F9041492046E8
:102D400002F03EFE054602F00FFE3F4AC2E90401D2
:102D50003C49484601E00AE007E002F031FE054642
:102D600002F002FE384A03C200E000BF00BFBDE827
:102D7000FC8710B502212848FEF778F990B1274A60
:102D800000212548FDF7EFFF3548006808B901200C
:102D900000E0002032490860FFF75AFF02211E4878
:102DA000FEF764F910BD2DE9F04186B007460D46E7
:102DB00090460024CDF8048000208DF80C008DF89A
:102DC0000D008DF80E5000BF05E0395D0DF10F00CC
:102DD0000155601C84B2AC42F7DB01A90E48FDF737
:102DE000CDFE0646002401E0601C84B231460A484C
:102DF000FDF75CFF18B940F6FF708442F4DB40F643
:102E0000FF70844203DB012006B0BDE8F0810020A2
:102E1000FAE70000000C014000640040AC02002012
:102E2000C00200204D302025662C204D3120256623
:102E30000D0A00004D322025662C204D33202566DA
:102E40000D0A000000007A44980100207831203DEE
:102E50002025662C7832203D2025660D0A000000D2
:102E60008481214210B56FF00400FDF7D6FC2E4896
:102E700000682E49B0FBF1F02D4908700846007833
:102E800000EB4001C1EBC0104FF6FF7101EAC0003A
:102E90002849088010BD0146254A12784A434FF060
:102EA000E0235A6100229A611A46126942F0010237
:102EB0001A6100BF4FF0E022106900F001021AB160
:102EC00000F48032002AF5D04FF0E022126922F09F
:102ED00001024FF0E0231A6100229A617047014617
:102EE000144A12884A434FF0E0235A6100229A6143
:102EF0001A46126942F001021A6100BF4FF0E02247
:102F0000106900F001021AB100F48032002AF5D0F5
:102F10004FF0E022126922F001024FF0E0231A6123
:102F200000229A61704700003000002000127A00F1
:102F3000800000208200002010B54FF4A060FDF753
:102F40001DFC10BD014600BF704770B504460D461C
:102F500000BF40214B48FFF7AFFD0028F9D0E1B298
:102F60004848FFF73BFD204670BD10B586B00446CB
:102F700001210420FEF784FC01214804FEF78DFCAA
:102F80004048FFF7EFFB0420ADF8140003208DF854
:102F9000160018208DF8170005A93B48FEF7B4F974
:102FA0000820ADF8140004208DF8170005A9364854
:102FB000FEF7AAF901940020ADF80800ADF80A0068
:102FC000ADF80C00ADF810000C20ADF80E0001A912
:102FD0002C48FFF70AFC26208DF8000003208DF80E
:102FE00001008DF8020001208DF803006846FDF70E
:102FF000CAFB012240F225512248FFF78EFC012135
:103000002048FFF77EFC06B010BD10B540F22551F8
:103010001C48FFF767FD10B31A48FFF7E3FCC4B282
:103020001A48008800F40040C8B91848008800F425
:10303000804060B10A2C03D000201449088020E0B1
:103040001248008840F400401049088019E00D2C17
:1030500006D10E48008840F480400C49088010E0FA
:103060000A480088C0F30D0009490C54074800883D
:10307000401C0649088008460088C72801DD00205A
:10308000088010BD00440040000801408800002076
:10309000D002002008B501210820FEF7F1FB032033
:1030A000ADF8000010208DF8030003208DF8020019
:1030B00069460448FEF728F903210248FEF7D1F9D2
:1030C00008BD0000000C014008B501214803FEF7CF
:1030D000D7FB01210846FEF7D3FB01211020FEF7A4
:1030E000CFFB01210420FEF7CBFB4FF47070ADF84D
:1030F000000018208DF8030003208DF802006946B7
:103100004148FEF701F908BD30B587B005460C46C9
:10311000ADF81450ADF810400020ADF81200ADF835
:1031200016008DF8180004A93848FEF7E1FC70205D
:10313000ADF800000120ADF802000020ADF8040059
:10314000ADF806000220ADF808000020ADF80A0036
:103150004FF48070ADF80C000020ADF80E00694609
:103160002A48FEF702FD0020ADF806006946274810
:10317000FEF73DFD0020ADF8060069462348FEF746
:1031800083FD0020ADF8060069462048FEF7C7FD24
:1031900001211E48FFF708F801211C48FFF710F82D
:1031A00007B030BD08B501210C20FEF769FB4FF4D4
:1031B0007040ADF8000010208DF8030003208DF85A
:1031C000020069461248FEF79FF84FF4704110481C
:1031D000FEF749F94FF47060ADF8000069460D48FC
:1031E000FEF792F84FF470610A48FEF73CF908BD0B
:1031F00070B504460D46FFF767FF29462046FFF7E6
:1032000083FFFFF7CFFF70BD001001400034014085
:10321000000C0140000801402DE9F04F8DB08246BE
:1032200014461D4625F000432646DAE9008121F0C8
:1032300000413246404602F0ADFACAE90801DAE937
:103240000A63324600204FF0804102F063F9804665
:10325000DAE90863324602F091FACDE90001DAE9D1
:103260000C63324601F05EFECDE90201DAE9066345
:10327000324602F04FF90022F74BCDE9040102F08B
:1032800049F9CDE90801DAE908633246DAE904814F
:10329000404602F03FF94FF02042F04BCDE90001EB
:1032A00002F038F9CDE90401DAE90A633246DAE9D5
:1032B0000881404602F06EFACDE90201DDE90423FF
:1032C00001F030FECDE90601DDE9082301F02AFE18
:1032D000CDE90A01DAE90263324602F01BF9CAE9D4
:1032E0000E01DAE90A01CAE90C01DAE90801CAE9C2
:1032F0000A01DAE90E21104601F0E2FD8346584644
:103300000DB0BDE8F08F2DE9FC5F044689461646F6
:103310001D46D9E9007121F000410022D04B38460A
:1033200002F0BCF812D305EBC400D0E900A306EB11
:10333000C4005246D0E90071384602F0EBF8002292
:103340001346CDE9000102F0E3F90CD805EBC40007
:10335000D0E9001006EBC402C2E9001005EBC4017D
:1033600003C9BDE8FC9F05EBC400D0E9007306EB80
:10337000C4003A46D0E900A1504602F0CBF8002242
:103380001346CDE9000102F089F802D2002001467F
:10339000E7E705EBC400D0E9001006EBC402C2E980
:1033A000001005EBC40103C9DBE72DE9F05F4FF026
:1033B000000A8CE0AB4951F82A0002F0D5FA044625
:1033C000A94800EBCA00D0E900633246204602F06B
:1033D000E1F9804601F0EEFF8346584602F047F8D7
:1033E00021F0004104460022A04B02F091F966D280
:1033F000BAF1000F09D0BAF1010F1CD0BAF1020FD7
:103400002FD0BAF1030F58D141E0BBF1000F08DD16
:103410009748006802F02BF8964A02EBCA0203C2F2
:1034200008E093480068404202F021F8914A02EB1C
:10343000CA0203C242E0BBF1000F09DD8C480068FC
:10344000404202F014F88B4A02EBCA0203C207E0C2
:103450008748006802F00BF8864A02EBCA0203C2F2
:103460002CE0BBF1000F09DD81480068404201F00B
:10347000FEFF804A02EBCA0203C207E07C480068F4
:1034800001F0F5FF7B4A02EBCA0203C216E0BBF172
:10349000000F08DD7648006801F0E9FF754A02EB8D
:1034A000CA0203C208E072480068404201F0DFFF30
:1034B000704A02EBCA0203C200E000BF05E000212F
:1034C0006C4A02EBCA02116051600AF1010ABAF1BA
:1034D000040FFFF66FAFBDE8F09F2DE9F05F4FF0EE
:1034E000000800BF52E3634B634A64494046FFF75C
:1034F0000AFF634A02EB881203C2614800EB88109E
:1035000000221346D0E90061304602F001F97CD276
:1035100001205C4901F8080000215B4A02EBC80267
:1035200011605160554901EBC801D1E9006354496C
:1035300001EB88103246FFF76FFE814602F014FA65
:1035400004460D460022514B2046294602F0E0F881
:1035500001D200244D4D00224D4B2046294601F05A
:103560009DFF01D200244A4D4A4800EBC800224684
:103570002B46D0E90061304601F0D4FC454A02EB0D
:10358000C80203C2434800EBC8000022424BD0E906
:103590000061304602F0BCF806D800213E483D4AA2
:1035A00002EBC802C2E900103A4800EBC800002252
:1035B0001346D0E90061304601F070FF05D80021C4
:1035C000344A02EBC80211605160B8F1000F09D013
:1035D000B8F1010F23D0B8F1020F65D0B8F1030F95
:1035E0007DD17DE001202D49086000202C49C1F8E3
:1035F000B001284800EBC80000221346D0E9006162
:10360000304601F08FFC814600E087E001F002FFC8
:103610001FFA80FB59462348FFF75EF87DE0012042
:103620001E49091D086000201D49C1F8B401194850
:1036300000EBC80000221346D0E90061304601F0DB
:1036400071FC814601F0E6FE1FFA80FB59461548E1
:10365000FFF744F861E027E0000079409999993F2D
:103660000000E03FC0020020600000200000F03FAA
:103670009001002098010020B8010020780200206D
:103680009000002094010020B80300200000594061
:10369000000059C09803002000C07240B881214248
:1036A00000802142003401400120FA4908600020D6
:1036B000F949C1F8A801F94800EBC80000221346F7
:1036C000D0E90061304601F02DFC814601F0A2FEF8
:1036D0001FFA80FB5946F248FFF702F81DE01BE095
:1036E0000120EC49091D08600020EB49C1F8AC013C
:1036F000EA4800EBC801D1E90061002213463046D8
:1037000001F010FC814601F085FE1FFA80FB59464E
:10371000E348FEF7E7FF00E000BF00BFE14800EB31
:10372000881000221346D0E90061304601F0B6FE51
:103730007DD20220DC4901F808000021D74A02EBC3
:10374000C80211605160D94901EBC801D1E9006399
:10375000D44901EB88103246FFF75EFD814602F046
:1037600003F904460D460022D14B2046294601F0BC
:10377000CFFF01D20024CE4D0022CE4B2046294659
:1037800001F08CFE01D20024CA4DCB4800EBC800EA
:1037900022462B46D0E90061304601F0C3FBC64A01
:1037A00002EBC80203C2C44800EBC801D1E90061C2
:1037B0000022C24B304601F0ABFF05D80020BF49C4
:1037C000BD4A02EBC80203C2BB4800EBC80000229E
:1037D0001346D0E90061304601F060FE05D80021B3
:1037E000B54A02EBC80211605160B8F1000F09D070
:1037F000B8F1010F23D0B8F1020F3CD0B8F1030F9C
:1038000071D153E00020AE4908600120AD49C1F8F4
:10381000B001A94800EBC80000221346D0E90061BE
:10382000304601F07FFB814601F0F4FD00E05CE0F2
:103830001FFA80FB59469A48FEF74EFF54E00020DD
:103840009F49091D086001209E49C1F8B4019A48AA
:1038500000EBC801D1E9006100221346304601F0B7
:1038600061FB814601F0D6FD1FFA80FB59468C486A
:10387000FEF734FF38E000208649086001208649C1
:10388000C1F8A8018C4800EBC80000221346D0E91B
:103890000061304601F046FB814601F0BBFD1FFA96
:1038A00080FB59467E48FEF71BFF1DE0002079494A
:1038B000091D086001207849C1F8AC017E4800EB81
:1038C000C80000221346D0E90061304601F02AFB0F
:1038D000814601F09FFD1FFA80FB59467048FEF7B4
:1038E00001FF01E0FFE700BF4CE16E4800EB8810EC
:1038F00000221346D0E90061304601F01FFDF3D1EC
:10390000694810F80800012872D100216A4A02EBC8
:10391000C80211605160614800EBC801D1E9006143
:103920004FF06632684B304601F0F4FD5B4A02EB23
:10393000C80203C2594800EBC801D1E90061002266
:10394000624B304601F0AAFD05D20021534A02EB3A
:10395000C80211605160B8F1000F09D0B8F1010F31
:103960001BD0B8F1020F2ED0B8F1030F57D140E0B1
:1039700001205349086000205249C1F8B00147486E
:1039800000EBC800D0E90021104601F043FD86B2EB
:1039900031464348FEF7A0FE42E001204849091D98
:1039A000086000204749C1F8B4013C4800EBC80159
:1039B000D1E90021104601F02DFD86B2314638488C
:1039C000FEF78CFE2CE001203249086000203249CD
:1039D000C1F8A801314800EBC800D0E90021104629
:1039E00001F018FD86B231462D48FEF779FE17E04A
:1039F00017E001202749091D086000202649C1F869
:103A0000AC01264800EBC800D0E90021104601F0C7
:103A100001FD86B231462248FEF764FE00E000BF99
:103A200000BF214810F8080002287CD100201B4A62
:103A300002EBC802106050601F4800EBC8004FF056
:103A40006632214BD0E90061304601F063FD1A4A2D
:103A500002EBC80203C2184800EBC801D1E90061BB
:103A600000221A4B304601F019FD05D20021124AFE
:103A700002EBC80211605160B8F1000F28D0B8F114
:103A8000010F3AD0B8F1020F4ED0B8F1030F77D141
:103A90005FE00000A00121420000214298030020C5
:103AA00000340140900000209401002078020020A2
:103AB00000005940000059C0B803002000C0724007
:103AC000B8812142008021426666EE3F00004940F5
:103AD00000203149086001203049C1F8B001304868
:103AE00000EBC800D0E90021104601F093FC86B23B
:103AF00031462C48FEF7F0FD43E000202649091D21
:103B0000086001202549C1F8B401254800EBC80030
:103B1000D0E90021104601F07DFC86B231462148F3
:103B2000FEF7DCFD2DE02DE000201F49086001209C
:103B30001E49C1F8A8011A4800EBC801D1E90021CB
:103B4000104601F067FC86B231461648FEF7C8FD04
:103B500017E000201449091D086001201349C1F82D
:103B6000AC010F4800EBC800D0E90021104601F07D
:103B700051FC86B231460B48FEF7B4FD01E0FFE789
:103B800000BF00BF08F1010000F0FF08B8F1040F0A
:103B9000FFF6A9ACBDE8F09FB88121420080214228
:103BA000B803002000340140A0012142000021425E
:103BB00008B501210C20FDF763FE01210846FDF741
:103BC0005FFE0121CE48FDF770FC0121CD48FDF7D5
:103BD0006CFC6846FDF723FC48F2C300ADF800001A
:103BE00004208DF8030003208DF802006946C648C2
:103BF000FDF78AFBC820ADF8000004208DF8030013
:103C000003208DF802006946C048FDF77DFB08BD22
:103C100008B54FF4A060FCF7B1FD1C208DF8000042
:103C200000208DF8010002208DF8020001208DF89F
:103C300003006846FCF7A7FD4FF4A060FCF79EFD6B
:103C40001D208DF8000000208DF8010002208DF865
:103C5000020001208DF803006846FCF794FD4FF444
:103C6000A060FCF78BFD1E208DF8000000208DF871
:103C7000010002208DF8020001208DF80300684643
:103C8000FCF781FD4FF4A060FCF778FD32208DF841
:103C9000000000208DF8010002208DF802000120B4
:103CA0008DF803006846FCF76EFD4FF4A060FCF74A
:103CB00065FD37208DF8000000208DF801000120FF
:103CC0008DF802008DF803006846FCF75CFD08BD26
:103CD00030B587B005460C4601210F20FDF7DDFD0C
:103CE0004FF08040FDF730FE8948FDF72DFE8948F2
:103CF000FDF72AFE8848FDF727FE01A8FEF724FA03
:103D0000ADF80850ADF804400020ADF80A00ADF859
:103D100006008DF80C0001A94FF08040FDF7E8FE89
:103D200001A8FEF711FAADF80850ADF804400020E4
:103D3000ADF80A00ADF806008DF80C0001A9744832
:103D4000FDF7D6FE01A8FEF7FFF9ADF80850ADF873
:103D500004400020ADF80A00ADF806008DF80C0014
:103D600001A96C48FDF7C4FE01A8FEF7EDF9ADF816
:103D70000850ADF804400020ADF80A00ADF8060088
:103D80008DF80C0001A96448FDF7B2FE00231A4625
:103D900003214FF08040FEF7BAFA00231A460321B0
:103DA0005B48FEF7B4FA00231A4603215948FEF790
:103DB000AEFA00231A4603215748FEF7A8FA04A8D2
:103DC000FEF7D5F90320ADF8180004A94FF08040A4
:103DD000FEF721F901218807FEF7ACFC012211460C
:103DE0009007FEF7FCF900214FF08040FEF770FCD1
:103DF00001218807FEF7D8F904A8FEF7B8F90320D7
:103E0000ADF8180004A94248FEF705F90121404821
:103E1000FEF790FC012211463D48FEF7E0F9002133
:103E20003B48FEF755FC01213948FEF7BDF904A8CF
:103E3000FEF79DF90320ADF8180004A93548FEF7F8
:103E4000EAF801213348FEF775FC0122114631489A
:103E5000FEF7C5F900212F48FEF73AFC01212D4855
:103E6000FEF7A2F904A8FEF782F90320ADF81800C6
:103E700004A92948FEF7CFF801212748FEF75AFC8C
:103E8000012211462448FEF7AAF900212248FEF734
:103E90001FFC01212048FEF787F907B030BD3EB571
:103EA00005460C4601212020FDF7F7FCADF8005037
:103EB000ADF804400020ADF80600ADF802008DF822
:103EC000080069461548FDF713FE01211348FEF767
:103ED0006BF9012211461148FEF781F93EBD10B57C
:103EE000FFF766FEFFF794FE002141F28730FFF7EF
:103EF000EFFE41F61F411820FFF7D1FF10BD000073
:103F0000000318000002300000080140000C0140CE
:103F10000004004000080040000C00400014004075
:103F2000704700000FB4044910B503AA029800F0CE
:103F30004BFA10BC5DF814FB840000202DE9F04121
:103F40000E460446002020622046E168884730B3D0
:103F5000252805D0D4E901219047206A401CF2E7CA
:103F6000E168204600278847050018D0A5F14100E8
:103F7000192802D820354FF40067324629462046DA
:103F80002760FCF72FF940B1012804D0F61D26F078
:103F900007060836D8E7361DD6E72846DAE7206A4E
:103FA000BDE8F081704770477047704770472DE952
:103FB000FF4F0C461E464FF0FF378BB0D2E9000191
:103FC000DDF860800A908A46C1F30A5505B93D467E
:103FD000002108464FF00000BAF1000F00F4400045
:103FE00005DA00EB80004FF4400101EA50004FEA8F
:103FF0009059B9F1010F00DDB9460A9850EA4A001C
:104000000ED044F61050A5F2FF3545432F14B8F1F9
:10401000000F1ED07542291E1EDDC9F100021CE0F2
:10402000B8F1010F4FF0000001D0302103E0F2435E
:1040300005E02154401CB042FBDB30460022002149
:1040400021540B99C1F80880C1E900200FB0BDE8E8
:10405000F08FBD1B6D1CDEE74A4600DA694206A8F8
:1040600000F066FA06AB93E8070003AB83E80700AD
:1040700050460A9900F03EFB8DE80700A0F500507D
:104080001F3800900398002D09DD42F21F014A46B7
:10409000084403A90390684600F09DFD08E0A0F5E0
:1040A00000504A461F3803A90390684600F0A7FD58
:1040B0008DE807000004000C03D04FF0FF304108EA
:1040C00000E01046B8F1000F03D000220092154620
:1040D0001EE0751E05D400F08DF9303262556D1E5C
:1040E000F9D5B3460122084302D000227F1C04E028
:1040F0002078302801D100227F1E002A099786D01F
:104100001DE0112D07DA00F075F9303262556D1C93
:1041100050EA0102F5D1084302D00098C8B10EE080
:104120000021681E05E0235C625C63542254401E3B
:10413000491C8142F7DBAB46A81B401E09900020BA
:1041400004F80B000B98099AC0F80880C0E9002B0E
:104150007CE711264FF0000859E72DE9F04F88461B
:104160000446D21D22F0070191B0D1E90001CDE94A
:104170000A0100F07AFE02460B98C00F01D02D20F4
:1041800007E02068810701D52B2002E0202101EA09
:10419000C000032A099001D0072A05DB03464146E7
:1041A000204600F085F90BE12078800601D5E06912
:1041B00000E00620B8F1650F814606D0B8F1660F21
:1041C00018D0B8F1670F70D131E00020B9F1110FAC
:1041D000009001DB112301E009F101030AAA01A902
:1041E0000CA8FFF7E4FEDDE90C70002609F10105DB
:1041F000834647E001204B4600904FF000470AAA53
:1042000001A90CA8FFF7D3FEDDE90DB00C995D46BE
:10421000002610B909F101000D18B9EB050003D40F
:10422000C0F1FF3609F10105A5EB09002BE0B9F15A
:10423000010F01DA4FF001090020B9F1110F0090D0
:10424000484601DD112300E003460AAA01A90CA893
:10425000FFF7ADFEDDE90C704D4600268346207861
:1042600000070AD4AB4500DA5D4601A8012D04DD44
:10427000411911F8011C302907D04F4502DA17F116
:10428000040F04DA012082460FE06D1EEEE7002FD6
:1042900002DCED1B3E4403E0781CA84200DD7D1CDF
:1042A000B81B00F1010A4FF000472078000703D443
:1042B000AA4501DB4FF0FF3A0021B7F1004F0DF1A5
:1042C00043088DF8431024D002202B23002F01DA5D
:1042D0007F422D230A21021EA0F1010000DC5FB104
:1042E00097FBF1FC97FBF1F201FB1C7C17460CF1EC
:1042F000300C08F801CDEEE7A8F101000370218829
:10430000090501D5452100E06521A0F1010800F86B
:10431000011C09980FA9A1EB0807FF1D00B101209E
:10432000411901EBEA70A1693844081A401EA061E6
:104330002078C00602D42046AFF30080099828B147
:10434000D4E901219047206A401C20622078C006F1
:1043500022D52046AFF300801EE0002E04DBB345DB
:1043600002DD01A8805D00E03020D4E90121904702
:10437000206A401C2062761CAAF101005FEA000A54
:104380000AD100F033F8C0680168405CD4E901212B
:104390009047206A401C2062281EA5F10105DCDC44
:1043A00007E0D4E9012118F8010B9047206A401C6E
:1043B0002062381EA7F10107F3DC2046AFF300802E
:1043C000032011B043E60000074B70B50D467B4457
:1043D00000F05BF80446284600F018F910B14FF0E1
:1043E000FF3070BD204670BD79EBFFFF004870477D
:1043F000F803002030B5B0F10A024FEA900E71F1D7
:1044000000034EEA817EB0EB0E0061EB91014FEAB2
:10441000101E4EEA017E10EB0E0041EB11114FEA27
:10442000102E4EEA016E10EB0E0041EB11214FEA07
:10443000104E4EEA014E10EB0E0041EB11414018B8
:1044400041F100014FEAD00040EA41704FEAD1014A
:1044500010EB80054FEA810444EA907444EB0104B8
:104460006D1944EB0404521BA3414FF0000348BFF5
:104470000A3200D530BD401C41F1000130BD0000C2
:1044800001694A1C02610878704700B58FB0CDE918
:1044900001310021059105497944CDE90310114608
:1044A0006846FFF74BFD0FB000BD0000E5FFFFFFC2
:1044B0002DE9F0411F46044603260168072A01F44E
:1044C000006004DB08B116A505E016A503E008B1FD
:1044D00015A500E015A521F010002060A069C01E00
:1044E000A0610FB1401EA0612046AFF300804FB124
:1044F000D4E9012138469047206A401C2062C01C44
:10450000206206E0206AFAE7D4E9012115F8010BE0
:104510009047761EF8D22046AFF30080BDE8F081C8
:104520004E414E006E616E00494E4600696E660057
:104530002DE9F047814616468AB0334878440DC8C5
:104540008DE80D0030487844801C03AC0DC884E829
:104550000D0041F69B300844372190FBF1F290FBAF
:10456000F1F5A5F1800501FB12041B3C02D5644264
:10457000012000E00020DFF890A080460027FA44E8
:10458000AAF1BE0A0DE0E00709D03246684607EB03
:1045900047010AEB810100F032FB8DE8070064104F
:1045A0007F1C002CEFD1184F7F44AC3F18E0E80788
:1045B00014D007EB04100DF1180A90E80E008AE8F9
:1045C0000E00C068F04201D198190890324606A941
:1045D00003A800F014FB03AB83E807006D10641C14
:1045E000002DE4D132466946B8F1000F03A802D08D
:1045F00000F0F1FA01E000F002FBC9E90001C9F89E
:1046000008200AB0BDE8F08798160000007B00F093
:104610008000704700487047D80300207546FFF7B8
:10462000F9FFAE4605006946534620F0070085466F
:1046300018B020B5FCF790F8BDE820404FF0000618
:104640004FF000074FF000084FF0000B21F007017A
:10465000AC46ACE8C009ACE8C009ACE8C009ACE8BD
:10466000C0098D4670470446AFF300802046FBF733
:10467000D3FD00004FF0013C50F8042B51F8043BEF
:104680009A4221D1A2EB0C03934313EACC1317D126
:1046900050F8042B51F8043B9A4215D1A2EB0C03BD
:1046A000934313EACC130BD150F8042B51F8043B7D
:1046B0009A4209D1A2EB0C03934313EACC13DBD04B
:1046C0004FF00000704700BFD01A01BAB1FA81F173
:1046D00001F0180122FA01F0CB40C1F12001DBB258
:1046E000C0B2C01A2CFA01F3D11A914311EAC311D6
:1046F000E6D170475FEA400C08BF91F0000F4FEA27
:104700008C234FEAC12243EA51514FEA1C5018BF93
:1047100000F5F0404FEA300018BF41F000415FEA79
:104720006C5C00F02980BCF1FF3F08BF40F0804086
:104730007047130C06BF12044FF0100C4FF0000C22
:10474000130E04BF12020CF1080C130F04BF120168
:104750000CF1040C930F04BF92000CF1020CD30F68
:1047600004BF52000CF1010C11464FF00002A0F101
:104770001F00A0EB0C00704711F0004F08BF7047FE
:1047800031F000413FF4D5AF0B0C06BF09044FF0E8
:10479000100C4FF0000C0B0E04BF09020CF1080CBA
:1047A0000B0F04BF09010CF1040C8B0F04BF89002F
:1047B0000CF1020CCB0F04BF49000CF1010CCCF141
:1047C0002003A0EB0C0022FA03F302FA0CF241EAF8
:1047D000030100F10100704720F07F4C80EA0300E4
:1047E00023F07F47ACEB070303F57C5300F0004058
:1047F00003F1FF032DE980494FEA154B09B44FEA55
:10480000144325EA0B4E24EA03480FF2042606EB74
:10481000132749083E785FEA320203FB0667C7F5B3
:10482000000707FB06F64FEA54374FEAD64606F173
:10483000020607FB066CCCF1005C4FEA1C472CEA31
:10484000074C07FB06F40CFB06F504EB15464FEA94
:10485000961634BF00204FF000404FEAD13706FBD8
:1048600007FC4FEA1C4C0CFB0BF7D21B03FB0CF7AD
:1048700061EB07010CFB0EF7B0EB074072EB174240
:104880000CFB08F734BFA2EB0742B2EB074261EB27
:1048900017414FEA0C444FEA910706FB07FC4FEA29
:1048A0001C4C0CFB0BF7B0EBC74072EB573203FB11
:1048B0000CF734BFA2EBC742B2EBC74261EB5731F2
:1048C0000CFB0EF7B0EBC70072EB57720CFB08F74E
:1048D00034BFA2EBC702B2EBC70261EB5771039F73
:1048E0004FEA816141EA921104EBCC044FEAD137DF
:1048F0004FEA826206FB07FC42EA90124FEA8060B0
:104900004FEA1C4C0CFB0BF7D21B03FB0CF761EBC3
:1049100007010CFB0EF7B0EB074072EB17420CFBE4
:1049200008F734BFA2EB0742B2EB074261EB174135
:104930004FEA8C554FEA910704EB9C2406FB07FCD9
:104940004FEA1C4C0CFB0BF7B0EBC74072EB573235
:1049500003FB0CF734BFA2EBC742B2EBC74261EBDB
:1049600057310CFB0EF7B0EBC70072EB57720CFB24
:1049700008F734BFA2EBC702B2EBC70261EB577175
:1049800015EB4C254FEA816141EA92114FEA8262B0
:104990004FEAD13742EA901206FB07FC44F10004CB
:1049A0004FEA80604FEA1C4C0CFB0BF7D21B03FB59
:1049B0000CF761EB07010CFB0EF7B0EB074072EB55
:1049C00017420CFB08F734BFA2EB0742B2EB0742D9
:1049D00061EB174115EB1C154FEA813141EA924119
:1049E0004FEA823242EA90424FEA80304FEA0C7638
:1049F00044F1000448EA03434EEA0B484FF0000E2E
:104A0000B2EB080C71EB030724BF624639464EEB4C
:104A10000E0E4FF0000B0018524149414BEB0B0BAF
:104A2000B2EB080C71EB03077BF1000B24BF62466D
:104A300039464EEB0E0E4FF0000B00185241494123
:104A40004BEB0B0BB2EB080C71EB03077BF1000B8C
:104A500024BF624639464EEB0E0E51EA020718BFDC
:104A600046F0010616EB0E7655F1000254F10001F6
:104A700003D5BDE88901BDE80088BDE88901BDE82E
:104A80000048B619524141EB0101A3F101037047FF
:104A900080807F7E7D7C7B7A79787776767574737B
:104AA000727171706F6E6E6D6C6C6B6A6A6968683A
:104AB000676666656464636362616160605F5F5ED0
:104AC0005E5D5D5C5C5B5B5A5A5959585857575646
:104AD00056555555545453535252525151505050AB
:104AE0004F4F4F4E4E4D4D4D4C4C4C4B4B4B4A4AFD
:104AF0004A49494948484847474747464646454541
:104B00004544444444434343434242424241414179
:104B1000002B26D4770021D01CB54FEA370703B409
:104B20004FF010004FF010014FF000000FBCBDE837
:104B300010400BF1010BBBF1010F08BF5FEA170733
:104B400022BF12F1010211F101014FF0004143F1C6
:104B5000000300F0004043EA00007047F9D3570813
:104B6000DAE746EA064613F1400F4FEA16461FDD24
:104B700013F1200FDFBF16430A46002120335B42AA
:104B8000C8D0C3F1200746EA064602FA07F74FEA03
:104B9000164646EA0706C3F1200722FA03F201FA95
:104BA00007F721FA03F14FF0000342EA0702B1E7E9
:104BB00046EA020646EA06464FEA164646EA010675
:104BC000BCBF46EA0646360C4FF000034FF0000229
:104BD0004FF000019EE72DE9C048934630B491E8BC
:104BE000380007C831EA400C48BF34EA430C03D50B
:104BF000FFF7F2FDFFF78CFFF0BCBDE800882DE960
:104C0000C048934630B491E8380007C810F0804F90
:104C100008BF13F0804F03D100F005F8FFF778FFCD
:104C2000F0BCBDE8008820F07F4780EA030023F055
:104C30007F4C07EB0C03A3F57C5300F00040A3F17D
:104C4000FE0392F0000F00F0B38095F0000F00F02B
:104C500077802DE901494FEA11404FEA144621EAD5
:104C6000004800FB06FC24EA064708FB06F607FBA3
:104C700008F800FB07F718EB06484CEB164C4FEA18
:104C8000124B18EB07484FEA15464CEB174022EA47
:104C90000B4E0BFB06FC25EA06470EFB06F607FB50
:104CA0000EFE0BFB07F71EEB064E4CEB164C4FF0BF
:104CB00000061EEB074E4CEB174B18EB0B0840F1B0
:104CC000000018EB0E0B58EB000840F100008F1AA3
:104CD0004FF000013CBFC943661B14BFB5EB040C89
:104CE00000213CBFC943F61B4FEA17444EEA8E0E23
:104CF00027EA04454FEA1C4704FB07622CEA074CED
:104D000005FB07F70CFB05F604FB0CFC16EB07464E
:104D100042EB174216EB0C4642EB1C421BEB06061D
:104D200058EB0202414146EA9E0601D5BDE80189E1
:104D3000B619524141EB0101A3F10103BDE801891C
:104D40004FEA14454FEA114724EA054621EA074C89
:104D500005FB07F406FB07F70CFB06F105FB0CFC53
:104D600011EB074144EB17444FEA124711EB0C419A
:104D700044EB1C4422EA074C05FB07F206FB07F74D
:104D80000CFB06F605FB0CFC16EB074642EB174244
:104D900016EB0C4642EB1C456A1854F1000148BF63
:104DA0007047B619524141EB0101A3F1010370476D
:104DB00095F0000F37D04FEA11424FEA144721EA2D
:104DC000024624EA074C02FB07F106FB07F70CFB3F
:104DD00006F402FB0CFC14EB074441EB17414FEACD
:104DE000154714EB0C4441EB1C4125EA074C02FB30
:104DF00007F506FB07F70CFB06F602FB0CFC16EBAF
:104E0000074645EB174516EB0C4645EB1C421219BD
:104E100051F1000148BF7047B619524141EB010101
:104E2000A3F1010370474FEA14454FEA114724EA02
:104E3000054621EA074C05FB07F106FB07F70CFBCB
:104E400006F24FF0000605FB0CFC12EB074241EBAB
:104E5000174112EB0C4251EB1C4148BF70479218AE
:104E600041EB0101A3F101037047490050EAC12061
:104E700018BF04204A0D18BF40F0010040F2FF7235
:104E8000B2EB515F08BF40F00200012808BF0520C7
:104E90007047000010B500290AD00878002807D014
:104EA00005487844FFF7E6FB002801D0002010BD3C
:104EB0000248784410BD00006E0D0000660D000031
:104EC00021F00042A2F16052B2F5801F01F00043D0
:104ED00028BFD2F17F6C0BD95FEA001C43EAC20203
:104EE00042EB507018BF704728BF20F00100704798
:104EF000B2F5801FBCBF184670474FEA410C1CF545
:104F0000001F02D2084600F022BE70B500F0ACFBD4
:104F100000000089FFF7F6BF4FF00040A0F58000C9
:104F20007047000010B591EA030F48BF83F00043BB
:104F300000F13884841A71EB030C05D2121943EB8B
:104F40000C03001B61EB0C01DFF824E14FEA115464
:104F5000A4EB135C1EEA430F18BF9EEA445F73D0B4
:104F600023EA0E03DCF1200E21EA045143F48013FE
:104F700032D322FA0CFE10EB0E0023FA0CFE41EBAA
:104F80000E01CCF1200E03FA0EFE10EB0E0051F1D3
:104F90000001B1F5801FCCF1200E32D201EB04519B
:104FA00012FA0EF2BDE8104058BF7047401C38BFDF
:104FB0005FEA420218BF7047002814BF20F00100CA
:104FC00041F100014FEA410313F5001F38BF70475C
:104FD000A1F1C04100F096BB012A43EB0302ACF102
:104FE000200CDCF11F0E32BF4FF0000E23FA0CF341
:104FF00010EB030041EB0451B4EB115FD0D0A1EBF7
:10500000045101F5801149085FEA300001EB0451B9
:105010000ED350F1000038BF12FA0EFE08D1BDE8E1
:105020001040C9E7401C38BF5FEA4202CAD1C3E75B
:10503000BDE810404FEA410313F5001F38BF704729
:10504000A1F1C04100F05EBB9EEA445F08D011EAC6
:105050005E0FBDE8104004BF01F000410020704722
:10506000BDE8104070B500F0FFFA00BF64FBBE3E23
:105070000000E0FF491058BFC1F140415B1058BF2C
:10508000C3F140438B42EFF3008070472DE9C041EC
:1050900030B4DFF8A0C23CEA111418BF3CEA131484
:1050A00000F0EC8081EA03051CEA111444EAD5748F
:1050B00018BF1CEA131500F0C780A4EB05044FF0DD
:1050C000004545EAC12145EAC32341EA505143EA7C
:1050D000525304F17F74994204F500344FEAC02022
:1050E0004FEAC22208BF904200F09C804FEA13654D
:1050F0000FF24016765D4FEA134506FB05F7C7F140
:10510000807706FB07F74FEAD737A7FB036876429D
:10511000C8F58038A7FB06CE38BFA8F1010807FB09
:1051200008E64FF0000EA6FB028CE6FB03CEDCF196
:10513000000CCEF1004E38BFAEF1010EA6FB0C58AC
:105140004FF000074FF00005E6FB0E87A1FB08C6F5
:10515000A0FB07CE16EB0E0645F10005E1FB076547
:1051600015F1E04E7EBFA4F580345FEA46066D413E
:1051700016F1800745F100054FEA17274FEA06664A
:1051800047EA0567A6F1DE46B6F1805F4FEA1525CE
:105190001FD9384624F0010C05EBC471BCF1FE6F39
:1051A00001EB0C1102D8F0BCBDE8008124425CBFC9
:1051B00001F5801E9EEAC47F02D4F0BCBDE80081E8
:1051C000244238D4F0BCA1F1C041BDE8004100F058
:1051D00099BA4FEAD22242EA43524FEAD323A7FBBD
:1051E00002864FEAD02040EA415007FB03661EEAE0
:1051F0000E0F4FEAD12105FB026658BFA6EB005601
:10520000B6EB00564FEA520E4EEAC37E18EB0E0E76
:1052100056EB530EBDD518EB02085E417F1C55F1CD
:105220000005B6E74FF480154FF000074FF0000679
:105230004FF00008ADE7F0BC4FF0000001F1C041B5
:1052400001F00041BDE8008111EA0C1F0CEA1315C2
:1052500000D00CE013EA0C1F00F025804FF0000096
:10526000F0BC81EA030101F00041BDE80081F0BC1F
:10527000BDE8004181EA030100F044BAF0BCBDE89A
:10528000004170B500F0F0F9097EFC3E00F007B86F
:1052900081EA03014FF0000001F00041704781EA0C
:1052A000030100F02FBAF0BCBDE800414FF0000050
:1052B00021497047FFFDFBF9F7F5F4F2F0EEEDEB55
:1052C000E9E8E6E4E3E1E0DEDDDBDAD8D7D5D4D304
:1052D000D1D0CFCDCCCBCAC8C7C6C5C4C2C1C0BF50
:1052E000BEBDBCBBBAB9B8B7B6B5B4B3B2B1B0AF56
:1052F000AEADACABAAA9A8A8A7A6A5A4A3A3A2A13A
:10530000A09F9F9E9D9C9C9B9A99999897979695F4
:1053100095949393929191908F8F8E8E8D8C8C8B90
:105320008B8A898988888787868585848483838218
:10533000828181800000FF070000F87F51EA030CA2
:1053400017D41CF5801F58BFBCF5801F00F10680E4
:10535000994218BF704708BF9042704707D711F5B0
:10536000801F58BF13F5801F19D499427047894296
:1053700070471CF5801F08D5BCF5801FF7D58B4200
:1053800018BF704708BF824270474FF4001C1CEBE7
:10539000410F38BF1CEB430F01D28B42704770B5F1
:1053A00000F062F9922449004FF000514FF0805311
:1053B000FFF760BE4FEA41034FEA5353A3F5806302
:1053C000D3F11E03C8BFD3F1210C0CDD4FF0004216
:1053D00042EAC12242EA505232FA03FC8CEAE17CF2
:1053E000ACEBE1707047102BC4BF0020704703F591
:1053F000787CBCF1FF3F04D06FF0004282EA2100CC
:10540000704770B500F030F9499224800020704751
:10541000F2E700004FEA1153A3F58063D3F11E03B6
:10542000A8BFD3F1200C08DB4FF0004242EAC122B2
:1054300052EA505232FA03F0704709420BD4102B53
:10544000C4BF0020704703F5787CBCF1FF3F05D056
:105450004FF0FF3070474FF00000704770B500F01C
:1054600003F900BF4992248000207047F0E710F054
:10547000004248BF4042B0FA80F310FA03F10AD06C
:10548000C3F11D0303F580634FEA415002EB035261
:1054900002EBD12170474FF00000704751EA030C36
:1054A00017D41CF5801F58BFBCF5801F00F1068083
:1054B000994218BF704708BF9042704707D711F54F
:1054C000801F58BF13F5801F19D499427047894235
:1054D00070471CF5801F08D5BCF5801FF7D58B429F
:1054E00018BF704708BF824270474FF4001C1CEB86
:1054F000410F38BF1CEB430F01D28B42704770B590
:1055000000F0B2F8922449004FF000514FF0805360
:10551000FFF7B0BDDFF848C170B51CEA111E1EBF11
:105520001CEA13159EEA0C0F95EA0C0F00F06F8031
:1055300081EA030423EA4C134EEAD47E21EA4C119B
:1055400041F4801143F48013AE44A1FB024CA0FB54
:105550000365AEF17F7E361955EB0C05A1FB034CBC
:105560004CF10003A0FB021C16EB0C06654153F145
:105570000003094218BF46F0010613F4007F0BD167
:105580004FEA03314FEA0530340341EA155140EA4E
:1055900016506FF003020AE04FEAC3214FEAC5201C
:1055A000F40241EA555140EA56506FF0020202EB14
:1055B0002E4201EB025585EACE710AD05FEA440C17
:1055C00018BF24F0004450F1000041F1000120EA2E
:1055D000D47040F2FE7C624500D270BDA84214BF78
:1055E0004FF080444FF04044002E08BF0024BEF12D
:1055F000806FA8BFA1F1C041BDE8704080F28280F9
:105600004FF0000001F1C04101F0004170479EEAF7
:105610000C0F0CEA131518BF95EA0C0F06D04FF0CB
:10562000000081EA030E0EF0004170BD00F01CF88E
:105630008900013E00F007B800F009B84FEA430CBA
:105640005FEA5C5C08D081EA030100F05BB84FEAD6
:10565000410C5FEA5C5CF6D14FF0000001497047F5
:105660000000FF070000F87F0EF1020E2EF0030E7F
:105670005EF8046B364205D4012A43EB030515F5A9
:10568000001F12D8012841EB010C1CF5001F0CD89B
:105690000ED14FEAD17C15F5001F0CEB4C0C0CF130
:1056A000020C08BF4CEBD37C04E04FF0080C01E087
:1056B0004FEAD37C0CEB4C0526FA05F606F00706FC
:1056C000B6F1040C06D20EEB860CBDE870404CF02F
:1056D000010C6047DFE80CF0090B02024FF00041BB
:1056E0004FF00000A1F5002170BD194610460128B9
:1056F00051EB010418BFD4F5001484BF002001F061
:10570000004170BD0808A0F500114FEA3101704753
:1057100053EA010C17D41CF5801F58BFBCF5801F3D
:1057200000F106808B4218BF704708BF8242704765
:1057300007D713F5801F58BF11F5801F19D48B426E
:1057400070479B4270471CF5801F08D5BCF5801F31
:10575000F7D5994218BF704708BF904270474FF481
:10576000001C1CEB430F38BF1CEB410F01D29942C8
:1057700070470FB40CBC03BCFFF7C1BE91EA030F26
:1057800010B581F000413FF5D5AB83F0004300F048
:1057900009B8000010B591EA030F48BF83F0004339
:1057A0003FF5C8AB841A71EB030C07D212198CF0C9
:1057B000004C43EB0C03001B61EB0C01DFF8A4E190
:1057C0004FEA1154A4EB135C1EEA430F18BF9EEA84
:1057D000445F00F0B08023EA6E03524221EA045194
:1057E000C3EB6E0338BF5B1EDCF1200E25D322FA1B
:1057F0000CFE10EB0E0043FA0CFE41EB0E01CCF157
:10580000200E03FA0EFE10EB0E0051F10001CCF158
:10581000200E29D412FA0EF201EB0451BDE810401B
:1058200058BF7047401C1CBFB2F1004F70470028A2
:105830000CBF491C20F00100704712EB020E43EB35
:10584000030218BF4FF0010E4EEA4202ACF1200CE9
:10585000DCF11E0E54D943FA0CFE10EB0E0051F190
:10586000FF31CCF11E0ED5D50EF1010E12FA0EFE4F
:10587000404141EB010101EB445C5FEA5C5C10D903
:1058800010EBDE7001EB045138BFBEF1004FBDE8F4
:10589000104018BF704700280CBF491C20F00100C1
:1058A000704730D24FEAD42C11F5001124F4006473
:1058B0001BD0B1FA81F20B3AA41AA41ED2F1200334
:1058C000914030FA03F31943904001EBCC71002C66
:1058D00001EB0451BDE81040A8BF704701F1C04181
:1058E0004FF0000001F000417047B0FA80F310FA69
:1058F00003F100D110BDE41A173C4805C90AE4E7DA
:1059000001EB045110BD491001EB0451BDE81040FA
:105910004FEA300002E04FF0000170474A0008BF34
:105920000042F8D0B2F5001F28BF704701F00041D7
:105930004FF0000070479EEA445F07D011EA5E0F07
:10594000BDE8104004BF002100207047BDE81040B2
:1059500070B5FFF789FE00BF40DFF63E83F00041DF
:10596000104670470000E0FF43004FEAD30C4FEAB7
:105970003C0C43401FBF40070CF1605113F0FE4F39
:1059800070471CF0006F03D100200CF000417047FD
:105990000CF0004343EA507010B540EACC0000F030
:1059A00090F800BF000000924FEA0001FFF7AABE86
:1059B0004FF000414FF00000A1F5002170470000BA
:1059C0004FF47F0C1CEAD0121EBF1CEAD11392EADE
:1059D0000C0F93EA0C0F00F0478090EA010F48BFCC
:1059E00042F480724FF0004C4CEA00204CEA012156
:1059F00002EB0302A0FB0113A2F50002002918BF6D
:105A000043F001035B0028BF4FEA330342EB22421D
:105A10005FEA132C4CEBC2502EBFBCEB436FB2F5C8
:105A20007C0F70474FEA036CBCF1004F08BF20F0B9
:105A30000100B2F57C0F38BF70470BD582F0FF0232
:105A400012F5803FC8BF704700F1C040D8BF00F0DA
:105A50000040704700F5000C5FEA4C0C48BF7047EF
:105A6000B0F1C04000F073B890EA010F0CEAD11316
:105A700048BF42F48072624538BF634504D280EA71
:105A8000010000F00040704710B500F01AF800BFA8
:105A90008900013E00F007B800F009B85FEA410C48
:105AA0005FEA1C6C08D080EA010000F050B85FEAA1
:105AB000400C5FEA1C6CF6D14FF00040A0F580006E
:105AC00070470EF1020E2EF0030E5EF8044B2442D6
:105AD00004D44FEA4102B2F17F4F11D84FEA40039C
