:020000040800F2
:10000000F8090020F91A000885060008870600088C
:100010008B0600088F060008930600080000000009
:10002000000000000000000000000000970600082B
:1000300099060008000000009B0600089D060008C5
:10004000131B0008131B0008131B0008131B0008D8
:10005000131B0008131B0008131B0008131B0008C8
:10006000131B0008131B0008131B0008131B0008B8
:10007000131B0008131B0008131B0008131B0008A8
:10008000131B0008131B0008131B0008131B000898
:10009000131B0008131B0008131B0008131B000888
:1000A000131B0008131B0008131B0008131B000878
:1000B0009B0F000855050008131B0008131B0008C0
:1000C000131B0008131B0008131B0008131B000858
:1000D000131B0008691A00082119000839180008C4
:1000E000131B0008131B0008131B0008131B000838
:1000F000131B0008131B0008131B0008131B000828
:10010000131B0008131B0008131B0008131B000817
:10011000131B0008131B0008131B0008131B000807
:10012000131B0008131B0008131B0008131B0008F7
:1001300000F002F800F047F80AA090E8000C8244B2
:100140008344AAF10107DA4501D100F03CF8AFF28F
:10015000090EBAE80F0013F0010F18BFFB1A43F0A5
:1001600001031847105D0000305D0000103A24BF05
:1001700078C878C1FAD8520724BF30C830C144BF0C
:1001800004680C607047000000230024002500264E
:10019000103A28BF78C1FBD8520728BF30C148BFEA
:1001A0000B607047662905F01C85002070471FB55D
:1001B00003F084FC04000020002104F075FDE060E1
:1001C0001FBD10B510BD03F095FD1146FFF7EFFF01
:1001D00000F009F803F0B3FD03B4FFF7F2FF03BC2E
:1001E00001F0E4FB70470EB54FF0000901F05EFA34
:1001F00001F0C6FAFE4801F0C9FA00F041FB012007
:10020000FC4908600020FC49C1F8B4014FF480515A
:10021000FA4801F00CFE4FF40051F84801F009FED5
:100220000121082002F012F80220ADF80800102089
:100230008DF80B0003208DF80A0002A9EF4801F0A9
:1002400049FD0221ED4801F0F4FD4FF4FA7001F090
:100250006AFA00240DE0EA48015DEA4802F096F9E6
:1002600000BF4021E74802F0FFF90128F9D1601CE6
:10027000C4B20B2CEFDB4FF4FA7001F054FA0024F7
:100280000DE0E148015DDF4802F080F900BF402148
:10029000DC4802F0E9F90128F9D1601CC4B20B2C4A
:1002A000EFDB4FF4165001F0EBFA4FF4165001F06B
:1002B0008CFB00F0E5FC00F005FD4FF47A7001F0D6
:1002C0000EFA4FF47A7001F00AFA4FF47A7001F0E6
:1002D00006FA4FF0000A3FE0432000F024FD834679
:1002E00004F061FF07464FF06632C84B04F0D4FDBE
:1002F0000546C7480CC8284604F01EFDC44A03C280
:10030000452000F010FD834604F04DFF07464FF0F6
:100310006632BE4B04F0C0FD0546BE480CC82846F8
:1003200004F00AFDBB4A03C2472000F0FCFC8346F0
:1003300004F039FF05464FF06632B44B04F0ACFDD3
:100340000746B5480CC8384604F0F6FCB24A03C26A
:100350000AF1010000F0FF0ABAF1640FBCDB0022D1
:10036000AE4BAB4903C904F097FDAD4A03C200226E
:10037000AA4BA84903C904F08FFDA94AC2E90201AA
:100380000022A64BA44903C904F086FDA44AC2E991
:10039000040141F61F4140F2F31000F08DFD41F6DB
:1003A0001F4142F20F7000F0B4FDD2E09D49086891
:1003B00000EBD0714910A0EB410189B99A49086856
:1003C00005F0E2F905460E469749886805F0DCF924
:1003D00007463A460B4695A0CDE9005603F0ACF827
:1003E0009048006847F23051884202DD00208D4974
:1003F0000860914800680128D7D100228F4B9049AE
:1004000003C904F099FC054600228E4B04F044FD1C
:10041000074600228C4B04F0DDFE894A03C288495E
:1004200003C904F091FE0546C01705EB10600012E9
:10043000A5EB002085498871814903C904F084FE39
:100440000546C01705EB1060000A8049C8710224F8
:1004500006E07E48005D48441FFA80F9601CC4B283
:10046000092CF6DD6FEA0900784908550024A146F9
:100470000020734A106050600022754B754903C913
:1004800004F05AFC054600226E4B04F005FD0746B9
:1004900000226D4B04F09EFE6E4A03C26D4903C9F3
:1004A00004F052FE0546C01705EB10600012A5EBE4
:1004B000002069498871674903C904F045FE054673
:1004C000C01705EB1060000A6349C871022406E0FA
:1004D0006148005D48441FFA80F9601CC4B2092CD1
:1004E000F6DD6FEA09005C4908550024A1460021A9
:1004F000584A1160516000BF0DE05748015D414806
:1005000002F044F800BF40213E4802F0ADF8012857
:10051000F9D1601CC4B20B2CEFDB00240DE04B487A
:10052000015D384802F032F800BF4021354802F042
:100530009BF80128F9D1601CC4B20B2CEFDB002022
:100540003F4A106050600021424A116051603A49B0
:1005500008602BE72DE9F05F0121404802F0D7FF4A
:10056000002843D001F07FF82F49886805F00CF986
:1005700082463B4A3B4B04F02DFE06460F46304870
:100580000CC83748384904F025FE804632463B46C1
:1005900004F0D2FB04460022344B04F01BFE284A30
:1005A00003C22149086805F0EFF806462C4A2D4B96
:1005B00004F010FE04460D4626480CC828482A4977
:1005C00004F008FE804622462B4604F0B5FB824626
:1005D0000022264B04F0FEFD1E4A03C201201649EC
:1005E000086001211D4802F0A3FF41E045E0000042
:1005F00040420F00B081214200002342000C014024
:10060000D65C000800480040E15C000866663040A7
:100610003000002038000020400000200000594039
:10062000000100204800002030010020252E326605
:1006300020252E32660D0A002800002000C06240EE
:100640001800002000C07240000090400000002010
:1006500000004E40200000200B000020000400405D
:100660009A9999999999E93F9999C93F0000F0BFE2
:1006700003480068401C02490860BDE8F09F000084
:1006800048000020704700BFFEE700BFFEE700BF44
:10069000FEE700BFFEE770477047704770470000F5
:1006A0000CB50020019000906C48006840F4803048
:1006B0006A49086000BF6948006800F40030009093
:1006C0000198401C0190009818B90198B0F5A06FEE
:1006D000F1D16248006800F4003010B101200090B0
:1006E00001E0002000900098012843D15C48006898
:1006F00040F010005A4908600846006820F00300E6
:1007000008600846006840F00200086053484068EE
:10071000524948600846406848600846406840F4CE
:10072000806048600846406820F47C1048600846B5
:10073000406840F4E81048600846006840F0807067
:10074000086000BF4548006800F000700028F9D03C
:100750004248406820F0030040494860084640682D
:1007600040F00200486000BF3C48406800F00C00C8
:100770000828F9D10CBD10B5FFF792FF10BD10B5D8
:100780003648006840F00100344908600846406877
:1007900034490840314948600846006832490840F9
:1007A0002E4908600846006820F48020086008464A
:1007B000406820F4FE0048604FF41F008860FFF797
:1007C000DAFF4FF000602949086010BD10B5002124
:1007D00000200022214B5B6803F00C0121B10429A9
:1007E00006D0082928D107E0214B224C236027E0BE
:1007F0001F4B204C236023E0184B5B6803F4701000
:10080000164B5B6803F48032022303EB904022B95D
:10081000194B4343174C23600DE0104B5B6803F406
:10082000003323B1144B4343124C236003E0104BBD
:100830004343104C236003E00D4B0E4C236000BF7C
:1008400000BF064B5B68C3F303130C4CE15C094B20
:100850001B68CB40074C236010BD00000010024015
:10086000002002400000FFF8FFFFF6FE08ED00E068
:1008700000127A005000002000093D0054000020C2
:1008800008B50121082001F0E1FC4FF44050ADF81B
:10089000000010208DF8030003208DF80200694647
:1008A000064801F017FA4FF48051044801F0BFFAEE
:1008B0004FF40051014801F0BCFA08BD000C0140A2
:1008C00010B5FD48406820F47040FB494860084678
:1008D000406840F4405048600120F8490860F849F9
:1008E000C1F8B001052000F0FAFE0020F3490860CD
:1008F000052000F0F4FE0020F149C1F8B00110BD60
:1009000010B5ED48406820F47040EB494860084657
:10091000406840F4405048600020E849091D0860E4
:10092000E749C1F8AC01052000F0D9FE0120E349F8
:10093000091D0860E249C1F8AC01052000F0CFFEB6
:1009400010BD10B50024DC48406820F47040DA493E
:1009500048600846406840F4004048600120D7499C
:100960000860022000F0BBFE0120D549C1F8B001AB
:10097000052000F0B4FE07E0601CC4B2FA2C03DDD1
:10098000FFF7BEFF012010BDCC488038006800286A
:10099000F2D1CA49091D086000BFF4E710B5002074
:1009A000C649091D0860C448406820F47040C24927
:1009B00048600846406840F4405048600020C04904
:1009C000C1F8AC01032000F08AFE0120BB49091DDB
:1009D0000860052000F083FE0020B949C1F8B0018D
:1009E00010BD10B50020B549091D0860B248406827
:1009F00020F47040B04948600846406840F44050D8
:100A000048600120AE49C1F8AC01022000F067FE49
:100A10000120AA49091D0860022000F060FE0020A4
:100A2000A749C1F8B00110BD70B50446A24840689E
:100A300020F47040A04948600846406840F44050A7
:100A4000486000209D49091D0860002517E0E00965
:100A50009A490860022000F042FE01209849C1F83E
:100A6000B001042000F03BFE00209449091D0860FD
:100A70006006040E022000F032FE681CC5B2082D8C
:100A8000E5DB70BD70B5054600248B48406820F456
:100A90007040894948600846406840F4004048601A
:100AA000002617E000208549091D0860022000F09B
:100AB00016FE01208249C1F8B0016006040E7F488D
:100AC0008038006808B1601CC4B2012000F007FE45
:100AD000701CC6B2082EE5DB15B9FFF782FF01E0F6
:100AE000FFF75CFF204670BD2DE9F04106460F463A
:100AF00090461C46FFF7E4FE002141EA4601C8B2D9
:100B0000FFF792FFFFF71DFF20B1FFF7F9FE00206E
:100B1000BDE8F0813846FFF787FFFFF712FF002599
:100B20000BE02078FFF780FFFFF70BFF18B1FFF70E
:100B3000E7FE0020ECE7641C6D1C4545F1DBFFF788
:100B4000DFFE0120E4E72DE9F04104460D4616469C
:100B50001F463B46324629462046FFF7C5FF10B1E7
:100B60000020BDE8F0814FF0FF30FAE72DE9F041B9
:100B700005460F4614461E46FFF7A2FE002141EA35
:100B80004501C8B2FFF750FFFFF7DBFE20B1FFF7CA
:100B9000B7FE0020BDE8F0813846FFF745FFFFF7BC
:100BA000D0FEFFF78DFE012101EB4501C8B2FFF732
:100BB0003BFFFFF7C6FE0DE00120FFF763FF30703B
:100BC000012C02D1FFF70DFF01E0FFF7E7FE761CD5
:100BD000601EC4B2002CEFD1FFF792FE0120D9E7CE
:100BE0002DE9F04104460D4616461F463B46324667
:100BF00029462046FFF7BAFF10B10020BDE8F0817A
:100C00004FF0FF30FAE770B504460D46FFF758FE87
:100C10002046FFF709FFFFF794FE2846FFF704FF81
:100C2000FFF78FFEFFF74CFE611CC8B2FFF7FCFE1A
:100C3000FFF787FE0020FFF725FF0646FFF760FE5F
:100C4000304670BD70B506460C461546FFF738FEB7
:100C50003046FFF7E9FEFFF774FE18B1FFF750FECC
:100C6000002070BD2046FFF7DFFEFFF76AFE284632
:100C7000FFF7DAFEFFF765FEFFF742FE0120F0E71F
:100C800008B50121102001F0E1FA4FF4C050ADF891
:100C9000000010208DF8030003208DF80200694643
:100CA000054801F017F84FF4C051034801F0BFF8B0
:100CB000FFF726FE08BD000000100140AC012242F3
:100CC0000000224270B50024002500BF06E0002588
:100CD00000E06D1CB5F57A7FFBDB641CB4F57A7F10
:100CE000F5DB00226B21D020FFF7ACFF0722192192
:100CF000D020FFF7A7FF06221A21D020FFF7A2FF7E
:100D000018221B21D020FFF79DFF00221C21D0209C
:100D1000FFF798FF70BD10B500247521D020FFF7B4
:100D200072FF044610BD2DE9F0410446002500265F
:100D30002146D020FFF767FF0546601CC1B2D020D6
:100D4000FFF761FF064646EA052007B23846BDE8D0
:100D5000F08110B53B20FFF7E6FF4E490988401AA5
:100D600000B24D4908803D20FFF7DDFF4949498821
:100D7000401A00B2484948803F20FFF7D4FF454958
:100D80008988401A00B2444988804320FFF7CBFF8E
:100D900000B2424908804520FFF7C5FF00B2404934
:100DA00008804720FFF7BFFF00B23E49088010BD12
:100DB0002DE9F0473849B1F9000004F0F4F9044690
:100DC00003F088FF384908603349B1F9020004F0A4
:100DD000EAF9044603F07EFF334948602E49B1F931
:100DE000040004F0E0F9044603F074FF2E49886023
:100DF0002A48B0F9000004F0D6F906464FF06632F2
:100E00002A4B04F049F880462948D0E9006332466D
:100E1000404604F0CFFB044603F05CFF2549086020
:100E20001F48B0F9000004F0BEF906464FF06632E4
:100E30001E4B04F031F804461D48D0E902633246E7
:100E4000204604F0B7FB804603F044FF1949486090
:100E50001448B0F9000004F0A6F906464FF06632D7
:100E6000124B04F019F804460D461149D1E9046308
:100E70003246294604F09EFB804603F02BFF0D49C5
:100E80008860BDE8F08710B5FFF763FFFFF790FFBC
:100E900010BD0000780000206400002070000020D9
:100EA00072000020740000201801002066663040A7
:100EB00000010020240100207FB505460C460121D9
:100EC000022001F0D0F9ADF80850ADF80440002040
:100ED000ADF80A00ADF8060001A9384801F0F2FCAF
:100EE00001221146354802F064F81D208DF80000FB
:100EF00000208DF8010003208DF8020001208DF8FC
:100F00000300684600F01DFE01212C4802F036F86F
:100F10007FBD7FB505460C460121084601F0A3F9C7
:100F2000ADF80850ADF804400020ADF80A00ADF867
:100F3000060001A94FF0804001F0C4FC01221146D7
:100F4000900702F036F81C208DF8000000208DF884
:100F5000010003208DF8020001208DF8030068468F
:100F600000F0EFFD0121880702F008F87FBD70B5A1
:100F700000244FF08040808C1149086000204FF021
:100F8000804188840E48006804F0CCFC05460D4979
:100F900004F0DCFC0446204670BD10B50121880732
:100FA00002F0B5FA40B10121880702F0C1FA064803
:100FB0000078401C0449087010BD00000004004087
:100FC0008400002017B7D138800000202DE9F047B9
:100FD00004464FF07C51204604F0B8FC814625467B
:100FE0002E46FE48A0EB660635462946484604F0E4
:100FF000ADFC8246294604F0A9FC80464FF07F51A3
:1010000004F070FD0746294604F0A0FC054628467A
:10101000BDE8F0874FF07E50F14908600020F149AB
:101020000860F1490860F14908604FF07E50F049CE
:1010300008600020EF490860EF490860EF49086048
:10104000EF490860EF490860EF490860EF49086020
:10105000EF490860EF490860EF49086070470FB436
:101060002DE9F04F8DB0DDF858B017980C90189816
:101070000B90199804F088FBE84AE94BCDE902018E
:1010800004F0A8F80022E74BCDE9040103F004FFC7
:10109000CDE9060103F01EFE0A901A9804F074FBD5
:1010A000DE4ADF4BCDE9020104F094F80022DD4B6B
:1010B000CDE9040103F0F0FECDE9060103F00AFEDC
:1010C00009901B9804F060FBD44AD54BCDE902018E
:1010D00004F080F80022D34BCDE9040103F0DCFEDC
:1010E000CDE9060103F0F6FD08900B99084604F0DF
:1010F0002DFC06900C99084604F028FC59460490F3
:10110000584604F023FC0390049904F069FB059011
:10111000069904F065FB0790FFF758FF074600218A
:10112000384604F0CBFB02D1BFA002F005FA3946E5
:10113000584604F00BFC834639460C9804F006FC34
:101140000C9039460B9804F001FC0B90A6480168FE
:10115000A348006804F0FAFB0690A4480168A1487F
:10116000006804F0F3FB0590069904F0C5FC4FF00D
:101170008041079004F0EAFB80469C4801689A4849
:10118000006804F0E3FB0690964801689448006804
:1011900004F0DCFB0590069904F022FB4FF080413F
:1011A000079004F0D3FB814690480168006804F082
:1011B000CDFB07908C480168006804F0C7FB0590E0
:1011C00088480168006804F0C1FB03908448016806
:1011D000006804F0BBFB0290039904F08DFC0490BE
:1011E000059904F089FC0690079904F0F9FA824603
:1011F00049460B9804F0AAFB514607900C9804F05E
:10120000A5FB0690079904F077FC04465146584622
:1012100004F09CFB414607900B9804F097FB069066
:10122000079904F069FC054641460C9804F08EFBD2
:1012300049460790584604F089FB0690079904F048
:101240005BFC06467B49204604F080FB07906C4817
:101250000168079804F0C4FA69490860754928468E
:1012600004F074FB079067480168079804F0B8FA27
:10127000644908606F49304604F068FB0790624893
:101280000168079804F0ACFA5F49086021464FF006
:10129000804004F05BFB06900A9904F0A1FA0790E5
:1012A00057480168079804F09BFA0A9029464FF0C6
:1012B000804004F04BFB0690099904F091FA0790E6
:1012C00050480168079804F08BFA099031464FF0B6
:1012D000804004F03BFB0690089904F081FA0790E7
:1012E00049480168079804F07BFA0890FFF73FFE31
:1012F000494908600846006804F046FA00224E4B4F
:10130000CDE9040103F066FFCDE9060103F0E2FC3C
:101310004A49086035480899006804F017FB0590B1
:1013200031480999006804F011FB03902D480068CA
:1013300080F0004001900A9904F008FB02900399A4
:1013400004F0DAFB0490059904F0D6FB06903B48C4
:101350000168069804F0FAFA079021480168079896
:1013600004F03EFA1E49086020480999006804F01C
:10137000EDFA05901C480899006804F0E7FA03901C
:1013800017480A99006804F0E1FA0290039904F002
:1013900027FA0490059904F0AFFB069027480168EE
:1013A000069804F0D3FA07900E480168079804F0F5
:1013B00017FA0C4908600D480A99006804F0C6FA4B
:1013C000059008480899006804F0C0FA03900448A2
:1013D0000999006804F0BAFA029031E0DF59375FEA
:1013E000880000208C000020900000209400002045
:1013F000B4000020B8000020BC000020C000002085
:10140000980000209C000020A0000020A8000020E0
:10141000AC000020B0000020D00000201F85EB5160
:10142000B81E094000806640204552524F5220208D
:10143000000000000AD7A33B0000E03FA40000200A
:10144000039904F059FB0490059904F0C9F906903A
:101450008D480168069804F079FA07908B48016876
:10146000079804F0BDF98949086088480A9900681E
:1014700004F06CFA059086480999006804F066FA51
:10148000039084480899006804F060FA0290039978
:1014900004F0A6F90490059904F02EFB06907A4812
:1014A0000168069804F052FA07907B480168079893
:1014B00004F096F97849086008460168006804F06D
:1014C00045FA069071480168006804F03FFA0490FC
:1014D0006F480168006804F039FA02906D480168AD
:1014E000006804F033FA0190029904F079F903904E
:1014F000049904F075F90590069904F071F90790C4
:10150000FFF764FD074639466248006804F01EFA9A
:101510006049086039465E48006804F017FA5C4983
:10152000086039465948006804F010FA57490860C5
:1015300039465948006804F009FA574908600DB067
:10154000BDE8F00F5DF814FB2DE9FE4F4F48016830
:101550005048006804F0FAF981464F4801684C4849
:10156000006804F0F3F98246494604F0C5FA0446DF
:1015700004F00AF9074600224FF0804303F02AFEE8
:10158000054603F0A7FB0290414801684148006806
:1015900004F0DCF98146404801683C48006804F0EA
:1015A000D5F98246494604F01BF9044604F0ECF8EC
:1015B000074600224FF0804303F00CFE054603F07F
:1015C00089FB019034480168006804F0BFF90646C1
:1015D0002E480168006804F0B9F907462C480168F4
:1015E000006804F0B3F980462A480168006804F0F6
:1015F000ADF98146414604F07FFA0546394604F0CC
:101600007BFA0446314604F0EBF80090009804F0B1
:10161000BBF882468B46019804F0B6F8064652465F
:101620005B4603F05BFA04464FF066321B4B03F057
:10163000D1FD804603F04EFB19498860029804F002
:10164000A3F8804603F002F881F0004106464FF00F
:101650006632124B03F0BEFD044603F03BFB10491B
:101660000860BDE8FE8F1CB5FFF70DFC0D49D1E900
:101670000101CDE900010B4803680B4807C8FFF7DB
:10168000EEFCFFF761FF1CBDA400002090000020CD
:101690008C000020880000209400002066A64C40AA
:1016A00030010020240100201801002010B56FF047
:1016B000040000F090FA2E4800682E49B0FBF1F0CB
:1016C0002D4908700846007800EB4001C1EBC010BE
:1016D0004FF6FF7101EAC0002849088010BD01469D
:1016E000254A12784A434FF0E0235A6100229A615A
:1016F0001A46126942F001021A6100BF4FF0E0225F
:10170000106900F001021AB100F48032002AF5D00D
:101710004FF0E022126922F001024FF0E0231A613B
:1017200000229A6170470146144A12884A434FF0DA
:10173000E0235A6100229A611A46126942F00102BE
:101740001A6100BF4FF0E022106900F001021AB1E7
:1017500000F48032002AF5D04FF0E022126922F026
:1017600001024FF0E0231A6100229A6170470000E5
:101770005000002000127A00D8000020DA0000207B
:1017800010B54FF4A06000F0D7F910BD10B586B0C9
:1017900004460121082000F059FD0121880400F0D1
:1017A00062FD334800F0B6FD4FF48060ADF81400E0
:1017B00003208DF8160018208DF8170005A92D4874
:1017C00000F088FA4FF40060ADF8140004208DF8A2
:1017D000170005A9274800F07DFA01940020ADF814
:1017E0000800ADF80A00ADF80C00ADF810000C20B0
:1017F000ADF80E0001A91E4800F0CFFD27208DF89E
:10180000000003208DF801008DF8020001208DF802
:101810000300684600F095F9012240F22551144872
:1018200000F053FE4021124800F02BFF0121104828
:1018300000F03FFE06B010BD10B540F225510C4837
:1018400000F028FF90B10A4800F0A4FEC4B20A4894
:101850000A490988445409480088401C07490880FF
:1018600008460088C72801DD0020088010BD000060
:1018700000480040000C01403C010020DC0000203A
:1018800010B586B004460121042000F0DFFC0121E0
:10189000480400F0E8FC414800F03CFD0420ADF8AD
:1018A000140003208DF8160018208DF8170005A9E4
:1018B0003B4800F00FFA0820ADF8140004208DF822
:1018C000170005A9364800F005FA01940020ADF88C
:1018D0000800ADF80A00ADF80C00ADF810000C20BF
:1018E000ADF80E0001A92D4800F057FD26208DF817
:1018F000000003208DF801008DF8020001208DF812
:101900000300684600F01DF9012240F225512348EA
:1019100000F0DBFD0121214800F0CBFD06B010BD39
:1019200010B540F225511D4800F0B4FE10B31B481D
:1019300000F030FEC4B21B48008800F40040C8B973
:101940001848008800F4804060B10A2C03D00020C1
:101950001449088020E01348008840F400401149F1
:10196000088019E00D2C06D10E48008840F4804014
:101970000C49088010E00B480088C0F30D000A49AC
:101980000C5408480088401C064908800846008816
:10199000C72801DD0020088010BD00000044004081
:1019A00000080140DE00002004020020014600BFC4
:1019B000704700BF4B4A128802F04002002AF9D05B
:1019C000C2B2484B1B1D1A80704710B586B0044642
:1019D000012144F2040000F039FC434800F09AFC75
:1019E0004FF40070ADF8140003208DF81600182095
:1019F0008DF8170005A93D4800F06CF94FF48060A0
:101A0000ADF8140004208DF8170005A9374800F040
:101A100061F925208DF8000003208DF801008DF874
:101A2000020001208DF80300684600F08AF8019456
:101A30000020ADF80800ADF80A00ADF80C00ADF8D4
:101A400010000C20ADF80E0001A9274800F0A5FCFD
:101A5000012240F22551244800F037FD012122489F
:101A600000F027FD06B010BD10B540F225511E480C
:101A700000F010FE10B31C4800F08CFDC4B21C48EE
:101A8000008800F40040C8B91948008800F480407C
:101A900060B10A2C03D000201549088020E01448CA
:101AA000008840F400401249088019E00D2C06D14E
:101AB0000F48008840F480400D49088010E00C4831
:101AC0000088C0F30D000B490C5409480088401CE5
:101AD0000749088008460088C72801DD00200880E3
:101AE00010BD0000004400400038014000080140E3
:101AF000E4000020CC020020094880470948004744
:101B0000FEE7FEE7FEE7FEE7FEE7FEE7FEE7FEE7AD
:101B1000FEE7FEE704480549054A064B704700000A
:101B20007F07000831010008F8030020F8090020B1
:101B3000F8050020F805002031490143314A1160C1
:101B4000704770B5002100230F22C47804B32D4CD8
:101B5000246804F4E064C4F5E064210AC1F10403DC
:101B6000CA40447804FA03F18478144021430901FF
:101B7000254C0678A155047804F01F050124AC40DB
:101B800005786D11AD0005F1E025C5F8004109E0CB
:101B9000047804F01F050124AC401C4D0678761132
:101BA00045F8264070BD1A4A0A400243154B1B1FD8
:101BB0001A60704739B1134A121D12680243114B63
:101BC0001B1D1A6006E00F4A121D126882430D4B5E
:101BD0001B1D1A607047042808D14FF0E0210969E5
:101BE00041F004014FF0E022116107E04FF0E021E5
:101BF000096921F004014FF0E022116170470000F3
:101C00000000FA050CED00E000E400E080E100E0F7
:101C100080FFFF1F10B50446CC48844208D1012143
:101C2000042000F02DFB0021042000F029FB46E0F9
:101C3000C748844208D10121082000F021FB00217F
:101C4000082000F01DFB3AE0C248844208D101217F
:101C5000102000F015FB0021102000F011FB2EE0F9
:101C6000BD48844208D10121202000F009FB002159
:101C7000202000F005FB22E0B848844208D1012171
:101C8000402000F0FDFA0021402000F0F9FA16E0B3
:101C9000B348844208D10121802000F0F1FA0021EC
:101CA000802000F0EDFA0AE0AE48844207D101211D
:101CB000801500F0E5FA0021A01500F0E1FA10BD52
:101CC00010B50121084600F0DBFA0021012000F0E8
:101CD000D7FA10BD2DE9F04102460025002600206C
:101CE00000230024002791F803C00CF00F0591F8A1
:101CF00003C00CF0100CBCF1000F03D091F802C02F
:101D00004CEA050591F800C0BCF1000F31D0146811
:101D100000202BE04FF0010C0CFA00F3B1F800C0EA
:101D20000CEA03069E4220D183004FF00F0C0CFA00
:101D300003F7BC4305FA03FC4CEA040491F803C022
:101D4000BCF1280F06D14FF0010C0CFA00FCC2F8D0
:101D500014C00AE091F803C0BCF1480F05D14FF060
:101D6000010C0CFA00FCC2F810C0401C0828D1D3AA
:101D70001460B1F800C0BCF1FF0F34DD54680020DE
:101D80002EE000F1080C4FF0010808FA0CF3B1F84E
:101D900000C00CEA03069E4221D183004FF00F0CD5
:101DA0000CFA03F7BC4305FA03FC4CEA040491F86F
:101DB00003C0BCF1280F05D100F1080C08FA0CF89B
:101DC000C2F8148091F803C0BCF1480F07D100F1AC
:101DD000080C4FF0010808FA0CF8C2F81080401CFB
:101DE0000828CED35460BDE8F0814FF6FF71018022
:101DF000022181700421C17070470246002093685F
:101E00000B400BB1012000E00020704701468868BC
:101E100080B2704702460020D3680B400BB101200E
:101E200000E0002070470146C86880B27047016139
:101E30007047416170470AB1016100E0416170473C
:101E4000C16070474FF480320A43826181618261D0
:101E500082698269704702460020434B18684FF63A
:101E60008073184040EA021008433F4B18607047E7
:101E70003E49C8617047F0B50A460023002400219E
:101E8000002500F00046B6F1004F02D1364EF16950
:101E900001E0354E7168C0F3034583B200F440168B
:101EA000B6F5401F08D121F070612F4E766826F0FC
:101EB00070662D4F7E6012E000F48016B6F5801F2C
:101EC00006D1032606FA05F4A14341F0706106E04D
:101ED000460D360103FA06F6B14341F0706122B1B6
:101EE000460D360103FA06F6314300F00046B6F11E
:101EF000004F02D11C4EF16101E01B4E7160F0BD3C
:101F000030B500228B071C0F0F2303FA04F2164B87
:101F100008338C1053F824309343134C08348D103D
:101F200044F8253023468C1053F824308C07240FB6
:101F300000FA04F423430C4C08348D1044F8253087
:101F400030BD0A49DC3108607047000000080140DC
:101F5000000C014000100140001401400018014035
:101F6000001C014000200140000001400000204210
:101F7000DF48006840F00100DD490860084640681D
:101F8000DC490840DA49486008460068DA490840F8
:101F9000D74908600846006820F480200860084699
:101FA000406820F4FE0048604FF41F0088607047CE
:101FB000CF49096821F48031CD4A11601146096882
:101FC00021F480211160B0F5803F03D0B0F5802F5F
:101FD0000ED106E0C649096841F48031C44A116057
:101FE00007E0C349096841F4A021C14A116000E03B
:101FF00000BF00BF704710B501460022002300203B
:102000004A11012A02D1BA4C236806E0022A02D101
:10201000B74C236A01E0B64C636A01F01F02012449
:1020200094401C400CB1012000E0002010BD38B5E8
:10203000002000900024002500BF3120FFF7DBFFC7
:1020400005460098401C00900098B0F5A06F01D0A4
:10205000002DF2D03120FFF7CEFF08B1012400E0BF
:102060000024204638BD01460020A14A106820F017
:10207000F80040EAC10010607047A049086070474E
:10208000024600209A4B586820F47C1042EA010373
:102090001843974B58607047984908667047014647
:1020A0000020934A506820F00300084350607047B6
:1020B0008F48406800F00C007047014600208C4AB1
:1020C000506820F0F000084350607047014600203F
:1020D000874A506820F4E06008435060704701462A
:1020E0000020834A506820F4605040EAC1005060EC
:1020F000704729B17E4A527A02437D4B5A7204E0FE
:102100007B4A527A82437A4B5A7270477B49D83164
:102110000860704701460020754A506820F440402E
:102120000843506070470021714A20321170704A94
:1021300082F82010012802D004280AD104E00121ED
:102140006B4A2032117005E00521694A2032117076
:1021500000E000BF00BF70476949086070476449EC
:10216000096A0143624A116270476549443908604F
:10217000704730B500210022002400235C4D6D68BB
:1021800005F00C0121B1042905D0082923D105E06F
:102190005C4D056022E05B4D05601FE0544D6D68AD
:1021A00005F47012524D6D6805F48034022505EB7C
:1021B00092421CB9544D554305600BE04C4D6D687F
:1021C00005F400351DB1504D5543056002E04D4DFD
:1021D0005543056002E04B4D056000BF00BF444D14
:1021E0006D6805F0F0010909484D6B5C0568DD403C
:1021F00045603F4D6D6805F4E061090A434D6B5C35
:102200004568DD4085603A4D6D6805F46051C90A46
:102210003E4D6B5C4568DD40C560354D6D6805F42D
:102220004041890B3A4D6B5CC568B5FBF3F5056120
:1022300030BD29B12E4A526902432D4B5A6104E048
:102240002B4A526982432A4B5A61704729B1284A66
:1022500092690243264B9A6104E0254A92698243BF
:10226000234B9A61704729B1214AD2690243204B1E
:10227000DA6104E01E4AD26982431D4BDA6170477D
:1022800029B11B4AD2680243194BDA6004E0184AAC
:10229000D2688243164BDA60704729B1144A12693A
:1022A0000243134B1A6104E0114A12698243104B36
:1022B0001A61704712494039086070470F49C86475
:1022C00070470B49C87170470948406A40F08070F8
:1022D00007494862704701460020054A92680A4053
:1022E0000AB1012000E00020704701498872704760
:1022F000001002400000FFF8FFFFF6FE000042421F
:102300008004424200127A0000093D00E6000020ED
:10231000F600002010B50446FB48844209D1012193
:102320008803FFF7ADFF00214FF48040FFF7A8FFBF
:1023300032E0F648844209D101214804FFF7ADFF9D
:1023400000214FF40030FFF7A8FF25E0F048844259
:1023500009D101218804FFF7A0FF00214FF480205C
:10236000FFF79BFF18E0EB48844209D10121C80424
:10237000FFF793FF00214FF40020FFF78EFF0BE0E3
:10238000E548844208D101210805FFF786FF0021B6
:102390004FF48010FFF781FF10BD2DE9F04786B0A4
:1023A00005460E460024A24600BFA1460027B0897C
:1023B00000B100BF2F462C8A4CF6FF700440F08815
:1023C00004432C82AC894EF6F3100440B088318966
:1023D0000843718908430443AC81AC8A4FF6FF403F
:1023E0000440B0890443AC8201A8FFF7C2FEC6488E
:1023F000874202D1DDF810A001E0DDF80CA0A88929
:1024000000F4004040B10AEBCA0000EB0A1031684A
:102410004900B0FBF1F807E00AEBCA0000EB0A1034
:1024200031688900B0FBF1F86420B8FBF0F00401DA
:102430002009642101FB1089A88900F4004040B103
:10244000322000EBC900B0FBF1F000F007000443BC
:1024500008E0322000EB09106421B0FBF1F000F03D
:102460000F0004432C8106B0BDE8F0874FF41651ED
:10247000016000218180C18001810C214181002106
:102480008181704710B502460020108A4FF2FF0389
:1024900018400B884C8823438C882343CC882343E3
:1024A0001843108210BD0021018041808180C180CD
:1024B000704721B1828942F40052828104E082890E
:1024C0004DF6FF731A4082817047F0B50346002431
:1024D00000260025002040F66A17B94200D100BF4F
:1024E0001846C1F3421401F01F06012707FA06F54A
:1024F000012C01D10C3004E0022C01D1103000E09D
:1025000014301AB107682F43076002E00768AF4331
:102510000760F0BD1AB1838A0B43838202E0838A8D
:102520008B4383827047028A4FF6F0731A4002820F
:10253000028A0A430282704782894FF2FF731A406F
:10254000828182890A438281704721B1828942F067
:102550000202828104E082894FF6FD731A40828173
:102560007047028A4FF6DF731A400282028A0A43DA
:102570000282704721B1028A42F48042028204E062
:10258000028A4BF6FF731A4002827047C1F30802B9
:102590008280704701468888C0F3080070478189AF
:1025A00041F0010181817047028BD2B20283028B1C
:1025B00042EA012202837047028B02F47F420283C7
:1025C000028B0A430283704721B1828A42F02002C3
:1025D000828204E0828A4FF6DF731A40828270475B
:1025E00021B1828A42F01002828204E0828A4FF690
:1025F000EF731A408282704721B1828A42F008024A
:10260000828204E0828A4FF6F7731A408282704712
:1026100021B1828942F40042828103E08289C2F3BF
:102620000E028281704721B1828A42F40062828266
:1026300004E0828A4FF2FF731A4082827047828AD6
:102640004FF6FB731A408282828A0A438282704765
:1026500021B1828A42F00202828204E0828A4FF62D
:10266000FD731A408282704702460020B1F5007F58
:1026700000D100BF13880B400BB1012000E0002007
:10268000704701F40072B2F5007F00D100BFCA4369
:102690000280704770B50246002400230025002008
:1026A00040F66A16B14200D100BFC1F3421501F0F5
:1026B0001F03012606FA03F3012D02D19689334048
:1026C00006E0022D02D1168A334001E0968A33409B
:1026D0000C12012606FA04F41688344013B10CB12A
:1026E000012000E0002070BD10B50022002340F65C
:1026F0006A14A14200D100BF0A1201249440A3B27F
:10270000DC43048010BD000000380140004400405C
:1027100000480040004C00400050004010B5044606
:10272000FE48844208D10121C014FFF7A9FD002111
:10273000E014FFF7A5FDC4E0B4F1804F08D10121FA
:102740000846FFF7AAFD00210120FFF7A6FDB8E02B
:10275000F348844208D101210220FFF79EFD0021A9
:102760000220FFF79AFDACE0EE48844208D1012137
:102770000420FFF792FD00210420FFF78EFDA0E06A
:10278000E948844208D101210820FFF786FD002195
:102790000820FFF782FD94E0E448844208D101213B
:1027A0001020FFF77AFD00211020FFF776FD88E06A
:1027B000DF48844208D101212020FFF76EFD00216F
:1027C0002020FFF76AFD7CE0DA48844208D101212D
:1027D0004014FFF755FD00216014FFF751FD70E034
:1027E000D548844209D10121C804FFF749FD0021E1
:1027F0004FF40020FFF744FD63E0D048844209D144
:1028000001210805FFF73CFD00214FF48010FFF780
:1028100037FD56E0CA48844209D101214805FFF737
:102820002FFD00214FF40010FFF72AFD49E0C548B5
:10283000844208D101214020FFF72FFD00214020D4
:10284000FFF72BFD3DE0C048844208D101218020E4
:10285000FFF723FD00218020FFF71FFD31E0BB487B
:10286000844208D101218015FFF717FD0021A01532
:10287000FFF713FD25E0B648844209D10121080481
:10288000FFF7FEFC00214FF48030FFF7F9FC18E061
:10289000B048844209D101214804FFF7F1FC00212E
:1028A0004FF40030FFF7ECFC0BE0AB48844208D15A
:1028B00001218804FFF7E4FC00214FF48020FFF79A
:1028C000DFFC10BD00220288944B98420ED0994B39
:1028D00098420BD0B0F1804F08D0914B984205D070
:1028E000904B984202D0904B984204D14FF68F7390
:1028F0001A404B881A438D4B984207D08C4B984214
:1029000004D04FF6FF431A40CB881A4302808B88CD
:1029100083850B880385814B98420BD0854B984269
:1029200008D08B4B984205D08A4B984202D08A4BF4
:10293000984201D10B7A038601238382704770B5D8
:10294000002400220023058C4FF6FE7635400584D6
:10295000028C8388048B4FF68F752C40B51E2C405B
:102960000D882C43751E2A400D892A434D882A4321
:102970006A4DA8420BD06F4DA84208D0744DA842B2
:1029800005D0744DA84202D0734DA84213D14FF622
:10299000F7752A404D892A434FF6FB752A408D88EA
:1029A0002A434FF6FF652B404FF6FF552B408D898C
:1029B0002B43CD892B4383800483CD888586028475
:1029C00070BD70B5002400220023058C4FF6EF7611
:1029D00035400584028C8388048B48F6FF752C40B3
:1029E0004FF6FF452C400D884FF6FF7606EA052589
:1029F0002C434FF6DF752A400D8906EA05152A4358
:102A00004D8806EA05152A43444DA84202D0494D97
:102A1000A8421DD14FF67F752A404D894FF6FF76AB
:102A200006EA05152A434FF6BF752A408D8806EA47
:102A300005152A434FF6FF352B404FF2FF752B400B
:102A40008D8906EA85052B43CD8906EA85052B434A
:102A500083800483CD880587028470BD70B500240F
:102A600000220023058C4FF6FF6635400584028C5A
:102A70008388848B4FF68F752C404FF6FC752C4065
:102A80000D882C434FF6FF552A400D894FF6FF76EF
:102A900006EA05252A434D8806EA05252A431F4DE7
:102AA000A84202D0234DA8421DD14FF2FF752A4003
:102AB0004D894FF6FF7606EA05252A434FF6FF3586
:102AC0002A408D8806EA05252A434EF6FF752B40DD
:102AD0004DF6FF752B408D8906EA05152B43CD89F0
:102AE00006EA05152B4383808483CD88858702847D
:102AF00070BD70B5002200230024058C4EF6FF76D1
:102B000035400584038C8488828B48F6FF752A4003
:102B10004FF6FF452A400D8820E00000002C0140C0
:102B20000004004000080040000C0040001000407D
:102B30000014004000340140004C014000500140AE
:102B40000054014000180040001C004000200040DC
:102B50000040014000440140004801404FF6FF762C
:102B600006EA05252A434DF6FF752B400D8906EA36
:102B700005352B434D8806EA05352B43FA4DA8420F
:102B800002D0FA4DA84208D14BF6FF752C408D8932
:102B90004FF6FF7606EA85152C4384808283CD8824
:102BA000A0F84050038470BD828B4FF2FF331A406F
:102BB0008283828B4FF6FF7303EA01231A438283D9
:102BC0007047F0B50C461546002200210026078C00
:102BD0004EF6FF7C07EA0C070784828B018C4FF6C8
:102BE000FF7707EA043640F6FF473A404FF6FF7793
:102BF00007EA05273A434FF6FF7707EA03373A43D8
:102C0000D94FB8420ED0D94FB8420BD0B0F1804F57
:102C100008D0D74FB84205D0D64FB84202D0D64FD1
:102C2000B84206D14DF6FF77394046F48057394314
:102C300005E047F6FF57394044F480573943828313
:102C40000184F0BD828B4FF6F3731A408283828B2E
:102C50000A4382837047F0B50C46154600220021D6
:102C60000026078C4FF6FF6C07EA0C070784828B5F
:102C7000018C4FF6FF7707EA04264FF60C773A40AF
:102C80004FF6FF7707EA03172F433A43B64FB84290
:102C90000ED0B64FB8420BD0B0F1804F08D0B44F31
:102CA000B84205D0B34FB84202D0B34FB84206D1B4
:102CB0004FF6FF57394046F48077394305E04FF22D
:102CC000FF57394044F48077394382830184F0BD53
:102CD000028B4FF2FF331A400283028B4FF6FF73D1
:102CE00003EA01231A4302837047F0B50C461546E8
:102CF000002200210026078C4FF6EF7C07EA0C0724
:102D00000784028B018C4FF6FF7707EA041640F622
:102D1000FF473A404FF6FF7707EA03373A434FF64B
:102D2000FF7707EA05273A438F4FB8420ED08F4FFF
:102D3000B8420BD0B0F1804F08D08D4FB84205D0CB
:102D40008C4FB84202D08C4FB84206D14FF6DF7795
:102D5000394046F01007394305E04FF65F773940B8
:102D600044F01007394302830184F0BD028B4FF613
:102D7000F3731A400283028B0A4302837047F0B553
:102D80000C46154600220021068C4FF6FE773E4089
:102D90000684028B018C4FF60C7632407E1C06EACC
:102DA00003162E433243704EB0420ED06F4EB042E7
:102DB0000BD0B0F1804F08D06D4EB04205D06D4EB3
:102DC000B04202D06C4EB04206D14FF6FD76314093
:102DD00044F00106314305E04FF6F576314044F00A
:102DE0000106314302830184F0BD70B505460C46EF
:102DF0005D4885420ED05D4885420BD0B5F1804FCD
:102E000008D05B48854205D05A48854202D05A48CE
:102E1000854200D100E000BF208850B92389A288F4
:102E200061882846FFF7ABFFE1882846FFF79EFF41
:102E300025E0208804280AD12389A28861882846B1
:102E4000FFF753FFE1882846FFF742FF17E020888D
:102E500008280AD12389A28861882846FFF7FBFE4B
:102E6000E1882846FFF7EEFE09E02389A288618801
:102E70002846FFF7A6FEE1882846FFF795FE70BDBD
:102E80002DE9F04105460C4600260127608808B967
:102E9000022600E00026A088012801D1022700E0D8
:102EA00001272088A0B92389A28861882846FFF7D6
:102EB00066FFE1882846FFF759FF23893A463146E5
:102EC0002846FFF712FFE1882846FFF701FF13E0CD
:102ED0002389A28861882846FFF707FFE1882846F2
:102EE000FFF7F6FE23893A4631462846FFF747FFAB
:102EF000E1882846FFF73AFFBDE8F0810A884B8851
:102F00001A438B881A43CB881A430B891A434B897F
:102F10001A438B891A43A0F8442070474FF6FF717B
:102F2000818000210180C1804180017270470021B1
:102F3000018041808180C180018141818181C18185
:102F40007047002101804180012181800021C180E2
:102F5000018170470021018041808180C180018111
:102F60004181818170470000002C01400034014004
:102F70000004004000080040000C004021B102881D
:102F800042F00102028004E002884FF6FE731A400C
:102F90000280704731B1B0F8442042F40042A0F8FA
:102FA000442005E0B0F84420C2F30E02A0F844200B
:102FB00070471AB183890B43838102E083898B4375
:102FC000838170478182704741EA0203A0F848304C
:102FD00070471AB183890B43838102E083898B4355
:102FE0008381704701894FF6F87211400181704763
:102FF0000A46002101894FF68F7319401143018160
:10300000704730B504460D4629462046FFF7F0FFCD
:10301000208940F00700208130BD2DE9F0410446B1
:103020000D4616461F46602D06D13B46012231460D
:103030002046FFF75AFE05E03B4601223146204676
:10304000FFF79DFE29462046FFF7D2FF208940F07A
:1030500007002081BDE8F08130B50C4600210189D0
:10306000C9B24FF6FF7505EA0325154325432943E9
:10307000018130BD2DE9F04105460E4617469846C0
:10308000002443463A4631462846FFF7E5FF2C899F
:103090004FF6F870044044F007044FF68F70044078
:1030A00044F070042C81BDE8F081F0B504460D4673
:1030B00016461F463B46324629462046FFF7CCFFC0
:1030C000208940F480402081F0BD018582827047D4
:1030D0000A46002101884FF68F7319401143018081
:1030E0007047F0B50C4615461E460021002200230D
:1030F0000189028B038C4FF6F877394021434FF654
:10310000FC473A4040F201173A434FF6DD773B4027
:103110004FF6FF7707EA06172F433B4301810283EF
:103120000384F0BD0A460021018B4FF68F731940CE
:103130001143018370470A460021018B48F6FF7353
:1031400019404FF6FF7303EA0223194301837047C6
:103150000A460021818B4FF68F73194011438183FA
:1031600070470A460021818B48F6FF7319404FF6DD
:10317000FF7303EA022319438183704721B1028858
:1031800042F08002028004E002884FF67F731A400A
:103190000280704721B1828842F00402828004E0FC
:1031A00082884FF6FB731A408280704721B1828873
:1031B00042F00802828004E082884FF6F7731A40DA
:1031C0008280704721B1828842F00102828004E04F
:1031D00082884FF6FE731A40828070470A460021AB
:1031E000018B4FF6F77319401143018370470A466C
:1031F0000021018B4FF2FF7319404FF6FF7303EA72
:1032000002231943018370470A460021818B4FF640
:10321000F77319401143818370470A460021818B5F
:103220004FF2FF7319404FF6FF7303EA022319436D
:10323000818370470A460021018B4FF6FB731940CA
:103240001143018370470A460021018B4FF6FF337B
:1032500019404FF6FF7303EA0223194301837047B5
:103260000A460021818B4FF6FB731940114381837D
:1032700070470A460021818B4FF6FF3319404FF605
:10328000FF7303EA02231943818370470A46002132
:10329000018B4FF67F7319401143018370470A4633
:1032A0000021018BC1F30E014FF6FF7303EA0223E5
:1032B0001943018370470A460021818B4FF67F73C3
:1032C00019401143818370470A460021818BC1F365
:1032D0000E014FF6FF7303EA0223194381837047FF
:1032E0000A460021018C4FF6FD73194011430184F9
:1032F00070470A460021018C4FF6F77319401143BD
:10330000018470470A460021018C4FF6DF73194093
:103310004FF6FF7303EA02131943018470470A460C
:103320000021018C4FF67F7319404FF6FF7303EABB
:1033300002131943018470470A460021018C4FF69D
:10334000FF5319404FF6FF7303EA02231943018428
:1033500070470A460021018C4FF2FF7319404FF667
:10336000FF7303EA02231943018470470A460021D0
:10337000018C4DF6FF7319404FF6FF7303EA0233D9
:1033800019430184704730B5002301248C40A3B257
:10339000048C9C430484048C02FA01F5ADB22C43E6
:1033A000048430BD30B5002304248C40A3B2048CC7
:1033B0009C430484048C02FA01F5ADB22C430484CE
:1033C00030BD70B503460020002418461830012592
:1033D0008D40ACB21D8CA5431D8409B1082909D1CB
:1033E00000EB6100056825F0700505600568154370
:1033F00005600EE00D1FC5F34E052844056825F451
:10340000E045056005684FF6FF7606EA022635437B
:10341000056070BD21B1028842F00202028004E022
:1034200002884FF6FD731A400280704721B102886E
:1034300042F00402028004E002884FF6FB731A4057
:103440000280704721B1828842F08002828004E0CD
:1034500082884FF67F731A408280704702884FF649
:10346000F7731A40028002880A43028070478288FC
:103470004FF68F731A40828082880A438280704799
:1034800002894FF6F8731A40028102890A430281C9
:10349000704702894FF67F731A40028102890A43FE
:1034A00002817047818470478185704781867047AB
:1034B0000187704781877047A0F8401070470288E5
:1034C0004FF6FF431A40028002880A430280704789
:1034D0000146888E70470146088F70470146888FE5
:1034E00070470146B1F8400070470146888C70472C
:1034F0000146088D704702460020138A0B400BB12D
:10350000012000E000207047CA430282704730B5B6
:103510000246002000230024158A05EA010395894C
:1035200005EA010413B10CB1012000E0002030BD18
:10353000CA430282704770470FB4044910B503AA0A
:10354000029800F0A9FA10BC5DF814FBE00000201E
:103550002DE9F0474FF0000A89460446C0F820A044
:103560002046E1688847002876D0252806D0D4E98F
:1035700001219047206A401C2062F1E7E168204663
:1035800000258847C4F81CA006460027C4F818A0E8
:103590002A2E09D0304601F051F838B304EB8708E1
:1035A000303EC8F8186019E059F8041B204604EBB7
:1035B00087029161E1688847012F064618D1E069CA
:1035C000002820DA25F020051DE0D8F8180000EBCF
:1035D000800006EB40003038C8F818002046E1684B
:1035E0008847064601F02AF80028EED1012F0AD0BC
:1035F0002E2E08D12046E16888477F1C0646022F00
:1036000045F02005C4DBA069002803DA404245F0FC
:103610000105A061E80701D025F01005B6B1A6F1BB
:103620004100192802D8203645F400654A46314643
:10363000204625604D46FCF7B5FD58B1012806D05F
:10364000ED1D25F0070000F1080989E704E005F108
:10365000040985E730468AE7206ABDE8F0877047AD
:1036600070477047704710B500F02CFA006810BD25
:1036700010B5044600F026FA046010BD70472DE92D
:10368000FF4F0C461E464FF0FF378BB0D2E90001CA
:10369000DDF860800A908A46C1F30A5505B93D46B7
:1036A000002108464FF00000BAF1000F00F440007E
:1036B00005DA00EB80004FF4400101EA50004FEAC8
:1036C0009059B9F1010F00DDB9460A9850EA4A0055
:1036D0000ED044F61050A5F2FF3545432F14B8F133
:1036E000000F1ED07542291E1EDDC9F100021CE02C
:1036F000B8F1010F4FF0000001D0302103E0F24398
:1037000005E02154401CB042FBDB30460022002182
:1037100021540B99C1F80880C1E900200FB0BDE821
:10372000F08FBD1B6D1CDEE74A4600DA694206A831
:1037300000F06AFA06AB93E8070003AB83E80700E2
:1037400050460A9900F042FB8DE80700A0F50050B2
:103750001F3800900398002D09DD42F21F014A46F0
:10376000084403A90390684600F0A1FD08E0A0F515
:1037700000504A461F3803A90390684600F0ABFD8D
:103780008DE807000004000C03D04FF0FF30410823
:1037900000E01046B8F1000F03D000220092154659
:1037A0001EE0751E05D400F091F9303262556D1E91
:1037B000F9D5B3460122084302D000227F1C04E061
:1037C0002078302801D100227F1E002A099786D058
:1037D0001DE0112D07DA00F079F9303262556D1CC9
:1037E00050EA0102F5D1084302D00098C8B10EE0BA
:1037F0000021681E05E0235C625C63542254401E75
:10380000491C8142F7DBAB46A81B401E09900020F3
:1038100004F80B000B98099AC0F80880C0E9002B47
:103820007CE711264FF0000859E72DE9F04F884654
:103830000446D21D22F0070191B0D1E90001CDE983
:103840000A0100F07EFE02460B98C00F01D02D2029
:1038500007E02068810701D52B2002E0202101EA42
:10386000C000032A099001D0072A05DB0346414620
:10387000204600F089F90BE12078800601D5E06947
:1038800000E00620B8F1650F814606D0B8F1660F5A
:1038900018D0B8F1670F70D131E00020B9F1110FE5
:1038A000009001DB112301E009F101030AAA01A93B
:1038B0000CA8FFF7E4FEDDE90C70002609F1010514
:1038C000834647E001204B4600904FF000470AAA8C
:1038D00001A90CA8FFF7D3FEDDE90DB00C995D46F8
:1038E000002610B909F101000D18B9EB050003D449
:1038F000C0F1FF3609F10105A5EB09002BE0B9F194
:10390000010F01DA4FF001090020B9F1110F009009
:10391000484601DD112300E003460AAA01A90CA8CC
:10392000FFF7ADFEDDE90C704D460026834620789A
:1039300000070AD4AB4500DA5D4601A8012D04DD7D
:10394000411911F8011C302907D04F4502DA17F14F
:10395000040F04DA012082460FE06D1EEEE7002F0F
:1039600002DCED1B3E4403E0781CA84200DD7D1C18
:10397000B81B00F1010A4FF000472078000703D47C
:10398000AA4501DB4FF0FF3A0021B7F1004F0DF1DE
:1039900043088DF8431024D002202B23002F01DA96
:1039A0007F422D230A21021EA0F1010000DC5FB13D
:1039B00097FBF1FC97FBF1F201FB1C7C17460CF125
:1039C000300C08F801CDEEE7A8F101000370218862
:1039D000090501D5452100E06521A0F1010800F8A5
:1039E000011C09980FA9A1EB0807FF1D00B10120D8
:1039F000411901EBEA70A1693844081A401EA06120
:103A00002078C00602D42046AFF30080099828B180
:103A1000D4E901219047206A401C20622078C0062A
:103A200022D52046AFF300801EE0002E04DBB34514
:103A300002DD01A8805D00E03020D4E9012190473B
:103A4000206A401C2062761CAAF101005FEA000A8D
:103A50000AD100F033F8C0680168405CD4E9012164
:103A60009047206A401C2062281EA5F10105DCDC7D
:103A700007E0D4E9012118F8010B9047206A401CA7
:103A80002062381EA7F10107F3DC2046AFF3008067
:103A9000032011B043E60000074B70B50D467B4490
:103AA00000F05FF80446284600F01CF910B14FF012
:103AB000FF3070BD204670BD11DFFFFF004870472A
:103AC000B4030020004870479403002030B5B0F1E3
:103AD0000A024FEA900E71F100034EEA817EB0EBCC
:103AE0000E0061EB91014FEA101E4EEA017E10EBD1
:103AF0000E0041EB11114FEA102E4EEA016E10EB51
:103B00000E0041EB11214FEA104E4EEA014E10EB30
:103B10000E0041EB1141401841F100014FEAD00085
:103B200040EA41704FEAD10110EB80054FEA810471
:103B300044EA907444EB01046D1944EB0404521BF5
:103B4000A3414FF0000348BF0A3200D530BD401CEE
:103B500041F1000130BD000001694A1C0261087892
:103B6000704700B58FB0CDE90131002105910549BD
:103B70007944CDE9031011466846FFF7E9FC0FB020
:103B800000BD0000E5FFFFFF2DE9F0411F460446A0
:103B900003260168072A01F4006004DB08B116A5BA
:103BA00005E016A503E008B115A500E015A521F074
:103BB00010002060A069C01EA0610FB1401EA0616E
:103BC0002046AFF300804FB1D4E901213846904739
:103BD000206A401C2062C01C206206E0206AFAE7CE
:103BE000D4E9012115F8010B9047761EF8D2204642
:103BF000AFF30080BDE8F0814E414E006E616E0073
:103C0000494E4600696E66002DE9F047814616462A
:103C10008AB0334878440DC88DE80D0030487844A8
:103C2000801C03AC0DC884E80D0041F69B300844AD
:103C3000372190FBF1F290FBF1F5A5F1800501FB36
:103C400012041B3C02D56442012000E00020DFF892
:103C500090A080460027FA44AAF1BE0A0DE0E007D2
:103C600009D03246684607EB47010AEB810100F0B4
:103C700032FB8DE8070064107F1C002CEFD1184F39
:103C80007F44AC3F18E0E80714D007EB04100DF1B7
:103C9000180A90E80E008AE80E00C068F04201D1D0
:103CA00098190890324606A903A800F014FB03AB4C
:103CB00083E807006D10641C002DE4D1324669468C
:103CC000B8F1000F03A802D000F0F1FA01E000F013
:103CD00002FBC9E90001C9F808200AB0BDE8F08775
:103CE00044220000007B00F08000704700487047CD
:103CF000940300207546FFF7F9FFAE4605006946BC
:103D0000534620F00700854618B020B5FDF702FFA6
:103D1000BDE820404FF000064FF000074FF00008CC
:103D20004FF0000B21F00701AC46ACE8C009ACE84D
:103D3000C009ACE8C009ACE8C0098D46704704462C
:103D4000AFF300802046FCF747FA00004FF0013C3B
:103D500050F8042B51F8043B9A4221D1A2EB0C03FA
:103D6000934313EACC1317D150F8042B51F8043BBA
:103D70009A4215D1A2EB0C03934313EACC130BD157
:103D800050F8042B51F8043B9A4209D1A2EB0C03E2
:103D9000934313EACC13DBD04FF00000704700BF11
:103DA000D01A01BAB1FA81F101F0180122FA01F03A
:103DB000CB40C1F12001DBB2C0B2C01A2CFA01F332
:103DC000D11A914311EAC311E6D170475FEA400C62
:103DD00008BF91F0000F4FEA8C234FEAC12243EA5B
:103DE00051514FEA1C5018BF00F5F0404FEA300027
:103DF00018BF41F000415FEA6C5C00F02980BCF123
:103E0000FF3F08BF40F080407047130C06BF12040C
:103E10004FF0100C4FF0000C130E04BF12020CF107
:103E2000080C130F04BF12010CF1040C930F04BF14
:103E300092000CF1020CD30F04BF52000CF1010CE4
:103E400011464FF00002A0F11F00A0EB0C007047DC
:103E500011F0004F08BF704731F000413FF4D5AF7B
:103E60000B0C06BF09044FF0100C4FF0000C0B0EAA
:103E700004BF09020CF1080C0B0F04BF09010CF17F
:103E8000040C8B0F04BF89000CF1020CCB0F04BF94
:103E900049000CF1010CCCF12003A0EB0C0022FA3C
:103EA00003F302FA0CF241EA030100F1010070474A
:103EB00020F07F4C80EA030023F07F47ACEB070340
:103EC00003F57C5300F0004003F1FF032DE9804926
:103ED0004FEA154B09B44FEA144325EA0B4E24EA86
:103EE00003480FF2042606EB132749083E785FEAE1
:103EF000320203FB0667C7F5000707FB06F64FEA29
:103F000054374FEAD64606F1020607FB066CCCF1A1
:103F1000005C4FEA1C472CEA074C07FB06F40CFB3D
:103F200006F504EB15464FEA961634BF00204FF015
:103F300000404FEAD13706FB07FC4FEA1C4C0CFB54
:103F40000BF7D21B03FB0CF761EB07010CFB0EF721
:103F5000B0EB074072EB17420CFB08F734BFA2EB43
:103F60000742B2EB074261EB17414FEA0C444FEABC
:103F7000910706FB07FC4FEA1C4C0CFB0BF7B0EB60
:103F8000C74072EB573203FB0CF734BFA2EBC742BA
:103F9000B2EBC74261EB57310CFB0EF7B0EBC70039
:103FA00072EB57720CFB08F734BFA2EBC702B2EBFF
:103FB000C70261EB5771039F4FEA816141EA921199
:103FC00004EBCC044FEAD1374FEA826206FB07FCD0
:103FD00042EA90124FEA80604FEA1C4C0CFB0BF750
:103FE000D21B03FB0CF761EB07010CFB0EF7B0EBE8
:103FF000074072EB17420CFB08F734BFA2EB0742F5
:10400000B2EB074261EB17414FEA8C554FEA91073B
:1040100004EB9C2406FB07FC4FEA1C4C0CFB0BF743
:10402000B0EBC74072EB573203FB0CF734BFA2EB87
:10403000C742B2EBC74261EB57310CFB0EF7B0EB56
:10404000C70072EB57720CFB08F734BFA2EBC70234
:10405000B2EBC70261EB577115EB4C254FEA81615A
:1040600041EA92114FEA82624FEAD13742EA901256
:1040700006FB07FC44F100044FEA80604FEA1C4C49
:104080000CFB0BF7D21B03FB0CF761EB07010CFBDE
:104090000EF7B0EB074072EB17420CFB08F734BF8A
:1040A000A2EB0742B2EB074261EB174115EB1C157F
:1040B0004FEA813141EA92414FEA823242EA90422C
:1040C0004FEA80304FEA0C7644F1000448EA03439B
:1040D0004EEA0B484FF0000EB2EB080C71EB0307F1
:1040E00024BF624639464EEB0E0E4FF0000B00180F
:1040F000524149414BEB0B0BB2EB080C71EB030740
:104100007BF1000B24BF624639464EEB0E0E4FF09A
:10411000000B0018524149414BEB0B0BB2EB080C62
:1041200071EB03077BF1000B24BF624639464EEB6F
:104130000E0E51EA020718BF46F0010616EB0E7686
:1041400055F1000254F1000103D5BDE88901BDE835
:104150000088BDE88901BDE80048B619524141EB2D
:104160000101A3F10103704780807F7E7D7C7B7A13
:104170007978777676757473727171706F6E6E6D13
:104180006C6C6B6A6A6968686766666564646363B9
:1041900062616160605F5F5E5E5D5D5C5C5B5B5A3F
:1041A0005A595958585757565655555554545353AC
:1041B00052525251515050504F4F4F4E4E4D4D4D07
:1041C0004C4C4C4B4B4B4A4A4A4949494848484752
:1041D0004747474646464545454444444443434390
:1041E0004342424242414141002B26D4770021D034
:1041F0001CB54FEA370703B44FF010004FF0100121
:104200004FF000000FBCBDE810400BF1010BBBF1FB
:10421000010F08BF5FEA170722BF12F1010211F177
:1042200001014FF0004143F1000300F0004043EA78
:1042300000007047F9D35708DAE746EA064613F15B
:10424000400F4FEA16461FDD13F1200FDFBF164364
:104250000A46002120335B42C8D0C3F1200746EA5A
:10426000064602FA07F74FEA164646EA0706C3F182
:10427000200722FA03F201FA07F721FA03F14FF0BF
:10428000000342EA0702B1E746EA020646EA0646AA
:104290004FEA164646EA0106BCBF46EA0646360C19
:1042A0004FF000034FF000024FF000019EE72DE9B0
:1042B000C048934630B491E8380007C831EA400C52
:1042C00048BF34EA430C03D5FFF7F2FDFFF78CFF3C
:1042D000F0BCBDE800882DE9C048934630B491E8B1
:1042E000380007C810F0804F08BF13F0804F03D18B
:1042F00000F005F8FFF778FFF0BCBDE8008820F07B
:104300007F4780EA030023F07F4C07EB0C03A3F503
:104310007C5300F00040A3F1FE0392F0000F00F088
:10432000B38095F0000F00F077802DE901494FEA46
:1043300011404FEA144621EA004800FB06FC24EA3B
:10434000064708FB06F607FB08F800FB07F718EB23
:1043500006484CEB164C4FEA124B18EB07484FEA55
:1043600015464CEB174022EA0B4E0BFB06FC25EAE8
:1043700006470EFB06F607FB0EFE0BFB07F71EEBD0
:10438000064E4CEB164C4FF000061EEB074E4CEB66
:10439000174B18EB0B0840F1000018EB0E0B58EB15
:1043A000000840F100008F1A4FF000013CBFC943E4
:1043B000661B14BFB5EB040C00213CBFC943F61BC0
:1043C0004FEA17444EEA8E0E27EA04454FEA1C478F
:1043D00004FB07622CEA074C05FB07F70CFB05F60C
:1043E00004FB0CFC16EB074642EB174216EB0C469F
:1043F00042EB1C421BEB060658EB0202414146EA27
:104400009E0601D5BDE80189B619524141EB010173
:10441000A3F10103BDE801894FEA14454FEA1147B2
:1044200024EA054621EA074C05FB07F406FB07F7DB
:104430000CFB06F105FB0CFC11EB074144EB1744A8
:104440004FEA124711EB0C4144EB1C4422EA074CA3
:1044500005FB07F206FB07F70CFB06F605FB0CFC59
:1044600016EB074642EB174216EB0C4642EB1C4597
:104470006A1854F1000148BF7047B619524141EB28
:104480000101A3F10103704795F0000F37D04FEA07
:1044900011424FEA144721EA024624EA074C02FB84
:1044A00007F106FB07F70CFB06F402FB0CFC14EB10
:1044B000074441EB17414FEA154714EB0C4441EB1D
:1044C0001C4125EA074C02FB07F506FB07F70CFB2E
:1044D00006F602FB0CFC16EB074645EB174516EB00
:1044E0000C4645EB1C42121951F1000148BF7047C0
:1044F000B619524141EB0101A3F1010370474FEAA4
:1045000014454FEA114724EA054621EA074C05FB0A
:1045100007F106FB07F70CFB06F24FF0000605FB60
:104520000CFC12EB074241EB174112EB0C4251EB32
:104530001C4148BF7047921841EB0101A3F10103F0
:104540007047490050EAC12018BF04204A0D18BF27
:1045500040F0010040F2FF72B2EB515F08BF40F043
:104560000200012808BF052070472DE9F0414F1EC9
:1045700000EBC7010446D1E9000115461E4637F09D
:1045800006020DD02A46334600F024FE7F1E04EBBF
:10459000C703D3E9002300F0CFFB37F00602F1D1C7
:1045A000022F25D0042F13D0062F18BFBDE8F081AD
:1045B0002A46334600F00EFED4E90A2300F0BCFB85
:1045C0002A46334600F006FED4E9082300F0B4FB87
:1045D0002A46334600F0FEFDD4E9062300F0ACFB8A
:1045E0002A46334600F0F6FDD4E9042300F0A4FB8C
:1045F0002A46334600F0EEFDD4E9022300F09CFB8E
:104600002A46334600F0E6FDD4E90023BDE8F04138
:1046100000F092BB012201F018BB00F08DBB00221C
:1046200013461046114600F037BC0000024A002035
:10463000110701F00ABB000001FDFFFF30380A2816
:1046400001D2012070470020704700002DE9F04D95
:104650008D4F21F0004A86B005460C46BA452ADB4C
:10466000AAEB070028430AD08848824501DC1AD10A
:10467000CDB106B02846BDE8F04DFFF7CBBF844A68
:10468000844B284600F0A6FD07460E46824A834B1F
:104690002846214600F09EFD06B03A463346BDE866
:1046A000F04D00F049BB0120FEF7E2FF06B0BDE887
:1046B000F04DFFF7B4BF7A48824542DABAF1795F2C
:1046C0000BDA2846FFF73DFF042808BFFFF7AEFFCF
:1046D000284606B02146BDE8F08D2A460B46104616
:1046E00000F078FD834602466E480E460B460621D2
:1046F0007844FFF73AFF5A46334600F06BFD804698
:1047000069488A465A46334604217844FFF72DFF0C
:104710005A46334600F05EFD00223B4600F00CFB9B
:1047200002460B464046514600F0B6FB2A46234659
:1047300000F050FD06B02A462346BDE8F04D00F0DB
:10474000FBBA284624F0004100223D463B4600F0DB
:104750003FFE4FF0FF3201F078FA0646024653481A
:104760000F460B4606217844FFF7FFFE32463B46D4
:1047700000F030FDCDE900014D4832463B460421B2
:104780007844FFF7F2FE32463B4600F023FD00225C
:104790002B4600F0D1FA834602913046394600F0AC
:1047A0005DFA804643480D46504517DCDDE90001BF
:1047B0005A46029B00F070FB42462B4600F00AFD71
:1047C00042462B4600F0B8FA012201F03EFA304A88
:1047D000304B00F0EFFE304A304B4CE04FF0000A17
:1047E00052460B46404600F0A7FACDE90310524668
:1047F0002B461046194600F0EDFC32463B4600F0D1
:10480000E7FDDDE9033200F047FB06460F46DDE930
:1048100000015A46029B00F03FFB834600910122B3
:104820003046394601F011FA194A1A4B00F0D0FD12
:1048300006460F4601224046294601F006FA5A462E
:10484000009B00F0C7FC32463B4600F0B3FE064634
:104850000F4601225046294601F0F7F90E4DDFF8C8
:1048600058802A46434600F0B3FD32463B4600F0EE
:10487000AFFD2A46434600F0ABFD002CD8BF81F0C7
:10488000004106B0BDE8F08D0000F03F0000F07F71
:10489000075C143326A6913C182D4454FB21F93FA4
:1048A0000000E03FFC150000121600008615000015
:1048B0009C1500003333EF3FFB21E93F2DE9F84F12
:1048C00004460D4621F0004000917349814211DCFD
:1048D0007249884201DC06D12CB120462946BDE848
:1048E000F84FFFF797BE6E48002DCCBF6D496E495B
:1048F000BDE8F88F6D49814211DD6D498142D8BF15
:104900004FF0FF366DDD20462946FFF71AFE0428DA
:1049100008BFFFF78BFE20462946BDE8F88F6549A2
:10492000654F25F00045814233DD6449814219DD40
:10493000002632464FF080432046294600F0FCF91D
:1049400080468A4601222046294601F07EF900224F
:104950003B4600F02FFE4246534600F09DFA0446C7
:104960000D463EE001260022BA463B462046294637
:1049700000F0E2F980460F460022534620462946C1
:1049800000F018FE42463B4600F086FA04460D460B
:1049900027E04B4981421BDDDFF828A102260022D7
:1049A00053462046294600F015FC00223B4600F005
:1049B000C3F980460F46002253462046294600F0A0
:1049C000F9FD42463B4600F067FA04460D4608E012
:1049D000032622462B4600203B4900F05DFA0446A0
:1049E0000D4622462B461046194600F0F3FB8B4637
:1049F000824602460B4600F0EDFB0746024633486E
:104A000088460B4606217844FFF7AFFD52465B46C9
:104A100000F0E0FB82462E488B463A46434605218D
:104A20007844FFF7A2FD3A46434600F0D3FB024626
:104A30000B46002E504659460CDA00F07DF922460E
:104A40002B4600F0C7FB01B022462B46BDE8F04FD5
:104A500000F0BEBC00F070F922462B4600F0BAFB15
:104A60001C4A7A4402EBC603D3E9002300F0A2FDFE
:104A700022462B4600F09EFD174A7A4402EBC603FD
:104A8000D3E9002300F0A4FC009A002AB8BF81F00B
:104A90000041BDE8F88F0000000010440000F07FE6
:104AA000182D4454FB21F93FFB21F9BF0000DC3FE6
:104AB0000000203E0000F33F0000F03F0000E63F12
:104AC000008003400000F83F0000F0BF9E1300008C
:104AD0005C130000FA120000C21200002DE9F04D34
:104AE0009446CCF1000423F000464CEA0404524FF3
:104AF00046EAD4749A46884621F00042BC4206D861
:104B0000454240EA050442EAD474BC4204D9BDE8F7
:104B1000F04D6246FFF781BDAAF14055A5F17F65D2
:104B200055EA0C040BD0022404EAAA74434DDFF8C2
:104B300010E144EAD87452EA000B04D00CE0BDE85E
:104B4000F04DFFF7BBBE002C14BF012CBDE8F08D6B
:104B5000022C30D0032C32D056EA0C0B0AD0BE42C5
:104B600020D1BA4209D126F0804622F08042334655
:104B7000114617E000291ADB25E0DFF8C8B0FB4436
:104B8000002C04BFDBE90001BDE8F08D012C02BF61
:104B9000DBE9000181F00041BDE8F08D022C0AD074
:104BA000032C0CD0BA4212D1B8F1000F0BDA234813
:104BB0002549BDE8F08D28462449BDE8F08D2846FA
:104BC0007146BDE8F08D1D482149BDE8F08D921B6E
:104BD00012153C2AC4BF19481D490EDCBAF1000F5A
:104BE000BEBF12F13C0F0020014606DB624600F01A
:104BF00053F921F00041FFF761FE002C08BFBDE82A
:104C0000F08D012C04BF81F00041BDE8F08D114A08
:104C1000114B022C07D000F0CDFC2A46BDE8F04D28
:104C20000A4B00F0C7BC00F0C5FC2A46BDE8F04DB9
:104C3000064B00F0CDBB00000000F07F182D44545F
:104C4000FB2109C056120000FB21F9BFFB210940DE
:104C5000FB21F93F075C143326A6A13C2DE9F04166
:104C600006460F4600F0C0FB04000D4618BF0120A9
:104C7000284320F00040C0F17F6000F1E040C00F09
:104C80000ED0301C18BF0120384320F00040C0F186
:104C90007F6000F1E040C00F04BF0120FEF7E8FC98
:104CA00020462946BDE8F08110B500290AD00878D1
:104CB000002807D005487844FFF748F8002801D0BD
:104CC000002010BD0248784410BD0000DE11000035
:104CD000D611000021F00042A2F16052B2F5801F0F
:104CE00001F0004328BFD2F17F6C0BD95FEA001CB2
:104CF00043EAC20242EB507018BF704728BF20F051
:104D000001007047B2F5801FBCBF184670474FEADC
:104D1000410C1CF5001F02D2084600F0DEBE70B543
:104D200000F002FB00000089FFF7F6BF4FF00040E3
:104D3000A0F580007047000010B591EA030F48BF4E
:104D400083F0004300F13E84841A71EB030C05D21A
:104D5000121943EB0C03001B61EB0C01DFF824E19B
:104D60004FEA1154A4EB135C1EEA430F18BF9EEAEE
:104D7000445F73D023EA0E03DCF1200E21EA0451D4
:104D800043F4801332D322FA0CFE10EB0E0023FA08
:104D90000CFE41EB0E01CCF1200E03FA0EFE10EBDF
:104DA0000E0051F10001B1F5801FCCF1200E32D27E
:104DB00001EB045112FA0EF2BDE8104058BF7047E3
:104DC000401C38BF5FEA420218BF7047002814BF7A
:104DD00020F0010041F100014FEA410313F5001FEB
:104DE00038BF7047A1F1C04100F0ECBA012A43EB93
:104DF0000302ACF1200CDCF11F0E32BF4FF0000EAD
:104E000023FA0CF310EB030041EB0451B4EB115FF8
:104E1000D0D0A1EB045101F5801149085FEA3000C0
:104E200001EB04510ED350F1000038BF12FA0EFE10
:104E300008D1BDE81040C9E7401C38BF5FEA420214
:104E4000CAD1C3E7BDE810404FEA410313F5001F84
:104E500038BF7047A1F1C04100F0B4BA9EEA445F88
:104E600008D011EA5E0FBDE8104004BF01F0004118
:104E700000207047BDE8104070B500F055FA00BF43
:104E800064FBBE3E0000E0FF02494FF0000000F06E
:104E9000AABE00BF0000F87F2DE9C04130B4DFF8A2
:104EA000A0C23CEA111418BF3CEA131400F0EC80D5
:104EB00081EA03051CEA111444EAD57418BF1CEA00
:104EC000131500F0C780A4EB05044FF0004545EA38
:104ED000C12145EAC32341EA505143EA525304F148
:104EE0007F74994204F500344FEAC0204FEAC22291
:104EF00008BF904200F09C804FEA13650FF2401605
:104F0000765D4FEA134506FB05F7C7F1807706FB90
:104F100007F74FEAD737A7FB03687642C8F5803812
:104F2000A7FB06CE38BFA8F1010807FB08E64FF043
:104F3000000EA6FB028CE6FB03CEDCF1000CCEF1EA
:104F4000004E38BFAEF1010EA6FB0C584FF0000723
:104F50004FF00005E6FB0E87A1FB08C6A0FB07CEBD
:104F600016EB0E0645F10005E1FB076515F1E04E75
:104F70007EBFA4F580345FEA46066D4116F18007D6
:104F800045F100054FEA17274FEA066647EA05672D
:104F9000A6F1DE46B6F1805F4FEA15251FD93846E7
:104FA00024F0010C05EBC471BCF1FE6F01EB0C1198
:104FB00002D8F0BCBDE8008124425CBF01F5801E30
:104FC0009EEAC47F02D4F0BCBDE80081244238D4FC
:104FD000F0BCA1F1C041BDE8004100F0F3B94FEAD7
:104FE000D22242EA43524FEAD323A7FB02864FEA7A
:104FF000D02040EA415007FB03661EEA0E0F4FEA3D
:10500000D12105FB026658BFA6EB0056B6EB005651
:105010004FEA520E4EEAC37E18EB0E0E56EB530EBD
:10502000BDD518EB02085E417F1C55F10005B6E7BF
:105030004FF480154FF000074FF000064FF00008C6
:10504000ADE7F0BC4FF0000001F1C04101F00041BC
:10505000BDE8008111EA0C1F0CEA131500D00CE02A
:1050600013EA0C1F00F025804FF00000F0BC81EA2D
:10507000030101F00041BDE80081F0BCBDE8004142
:1050800081EA030100F09EB9F0BCBDE8004170B5B3
:1050900000F04AF9097EFC3E00F007B881EA0301FE
:1050A0004FF0000001F00041704781EA030100F079
:1050B00089B9F0BCBDE800414FF0000021497047BC
:1050C000FFFDFBF9F7F5F4F2F0EEEDEBE9E8E6E4CD
:1050D000E3E1E0DEDDDBDAD8D7D5D4D3D1D0CFCD54
:1050E000CCCBCAC8C7C6C5C4C2C1C0BFBEBDBCBB8D
:1050F000BAB9B8B7B6B5B4B3B2B1B0AFAEADACAB88
:10510000AAA9A8A8A7A6A5A4A3A3A2A1A09F9F9E61
:105110009D9C9C9B9A999998979796959594939313
:10512000929191908F8F8E8E8D8C8C8B8B8A8989AA
:10513000888887878685858484838382828181802D
:105140000000FF070000F87F4FEA41034FEA535386
:10515000A3F58063D3F11E03C8BFD3F1210C0CDD8E
:105160004FF0004242EAC12242EA505232FA03FCB6
:105170008CEAE17CACEBE1707047102BC4BF0020DF
:10518000704703F5787CBCF1FF3F04D06FF000421C
:1051900082EA2100704770B500F0C6F84992248079
:1051A00000207047F2E710F0004248BF4042B0FADA
:1051B00080F310FA03F10AD0C3F11D0303F58063F5
:1051C0004FEA415002EB035202EBD12170474FF0FE
:1051D00000007047DFF848C170B51CEA111E1EBF01
:1051E0001CEA13159EEA0C0F95EA0C0F00F06F8075
:1051F00081EA030423EA4C134EEAD47E21EA4C11DF
:1052000041F4801143F48013AE44A1FB024CA0FB97
:105210000365AEF17F7E361955EB0C05A1FB034CFF
:105220004CF10003A0FB021C16EB0C06654153F188
:105230000003094218BF46F0010613F4007F0BD1AA
:105240004FEA03314FEA0530340341EA155140EA91
:1052500016506FF003020AE04FEAC3214FEAC5205F
:10526000F40241EA555140EA56506FF0020202EB57
:105270002E4201EB025585EACE710AD05FEA440C5A
:1052800018BF24F0004450F1000041F1000120EA71
:10529000D47040F2FE7C624500D270BDA84214BFBB
:1052A0004FF080444FF04044002E08BF0024BEF170
:1052B000806FA8BFA1F1C041BDE8704080F282803C
:1052C0004FF0000001F1C04101F0004170479EEA3B
:1052D0000C0F0CEA131518BF95EA0C0F06D04FF00F
:1052E000000081EA030E0EF0004170BD00F01CF8D2
:1052F0008900013E00F007B800F009B84FEA430CFE
:105300005FEA5C5C08D081EA030100F05BB84FEA19
:10531000410C5FEA5C5CF6D14FF000000149704738
:105320000000FF070000F87F0EF1020E2EF0030EC2
:105330005EF8046B364205D4012A43EB030515F5EC
:10534000001F12D8012841EB010C1CF5001F0CD8DE
:105350000ED14FEAD17C15F5001F0CEB4C0C0CF173
:10536000020C08BF4CEBD37C04E04FF0080C01E0CA
:105370004FEAD37C0CEB4C0526FA05F606F007063F
:10538000B6F1040C06D20EEB860CBDE870404CF072
:10539000010C6047DFE80CF0090B02024FF00041FE
:1053A0004FF00000A1F5002170BD194610460128FC
:1053B00051EB010418BFD4F5001484BF002001F0A4
:1053C000004170BD0808A0F500114FEA3101704797
:1053D00091EA030F10B581F000413FF5B5AC83F0C1
:1053E000004300F0EFB800002DE9F04101F5801C0A
:1053F000BCF5001FC0F2C3804FEA115C21EA0C51DA
:105400000CF1FD0C41F480115FEA5C0C0CF5C07CE2
:1054100001D3400049413DA4890241EA90518702ED
:105420008E0E0A0CA45D04FB04F602FB06F6C6F120
:105430004046A4FB0662F60D46EA422606FB06F449
:10544000A4FB01235242C3F1404338BF5B1EA6FBBD
:1054500002420024E6FB0324D20B42EA4446A6FBA8
:105460000623A1FB02E2A3FB07E4A4184FF000020D
:1054700052F10002E3FB01426442C2F1404E38BFE8
:10548000AEF1010EA6FB04234FF00002E6FB0E3244
:10549000A2FB03464FF00004B61954F10004E2FBEE
:1054A0000264A1FB06E6A4FB07E816EB08064FF032
:1054B000000858F10008E4FB01687642C8F1405842
:1054C00038BFA8F10108A2FB06E4A3FB08E52D19EB
:1054D0004FF0000454F10004E2FB0854A1FB05E680
:1054E000A7FB04E818EB06084FF0000656F100068B
:1054F000E1FB048618F1200556F10006A809A8F181
:105500001B08B10908F03F08B8F10A0F40EA8660AD
:105510001CD901EB0C51BDE8F08100BFFCF5EEE8B1
:10552000E2DDD8D3CFCBC7C3C0BDB9B6B4B1AEAC42
:10553000A9A7A5A3A19F9D9B9A9896959392908FBA
:105540008D8C8B898887868584838281A0FB006807
:1055500000FB01F208EB4208B8EB872807D53418A6
:1055600058EB0104D5D5401C51F10001D1E7341AA4
:1055700078EB0104CDD4401E71F10001C9E75FEA68
:105580004C0C5FEA9C5C0DD105D34FF0000001F09C
:105590000041BDE8F081BDE8F04170B5FFF7C4FE01
:1055A0006DDBFFBEBDE8F0414FF0000000497047E1
:1055B0000000F87F10B591EA030F48BF83F0004365
:1055C0003FF5C2AB841A71EB030C07D212198CF0B1
:1055D000004C43EB0C03001B61EB0C01DFF8A4E172
:1055E0004FEA1154A4EB135C1EEA430F18BF9EEA66
:1055F000445F00F0B08023EA6E03524221EA045176
:10560000C3EB6E0338BF5B1EDCF1200E25D322FAFC
:105610000CFE10EB0E0043FA0CFE41EB0E01CCF138
:10562000200E03FA0EFE10EB0E0051F10001CCF13A
:10563000200E29D412FA0EF201EB0451BDE81040FD
:1056400058BF7047401C1CBFB2F1004F7047002884
:105650000CBF491C20F00100704712EB020E43EB17
:10566000030218BF4FF0010E4EEA4202ACF1200CCB
:10567000DCF11E0E54D943FA0CFE10EB0E0051F172
:10568000FF31CCF11E0ED5D50EF1010E12FA0EFE31
:10569000404141EB010101EB445C5FEA5C5C10D9E5
:1056A00010EBDE7001EB045138BFBEF1004FBDE8D6
:1056B000104018BF704700280CBF491C20F00100A3
:1056C000704730D24FEAD42C11F5001124F4006455
:1056D0001BD0B1FA81F20B3AA41AA41ED2F1200316
:1056E000914030FA03F31943904001EBCC71002C48
:1056F00001EB0451BDE81040A8BF704701F1C04163
:105700004FF0000001F000417047B0FA80F310FA4A
:1057100003F100D110BDE41A173C4805C90AE4E7BB
:1057200001EB045110BD491001EB0451BDE81040DC
:105730004FEA300002E04FF0000170474A0008BF16
:105740000042F8D0B2F5001F28BF704701F00041B9
:105750004FF0000070479EEA445F07D011EA5E0FE9
:10576000BDE8104004BF002100207047BDE8104094
:1057700070B5FFF7D9FD00BF40DFF63E83F0004172
:10578000104670470000E0FF43004FEAD30C4FEA99
:105790003C0C43401FBF40070CF1605113F0FE4F1B
:1057A00070471CF0006F03D100200CF000417047DF
:1057B0000CF0004343EA507010B540EACC0000F012
:1057C00046F900BF000000924FEA0001FFF7FABD62
:1057D0004FF000414FF00000A1F50021704700009C
:1057E00090EA010F48BF81F0004100F18C81421A1C
:1057F0003CBF801A89184FEAD0524FF07F4C1CEA08
:10580000410FA2EBD15318BF9CEA026F00F03B801E
:105810004FF0004C4CEA00204CEA012121FA03FC35
:1058200010EB0C0C1ED202F1FF325FEA1C2040EBA1
:10583000C25038BF70471CF07F0F4FEA400C18BFB2
:10584000BCF17F4F38BF7047C3F12003994008BFB8
:1058500020F00100BCF17F4F38BF7047A0F1C0407D
:1058600000F03BB94FEA3C00000A40EBC25028BFB1
:105870001CF0FF0F4FEA400CE6D018BFBCF17F4F81
:1058800038BF7047EAE79CEA026F05D010EA5C0F68
:1058900008BF00F00040704710B500F0D8F800BF16
:1058A00064FBBE3E401058BFC0F14040491058BF95
:1058B000C1F140418142EFF30080704750EA010C92
:1058C00000F113801CF5000F58BFBCF5000F01D488
:1058D0008842704707D710F5000F58BF11F5000F29
:1058E00015D488427047894270471CF5000F04D5D3
:1058F000BCF5000FF7D5814270474FF0807C1CEB60
:10590000400F38BF1CEB410F01D28142704710B5E8
:1059100000F09DF8922449004FF000504FF0805164
:10592000FFF7C0BFB0FA80F310FA03F2C3F19D0392
:105930000AD0D90501EB1220530638BF704700F199
:10594000010008BF20F00100704700004FF47F0CF9
:105950001CEAD0121EBF1CEAD11392EA0C0F93EA84
:105960000C0F00F0478090EA010F48BF42F48072AC
:105970004FF0004C4CEA00204CEA012102EB0302FC
:10598000A0FB0113A2F50002002918BF43F0010398
:105990005B0028BF4FEA330342EB22425FEA132C3D
:1059A0004CEBC2502EBFBCEB436FB2F57C0F70477F
:1059B0004FEA036CBCF1004F08BF20F00100B2F5C4
:1059C0007C0F38BF70470BD582F0FF0212F5803F85
:1059D000C8BF704700F1C040D8BF00F0004070471A
:1059E00000F5000C5FEA4C0C48BF7047B0F1C040B6
:1059F00000F073B890EA010F0CEAD11348BF42F4EB
:105A00008072624538BF634504D280EA010000F02D
:105A10000040704710B500F01AF800BF8900013E41
:105A200000F007B800F009B85FEA410C5FEA1C6CAF
:105A300008D080EA010000F050B85FEA400C5FEA4D
:105A40001C6CF6D14FF00040A0F5800070470EF1BD
:105A5000020E2EF0030E5EF8044B244204D44FEAEB
:105A60004102B2F17F4F11D84FEA4003B3F17F4FAB
:105A70000CD80ED14FEAD07CB2F17F4F0CEB4C0C1E
:105A80000CF1020C08BF4CEBD17C04E04FF0080C89
:105A900001E04FEAD17C0CEB4C0324FA03F404F050
:105AA0000704B4F1040C06D20EEB840CBDE81040E0
:105AB0004CF0010C6047DFE80CF0070802024FF0E1
:105AC0000040A0F5800010BD0846420018BFD2F18A
:105AD000807288BF00F0004010BDFF2141EAD05025
